{"contracts/election.sol":{"Voting":{"abi":[{"inputs":[{"internalType":"string","name":"_name","type":"string"},{"internalType":"uint256","name":"_votingDuration","type":"uint256"}],"stateMutability":"nonpayable","type":"constructor"},{"anonymous":false,"inputs":[{"indexed":false,"internalType":"uint256","name":"candidateId","type":"uint256"},{"indexed":false,"internalType":"string","name":"name","type":"string"}],"name":"CandidateAdded","type":"event"},{"anonymous":false,"inputs":[{"indexed":false,"internalType":"uint256","name":"timestamp","type":"uint256"}],"name":"ElectionClosed","type":"event"},{"anonymous":false,"inputs":[{"indexed":false,"internalType":"address","name":"voter","type":"address"},{"indexed":false,"internalType":"uint256","name":"candidateId","type":"uint256"}],"name":"VoteCast","type":"event"},{"anonymous":false,"inputs":[{"indexed":false,"internalType":"address","name":"voter","type":"address"}],"name":"VoterAuthorized","type":"event"},{"anonymous":false,"inputs":[{"indexed":false,"internalType":"address","name":"voter","type":"address"}],"name":"VoterUnauthorized","type":"event"},{"anonymous":false,"inputs":[{"indexed":false,"internalType":"string","name":"winnerName","type":"string"},{"indexed":false,"internalType":"uint256","name":"winnerVotes","type":"uint256"},{"indexed":false,"internalType":"uint256","name":"totalVotes","type":"uint256"},{"indexed":false,"internalType":"uint256","name":"timestamp","type":"uint256"}],"name":"WinnerAnnounced","type":"event"},{"inputs":[{"internalType":"string","name":"_name","type":"string"}],"name":"addCandidate","outputs":[],"stateMutability":"nonpayable","type":"function"},{"inputs":[],"name":"announceWinner","outputs":[{"internalType":"string","name":"","type":"string"}],"stateMutability":"nonpayable","type":"function"},{"inputs":[{"internalType":"address","name":"_person","type":"address"}],"name":"authorize","outputs":[],"stateMutability":"nonpayable","type":"function"},{"inputs":[],"name":"candidateCount","outputs":[{"internalType":"uint256","name":"","type":"uint256"}],"stateMutability":"view","type":"function"},{"inputs":[{"internalType":"uint256","name":"","type":"uint256"}],"name":"candidates","outputs":[{"internalType":"uint256","name":"id","type":"uint256"},{"internalType":"string","name":"name","type":"string"},{"internalType":"uint256","name":"voteCount","type":"uint256"}],"stateMutability":"view","type":"function"},{"inputs":[],"name":"closeElection","outputs":[],"stateMutability":"nonpayable","type":"function"},{"inputs":[],"name":"electionClosed","outputs":[{"internalType":"bool","name":"","type":"bool"}],"stateMutability":"view","type":"function"},{"inputs":[],"name":"electionName","outputs":[{"internalType":"string","name":"","type":"string"}],"stateMutability":"view","type":"function"},{"inputs":[],"name":"end","outputs":[{"internalType":"string","name":"","type":"string"}],"stateMutability":"view","type":"function"},{"inputs":[],"name":"endTime","outputs":[{"internalType":"uint256","name":"","type":"uint256"}],"stateMutability":"view","type":"function"},{"inputs":[],"name":"finalResult","outputs":[{"internalType":"string","name":"winnerName","type":"string"},{"internalType":"uint256","name":"winnerVotes","type":"uint256"},{"internalType":"uint256","name":"totalVotes","type":"uint256"},{"internalType":"uint256","name":"timestamp","type":"uint256"},{"internalType":"bool","name":"announced","type":"bool"}],"stateMutability":"view","type":"function"},{"inputs":[{"internalType":"uint256","name":"_candidateId","type":"uint256"}],"name":"getCandidate","outputs":[{"internalType":"string","name":"","type":"string"},{"internalType":"uint256","name":"","type":"uint256"}],"stateMutability":"view","type":"function"},{"inputs":[],"name":"getDetailedResults","outputs":[{"internalType":"string[]","name":"candidateNames","type":"string[]"},{"internalType":"uint256[]","name":"voteCounts","type":"uint256[]"},{"internalType":"string","name":"winner","type":"string"},{"internalType":"bool","name":"isFinalized","type":"bool"}],"stateMutability":"view","type":"function"},{"inputs":[],"name":"getElectionStatus","outputs":[{"internalType":"bool","name":"","type":"bool"}],"stateMutability":"view","type":"function"},{"inputs":[],"name":"getResults","outputs":[{"internalType":"uint256[]","name":"","type":"uint256[]"}],"stateMutability":"view","type":"function"},{"inputs":[],"name":"owner","outputs":[{"internalType":"address","name":"","type":"address"}],"stateMutability":"view","type":"function"},{"inputs":[],"name":"startTime","outputs":[{"internalType":"uint256","name":"","type":"uint256"}],"stateMutability":"view","type":"function"},{"inputs":[],"name":"totalVotes","outputs":[{"internalType":"uint256","name":"","type":"uint256"}],"stateMutability":"view","type":"function"},{"inputs":[{"internalType":"address","name":"_person","type":"address"}],"name":"unauthorize","outputs":[],"stateMutability":"nonpayable","type":"function"},{"inputs":[{"internalType":"uint256","name":"_candidateId","type":"uint256"}],"name":"vote","outputs":[],"stateMutability":"nonpayable","type":"function"},{"inputs":[{"internalType":"address","name":"","type":"address"}],"name":"voters","outputs":[{"internalType":"bool","name":"authorized","type":"bool"},{"internalType":"bool","name":"voted","type":"bool"},{"internalType":"uint256","name":"vote","type":"uint256"}],"stateMutability":"view","type":"function"}],"evm":{"bytecode":{"linkReferences":{},"object":"60806040523480156200001157600080fd5b5060405162001f1338038062001f13833981016040819052620000349162000093565b600080546001600160a01b031916331790556001620000548382620001fd565b5042600281905562000068908290620002c9565b60035550506004805460ff19169055620002f1565b634e487b7160e01b600052604160045260246000fd5b60008060408385031215620000a757600080fd5b82516001600160401b0380821115620000bf57600080fd5b818501915085601f830112620000d457600080fd5b815181811115620000e957620000e96200007d565b604051601f8201601f19908116603f011681019083821181831017156200011457620001146200007d565b816040528281526020935088848487010111156200013157600080fd5b600091505b8282101562000155578482018401518183018501529083019062000136565b6000928101840192909252509401519395939450505050565b600181811c908216806200018357607f821691505b602082108103620001a457634e487b7160e01b600052602260045260246000fd5b50919050565b601f821115620001f857600081815260208120601f850160051c81016020861015620001d35750805b601f850160051c820191505b81811015620001f457828155600101620001df565b5050505b505050565b81516001600160401b038111156200021957620002196200007d565b62000231816200022a84546200016e565b84620001aa565b602080601f831160018114620002695760008415620002505750858301515b600019600386901b1c1916600185901b178555620001f4565b600085815260208120601f198616915b828110156200029a5788860151825594840194600190910190840162000279565b5085821015620002b95787850151600019600388901b60f8161c191681555b5050505050600190811b01905550565b80820180821115620002eb57634e487b7160e01b600052601160045260246000fd5b92915050565b611c1280620003016000396000f3fe608060405234801561001057600080fd5b50600436106101375760003560e01c80636c6c32d0116100b8578063a9a981a31161007c578063a9a981a3146102b0578063b6a5d7de146102b9578063e2b6006e146102cc578063efbe1c1c146102e4578063f0b37c04146102ec578063f3a8286f146102ff57600080fd5b80636c6c32d01461021b57806378e979251461022357806385e8e7a71461022c5780638da5cb5b14610234578063a3ec138d1461025f57600080fd5b80633477ee2e116100ff5780633477ee2e146101a357806335b8e820146101c5578063462e91ec146101e65780634717f97c146101f95780634c901b991461020e57600080fd5b80630121b93f1461013c5780630d15fd7714610151578063122902a61461016d5780632d8cd096146101855780633197cbb61461019a575b600080fd5b61014f61014a36600461156f565b610318565b005b61015a600d5481565b6040519081526020015b60405180910390f35b61017561055a565b6040519015158152602001610164565b61018d610576565b60405161016491906115d8565b61015a60035481565b6101b66101b136600461156f565b610874565b604051610164939291906115f2565b6101d86101d336600461156f565b61091f565b60405161016492919061161b565b61014f6101f4366004611653565b610a53565b610201610b14565b604051610164919061173f565b6004546101759060ff1681565b61014f610bbc565b61015a60025481565b61018d610cd4565b600054610247906001600160a01b031681565b6040516001600160a01b039091168152602001610164565b61029361026d366004611752565b600a602052600090815260409020805460019091015460ff808316926101009004169083565b604080519315158452911515602084015290820152606001610164565b61015a600c5481565b61014f6102c7366004611752565b610d62565b6102d4610e4e565b604051610164949392919061177b565b61018d6110e3565b61014f6102fa366004611752565b6112ac565b610307611395565b604051610164959493929190611810565b60025442101561036f5760405162461bcd60e51b815260206004820152601a60248201527f566f74696e6720686173206e6f7420737461727465642079657400000000000060448201526064015b60405180910390fd5b6003544211158015610384575060045460ff16155b6103c35760405162461bcd60e51b815260206004820152601060248201526f159bdd1a5b99c81a185cc8195b99195960821b6044820152606401610366565b336000908152600a602052604090205460ff1661041b5760405162461bcd60e51b81526020600482015260166024820152754e6f7420617574686f72697a656420746f20766f746560501b6044820152606401610366565b336000908152600a6020526040902054610100900460ff16156104705760405162461bcd60e51b815260206004820152600d60248201526c105b1c9958591e481d9bdd1959609a1b6044820152606401610366565b6000811180156104825750600c548111155b6104c55760405162461bcd60e51b8152602060048201526014602482015273125b9d985b1a590818d85b991a59185d1948125160621b6044820152606401610366565b336000908152600a60209081526040808320805461ff001916610100178155600101849055838352600b90915281206002018054916105038361185f565b9091555050600d80549060006105188361185f565b909155505060408051338152602081018390527fa36cc2bebb74db33e9f88110a07ef56e1b31b24b4c4f51b54b1664266e29f45b91015b60405180910390a150565b60006003544211158015610571575060045460ff16155b905090565b6000546060906001600160a01b031633146105a35760405162461bcd60e51b815260040161036690611878565b6003544211806105b5575060045460ff165b6106015760405162461bcd60e51b815260206004820152601960248201527f456c656374696f6e206973207374696c6c206f6e676f696e67000000000000006044820152606401610366565b60095460ff16156106545760405162461bcd60e51b815260206004820152601860248201527f57696e6e657220616c726561647920616e6e6f756e63656400000000000000006044820152606401610366565b6000600d54116106965760405162461bcd60e51b815260206004820152600d60248201526c139bc81d9bdd195cc818d85cdd609a1b6044820152606401610366565b604080516020810190915260008082529060015b600c548111610786576000818152600b6020526040902060020154831015610774576000818152600b60205260409020600281015460019091018054919450906106f3906118b9565b80601f016020809104026020016040519081016040528092919081815260200182805461071f906118b9565b801561076c5780601f106107415761010080835404028352916020019161076c565b820191906000526020600020905b81548152906001019060200180831161074f57829003601f168201915b505050505091505b8061077e8161185f565b9150506106aa565b506040805160a08101825282815260208101849052600d5491810191909152426060820152600160808201526005806107bf848261193c565b50602082015160018201556040808301516002830155606083015160038301556080909201516004909101805460ff1916911515919091179055600d5490517fee03e894d531694970055d59446b0d72f846db82d4d20968bc61c11b8090ff7a9161082f918491869142906119fc565b60405180910390a18061084183611443565b61084c600d54611443565b60405160200161085e93929190611a2b565b6040516020818303038152906040529250505090565b600b6020526000908152604090208054600182018054919291610896906118b9565b80601f01602080910402602001604051908101604052809291908181526020018280546108c2906118b9565b801561090f5780601f106108e45761010080835404028352916020019161090f565b820191906000526020600020905b8154815290600101906020018083116108f257829003601f168201915b5050505050908060020154905083565b6060600080831180156109345750600c548311155b6109775760405162461bcd60e51b8152602060048201526014602482015273125b9d985b1a590818d85b991a59185d1948125160621b6044820152606401610366565b6000600b6000858152602001908152602001600020604051806060016040529081600082015481526020016001820180546109b1906118b9565b80601f01602080910402602001604051908101604052809291908181526020018280546109dd906118b9565b8015610a2a5780601f106109ff57610100808354040283529160200191610a2a565b820191906000526020600020905b815481529060010190602001808311610a0d57829003601f168201915b505050505081526020016002820154815250509050806020015181604001519250925050915091565b6000546001600160a01b03163314610a7d5760405162461bcd60e51b815260040161036690611878565b600c8054906000610a8d8361185f565b909155505060408051606081018252600c5480825260208083018581526000848601819052928352600b9091529290208151815591519091906001820190610ad5908261193c565b50604091820151600290910155600c5490517fe83b2a43e7e82d975c8a0a6d2f045153c869e111136a34d1889ab7b598e396a39161054f918490611ad2565b60606000600c5467ffffffffffffffff811115610b3357610b3361163d565b604051908082528060200260200182016040528015610b5c578160200160208202803683370190505b50905060015b600c548111610bb6576000818152600b602052604090206002015482610b89600184611af3565b81518110610b9957610b99611b0c565b602090810291909101015280610bae8161185f565b915050610b62565b50919050565b6000546001600160a01b03163314610be65760405162461bcd60e51b815260040161036690611878565b60045460ff1615610c395760405162461bcd60e51b815260206004820152601760248201527f456c656374696f6e20616c726561647920636c6f7365640000000000000000006044820152606401610366565b600254421015610c8b5760405162461bcd60e51b815260206004820152601c60248201527f456c656374696f6e20686173206e6f74207374617274656420796574000000006044820152606401610366565b6004805460ff191660011790556040517f393c4b8e62f1195313cf17dcf00793c668ddfc35881cd8015559c074f6d61e8390610cca9042815260200190565b60405180910390a1565b60018054610ce1906118b9565b80601f0160208091040260200160405190810160405280929190818152602001828054610d0d906118b9565b8015610d5a5780601f10610d2f57610100808354040283529160200191610d5a565b820191906000526020600020905b815481529060010190602001808311610d3d57829003601f168201915b505050505081565b6000546001600160a01b03163314610d8c5760405162461bcd60e51b815260040161036690611878565b6001600160a01b0381166000908152600a6020526040902054610100900460ff1615610dfa5760405162461bcd60e51b815260206004820152601860248201527f506572736f6e2068617320616c726561647920766f74656400000000000000006044820152606401610366565b6001600160a01b0381166000818152600a6020908152604091829020805460ff1916600117905590519182527f0ca65a9f1f88bd7257ac852d1062853358f81cdc56f9634dcbeed6090f8dfb43910161054f565b60608060606000600c5467ffffffffffffffff811115610e7057610e7061163d565b604051908082528060200260200182016040528015610ea357816020015b6060815260200190600190039081610e8e5790505b509350600c5467ffffffffffffffff811115610ec157610ec161163d565b604051908082528060200260200182016040528015610eea578160200160208202803683370190505b50925060015b600c54811161100e576000818152600b602052604090206001018054610f15906118b9565b80601f0160208091040260200160405190810160405280929190818152602001828054610f41906118b9565b8015610f8e5780601f10610f6357610100808354040283529160200191610f8e565b820191906000526020600020905b815481529060010190602001808311610f7157829003601f168201915b505050505085600183610fa19190611af3565b81518110610fb157610fb1611b0c565b6020026020010181905250600b60008281526020019081526020016000206002015484600183610fe19190611af3565b81518110610ff157610ff1611b0c565b6020908102919091010152806110068161185f565b915050610ef0565b5060095460ff16156110b05760058054611027906118b9565b80601f0160208091040260200160405190810160405280929190818152602001828054611053906118b9565b80156110a05780601f10611075576101008083540402835291602001916110a0565b820191906000526020600020905b81548152906001019060200180831161108357829003601f168201915b50505050509150600190506110dd565b5050604080518082019091526011815270139bdd08185b9b9bdd5b98d959081e595d607a1b602082015260005b90919293565b6000546060906001600160a01b031633146111105760405162461bcd60e51b815260040161036690611878565b600354421180611122575060045460ff165b61116e5760405162461bcd60e51b815260206004820152601f60248201527f566f74696e6720706572696f6420686173206e6f7420656e64656420796574006044820152606401610366565b600d546000036111a0575060408051808201909152600d81526c139bc81d9bdd195cc818d85cdd609a1b602082015290565b604080516020810190915260008082529060015b600c548111611290576000818152600b602052604090206002015483101561127e576000818152600b60205260409020600281015460019091018054919450906111fd906118b9565b80601f0160208091040260200160405190810160405280929190818152602001828054611229906118b9565b80156112765780601f1061124b57610100808354040283529160200191611276565b820191906000526020600020905b81548152906001019060200180831161125957829003601f168201915b505050505091505b806112888161185f565b9150506111b4565b508061129b83611443565b60405160200161085e929190611b22565b6000546001600160a01b031633146112d65760405162461bcd60e51b815260040161036690611878565b6001600160a01b0381166000908152600a6020526040902054610100900460ff16156113445760405162461bcd60e51b815260206004820152601f60248201527f43616e6e6f7420756e617574686f72697a6520616674657220766f74696e67006044820152606401610366565b6001600160a01b0381166000818152600a6020908152604091829020805460ff1916905590519182527fff4a9a6864608d4e5a0cdaa278ed76bde0c55aa397fa160990622b6d3df2037b910161054f565b6005805481906113a4906118b9565b80601f01602080910402602001604051908101604052809291908181526020018280546113d0906118b9565b801561141d5780601f106113f25761010080835404028352916020019161141d565b820191906000526020600020905b81548152906001019060200180831161140057829003601f168201915b505050506001830154600284015460038501546004909501549394919390925060ff1685565b60608160000361146a5750506040805180820190915260018152600360fc1b602082015290565b8160005b8115611494578061147e8161185f565b915061148d9050600a83611b8a565b915061146e565b60008167ffffffffffffffff8111156114af576114af61163d565b6040519080825280601f01601f1916602001820160405280156114d9576020820181803683370190505b509050815b8515611566576114ef600182611af3565b905060006114fe600a88611b8a565b61150990600a611bac565b6115139088611af3565b61151e906030611bc3565b905060008160f81b90508084848151811061153b5761153b611b0c565b60200101906001600160f81b031916908160001a90535061155d600a89611b8a565b975050506114de565b50949350505050565b60006020828403121561158157600080fd5b5035919050565b60005b838110156115a357818101518382015260200161158b565b50506000910152565b600081518084526115c4816020860160208601611588565b601f01601f19169290920160200192915050565b6020815260006115eb60208301846115ac565b9392505050565b83815260606020820152600061160b60608301856115ac565b9050826040830152949350505050565b60408152600061162e60408301856115ac565b90508260208301529392505050565b634e487b7160e01b600052604160045260246000fd5b60006020828403121561166557600080fd5b813567ffffffffffffffff8082111561167d57600080fd5b818401915084601f83011261169157600080fd5b8135818111156116a3576116a361163d565b604051601f8201601f19908116603f011681019083821181831017156116cb576116cb61163d565b816040528281528760208487010111156116e457600080fd5b826020860160208301376000928101602001929092525095945050505050565b600081518084526020808501945080840160005b8381101561173457815187529582019590820190600101611718565b509495945050505050565b6020815260006115eb6020830184611704565b60006020828403121561176457600080fd5b81356001600160a01b03811681146115eb57600080fd5b6000608082016080835280875180835260a08501915060a08160051b86010192506020808a0160005b838110156117d257609f198887030185526117c08683516115ac565b955093820193908201906001016117a4565b5050858403818701525050506117e88187611704565b905082810360408401526117fc81866115ac565b915050821515606083015295945050505050565b60a08152600061182360a08301886115ac565b905085602083015284604083015283606083015282151560808301529695505050505050565b634e487b7160e01b600052601160045260246000fd5b60006001820161187157611871611849565b5060010190565b60208082526021908201527f4f6e6c79206f776e65722063616e2063616c6c20746869732066756e6374696f6040820152603760f91b606082015260800190565b600181811c908216806118cd57607f821691505b602082108103610bb657634e487b7160e01b600052602260045260246000fd5b601f82111561193757600081815260208120601f850160051c810160208610156119145750805b601f850160051c820191505b8181101561193357828155600101611920565b5050505b505050565b815167ffffffffffffffff8111156119565761195661163d565b61196a8161196484546118b9565b846118ed565b602080601f83116001811461199f57600084156119875750858301515b600019600386901b1c1916600185901b178555611933565b600085815260208120601f198616915b828110156119ce578886015182559484019460019091019084016119af565b50858210156119ec5787850151600019600388901b60f8161c191681555b5050505050600190811b01905550565b608081526000611a0f60808301876115ac565b6020830195909552506040810192909252606090910152919050565b70027a32324a1a4a0a6102ba4a72722a91d1607d1b815260008451611a57816011850160208901611588565b650103bb4ba34160d51b6011918401918201528451611a7d816017840160208901611588565b6d0103b37ba32b99037baba1037b3160951b601792909101918201528351611aac816025840160208801611588565b6b20746f74616c20766f74657360a01b6025929091019182015260310195945050505050565b828152604060208201526000611aeb60408301846115ac565b949350505050565b81810381811115611b0657611b06611849565b92915050565b634e487b7160e01b600052603260045260246000fd5b6702bb4b73732b91d160c51b815260008351611b45816008850160208801611588565b650103bb4ba34160d51b6008918401918201528351611b6b81600e840160208801611588565b6520766f74657360d01b600e9290910191820152601401949350505050565b600082611ba757634e487b7160e01b600052601260045260246000fd5b500490565b8082028115828204841417611b0657611b06611849565b60ff8181168382160190811115611b0657611b0661184956fea26469706673582212203d40110d6f4340837097faa2d9c075912e1564f3acb598777341f78d6492cd6964736f6c63430008140033","opcodes":"PUSH1 0x80 PUSH1 0x40 MSTORE CALLVALUE DUP1 ISZERO PUSH3 0x11 JUMPI PUSH1 0x0 DUP1 REVERT JUMPDEST POP PUSH1 0x40 MLOAD PUSH3 0x1F13 CODESIZE SUB DUP1 PUSH3 0x1F13 DUP4 CODECOPY DUP2 ADD PUSH1 0x40 DUP2 SWAP1 MSTORE PUSH3 0x34 SWAP2 PUSH3 0x93 JUMP JUMPDEST PUSH1 0x0 DUP1 SLOAD PUSH1 0x1 PUSH1 0x1 PUSH1 0xA0 SHL SUB NOT AND CALLER OR SWAP1 SSTORE PUSH1 0x1 PUSH3 0x54 DUP4 DUP3 PUSH3 0x1FD JUMP JUMPDEST POP TIMESTAMP PUSH1 0x2 DUP2 SWAP1 SSTORE PUSH3 0x68 SWAP1 DUP3 SWAP1 PUSH3 0x2C9 JUMP JUMPDEST PUSH1 0x3 SSTORE POP POP PUSH1 0x4 DUP1 SLOAD PUSH1 0xFF NOT AND SWAP1 SSTORE PUSH3 0x2F1 JUMP JUMPDEST PUSH4 0x4E487B71 PUSH1 0xE0 SHL PUSH1 0x0 MSTORE PUSH1 0x41 PUSH1 0x4 MSTORE PUSH1 0x24 PUSH1 0x0 REVERT JUMPDEST PUSH1 0x0 DUP1 PUSH1 0x40 DUP4 DUP6 SUB SLT ISZERO PUSH3 0xA7 JUMPI PUSH1 0x0 DUP1 REVERT JUMPDEST DUP3 MLOAD PUSH1 0x1 PUSH1 0x1 PUSH1 0x40 SHL SUB DUP1 DUP3 GT ISZERO PUSH3 0xBF JUMPI PUSH1 0x0 DUP1 REVERT JUMPDEST DUP2 DUP6 ADD SWAP2 POP DUP6 PUSH1 0x1F DUP4 ADD SLT PUSH3 0xD4 JUMPI PUSH1 0x0 DUP1 REVERT JUMPDEST DUP2 MLOAD DUP2 DUP2 GT ISZERO PUSH3 0xE9 JUMPI PUSH3 0xE9 PUSH3 0x7D JUMP JUMPDEST PUSH1 0x40 MLOAD PUSH1 0x1F DUP3 ADD PUSH1 0x1F NOT SWAP1 DUP2 AND PUSH1 0x3F ADD AND DUP2 ADD SWAP1 DUP4 DUP3 GT DUP2 DUP4 LT OR ISZERO PUSH3 0x114 JUMPI PUSH3 0x114 PUSH3 0x7D JUMP JUMPDEST DUP2 PUSH1 0x40 MSTORE DUP3 DUP2 MSTORE PUSH1 0x20 SWAP4 POP DUP9 DUP5 DUP5 DUP8 ADD ADD GT ISZERO PUSH3 0x131 JUMPI PUSH1 0x0 DUP1 REVERT JUMPDEST PUSH1 0x0 SWAP2 POP JUMPDEST DUP3 DUP3 LT ISZERO PUSH3 0x155 JUMPI DUP5 DUP3 ADD DUP5 ADD MLOAD DUP2 DUP4 ADD DUP6 ADD MSTORE SWAP1 DUP4 ADD SWAP1 PUSH3 0x136 JUMP JUMPDEST PUSH1 0x0 SWAP3 DUP2 ADD DUP5 ADD SWAP3 SWAP1 SWAP3 MSTORE POP SWAP5 ADD MLOAD SWAP4 SWAP6 SWAP4 SWAP5 POP POP POP POP JUMP JUMPDEST PUSH1 0x1 DUP2 DUP2 SHR SWAP1 DUP3 AND DUP1 PUSH3 0x183 JUMPI PUSH1 0x7F DUP3 AND SWAP2 POP JUMPDEST PUSH1 0x20 DUP3 LT DUP2 SUB PUSH3 0x1A4 JUMPI PUSH4 0x4E487B71 PUSH1 0xE0 SHL PUSH1 0x0 MSTORE PUSH1 0x22 PUSH1 0x4 MSTORE PUSH1 0x24 PUSH1 0x0 REVERT JUMPDEST POP SWAP2 SWAP1 POP JUMP JUMPDEST PUSH1 0x1F DUP3 GT ISZERO PUSH3 0x1F8 JUMPI PUSH1 0x0 DUP2 DUP2 MSTORE PUSH1 0x20 DUP2 KECCAK256 PUSH1 0x1F DUP6 ADD PUSH1 0x5 SHR DUP2 ADD PUSH1 0x20 DUP7 LT ISZERO PUSH3 0x1D3 JUMPI POP DUP1 JUMPDEST PUSH1 0x1F DUP6 ADD PUSH1 0x5 SHR DUP3 ADD SWAP2 POP JUMPDEST DUP2 DUP2 LT ISZERO PUSH3 0x1F4 JUMPI DUP3 DUP2 SSTORE PUSH1 0x1 ADD PUSH3 0x1DF JUMP JUMPDEST POP POP POP JUMPDEST POP POP POP JUMP JUMPDEST DUP2 MLOAD PUSH1 0x1 PUSH1 0x1 PUSH1 0x40 SHL SUB DUP2 GT ISZERO PUSH3 0x219 JUMPI PUSH3 0x219 PUSH3 0x7D JUMP JUMPDEST PUSH3 0x231 DUP2 PUSH3 0x22A DUP5 SLOAD PUSH3 0x16E JUMP JUMPDEST DUP5 PUSH3 0x1AA JUMP JUMPDEST PUSH1 0x20 DUP1 PUSH1 0x1F DUP4 GT PUSH1 0x1 DUP2 EQ PUSH3 0x269 JUMPI PUSH1 0x0 DUP5 ISZERO PUSH3 0x250 JUMPI POP DUP6 DUP4 ADD MLOAD JUMPDEST PUSH1 0x0 NOT PUSH1 0x3 DUP7 SWAP1 SHL SHR NOT AND PUSH1 0x1 DUP6 SWAP1 SHL OR DUP6 SSTORE PUSH3 0x1F4 JUMP JUMPDEST PUSH1 0x0 DUP6 DUP2 MSTORE PUSH1 0x20 DUP2 KECCAK256 PUSH1 0x1F NOT DUP7 AND SWAP2 JUMPDEST DUP3 DUP2 LT ISZERO PUSH3 0x29A JUMPI DUP9 DUP7 ADD MLOAD DUP3 SSTORE SWAP5 DUP5 ADD SWAP5 PUSH1 0x1 SWAP1 SWAP2 ADD SWAP1 DUP5 ADD PUSH3 0x279 JUMP JUMPDEST POP DUP6 DUP3 LT ISZERO PUSH3 0x2B9 JUMPI DUP8 DUP6 ADD MLOAD PUSH1 0x0 NOT PUSH1 0x3 DUP9 SWAP1 SHL PUSH1 0xF8 AND SHR NOT AND DUP2 SSTORE JUMPDEST POP POP POP POP POP PUSH1 0x1 SWAP1 DUP2 SHL ADD SWAP1 SSTORE POP JUMP JUMPDEST DUP1 DUP3 ADD DUP1 DUP3 GT ISZERO PUSH3 0x2EB JUMPI PUSH4 0x4E487B71 PUSH1 0xE0 SHL PUSH1 0x0 MSTORE PUSH1 0x11 PUSH1 0x4 MSTORE PUSH1 0x24 PUSH1 0x0 REVERT JUMPDEST SWAP3 SWAP2 POP POP JUMP JUMPDEST PUSH2 0x1C12 DUP1 PUSH3 0x301 PUSH1 0x0 CODECOPY PUSH1 0x0 RETURN INVALID PUSH1 0x80 PUSH1 0x40 MSTORE CALLVALUE DUP1 ISZERO PUSH2 0x10 JUMPI PUSH1 0x0 DUP1 REVERT JUMPDEST POP PUSH1 0x4 CALLDATASIZE LT PUSH2 0x137 JUMPI PUSH1 0x0 CALLDATALOAD PUSH1 0xE0 SHR DUP1 PUSH4 0x6C6C32D0 GT PUSH2 0xB8 JUMPI DUP1 PUSH4 0xA9A981A3 GT PUSH2 0x7C JUMPI DUP1 PUSH4 0xA9A981A3 EQ PUSH2 0x2B0 JUMPI DUP1 PUSH4 0xB6A5D7DE EQ PUSH2 0x2B9 JUMPI DUP1 PUSH4 0xE2B6006E EQ PUSH2 0x2CC JUMPI DUP1 PUSH4 0xEFBE1C1C EQ PUSH2 0x2E4 JUMPI DUP1 PUSH4 0xF0B37C04 EQ PUSH2 0x2EC JUMPI DUP1 PUSH4 0xF3A8286F EQ PUSH2 0x2FF JUMPI PUSH1 0x0 DUP1 REVERT JUMPDEST DUP1 PUSH4 0x6C6C32D0 EQ PUSH2 0x21B JUMPI DUP1 PUSH4 0x78E97925 EQ PUSH2 0x223 JUMPI DUP1 PUSH4 0x85E8E7A7 EQ PUSH2 0x22C JUMPI DUP1 PUSH4 0x8DA5CB5B EQ PUSH2 0x234 JUMPI DUP1 PUSH4 0xA3EC138D EQ PUSH2 0x25F JUMPI PUSH1 0x0 DUP1 REVERT JUMPDEST DUP1 PUSH4 0x3477EE2E GT PUSH2 0xFF JUMPI DUP1 PUSH4 0x3477EE2E EQ PUSH2 0x1A3 JUMPI DUP1 PUSH4 0x35B8E820 EQ PUSH2 0x1C5 JUMPI DUP1 PUSH4 0x462E91EC EQ PUSH2 0x1E6 JUMPI DUP1 PUSH4 0x4717F97C EQ PUSH2 0x1F9 JUMPI DUP1 PUSH4 0x4C901B99 EQ PUSH2 0x20E JUMPI PUSH1 0x0 DUP1 REVERT JUMPDEST DUP1 PUSH4 0x121B93F EQ PUSH2 0x13C JUMPI DUP1 PUSH4 0xD15FD77 EQ PUSH2 0x151 JUMPI DUP1 PUSH4 0x122902A6 EQ PUSH2 0x16D JUMPI DUP1 PUSH4 0x2D8CD096 EQ PUSH2 0x185 JUMPI DUP1 PUSH4 0x3197CBB6 EQ PUSH2 0x19A JUMPI JUMPDEST PUSH1 0x0 DUP1 REVERT JUMPDEST PUSH2 0x14F PUSH2 0x14A CALLDATASIZE PUSH1 0x4 PUSH2 0x156F JUMP JUMPDEST PUSH2 0x318 JUMP JUMPDEST STOP JUMPDEST PUSH2 0x15A PUSH1 0xD SLOAD DUP2 JUMP JUMPDEST PUSH1 0x40 MLOAD SWAP1 DUP2 MSTORE PUSH1 0x20 ADD JUMPDEST PUSH1 0x40 MLOAD DUP1 SWAP2 SUB SWAP1 RETURN JUMPDEST PUSH2 0x175 PUSH2 0x55A JUMP JUMPDEST PUSH1 0x40 MLOAD SWAP1 ISZERO ISZERO DUP2 MSTORE PUSH1 0x20 ADD PUSH2 0x164 JUMP JUMPDEST PUSH2 0x18D PUSH2 0x576 JUMP JUMPDEST PUSH1 0x40 MLOAD PUSH2 0x164 SWAP2 SWAP1 PUSH2 0x15D8 JUMP JUMPDEST PUSH2 0x15A PUSH1 0x3 SLOAD DUP2 JUMP JUMPDEST PUSH2 0x1B6 PUSH2 0x1B1 CALLDATASIZE PUSH1 0x4 PUSH2 0x156F JUMP JUMPDEST PUSH2 0x874 JUMP JUMPDEST PUSH1 0x40 MLOAD PUSH2 0x164 SWAP4 SWAP3 SWAP2 SWAP1 PUSH2 0x15F2 JUMP JUMPDEST PUSH2 0x1D8 PUSH2 0x1D3 CALLDATASIZE PUSH1 0x4 PUSH2 0x156F JUMP JUMPDEST PUSH2 0x91F JUMP JUMPDEST PUSH1 0x40 MLOAD PUSH2 0x164 SWAP3 SWAP2 SWAP1 PUSH2 0x161B JUMP JUMPDEST PUSH2 0x14F PUSH2 0x1F4 CALLDATASIZE PUSH1 0x4 PUSH2 0x1653 JUMP JUMPDEST PUSH2 0xA53 JUMP JUMPDEST PUSH2 0x201 PUSH2 0xB14 JUMP JUMPDEST PUSH1 0x40 MLOAD PUSH2 0x164 SWAP2 SWAP1 PUSH2 0x173F JUMP JUMPDEST PUSH1 0x4 SLOAD PUSH2 0x175 SWAP1 PUSH1 0xFF AND DUP2 JUMP JUMPDEST PUSH2 0x14F PUSH2 0xBBC JUMP JUMPDEST PUSH2 0x15A PUSH1 0x2 SLOAD DUP2 JUMP JUMPDEST PUSH2 0x18D PUSH2 0xCD4 JUMP JUMPDEST PUSH1 0x0 SLOAD PUSH2 0x247 SWAP1 PUSH1 0x1 PUSH1 0x1 PUSH1 0xA0 SHL SUB AND DUP2 JUMP JUMPDEST PUSH1 0x40 MLOAD PUSH1 0x1 PUSH1 0x1 PUSH1 0xA0 SHL SUB SWAP1 SWAP2 AND DUP2 MSTORE PUSH1 0x20 ADD PUSH2 0x164 JUMP JUMPDEST PUSH2 0x293 PUSH2 0x26D CALLDATASIZE PUSH1 0x4 PUSH2 0x1752 JUMP JUMPDEST PUSH1 0xA PUSH1 0x20 MSTORE PUSH1 0x0 SWAP1 DUP2 MSTORE PUSH1 0x40 SWAP1 KECCAK256 DUP1 SLOAD PUSH1 0x1 SWAP1 SWAP2 ADD SLOAD PUSH1 0xFF DUP1 DUP4 AND SWAP3 PUSH2 0x100 SWAP1 DIV AND SWAP1 DUP4 JUMP JUMPDEST PUSH1 0x40 DUP1 MLOAD SWAP4 ISZERO ISZERO DUP5 MSTORE SWAP2 ISZERO ISZERO PUSH1 0x20 DUP5 ADD MSTORE SWAP1 DUP3 ADD MSTORE PUSH1 0x60 ADD PUSH2 0x164 JUMP JUMPDEST PUSH2 0x15A PUSH1 0xC SLOAD DUP2 JUMP JUMPDEST PUSH2 0x14F PUSH2 0x2C7 CALLDATASIZE PUSH1 0x4 PUSH2 0x1752 JUMP JUMPDEST PUSH2 0xD62 JUMP JUMPDEST PUSH2 0x2D4 PUSH2 0xE4E JUMP JUMPDEST PUSH1 0x40 MLOAD PUSH2 0x164 SWAP5 SWAP4 SWAP3 SWAP2 SWAP1 PUSH2 0x177B JUMP JUMPDEST PUSH2 0x18D PUSH2 0x10E3 JUMP JUMPDEST PUSH2 0x14F PUSH2 0x2FA CALLDATASIZE PUSH1 0x4 PUSH2 0x1752 JUMP JUMPDEST PUSH2 0x12AC JUMP JUMPDEST PUSH2 0x307 PUSH2 0x1395 JUMP JUMPDEST PUSH1 0x40 MLOAD PUSH2 0x164 SWAP6 SWAP5 SWAP4 SWAP3 SWAP2 SWAP1 PUSH2 0x1810 JUMP JUMPDEST PUSH1 0x2 SLOAD TIMESTAMP LT ISZERO PUSH2 0x36F JUMPI PUSH1 0x40 MLOAD PUSH3 0x461BCD PUSH1 0xE5 SHL DUP2 MSTORE PUSH1 0x20 PUSH1 0x4 DUP3 ADD MSTORE PUSH1 0x1A PUSH1 0x24 DUP3 ADD MSTORE PUSH32 0x566F74696E6720686173206E6F74207374617274656420796574000000000000 PUSH1 0x44 DUP3 ADD MSTORE PUSH1 0x64 ADD JUMPDEST PUSH1 0x40 MLOAD DUP1 SWAP2 SUB SWAP1 REVERT JUMPDEST PUSH1 0x3 SLOAD TIMESTAMP GT ISZERO DUP1 ISZERO PUSH2 0x384 JUMPI POP PUSH1 0x4 SLOAD PUSH1 0xFF AND ISZERO JUMPDEST PUSH2 0x3C3 JUMPI PUSH1 0x40 MLOAD PUSH3 0x461BCD PUSH1 0xE5 SHL DUP2 MSTORE PUSH1 0x20 PUSH1 0x4 DUP3 ADD MSTORE PUSH1 0x10 PUSH1 0x24 DUP3 ADD MSTORE PUSH16 0x159BDD1A5B99C81A185CC8195B991959 PUSH1 0x82 SHL PUSH1 0x44 DUP3 ADD MSTORE PUSH1 0x64 ADD PUSH2 0x366 JUMP JUMPDEST CALLER PUSH1 0x0 SWAP1 DUP2 MSTORE PUSH1 0xA PUSH1 0x20 MSTORE PUSH1 0x40 SWAP1 KECCAK256 SLOAD PUSH1 0xFF AND PUSH2 0x41B JUMPI PUSH1 0x40 MLOAD PUSH3 0x461BCD PUSH1 0xE5 SHL DUP2 MSTORE PUSH1 0x20 PUSH1 0x4 DUP3 ADD MSTORE PUSH1 0x16 PUSH1 0x24 DUP3 ADD MSTORE PUSH22 0x4E6F7420617574686F72697A656420746F20766F7465 PUSH1 0x50 SHL PUSH1 0x44 DUP3 ADD MSTORE PUSH1 0x64 ADD PUSH2 0x366 JUMP JUMPDEST CALLER PUSH1 0x0 SWAP1 DUP2 MSTORE PUSH1 0xA PUSH1 0x20 MSTORE PUSH1 0x40 SWAP1 KECCAK256 SLOAD PUSH2 0x100 SWAP1 DIV PUSH1 0xFF AND ISZERO PUSH2 0x470 JUMPI PUSH1 0x40 MLOAD PUSH3 0x461BCD PUSH1 0xE5 SHL DUP2 MSTORE PUSH1 0x20 PUSH1 0x4 DUP3 ADD MSTORE PUSH1 0xD PUSH1 0x24 DUP3 ADD MSTORE PUSH13 0x105B1C9958591E481D9BDD1959 PUSH1 0x9A SHL PUSH1 0x44 DUP3 ADD MSTORE PUSH1 0x64 ADD PUSH2 0x366 JUMP JUMPDEST PUSH1 0x0 DUP2 GT DUP1 ISZERO PUSH2 0x482 JUMPI POP PUSH1 0xC SLOAD DUP2 GT ISZERO JUMPDEST PUSH2 0x4C5 JUMPI PUSH1 0x40 MLOAD PUSH3 0x461BCD PUSH1 0xE5 SHL DUP2 MSTORE PUSH1 0x20 PUSH1 0x4 DUP3 ADD MSTORE PUSH1 0x14 PUSH1 0x24 DUP3 ADD MSTORE PUSH20 0x125B9D985B1A590818D85B991A59185D19481251 PUSH1 0x62 SHL PUSH1 0x44 DUP3 ADD MSTORE PUSH1 0x64 ADD PUSH2 0x366 JUMP JUMPDEST CALLER PUSH1 0x0 SWAP1 DUP2 MSTORE PUSH1 0xA PUSH1 0x20 SWAP1 DUP2 MSTORE PUSH1 0x40 DUP1 DUP4 KECCAK256 DUP1 SLOAD PUSH2 0xFF00 NOT AND PUSH2 0x100 OR DUP2 SSTORE PUSH1 0x1 ADD DUP5 SWAP1 SSTORE DUP4 DUP4 MSTORE PUSH1 0xB SWAP1 SWAP2 MSTORE DUP2 KECCAK256 PUSH1 0x2 ADD DUP1 SLOAD SWAP2 PUSH2 0x503 DUP4 PUSH2 0x185F JUMP JUMPDEST SWAP1 SWAP2 SSTORE POP POP PUSH1 0xD DUP1 SLOAD SWAP1 PUSH1 0x0 PUSH2 0x518 DUP4 PUSH2 0x185F JUMP JUMPDEST SWAP1 SWAP2 SSTORE POP POP PUSH1 0x40 DUP1 MLOAD CALLER DUP2 MSTORE PUSH1 0x20 DUP2 ADD DUP4 SWAP1 MSTORE PUSH32 0xA36CC2BEBB74DB33E9F88110A07EF56E1B31B24B4C4F51B54B1664266E29F45B SWAP2 ADD JUMPDEST PUSH1 0x40 MLOAD DUP1 SWAP2 SUB SWAP1 LOG1 POP JUMP JUMPDEST PUSH1 0x0 PUSH1 0x3 SLOAD TIMESTAMP GT ISZERO DUP1 ISZERO PUSH2 0x571 JUMPI POP PUSH1 0x4 SLOAD PUSH1 0xFF AND ISZERO JUMPDEST SWAP1 POP SWAP1 JUMP JUMPDEST PUSH1 0x0 SLOAD PUSH1 0x60 SWAP1 PUSH1 0x1 PUSH1 0x1 PUSH1 0xA0 SHL SUB AND CALLER EQ PUSH2 0x5A3 JUMPI PUSH1 0x40 MLOAD PUSH3 0x461BCD PUSH1 0xE5 SHL DUP2 MSTORE PUSH1 0x4 ADD PUSH2 0x366 SWAP1 PUSH2 0x1878 JUMP JUMPDEST PUSH1 0x3 SLOAD TIMESTAMP GT DUP1 PUSH2 0x5B5 JUMPI POP PUSH1 0x4 SLOAD PUSH1 0xFF AND JUMPDEST PUSH2 0x601 JUMPI PUSH1 0x40 MLOAD PUSH3 0x461BCD PUSH1 0xE5 SHL DUP2 MSTORE PUSH1 0x20 PUSH1 0x4 DUP3 ADD MSTORE PUSH1 0x19 PUSH1 0x24 DUP3 ADD MSTORE PUSH32 0x456C656374696F6E206973207374696C6C206F6E676F696E6700000000000000 PUSH1 0x44 DUP3 ADD MSTORE PUSH1 0x64 ADD PUSH2 0x366 JUMP JUMPDEST PUSH1 0x9 SLOAD PUSH1 0xFF AND ISZERO PUSH2 0x654 JUMPI PUSH1 0x40 MLOAD PUSH3 0x461BCD PUSH1 0xE5 SHL DUP2 MSTORE PUSH1 0x20 PUSH1 0x4 DUP3 ADD MSTORE PUSH1 0x18 PUSH1 0x24 DUP3 ADD MSTORE PUSH32 0x57696E6E657220616C726561647920616E6E6F756E6365640000000000000000 PUSH1 0x44 DUP3 ADD MSTORE PUSH1 0x64 ADD PUSH2 0x366 JUMP JUMPDEST PUSH1 0x0 PUSH1 0xD SLOAD GT PUSH2 0x696 JUMPI PUSH1 0x40 MLOAD PUSH3 0x461BCD PUSH1 0xE5 SHL DUP2 MSTORE PUSH1 0x20 PUSH1 0x4 DUP3 ADD MSTORE PUSH1 0xD PUSH1 0x24 DUP3 ADD MSTORE PUSH13 0x139BC81D9BDD195CC818D85CDD PUSH1 0x9A SHL PUSH1 0x44 DUP3 ADD MSTORE PUSH1 0x64 ADD PUSH2 0x366 JUMP JUMPDEST PUSH1 0x40 DUP1 MLOAD PUSH1 0x20 DUP2 ADD SWAP1 SWAP2 MSTORE PUSH1 0x0 DUP1 DUP3 MSTORE SWAP1 PUSH1 0x1 JUMPDEST PUSH1 0xC SLOAD DUP2 GT PUSH2 0x786 JUMPI PUSH1 0x0 DUP2 DUP2 MSTORE PUSH1 0xB PUSH1 0x20 MSTORE PUSH1 0x40 SWAP1 KECCAK256 PUSH1 0x2 ADD SLOAD DUP4 LT ISZERO PUSH2 0x774 JUMPI PUSH1 0x0 DUP2 DUP2 MSTORE PUSH1 0xB PUSH1 0x20 MSTORE PUSH1 0x40 SWAP1 KECCAK256 PUSH1 0x2 DUP2 ADD SLOAD PUSH1 0x1 SWAP1 SWAP2 ADD DUP1 SLOAD SWAP2 SWAP5 POP SWAP1 PUSH2 0x6F3 SWAP1 PUSH2 0x18B9 JUMP JUMPDEST DUP1 PUSH1 0x1F ADD PUSH1 0x20 DUP1 SWAP2 DIV MUL PUSH1 0x20 ADD PUSH1 0x40 MLOAD SWAP1 DUP2 ADD PUSH1 0x40 MSTORE DUP1 SWAP3 SWAP2 SWAP1 DUP2 DUP2 MSTORE PUSH1 0x20 ADD DUP3 DUP1 SLOAD PUSH2 0x71F SWAP1 PUSH2 0x18B9 JUMP JUMPDEST DUP1 ISZERO PUSH2 0x76C JUMPI DUP1 PUSH1 0x1F LT PUSH2 0x741 JUMPI PUSH2 0x100 DUP1 DUP4 SLOAD DIV MUL DUP4 MSTORE SWAP2 PUSH1 0x20 ADD SWAP2 PUSH2 0x76C JUMP JUMPDEST DUP3 ADD SWAP2 SWAP1 PUSH1 0x0 MSTORE PUSH1 0x20 PUSH1 0x0 KECCAK256 SWAP1 JUMPDEST DUP2 SLOAD DUP2 MSTORE SWAP1 PUSH1 0x1 ADD SWAP1 PUSH1 0x20 ADD DUP1 DUP4 GT PUSH2 0x74F JUMPI DUP3 SWAP1 SUB PUSH1 0x1F AND DUP3 ADD SWAP2 JUMPDEST POP POP POP POP POP SWAP2 POP JUMPDEST DUP1 PUSH2 0x77E DUP2 PUSH2 0x185F JUMP JUMPDEST SWAP2 POP POP PUSH2 0x6AA JUMP JUMPDEST POP PUSH1 0x40 DUP1 MLOAD PUSH1 0xA0 DUP2 ADD DUP3 MSTORE DUP3 DUP2 MSTORE PUSH1 0x20 DUP2 ADD DUP5 SWAP1 MSTORE PUSH1 0xD SLOAD SWAP2 DUP2 ADD SWAP2 SWAP1 SWAP2 MSTORE TIMESTAMP PUSH1 0x60 DUP3 ADD MSTORE PUSH1 0x1 PUSH1 0x80 DUP3 ADD MSTORE PUSH1 0x5 DUP1 PUSH2 0x7BF DUP5 DUP3 PUSH2 0x193C JUMP JUMPDEST POP PUSH1 0x20 DUP3 ADD MLOAD PUSH1 0x1 DUP3 ADD SSTORE PUSH1 0x40 DUP1 DUP4 ADD MLOAD PUSH1 0x2 DUP4 ADD SSTORE PUSH1 0x60 DUP4 ADD MLOAD PUSH1 0x3 DUP4 ADD SSTORE PUSH1 0x80 SWAP1 SWAP3 ADD MLOAD PUSH1 0x4 SWAP1 SWAP2 ADD DUP1 SLOAD PUSH1 0xFF NOT AND SWAP2 ISZERO ISZERO SWAP2 SWAP1 SWAP2 OR SWAP1 SSTORE PUSH1 0xD SLOAD SWAP1 MLOAD PUSH32 0xEE03E894D531694970055D59446B0D72F846DB82D4D20968BC61C11B8090FF7A SWAP2 PUSH2 0x82F SWAP2 DUP5 SWAP2 DUP7 SWAP2 TIMESTAMP SWAP1 PUSH2 0x19FC JUMP JUMPDEST PUSH1 0x40 MLOAD DUP1 SWAP2 SUB SWAP1 LOG1 DUP1 PUSH2 0x841 DUP4 PUSH2 0x1443 JUMP JUMPDEST PUSH2 0x84C PUSH1 0xD SLOAD PUSH2 0x1443 JUMP JUMPDEST PUSH1 0x40 MLOAD PUSH1 0x20 ADD PUSH2 0x85E SWAP4 SWAP3 SWAP2 SWAP1 PUSH2 0x1A2B JUMP JUMPDEST PUSH1 0x40 MLOAD PUSH1 0x20 DUP2 DUP4 SUB SUB DUP2 MSTORE SWAP1 PUSH1 0x40 MSTORE SWAP3 POP POP POP SWAP1 JUMP JUMPDEST PUSH1 0xB PUSH1 0x20 MSTORE PUSH1 0x0 SWAP1 DUP2 MSTORE PUSH1 0x40 SWAP1 KECCAK256 DUP1 SLOAD PUSH1 0x1 DUP3 ADD DUP1 SLOAD SWAP2 SWAP3 SWAP2 PUSH2 0x896 SWAP1 PUSH2 0x18B9 JUMP JUMPDEST DUP1 PUSH1 0x1F ADD PUSH1 0x20 DUP1 SWAP2 DIV MUL PUSH1 0x20 ADD PUSH1 0x40 MLOAD SWAP1 DUP2 ADD PUSH1 0x40 MSTORE DUP1 SWAP3 SWAP2 SWAP1 DUP2 DUP2 MSTORE PUSH1 0x20 ADD DUP3 DUP1 SLOAD PUSH2 0x8C2 SWAP1 PUSH2 0x18B9 JUMP JUMPDEST DUP1 ISZERO PUSH2 0x90F JUMPI DUP1 PUSH1 0x1F LT PUSH2 0x8E4 JUMPI PUSH2 0x100 DUP1 DUP4 SLOAD DIV MUL DUP4 MSTORE SWAP2 PUSH1 0x20 ADD SWAP2 PUSH2 0x90F JUMP JUMPDEST DUP3 ADD SWAP2 SWAP1 PUSH1 0x0 MSTORE PUSH1 0x20 PUSH1 0x0 KECCAK256 SWAP1 JUMPDEST DUP2 SLOAD DUP2 MSTORE SWAP1 PUSH1 0x1 ADD SWAP1 PUSH1 0x20 ADD DUP1 DUP4 GT PUSH2 0x8F2 JUMPI DUP3 SWAP1 SUB PUSH1 0x1F AND DUP3 ADD SWAP2 JUMPDEST POP POP POP POP POP SWAP1 DUP1 PUSH1 0x2 ADD SLOAD SWAP1 POP DUP4 JUMP JUMPDEST PUSH1 0x60 PUSH1 0x0 DUP1 DUP4 GT DUP1 ISZERO PUSH2 0x934 JUMPI POP PUSH1 0xC SLOAD DUP4 GT ISZERO JUMPDEST PUSH2 0x977 JUMPI PUSH1 0x40 MLOAD PUSH3 0x461BCD PUSH1 0xE5 SHL DUP2 MSTORE PUSH1 0x20 PUSH1 0x4 DUP3 ADD MSTORE PUSH1 0x14 PUSH1 0x24 DUP3 ADD MSTORE PUSH20 0x125B9D985B1A590818D85B991A59185D19481251 PUSH1 0x62 SHL PUSH1 0x44 DUP3 ADD MSTORE PUSH1 0x64 ADD PUSH2 0x366 JUMP JUMPDEST PUSH1 0x0 PUSH1 0xB PUSH1 0x0 DUP6 DUP2 MSTORE PUSH1 0x20 ADD SWAP1 DUP2 MSTORE PUSH1 0x20 ADD PUSH1 0x0 KECCAK256 PUSH1 0x40 MLOAD DUP1 PUSH1 0x60 ADD PUSH1 0x40 MSTORE SWAP1 DUP2 PUSH1 0x0 DUP3 ADD SLOAD DUP2 MSTORE PUSH1 0x20 ADD PUSH1 0x1 DUP3 ADD DUP1 SLOAD PUSH2 0x9B1 SWAP1 PUSH2 0x18B9 JUMP JUMPDEST DUP1 PUSH1 0x1F ADD PUSH1 0x20 DUP1 SWAP2 DIV MUL PUSH1 0x20 ADD PUSH1 0x40 MLOAD SWAP1 DUP2 ADD PUSH1 0x40 MSTORE DUP1 SWAP3 SWAP2 SWAP1 DUP2 DUP2 MSTORE PUSH1 0x20 ADD DUP3 DUP1 SLOAD PUSH2 0x9DD SWAP1 PUSH2 0x18B9 JUMP JUMPDEST DUP1 ISZERO PUSH2 0xA2A JUMPI DUP1 PUSH1 0x1F LT PUSH2 0x9FF JUMPI PUSH2 0x100 DUP1 DUP4 SLOAD DIV MUL DUP4 MSTORE SWAP2 PUSH1 0x20 ADD SWAP2 PUSH2 0xA2A JUMP JUMPDEST DUP3 ADD SWAP2 SWAP1 PUSH1 0x0 MSTORE PUSH1 0x20 PUSH1 0x0 KECCAK256 SWAP1 JUMPDEST DUP2 SLOAD DUP2 MSTORE SWAP1 PUSH1 0x1 ADD SWAP1 PUSH1 0x20 ADD DUP1 DUP4 GT PUSH2 0xA0D JUMPI DUP3 SWAP1 SUB PUSH1 0x1F AND DUP3 ADD SWAP2 JUMPDEST POP POP POP POP POP DUP2 MSTORE PUSH1 0x20 ADD PUSH1 0x2 DUP3 ADD SLOAD DUP2 MSTORE POP POP SWAP1 POP DUP1 PUSH1 0x20 ADD MLOAD DUP2 PUSH1 0x40 ADD MLOAD SWAP3 POP SWAP3 POP POP SWAP2 POP SWAP2 JUMP JUMPDEST PUSH1 0x0 SLOAD PUSH1 0x1 PUSH1 0x1 PUSH1 0xA0 SHL SUB AND CALLER EQ PUSH2 0xA7D JUMPI PUSH1 0x40 MLOAD PUSH3 0x461BCD PUSH1 0xE5 SHL DUP2 MSTORE PUSH1 0x4 ADD PUSH2 0x366 SWAP1 PUSH2 0x1878 JUMP JUMPDEST PUSH1 0xC DUP1 SLOAD SWAP1 PUSH1 0x0 PUSH2 0xA8D DUP4 PUSH2 0x185F JUMP JUMPDEST SWAP1 SWAP2 SSTORE POP POP PUSH1 0x40 DUP1 MLOAD PUSH1 0x60 DUP2 ADD DUP3 MSTORE PUSH1 0xC SLOAD DUP1 DUP3 MSTORE PUSH1 0x20 DUP1 DUP4 ADD DUP6 DUP2 MSTORE PUSH1 0x0 DUP5 DUP7 ADD DUP2 SWAP1 MSTORE SWAP3 DUP4 MSTORE PUSH1 0xB SWAP1 SWAP2 MSTORE SWAP3 SWAP1 KECCAK256 DUP2 MLOAD DUP2 SSTORE SWAP2 MLOAD SWAP1 SWAP2 SWAP1 PUSH1 0x1 DUP3 ADD SWAP1 PUSH2 0xAD5 SWAP1 DUP3 PUSH2 0x193C JUMP JUMPDEST POP PUSH1 0x40 SWAP2 DUP3 ADD MLOAD PUSH1 0x2 SWAP1 SWAP2 ADD SSTORE PUSH1 0xC SLOAD SWAP1 MLOAD PUSH32 0xE83B2A43E7E82D975C8A0A6D2F045153C869E111136A34D1889AB7B598E396A3 SWAP2 PUSH2 0x54F SWAP2 DUP5 SWAP1 PUSH2 0x1AD2 JUMP JUMPDEST PUSH1 0x60 PUSH1 0x0 PUSH1 0xC SLOAD PUSH8 0xFFFFFFFFFFFFFFFF DUP2 GT ISZERO PUSH2 0xB33 JUMPI PUSH2 0xB33 PUSH2 0x163D JUMP JUMPDEST PUSH1 0x40 MLOAD SWAP1 DUP1 DUP3 MSTORE DUP1 PUSH1 0x20 MUL PUSH1 0x20 ADD DUP3 ADD PUSH1 0x40 MSTORE DUP1 ISZERO PUSH2 0xB5C JUMPI DUP2 PUSH1 0x20 ADD PUSH1 0x20 DUP3 MUL DUP1 CALLDATASIZE DUP4 CALLDATACOPY ADD SWAP1 POP JUMPDEST POP SWAP1 POP PUSH1 0x1 JUMPDEST PUSH1 0xC SLOAD DUP2 GT PUSH2 0xBB6 JUMPI PUSH1 0x0 DUP2 DUP2 MSTORE PUSH1 0xB PUSH1 0x20 MSTORE PUSH1 0x40 SWAP1 KECCAK256 PUSH1 0x2 ADD SLOAD DUP3 PUSH2 0xB89 PUSH1 0x1 DUP5 PUSH2 0x1AF3 JUMP JUMPDEST DUP2 MLOAD DUP2 LT PUSH2 0xB99 JUMPI PUSH2 0xB99 PUSH2 0x1B0C JUMP JUMPDEST PUSH1 0x20 SWAP1 DUP2 MUL SWAP2 SWAP1 SWAP2 ADD ADD MSTORE DUP1 PUSH2 0xBAE DUP2 PUSH2 0x185F JUMP JUMPDEST SWAP2 POP POP PUSH2 0xB62 JUMP JUMPDEST POP SWAP2 SWAP1 POP JUMP JUMPDEST PUSH1 0x0 SLOAD PUSH1 0x1 PUSH1 0x1 PUSH1 0xA0 SHL SUB AND CALLER EQ PUSH2 0xBE6 JUMPI PUSH1 0x40 MLOAD PUSH3 0x461BCD PUSH1 0xE5 SHL DUP2 MSTORE PUSH1 0x4 ADD PUSH2 0x366 SWAP1 PUSH2 0x1878 JUMP JUMPDEST PUSH1 0x4 SLOAD PUSH1 0xFF AND ISZERO PUSH2 0xC39 JUMPI PUSH1 0x40 MLOAD PUSH3 0x461BCD PUSH1 0xE5 SHL DUP2 MSTORE PUSH1 0x20 PUSH1 0x4 DUP3 ADD MSTORE PUSH1 0x17 PUSH1 0x24 DUP3 ADD MSTORE PUSH32 0x456C656374696F6E20616C726561647920636C6F736564000000000000000000 PUSH1 0x44 DUP3 ADD MSTORE PUSH1 0x64 ADD PUSH2 0x366 JUMP JUMPDEST PUSH1 0x2 SLOAD TIMESTAMP LT ISZERO PUSH2 0xC8B JUMPI PUSH1 0x40 MLOAD PUSH3 0x461BCD PUSH1 0xE5 SHL DUP2 MSTORE PUSH1 0x20 PUSH1 0x4 DUP3 ADD MSTORE PUSH1 0x1C PUSH1 0x24 DUP3 ADD MSTORE PUSH32 0x456C656374696F6E20686173206E6F7420737461727465642079657400000000 PUSH1 0x44 DUP3 ADD MSTORE PUSH1 0x64 ADD PUSH2 0x366 JUMP JUMPDEST PUSH1 0x4 DUP1 SLOAD PUSH1 0xFF NOT AND PUSH1 0x1 OR SWAP1 SSTORE PUSH1 0x40 MLOAD PUSH32 0x393C4B8E62F1195313CF17DCF00793C668DDFC35881CD8015559C074F6D61E83 SWAP1 PUSH2 0xCCA SWAP1 TIMESTAMP DUP2 MSTORE PUSH1 0x20 ADD SWAP1 JUMP JUMPDEST PUSH1 0x40 MLOAD DUP1 SWAP2 SUB SWAP1 LOG1 JUMP JUMPDEST PUSH1 0x1 DUP1 SLOAD PUSH2 0xCE1 SWAP1 PUSH2 0x18B9 JUMP JUMPDEST DUP1 PUSH1 0x1F ADD PUSH1 0x20 DUP1 SWAP2 DIV MUL PUSH1 0x20 ADD PUSH1 0x40 MLOAD SWAP1 DUP2 ADD PUSH1 0x40 MSTORE DUP1 SWAP3 SWAP2 SWAP1 DUP2 DUP2 MSTORE PUSH1 0x20 ADD DUP3 DUP1 SLOAD PUSH2 0xD0D SWAP1 PUSH2 0x18B9 JUMP JUMPDEST DUP1 ISZERO PUSH2 0xD5A JUMPI DUP1 PUSH1 0x1F LT PUSH2 0xD2F JUMPI PUSH2 0x100 DUP1 DUP4 SLOAD DIV MUL DUP4 MSTORE SWAP2 PUSH1 0x20 ADD SWAP2 PUSH2 0xD5A JUMP JUMPDEST DUP3 ADD SWAP2 SWAP1 PUSH1 0x0 MSTORE PUSH1 0x20 PUSH1 0x0 KECCAK256 SWAP1 JUMPDEST DUP2 SLOAD DUP2 MSTORE SWAP1 PUSH1 0x1 ADD SWAP1 PUSH1 0x20 ADD DUP1 DUP4 GT PUSH2 0xD3D JUMPI DUP3 SWAP1 SUB PUSH1 0x1F AND DUP3 ADD SWAP2 JUMPDEST POP POP POP POP POP DUP2 JUMP JUMPDEST PUSH1 0x0 SLOAD PUSH1 0x1 PUSH1 0x1 PUSH1 0xA0 SHL SUB AND CALLER EQ PUSH2 0xD8C JUMPI PUSH1 0x40 MLOAD PUSH3 0x461BCD PUSH1 0xE5 SHL DUP2 MSTORE PUSH1 0x4 ADD PUSH2 0x366 SWAP1 PUSH2 0x1878 JUMP JUMPDEST PUSH1 0x1 PUSH1 0x1 PUSH1 0xA0 SHL SUB DUP2 AND PUSH1 0x0 SWAP1 DUP2 MSTORE PUSH1 0xA PUSH1 0x20 MSTORE PUSH1 0x40 SWAP1 KECCAK256 SLOAD PUSH2 0x100 SWAP1 DIV PUSH1 0xFF AND ISZERO PUSH2 0xDFA JUMPI PUSH1 0x40 MLOAD PUSH3 0x461BCD PUSH1 0xE5 SHL DUP2 MSTORE PUSH1 0x20 PUSH1 0x4 DUP3 ADD MSTORE PUSH1 0x18 PUSH1 0x24 DUP3 ADD MSTORE PUSH32 0x506572736F6E2068617320616C726561647920766F7465640000000000000000 PUSH1 0x44 DUP3 ADD MSTORE PUSH1 0x64 ADD PUSH2 0x366 JUMP JUMPDEST PUSH1 0x1 PUSH1 0x1 PUSH1 0xA0 SHL SUB DUP2 AND PUSH1 0x0 DUP2 DUP2 MSTORE PUSH1 0xA PUSH1 0x20 SWAP1 DUP2 MSTORE PUSH1 0x40 SWAP2 DUP3 SWAP1 KECCAK256 DUP1 SLOAD PUSH1 0xFF NOT AND PUSH1 0x1 OR SWAP1 SSTORE SWAP1 MLOAD SWAP2 DUP3 MSTORE PUSH32 0xCA65A9F1F88BD7257AC852D1062853358F81CDC56F9634DCBEED6090F8DFB43 SWAP2 ADD PUSH2 0x54F JUMP JUMPDEST PUSH1 0x60 DUP1 PUSH1 0x60 PUSH1 0x0 PUSH1 0xC SLOAD PUSH8 0xFFFFFFFFFFFFFFFF DUP2 GT ISZERO PUSH2 0xE70 JUMPI PUSH2 0xE70 PUSH2 0x163D JUMP JUMPDEST PUSH1 0x40 MLOAD SWAP1 DUP1 DUP3 MSTORE DUP1 PUSH1 0x20 MUL PUSH1 0x20 ADD DUP3 ADD PUSH1 0x40 MSTORE DUP1 ISZERO PUSH2 0xEA3 JUMPI DUP2 PUSH1 0x20 ADD JUMPDEST PUSH1 0x60 DUP2 MSTORE PUSH1 0x20 ADD SWAP1 PUSH1 0x1 SWAP1 SUB SWAP1 DUP2 PUSH2 0xE8E JUMPI SWAP1 POP JUMPDEST POP SWAP4 POP PUSH1 0xC SLOAD PUSH8 0xFFFFFFFFFFFFFFFF DUP2 GT ISZERO PUSH2 0xEC1 JUMPI PUSH2 0xEC1 PUSH2 0x163D JUMP JUMPDEST PUSH1 0x40 MLOAD SWAP1 DUP1 DUP3 MSTORE DUP1 PUSH1 0x20 MUL PUSH1 0x20 ADD DUP3 ADD PUSH1 0x40 MSTORE DUP1 ISZERO PUSH2 0xEEA JUMPI DUP2 PUSH1 0x20 ADD PUSH1 0x20 DUP3 MUL DUP1 CALLDATASIZE DUP4 CALLDATACOPY ADD SWAP1 POP JUMPDEST POP SWAP3 POP PUSH1 0x1 JUMPDEST PUSH1 0xC SLOAD DUP2 GT PUSH2 0x100E JUMPI PUSH1 0x0 DUP2 DUP2 MSTORE PUSH1 0xB PUSH1 0x20 MSTORE PUSH1 0x40 SWAP1 KECCAK256 PUSH1 0x1 ADD DUP1 SLOAD PUSH2 0xF15 SWAP1 PUSH2 0x18B9 JUMP JUMPDEST DUP1 PUSH1 0x1F ADD PUSH1 0x20 DUP1 SWAP2 DIV MUL PUSH1 0x20 ADD PUSH1 0x40 MLOAD SWAP1 DUP2 ADD PUSH1 0x40 MSTORE DUP1 SWAP3 SWAP2 SWAP1 DUP2 DUP2 MSTORE PUSH1 0x20 ADD DUP3 DUP1 SLOAD PUSH2 0xF41 SWAP1 PUSH2 0x18B9 JUMP JUMPDEST DUP1 ISZERO PUSH2 0xF8E JUMPI DUP1 PUSH1 0x1F LT PUSH2 0xF63 JUMPI PUSH2 0x100 DUP1 DUP4 SLOAD DIV MUL DUP4 MSTORE SWAP2 PUSH1 0x20 ADD SWAP2 PUSH2 0xF8E JUMP JUMPDEST DUP3 ADD SWAP2 SWAP1 PUSH1 0x0 MSTORE PUSH1 0x20 PUSH1 0x0 KECCAK256 SWAP1 JUMPDEST DUP2 SLOAD DUP2 MSTORE SWAP1 PUSH1 0x1 ADD SWAP1 PUSH1 0x20 ADD DUP1 DUP4 GT PUSH2 0xF71 JUMPI DUP3 SWAP1 SUB PUSH1 0x1F AND DUP3 ADD SWAP2 JUMPDEST POP POP POP POP POP DUP6 PUSH1 0x1 DUP4 PUSH2 0xFA1 SWAP2 SWAP1 PUSH2 0x1AF3 JUMP JUMPDEST DUP2 MLOAD DUP2 LT PUSH2 0xFB1 JUMPI PUSH2 0xFB1 PUSH2 0x1B0C JUMP JUMPDEST PUSH1 0x20 MUL PUSH1 0x20 ADD ADD DUP2 SWAP1 MSTORE POP PUSH1 0xB PUSH1 0x0 DUP3 DUP2 MSTORE PUSH1 0x20 ADD SWAP1 DUP2 MSTORE PUSH1 0x20 ADD PUSH1 0x0 KECCAK256 PUSH1 0x2 ADD SLOAD DUP5 PUSH1 0x1 DUP4 PUSH2 0xFE1 SWAP2 SWAP1 PUSH2 0x1AF3 JUMP JUMPDEST DUP2 MLOAD DUP2 LT PUSH2 0xFF1 JUMPI PUSH2 0xFF1 PUSH2 0x1B0C JUMP JUMPDEST PUSH1 0x20 SWAP1 DUP2 MUL SWAP2 SWAP1 SWAP2 ADD ADD MSTORE DUP1 PUSH2 0x1006 DUP2 PUSH2 0x185F JUMP JUMPDEST SWAP2 POP POP PUSH2 0xEF0 JUMP JUMPDEST POP PUSH1 0x9 SLOAD PUSH1 0xFF AND ISZERO PUSH2 0x10B0 JUMPI PUSH1 0x5 DUP1 SLOAD PUSH2 0x1027 SWAP1 PUSH2 0x18B9 JUMP JUMPDEST DUP1 PUSH1 0x1F ADD PUSH1 0x20 DUP1 SWAP2 DIV MUL PUSH1 0x20 ADD PUSH1 0x40 MLOAD SWAP1 DUP2 ADD PUSH1 0x40 MSTORE DUP1 SWAP3 SWAP2 SWAP1 DUP2 DUP2 MSTORE PUSH1 0x20 ADD DUP3 DUP1 SLOAD PUSH2 0x1053 SWAP1 PUSH2 0x18B9 JUMP JUMPDEST DUP1 ISZERO PUSH2 0x10A0 JUMPI DUP1 PUSH1 0x1F LT PUSH2 0x1075 JUMPI PUSH2 0x100 DUP1 DUP4 SLOAD DIV MUL DUP4 MSTORE SWAP2 PUSH1 0x20 ADD SWAP2 PUSH2 0x10A0 JUMP JUMPDEST DUP3 ADD SWAP2 SWAP1 PUSH1 0x0 MSTORE PUSH1 0x20 PUSH1 0x0 KECCAK256 SWAP1 JUMPDEST DUP2 SLOAD DUP2 MSTORE SWAP1 PUSH1 0x1 ADD SWAP1 PUSH1 0x20 ADD DUP1 DUP4 GT PUSH2 0x1083 JUMPI DUP3 SWAP1 SUB PUSH1 0x1F AND DUP3 ADD SWAP2 JUMPDEST POP POP POP POP POP SWAP2 POP PUSH1 0x1 SWAP1 POP PUSH2 0x10DD JUMP JUMPDEST POP POP PUSH1 0x40 DUP1 MLOAD DUP1 DUP3 ADD SWAP1 SWAP2 MSTORE PUSH1 0x11 DUP2 MSTORE PUSH17 0x139BDD08185B9B9BDD5B98D959081E595D PUSH1 0x7A SHL PUSH1 0x20 DUP3 ADD MSTORE PUSH1 0x0 JUMPDEST SWAP1 SWAP2 SWAP3 SWAP4 JUMP JUMPDEST PUSH1 0x0 SLOAD PUSH1 0x60 SWAP1 PUSH1 0x1 PUSH1 0x1 PUSH1 0xA0 SHL SUB AND CALLER EQ PUSH2 0x1110 JUMPI PUSH1 0x40 MLOAD PUSH3 0x461BCD PUSH1 0xE5 SHL DUP2 MSTORE PUSH1 0x4 ADD PUSH2 0x366 SWAP1 PUSH2 0x1878 JUMP JUMPDEST PUSH1 0x3 SLOAD TIMESTAMP GT DUP1 PUSH2 0x1122 JUMPI POP PUSH1 0x4 SLOAD PUSH1 0xFF AND JUMPDEST PUSH2 0x116E JUMPI PUSH1 0x40 MLOAD PUSH3 0x461BCD PUSH1 0xE5 SHL DUP2 MSTORE PUSH1 0x20 PUSH1 0x4 DUP3 ADD MSTORE PUSH1 0x1F PUSH1 0x24 DUP3 ADD MSTORE PUSH32 0x566F74696E6720706572696F6420686173206E6F7420656E6465642079657400 PUSH1 0x44 DUP3 ADD MSTORE PUSH1 0x64 ADD PUSH2 0x366 JUMP JUMPDEST PUSH1 0xD SLOAD PUSH1 0x0 SUB PUSH2 0x11A0 JUMPI POP PUSH1 0x40 DUP1 MLOAD DUP1 DUP3 ADD SWAP1 SWAP2 MSTORE PUSH1 0xD DUP2 MSTORE PUSH13 0x139BC81D9BDD195CC818D85CDD PUSH1 0x9A SHL PUSH1 0x20 DUP3 ADD MSTORE SWAP1 JUMP JUMPDEST PUSH1 0x40 DUP1 MLOAD PUSH1 0x20 DUP2 ADD SWAP1 SWAP2 MSTORE PUSH1 0x0 DUP1 DUP3 MSTORE SWAP1 PUSH1 0x1 JUMPDEST PUSH1 0xC SLOAD DUP2 GT PUSH2 0x1290 JUMPI PUSH1 0x0 DUP2 DUP2 MSTORE PUSH1 0xB PUSH1 0x20 MSTORE PUSH1 0x40 SWAP1 KECCAK256 PUSH1 0x2 ADD SLOAD DUP4 LT ISZERO PUSH2 0x127E JUMPI PUSH1 0x0 DUP2 DUP2 MSTORE PUSH1 0xB PUSH1 0x20 MSTORE PUSH1 0x40 SWAP1 KECCAK256 PUSH1 0x2 DUP2 ADD SLOAD PUSH1 0x1 SWAP1 SWAP2 ADD DUP1 SLOAD SWAP2 SWAP5 POP SWAP1 PUSH2 0x11FD SWAP1 PUSH2 0x18B9 JUMP JUMPDEST DUP1 PUSH1 0x1F ADD PUSH1 0x20 DUP1 SWAP2 DIV MUL PUSH1 0x20 ADD PUSH1 0x40 MLOAD SWAP1 DUP2 ADD PUSH1 0x40 MSTORE DUP1 SWAP3 SWAP2 SWAP1 DUP2 DUP2 MSTORE PUSH1 0x20 ADD DUP3 DUP1 SLOAD PUSH2 0x1229 SWAP1 PUSH2 0x18B9 JUMP JUMPDEST DUP1 ISZERO PUSH2 0x1276 JUMPI DUP1 PUSH1 0x1F LT PUSH2 0x124B JUMPI PUSH2 0x100 DUP1 DUP4 SLOAD DIV MUL DUP4 MSTORE SWAP2 PUSH1 0x20 ADD SWAP2 PUSH2 0x1276 JUMP JUMPDEST DUP3 ADD SWAP2 SWAP1 PUSH1 0x0 MSTORE PUSH1 0x20 PUSH1 0x0 KECCAK256 SWAP1 JUMPDEST DUP2 SLOAD DUP2 MSTORE SWAP1 PUSH1 0x1 ADD SWAP1 PUSH1 0x20 ADD DUP1 DUP4 GT PUSH2 0x1259 JUMPI DUP3 SWAP1 SUB PUSH1 0x1F AND DUP3 ADD SWAP2 JUMPDEST POP POP POP POP POP SWAP2 POP JUMPDEST DUP1 PUSH2 0x1288 DUP2 PUSH2 0x185F JUMP JUMPDEST SWAP2 POP POP PUSH2 0x11B4 JUMP JUMPDEST POP DUP1 PUSH2 0x129B DUP4 PUSH2 0x1443 JUMP JUMPDEST PUSH1 0x40 MLOAD PUSH1 0x20 ADD PUSH2 0x85E SWAP3 SWAP2 SWAP1 PUSH2 0x1B22 JUMP JUMPDEST PUSH1 0x0 SLOAD PUSH1 0x1 PUSH1 0x1 PUSH1 0xA0 SHL SUB AND CALLER EQ PUSH2 0x12D6 JUMPI PUSH1 0x40 MLOAD PUSH3 0x461BCD PUSH1 0xE5 SHL DUP2 MSTORE PUSH1 0x4 ADD PUSH2 0x366 SWAP1 PUSH2 0x1878 JUMP JUMPDEST PUSH1 0x1 PUSH1 0x1 PUSH1 0xA0 SHL SUB DUP2 AND PUSH1 0x0 SWAP1 DUP2 MSTORE PUSH1 0xA PUSH1 0x20 MSTORE PUSH1 0x40 SWAP1 KECCAK256 SLOAD PUSH2 0x100 SWAP1 DIV PUSH1 0xFF AND ISZERO PUSH2 0x1344 JUMPI PUSH1 0x40 MLOAD PUSH3 0x461BCD PUSH1 0xE5 SHL DUP2 MSTORE PUSH1 0x20 PUSH1 0x4 DUP3 ADD MSTORE PUSH1 0x1F PUSH1 0x24 DUP3 ADD MSTORE PUSH32 0x43616E6E6F7420756E617574686F72697A6520616674657220766F74696E6700 PUSH1 0x44 DUP3 ADD MSTORE PUSH1 0x64 ADD PUSH2 0x366 JUMP JUMPDEST PUSH1 0x1 PUSH1 0x1 PUSH1 0xA0 SHL SUB DUP2 AND PUSH1 0x0 DUP2 DUP2 MSTORE PUSH1 0xA PUSH1 0x20 SWAP1 DUP2 MSTORE PUSH1 0x40 SWAP2 DUP3 SWAP1 KECCAK256 DUP1 SLOAD PUSH1 0xFF NOT AND SWAP1 SSTORE SWAP1 MLOAD SWAP2 DUP3 MSTORE PUSH32 0xFF4A9A6864608D4E5A0CDAA278ED76BDE0C55AA397FA160990622B6D3DF2037B SWAP2 ADD PUSH2 0x54F JUMP JUMPDEST PUSH1 0x5 DUP1 SLOAD DUP2 SWAP1 PUSH2 0x13A4 SWAP1 PUSH2 0x18B9 JUMP JUMPDEST DUP1 PUSH1 0x1F ADD PUSH1 0x20 DUP1 SWAP2 DIV MUL PUSH1 0x20 ADD PUSH1 0x40 MLOAD SWAP1 DUP2 ADD PUSH1 0x40 MSTORE DUP1 SWAP3 SWAP2 SWAP1 DUP2 DUP2 MSTORE PUSH1 0x20 ADD DUP3 DUP1 SLOAD PUSH2 0x13D0 SWAP1 PUSH2 0x18B9 JUMP JUMPDEST DUP1 ISZERO PUSH2 0x141D JUMPI DUP1 PUSH1 0x1F LT PUSH2 0x13F2 JUMPI PUSH2 0x100 DUP1 DUP4 SLOAD DIV MUL DUP4 MSTORE SWAP2 PUSH1 0x20 ADD SWAP2 PUSH2 0x141D JUMP JUMPDEST DUP3 ADD SWAP2 SWAP1 PUSH1 0x0 MSTORE PUSH1 0x20 PUSH1 0x0 KECCAK256 SWAP1 JUMPDEST DUP2 SLOAD DUP2 MSTORE SWAP1 PUSH1 0x1 ADD SWAP1 PUSH1 0x20 ADD DUP1 DUP4 GT PUSH2 0x1400 JUMPI DUP3 SWAP1 SUB PUSH1 0x1F AND DUP3 ADD SWAP2 JUMPDEST POP POP POP POP PUSH1 0x1 DUP4 ADD SLOAD PUSH1 0x2 DUP5 ADD SLOAD PUSH1 0x3 DUP6 ADD SLOAD PUSH1 0x4 SWAP1 SWAP6 ADD SLOAD SWAP4 SWAP5 SWAP2 SWAP4 SWAP1 SWAP3 POP PUSH1 0xFF AND DUP6 JUMP JUMPDEST PUSH1 0x60 DUP2 PUSH1 0x0 SUB PUSH2 0x146A JUMPI POP POP PUSH1 0x40 DUP1 MLOAD DUP1 DUP3 ADD SWAP1 SWAP2 MSTORE PUSH1 0x1 DUP2 MSTORE PUSH1 0x3 PUSH1 0xFC SHL PUSH1 0x20 DUP3 ADD MSTORE SWAP1 JUMP JUMPDEST DUP2 PUSH1 0x0 JUMPDEST DUP2 ISZERO PUSH2 0x1494 JUMPI DUP1 PUSH2 0x147E DUP2 PUSH2 0x185F JUMP JUMPDEST SWAP2 POP PUSH2 0x148D SWAP1 POP PUSH1 0xA DUP4 PUSH2 0x1B8A JUMP JUMPDEST SWAP2 POP PUSH2 0x146E JUMP JUMPDEST PUSH1 0x0 DUP2 PUSH8 0xFFFFFFFFFFFFFFFF DUP2 GT ISZERO PUSH2 0x14AF JUMPI PUSH2 0x14AF PUSH2 0x163D JUMP JUMPDEST PUSH1 0x40 MLOAD SWAP1 DUP1 DUP3 MSTORE DUP1 PUSH1 0x1F ADD PUSH1 0x1F NOT AND PUSH1 0x20 ADD DUP3 ADD PUSH1 0x40 MSTORE DUP1 ISZERO PUSH2 0x14D9 JUMPI PUSH1 0x20 DUP3 ADD DUP2 DUP1 CALLDATASIZE DUP4 CALLDATACOPY ADD SWAP1 POP JUMPDEST POP SWAP1 POP DUP2 JUMPDEST DUP6 ISZERO PUSH2 0x1566 JUMPI PUSH2 0x14EF PUSH1 0x1 DUP3 PUSH2 0x1AF3 JUMP JUMPDEST SWAP1 POP PUSH1 0x0 PUSH2 0x14FE PUSH1 0xA DUP9 PUSH2 0x1B8A JUMP JUMPDEST PUSH2 0x1509 SWAP1 PUSH1 0xA PUSH2 0x1BAC JUMP JUMPDEST PUSH2 0x1513 SWAP1 DUP9 PUSH2 0x1AF3 JUMP JUMPDEST PUSH2 0x151E SWAP1 PUSH1 0x30 PUSH2 0x1BC3 JUMP JUMPDEST SWAP1 POP PUSH1 0x0 DUP2 PUSH1 0xF8 SHL SWAP1 POP DUP1 DUP5 DUP5 DUP2 MLOAD DUP2 LT PUSH2 0x153B JUMPI PUSH2 0x153B PUSH2 0x1B0C JUMP JUMPDEST PUSH1 0x20 ADD ADD SWAP1 PUSH1 0x1 PUSH1 0x1 PUSH1 0xF8 SHL SUB NOT AND SWAP1 DUP2 PUSH1 0x0 BYTE SWAP1 MSTORE8 POP PUSH2 0x155D PUSH1 0xA DUP10 PUSH2 0x1B8A JUMP JUMPDEST SWAP8 POP POP POP PUSH2 0x14DE JUMP JUMPDEST POP SWAP5 SWAP4 POP POP POP POP JUMP JUMPDEST PUSH1 0x0 PUSH1 0x20 DUP3 DUP5 SUB SLT ISZERO PUSH2 0x1581 JUMPI PUSH1 0x0 DUP1 REVERT JUMPDEST POP CALLDATALOAD SWAP2 SWAP1 POP JUMP JUMPDEST PUSH1 0x0 JUMPDEST DUP4 DUP2 LT ISZERO PUSH2 0x15A3 JUMPI DUP2 DUP2 ADD MLOAD DUP4 DUP3 ADD MSTORE PUSH1 0x20 ADD PUSH2 0x158B JUMP JUMPDEST POP POP PUSH1 0x0 SWAP2 ADD MSTORE JUMP JUMPDEST PUSH1 0x0 DUP2 MLOAD DUP1 DUP5 MSTORE PUSH2 0x15C4 DUP2 PUSH1 0x20 DUP7 ADD PUSH1 0x20 DUP7 ADD PUSH2 0x1588 JUMP JUMPDEST PUSH1 0x1F ADD PUSH1 0x1F NOT AND SWAP3 SWAP1 SWAP3 ADD PUSH1 0x20 ADD SWAP3 SWAP2 POP POP JUMP JUMPDEST PUSH1 0x20 DUP2 MSTORE PUSH1 0x0 PUSH2 0x15EB PUSH1 0x20 DUP4 ADD DUP5 PUSH2 0x15AC JUMP JUMPDEST SWAP4 SWAP3 POP POP POP JUMP JUMPDEST DUP4 DUP2 MSTORE PUSH1 0x60 PUSH1 0x20 DUP3 ADD MSTORE PUSH1 0x0 PUSH2 0x160B PUSH1 0x60 DUP4 ADD DUP6 PUSH2 0x15AC JUMP JUMPDEST SWAP1 POP DUP3 PUSH1 0x40 DUP4 ADD MSTORE SWAP5 SWAP4 POP POP POP POP JUMP JUMPDEST PUSH1 0x40 DUP2 MSTORE PUSH1 0x0 PUSH2 0x162E PUSH1 0x40 DUP4 ADD DUP6 PUSH2 0x15AC JUMP JUMPDEST SWAP1 POP DUP3 PUSH1 0x20 DUP4 ADD MSTORE SWAP4 SWAP3 POP POP POP JUMP JUMPDEST PUSH4 0x4E487B71 PUSH1 0xE0 SHL PUSH1 0x0 MSTORE PUSH1 0x41 PUSH1 0x4 MSTORE PUSH1 0x24 PUSH1 0x0 REVERT JUMPDEST PUSH1 0x0 PUSH1 0x20 DUP3 DUP5 SUB SLT ISZERO PUSH2 0x1665 JUMPI PUSH1 0x0 DUP1 REVERT JUMPDEST DUP2 CALLDATALOAD PUSH8 0xFFFFFFFFFFFFFFFF DUP1 DUP3 GT ISZERO PUSH2 0x167D JUMPI PUSH1 0x0 DUP1 REVERT JUMPDEST DUP2 DUP5 ADD SWAP2 POP DUP5 PUSH1 0x1F DUP4 ADD SLT PUSH2 0x1691 JUMPI PUSH1 0x0 DUP1 REVERT JUMPDEST DUP2 CALLDATALOAD DUP2 DUP2 GT ISZERO PUSH2 0x16A3 JUMPI PUSH2 0x16A3 PUSH2 0x163D JUMP JUMPDEST PUSH1 0x40 MLOAD PUSH1 0x1F DUP3 ADD PUSH1 0x1F NOT SWAP1 DUP2 AND PUSH1 0x3F ADD AND DUP2 ADD SWAP1 DUP4 DUP3 GT DUP2 DUP4 LT OR ISZERO PUSH2 0x16CB JUMPI PUSH2 0x16CB PUSH2 0x163D JUMP JUMPDEST DUP2 PUSH1 0x40 MSTORE DUP3 DUP2 MSTORE DUP8 PUSH1 0x20 DUP5 DUP8 ADD ADD GT ISZERO PUSH2 0x16E4 JUMPI PUSH1 0x0 DUP1 REVERT JUMPDEST DUP3 PUSH1 0x20 DUP7 ADD PUSH1 0x20 DUP4 ADD CALLDATACOPY PUSH1 0x0 SWAP3 DUP2 ADD PUSH1 0x20 ADD SWAP3 SWAP1 SWAP3 MSTORE POP SWAP6 SWAP5 POP POP POP POP POP JUMP JUMPDEST PUSH1 0x0 DUP2 MLOAD DUP1 DUP5 MSTORE PUSH1 0x20 DUP1 DUP6 ADD SWAP5 POP DUP1 DUP5 ADD PUSH1 0x0 JUMPDEST DUP4 DUP2 LT ISZERO PUSH2 0x1734 JUMPI DUP2 MLOAD DUP8 MSTORE SWAP6 DUP3 ADD SWAP6 SWAP1 DUP3 ADD SWAP1 PUSH1 0x1 ADD PUSH2 0x1718 JUMP JUMPDEST POP SWAP5 SWAP6 SWAP5 POP POP POP POP POP JUMP JUMPDEST PUSH1 0x20 DUP2 MSTORE PUSH1 0x0 PUSH2 0x15EB PUSH1 0x20 DUP4 ADD DUP5 PUSH2 0x1704 JUMP JUMPDEST PUSH1 0x0 PUSH1 0x20 DUP3 DUP5 SUB SLT ISZERO PUSH2 0x1764 JUMPI PUSH1 0x0 DUP1 REVERT JUMPDEST DUP2 CALLDATALOAD PUSH1 0x1 PUSH1 0x1 PUSH1 0xA0 SHL SUB DUP2 AND DUP2 EQ PUSH2 0x15EB JUMPI PUSH1 0x0 DUP1 REVERT JUMPDEST PUSH1 0x0 PUSH1 0x80 DUP3 ADD PUSH1 0x80 DUP4 MSTORE DUP1 DUP8 MLOAD DUP1 DUP4 MSTORE PUSH1 0xA0 DUP6 ADD SWAP2 POP PUSH1 0xA0 DUP2 PUSH1 0x5 SHL DUP7 ADD ADD SWAP3 POP PUSH1 0x20 DUP1 DUP11 ADD PUSH1 0x0 JUMPDEST DUP4 DUP2 LT ISZERO PUSH2 0x17D2 JUMPI PUSH1 0x9F NOT DUP9 DUP8 SUB ADD DUP6 MSTORE PUSH2 0x17C0 DUP7 DUP4 MLOAD PUSH2 0x15AC JUMP JUMPDEST SWAP6 POP SWAP4 DUP3 ADD SWAP4 SWAP1 DUP3 ADD SWAP1 PUSH1 0x1 ADD PUSH2 0x17A4 JUMP JUMPDEST POP POP DUP6 DUP5 SUB DUP2 DUP8 ADD MSTORE POP POP POP PUSH2 0x17E8 DUP2 DUP8 PUSH2 0x1704 JUMP JUMPDEST SWAP1 POP DUP3 DUP2 SUB PUSH1 0x40 DUP5 ADD MSTORE PUSH2 0x17FC DUP2 DUP7 PUSH2 0x15AC JUMP JUMPDEST SWAP2 POP POP DUP3 ISZERO ISZERO PUSH1 0x60 DUP4 ADD MSTORE SWAP6 SWAP5 POP POP POP POP POP JUMP JUMPDEST PUSH1 0xA0 DUP2 MSTORE PUSH1 0x0 PUSH2 0x1823 PUSH1 0xA0 DUP4 ADD DUP9 PUSH2 0x15AC JUMP JUMPDEST SWAP1 POP DUP6 PUSH1 0x20 DUP4 ADD MSTORE DUP5 PUSH1 0x40 DUP4 ADD MSTORE DUP4 PUSH1 0x60 DUP4 ADD MSTORE DUP3 ISZERO ISZERO PUSH1 0x80 DUP4 ADD MSTORE SWAP7 SWAP6 POP POP POP POP POP POP JUMP JUMPDEST PUSH4 0x4E487B71 PUSH1 0xE0 SHL PUSH1 0x0 MSTORE PUSH1 0x11 PUSH1 0x4 MSTORE PUSH1 0x24 PUSH1 0x0 REVERT JUMPDEST PUSH1 0x0 PUSH1 0x1 DUP3 ADD PUSH2 0x1871 JUMPI PUSH2 0x1871 PUSH2 0x1849 JUMP JUMPDEST POP PUSH1 0x1 ADD SWAP1 JUMP JUMPDEST PUSH1 0x20 DUP1 DUP3 MSTORE PUSH1 0x21 SWAP1 DUP3 ADD MSTORE PUSH32 0x4F6E6C79206F776E65722063616E2063616C6C20746869732066756E6374696F PUSH1 0x40 DUP3 ADD MSTORE PUSH1 0x37 PUSH1 0xF9 SHL PUSH1 0x60 DUP3 ADD MSTORE PUSH1 0x80 ADD SWAP1 JUMP JUMPDEST PUSH1 0x1 DUP2 DUP2 SHR SWAP1 DUP3 AND DUP1 PUSH2 0x18CD JUMPI PUSH1 0x7F DUP3 AND SWAP2 POP JUMPDEST PUSH1 0x20 DUP3 LT DUP2 SUB PUSH2 0xBB6 JUMPI PUSH4 0x4E487B71 PUSH1 0xE0 SHL PUSH1 0x0 MSTORE PUSH1 0x22 PUSH1 0x4 MSTORE PUSH1 0x24 PUSH1 0x0 REVERT JUMPDEST PUSH1 0x1F DUP3 GT ISZERO PUSH2 0x1937 JUMPI PUSH1 0x0 DUP2 DUP2 MSTORE PUSH1 0x20 DUP2 KECCAK256 PUSH1 0x1F DUP6 ADD PUSH1 0x5 SHR DUP2 ADD PUSH1 0x20 DUP7 LT ISZERO PUSH2 0x1914 JUMPI POP DUP1 JUMPDEST PUSH1 0x1F DUP6 ADD PUSH1 0x5 SHR DUP3 ADD SWAP2 POP JUMPDEST DUP2 DUP2 LT ISZERO PUSH2 0x1933 JUMPI DUP3 DUP2 SSTORE PUSH1 0x1 ADD PUSH2 0x1920 JUMP JUMPDEST POP POP POP JUMPDEST POP POP POP JUMP JUMPDEST DUP2 MLOAD PUSH8 0xFFFFFFFFFFFFFFFF DUP2 GT ISZERO PUSH2 0x1956 JUMPI PUSH2 0x1956 PUSH2 0x163D JUMP JUMPDEST PUSH2 0x196A DUP2 PUSH2 0x1964 DUP5 SLOAD PUSH2 0x18B9 JUMP JUMPDEST DUP5 PUSH2 0x18ED JUMP JUMPDEST PUSH1 0x20 DUP1 PUSH1 0x1F DUP4 GT PUSH1 0x1 DUP2 EQ PUSH2 0x199F JUMPI PUSH1 0x0 DUP5 ISZERO PUSH2 0x1987 JUMPI POP DUP6 DUP4 ADD MLOAD JUMPDEST PUSH1 0x0 NOT PUSH1 0x3 DUP7 SWAP1 SHL SHR NOT AND PUSH1 0x1 DUP6 SWAP1 SHL OR DUP6 SSTORE PUSH2 0x1933 JUMP JUMPDEST PUSH1 0x0 DUP6 DUP2 MSTORE PUSH1 0x20 DUP2 KECCAK256 PUSH1 0x1F NOT DUP7 AND SWAP2 JUMPDEST DUP3 DUP2 LT ISZERO PUSH2 0x19CE JUMPI DUP9 DUP7 ADD MLOAD DUP3 SSTORE SWAP5 DUP5 ADD SWAP5 PUSH1 0x1 SWAP1 SWAP2 ADD SWAP1 DUP5 ADD PUSH2 0x19AF JUMP JUMPDEST POP DUP6 DUP3 LT ISZERO PUSH2 0x19EC JUMPI DUP8 DUP6 ADD MLOAD PUSH1 0x0 NOT PUSH1 0x3 DUP9 SWAP1 SHL PUSH1 0xF8 AND SHR NOT AND DUP2 SSTORE JUMPDEST POP POP POP POP POP PUSH1 0x1 SWAP1 DUP2 SHL ADD SWAP1 SSTORE POP JUMP JUMPDEST PUSH1 0x80 DUP2 MSTORE PUSH1 0x0 PUSH2 0x1A0F PUSH1 0x80 DUP4 ADD DUP8 PUSH2 0x15AC JUMP JUMPDEST PUSH1 0x20 DUP4 ADD SWAP6 SWAP1 SWAP6 MSTORE POP PUSH1 0x40 DUP2 ADD SWAP3 SWAP1 SWAP3 MSTORE PUSH1 0x60 SWAP1 SWAP2 ADD MSTORE SWAP2 SWAP1 POP JUMP JUMPDEST PUSH17 0x27A32324A1A4A0A6102BA4A72722A91D1 PUSH1 0x7D SHL DUP2 MSTORE PUSH1 0x0 DUP5 MLOAD PUSH2 0x1A57 DUP2 PUSH1 0x11 DUP6 ADD PUSH1 0x20 DUP10 ADD PUSH2 0x1588 JUMP JUMPDEST PUSH6 0x103BB4BA341 PUSH1 0xD5 SHL PUSH1 0x11 SWAP2 DUP5 ADD SWAP2 DUP3 ADD MSTORE DUP5 MLOAD PUSH2 0x1A7D DUP2 PUSH1 0x17 DUP5 ADD PUSH1 0x20 DUP10 ADD PUSH2 0x1588 JUMP JUMPDEST PUSH14 0x103B37BA32B99037BABA1037B31 PUSH1 0x95 SHL PUSH1 0x17 SWAP3 SWAP1 SWAP2 ADD SWAP2 DUP3 ADD MSTORE DUP4 MLOAD PUSH2 0x1AAC DUP2 PUSH1 0x25 DUP5 ADD PUSH1 0x20 DUP9 ADD PUSH2 0x1588 JUMP JUMPDEST PUSH12 0x20746F74616C20766F746573 PUSH1 0xA0 SHL PUSH1 0x25 SWAP3 SWAP1 SWAP2 ADD SWAP2 DUP3 ADD MSTORE PUSH1 0x31 ADD SWAP6 SWAP5 POP POP POP POP POP JUMP JUMPDEST DUP3 DUP2 MSTORE PUSH1 0x40 PUSH1 0x20 DUP3 ADD MSTORE PUSH1 0x0 PUSH2 0x1AEB PUSH1 0x40 DUP4 ADD DUP5 PUSH2 0x15AC JUMP JUMPDEST SWAP5 SWAP4 POP POP POP POP JUMP JUMPDEST DUP2 DUP2 SUB DUP2 DUP2 GT ISZERO PUSH2 0x1B06 JUMPI PUSH2 0x1B06 PUSH2 0x1849 JUMP JUMPDEST SWAP3 SWAP2 POP POP JUMP JUMPDEST PUSH4 0x4E487B71 PUSH1 0xE0 SHL PUSH1 0x0 MSTORE PUSH1 0x32 PUSH1 0x4 MSTORE PUSH1 0x24 PUSH1 0x0 REVERT JUMPDEST PUSH8 0x2BB4B73732B91D1 PUSH1 0xC5 SHL DUP2 MSTORE PUSH1 0x0 DUP4 MLOAD PUSH2 0x1B45 DUP2 PUSH1 0x8 DUP6 ADD PUSH1 0x20 DUP9 ADD PUSH2 0x1588 JUMP JUMPDEST PUSH6 0x103BB4BA341 PUSH1 0xD5 SHL PUSH1 0x8 SWAP2 DUP5 ADD SWAP2 DUP3 ADD MSTORE DUP4 MLOAD PUSH2 0x1B6B DUP2 PUSH1 0xE DUP5 ADD PUSH1 0x20 DUP9 ADD PUSH2 0x1588 JUMP JUMPDEST PUSH6 0x20766F746573 PUSH1 0xD0 SHL PUSH1 0xE SWAP3 SWAP1 SWAP2 ADD SWAP2 DUP3 ADD MSTORE PUSH1 0x14 ADD SWAP5 SWAP4 POP POP POP POP JUMP JUMPDEST PUSH1 0x0 DUP3 PUSH2 0x1BA7 JUMPI PUSH4 0x4E487B71 PUSH1 0xE0 SHL PUSH1 0x0 MSTORE PUSH1 0x12 PUSH1 0x4 MSTORE PUSH1 0x24 PUSH1 0x0 REVERT JUMPDEST POP DIV SWAP1 JUMP JUMPDEST DUP1 DUP3 MUL DUP2 ISZERO DUP3 DUP3 DIV DUP5 EQ OR PUSH2 0x1B06 JUMPI PUSH2 0x1B06 PUSH2 0x1849 JUMP JUMPDEST PUSH1 0xFF DUP2 DUP2 AND DUP4 DUP3 AND ADD SWAP1 DUP2 GT ISZERO PUSH2 0x1B06 JUMPI PUSH2 0x1B06 PUSH2 0x1849 JUMP INVALID LOG2 PUSH5 0x6970667358 0x22 SLT KECCAK256 RETURNDATASIZE BLOCKHASH GT 0xD PUSH16 0x4340837097FAA2D9C075912E1564F3AC 0xB5 SWAP9 PUSH24 0x7341F78D6492CD6964736F6C634300081400330000000000 "},"methodIdentifiers":{"addCandidate(string)":"462e91ec","announceWinner()":"2d8cd096","authorize(address)":"b6a5d7de","candidateCount()":"a9a981a3","candidates(uint256)":"3477ee2e","closeElection()":"6c6c32d0","electionClosed()":"4c901b99","electionName()":"85e8e7a7","end()":"efbe1c1c","endTime()":"3197cbb6","finalResult()":"f3a8286f","getCandidate(uint256)":"35b8e820","getDetailedResults()":"e2b6006e","getElectionStatus()":"122902a6","getResults()":"4717f97c","owner()":"8da5cb5b","startTime()":"78e97925","totalVotes()":"0d15fd77","unauthorize(address)":"f0b37c04","vote(uint256)":"0121b93f","voters(address)":"a3ec138d"}}}}}