{
	"election.sol": {
		"Voting": {
			"abi": [
				{
					"inputs": [
						{
							"internalType": "string",
							"name": "_name",
							"type": "string"
						},
						{
							"internalType": "uint256",
							"name": "_votingDuration",
							"type": "uint256"
						}
					],
					"stateMutability": "nonpayable",
					"type": "constructor"
				},
				{
					"anonymous": false,
					"inputs": [
						{
							"indexed": false,
							"internalType": "uint256",
							"name": "candidateId",
							"type": "uint256"
						},
						{
							"indexed": false,
							"internalType": "string",
							"name": "name",
							"type": "string"
						}
					],
					"name": "CandidateAdded",
					"type": "event"
				},
				{
					"anonymous": false,
					"inputs": [
						{
							"indexed": false,
							"internalType": "address",
							"name": "voter",
							"type": "address"
						},
						{
							"indexed": false,
							"internalType": "uint256",
							"name": "candidateId",
							"type": "uint256"
						}
					],
					"name": "VoteCast",
					"type": "event"
				},
				{
					"anonymous": false,
					"inputs": [
						{
							"indexed": false,
							"internalType": "address",
							"name": "voter",
							"type": "address"
						}
					],
					"name": "VoterAuthorized",
					"type": "event"
				},
				{
					"anonymous": false,
					"inputs": [
						{
							"indexed": false,
							"internalType": "address",
							"name": "voter",
							"type": "address"
						}
					],
					"name": "VoterUnauthorized",
					"type": "event"
				},
				{
					"inputs": [
						{
							"internalType": "string",
							"name": "_name",
							"type": "string"
						}
					],
					"name": "addCandidate",
					"outputs": [],
					"stateMutability": "nonpayable",
					"type": "function"
				},
				{
					"inputs": [
						{
							"internalType": "address",
							"name": "_person",
							"type": "address"
						}
					],
					"name": "authorize",
					"outputs": [],
					"stateMutability": "nonpayable",
					"type": "function"
				},
				{
					"inputs": [],
					"name": "candidateCount",
					"outputs": [
						{
							"internalType": "uint256",
							"name": "",
							"type": "uint256"
						}
					],
					"stateMutability": "view",
					"type": "function"
				},
				{
					"inputs": [
						{
							"internalType": "uint256",
							"name": "",
							"type": "uint256"
						}
					],
					"name": "candidates",
					"outputs": [
						{
							"internalType": "uint256",
							"name": "id",
							"type": "uint256"
						},
						{
							"internalType": "string",
							"name": "name",
							"type": "string"
						},
						{
							"internalType": "uint256",
							"name": "voteCount",
							"type": "uint256"
						}
					],
					"stateMutability": "view",
					"type": "function"
				},
				{
					"inputs": [],
					"name": "electionName",
					"outputs": [
						{
							"internalType": "string",
							"name": "",
							"type": "string"
						}
					],
					"stateMutability": "view",
					"type": "function"
				},
				{
					"inputs": [],
					"name": "end",
					"outputs": [
						{
							"internalType": "string",
							"name": "",
							"type": "string"
						}
					],
					"stateMutability": "view",
					"type": "function"
				},
				{
					"inputs": [],
					"name": "endTime",
					"outputs": [
						{
							"internalType": "uint256",
							"name": "",
							"type": "uint256"
						}
					],
					"stateMutability": "view",
					"type": "function"
				},
				{
					"inputs": [
						{
							"internalType": "uint256",
							"name": "_candidateId",
							"type": "uint256"
						}
					],
					"name": "getCandidate",
					"outputs": [
						{
							"internalType": "string",
							"name": "",
							"type": "string"
						},
						{
							"internalType": "uint256",
							"name": "",
							"type": "uint256"
						}
					],
					"stateMutability": "view",
					"type": "function"
				},
				{
					"inputs": [],
					"name": "getElectionStatus",
					"outputs": [
						{
							"internalType": "bool",
							"name": "",
							"type": "bool"
						}
					],
					"stateMutability": "view",
					"type": "function"
				},
				{
					"inputs": [],
					"name": "getResults",
					"outputs": [
						{
							"internalType": "uint256[]",
							"name": "",
							"type": "uint256[]"
						}
					],
					"stateMutability": "view",
					"type": "function"
				},
				{
					"inputs": [],
					"name": "owner",
					"outputs": [
						{
							"internalType": "address",
							"name": "",
							"type": "address"
						}
					],
					"stateMutability": "view",
					"type": "function"
				},
				{
					"inputs": [],
					"name": "startTime",
					"outputs": [
						{
							"internalType": "uint256",
							"name": "",
							"type": "uint256"
						}
					],
					"stateMutability": "view",
					"type": "function"
				},
				{
					"inputs": [],
					"name": "totalVotes",
					"outputs": [
						{
							"internalType": "uint256",
							"name": "",
							"type": "uint256"
						}
					],
					"stateMutability": "view",
					"type": "function"
				},
				{
					"inputs": [
						{
							"internalType": "address",
							"name": "_person",
							"type": "address"
						}
					],
					"name": "unauthorize",
					"outputs": [],
					"stateMutability": "nonpayable",
					"type": "function"
				},
				{
					"inputs": [
						{
							"internalType": "uint256",
							"name": "_candidateId",
							"type": "uint256"
						}
					],
					"name": "vote",
					"outputs": [],
					"stateMutability": "nonpayable",
					"type": "function"
				},
				{
					"inputs": [
						{
							"internalType": "address",
							"name": "",
							"type": "address"
						}
					],
					"name": "voters",
					"outputs": [
						{
							"internalType": "bool",
							"name": "authorized",
							"type": "bool"
						},
						{
							"internalType": "bool",
							"name": "voted",
							"type": "bool"
						},
						{
							"internalType": "uint256",
							"name": "vote",
							"type": "uint256"
						}
					],
					"stateMutability": "view",
					"type": "function"
				}
			],
			"devdoc": {
				"kind": "dev",
				"methods": {},
				"version": 1
			},
			"evm": {
				"assembly": "    /* \"election.sol\":112:7331  contract Voting {... */\n  mstore(0x40, 0x80)\n    /* \"election.sol\":2222:2706  constructor(string memory _name, uint _votingDuration) {... */\n  callvalue\n  dup1\n  iszero\n  tag_1\n  jumpi\n  revert(0x00, 0x00)\ntag_1:\n  pop\n  mload(0x40)\n  sub(codesize, bytecodeSize)\n  dup1\n  bytecodeSize\n  dup4\n  codecopy\n  dup2\n  dup2\n  add\n  0x40\n  mstore\n  dup2\n  add\n  swap1\n  tag_2\n  swap2\n  swap1\n  tag_3\n  jump\t// in\ntag_2:\n    /* \"election.sol\":2295:2305  msg.sender */\n  caller\n    /* \"election.sol\":2287:2292  owner */\n  0x00\n  0x00\n    /* \"election.sol\":2287:2305  owner = msg.sender */\n  0x0100\n  exp\n  dup2\n  sload\n  dup2\n  0xffffffffffffffffffffffffffffffffffffffff\n  mul\n  not\n  and\n  swap1\n  dup4\n  0xffffffffffffffffffffffffffffffffffffffff\n  and\n  mul\n  or\n  swap1\n  sstore\n  pop\n    /* \"election.sol\":2415:2420  _name */\n  dup2\n    /* \"election.sol\":2400:2412  electionName */\n  0x01\n    /* \"election.sol\":2400:2420  electionName = _name */\n  swap1\n  dup2\n  tag_6\n  swap2\n  swap1\n  tag_7\n  jump\t// in\ntag_6:\n  pop\n    /* \"election.sol\":2499:2514  block.timestamp */\n  timestamp\n    /* \"election.sol\":2487:2496  startTime */\n  0x02\n    /* \"election.sol\":2487:2514  startTime = block.timestamp */\n  dup2\n  swap1\n  sstore\n  pop\n    /* \"election.sol\":2625:2640  _votingDuration */\n  dup1\n    /* \"election.sol\":2607:2622  block.timestamp */\n  timestamp\n    /* \"election.sol\":2607:2640  block.timestamp + _votingDuration */\n  tag_8\n  swap2\n  swap1\n  tag_9\n  jump\t// in\ntag_8:\n    /* \"election.sol\":2597:2604  endTime */\n  0x03\n    /* \"election.sol\":2597:2640  endTime = block.timestamp + _votingDuration */\n  dup2\n  swap1\n  sstore\n  pop\n    /* \"election.sol\":2222:2706  constructor(string memory _name, uint _votingDuration) {... */\n  pop\n  pop\n    /* \"election.sol\":112:7331  contract Voting {... */\n  jump(tag_10)\n    /* \"#utility.yul\":7:82   */\ntag_11:\n    /* \"#utility.yul\":40:46   */\n  0x00\n    /* \"#utility.yul\":73:75   */\n  0x40\n    /* \"#utility.yul\":67:76   */\n  mload\n    /* \"#utility.yul\":57:76   */\n  swap1\n  pop\n    /* \"#utility.yul\":7:82   */\n  swap1\n  jump\t// out\n    /* \"#utility.yul\":88:205   */\ntag_12:\n    /* \"#utility.yul\":197:198   */\n  0x00\n    /* \"#utility.yul\":194:195   */\n  0x00\n    /* \"#utility.yul\":187:199   */\n  revert\n    /* \"#utility.yul\":211:328   */\ntag_13:\n    /* \"#utility.yul\":320:321   */\n  0x00\n    /* \"#utility.yul\":317:318   */\n  0x00\n    /* \"#utility.yul\":310:322   */\n  revert\n    /* \"#utility.yul\":334:451   */\ntag_14:\n    /* \"#utility.yul\":443:444   */\n  0x00\n    /* \"#utility.yul\":440:441   */\n  0x00\n    /* \"#utility.yul\":433:445   */\n  revert\n    /* \"#utility.yul\":457:574   */\ntag_15:\n    /* \"#utility.yul\":566:567   */\n  0x00\n    /* \"#utility.yul\":563:564   */\n  0x00\n    /* \"#utility.yul\":556:568   */\n  revert\n    /* \"#utility.yul\":580:682   */\ntag_16:\n    /* \"#utility.yul\":621:627   */\n  0x00\n    /* \"#utility.yul\":672:674   */\n  0x1f\n    /* \"#utility.yul\":668:675   */\n  not\n    /* \"#utility.yul\":663:665   */\n  0x1f\n    /* \"#utility.yul\":656:661   */\n  dup4\n    /* \"#utility.yul\":652:666   */\n  add\n    /* \"#utility.yul\":648:676   */\n  and\n    /* \"#utility.yul\":638:676   */\n  swap1\n  pop\n    /* \"#utility.yul\":580:682   */\n  swap2\n  swap1\n  pop\n  jump\t// out\n    /* \"#utility.yul\":688:868   */\ntag_17:\n    /* \"#utility.yul\":736:813   */\n  0x4e487b7100000000000000000000000000000000000000000000000000000000\n    /* \"#utility.yul\":733:734   */\n  0x00\n    /* \"#utility.yul\":726:814   */\n  mstore\n    /* \"#utility.yul\":833:837   */\n  0x41\n    /* \"#utility.yul\":830:831   */\n  0x04\n    /* \"#utility.yul\":823:838   */\n  mstore\n    /* \"#utility.yul\":857:861   */\n  0x24\n    /* \"#utility.yul\":854:855   */\n  0x00\n    /* \"#utility.yul\":847:862   */\n  revert\n    /* \"#utility.yul\":874:1155   */\ntag_18:\n    /* \"#utility.yul\":957:984   */\n  tag_55\n    /* \"#utility.yul\":979:983   */\n  dup3\n    /* \"#utility.yul\":957:984   */\n  tag_16\n  jump\t// in\ntag_55:\n    /* \"#utility.yul\":949:955   */\n  dup2\n    /* \"#utility.yul\":945:985   */\n  add\n    /* \"#utility.yul\":1087:1093   */\n  dup2\n    /* \"#utility.yul\":1075:1085   */\n  dup2\n    /* \"#utility.yul\":1072:1094   */\n  lt\n    /* \"#utility.yul\":1051:1069   */\n  0xffffffffffffffff\n    /* \"#utility.yul\":1039:1049   */\n  dup3\n    /* \"#utility.yul\":1036:1070   */\n  gt\n    /* \"#utility.yul\":1033:1095   */\n  or\n    /* \"#utility.yul\":1030:1118   */\n  iszero\n  tag_56\n  jumpi\n    /* \"#utility.yul\":1098:1116   */\n  tag_57\n  tag_17\n  jump\t// in\ntag_57:\n    /* \"#utility.yul\":1030:1118   */\ntag_56:\n    /* \"#utility.yul\":1138:1148   */\n  dup1\n    /* \"#utility.yul\":1134:1136   */\n  0x40\n    /* \"#utility.yul\":1127:1149   */\n  mstore\n    /* \"#utility.yul\":917:1155   */\n  pop\n    /* \"#utility.yul\":874:1155   */\n  pop\n  pop\n  jump\t// out\n    /* \"#utility.yul\":1161:1290   */\ntag_19:\n    /* \"#utility.yul\":1195:1201   */\n  0x00\n    /* \"#utility.yul\":1222:1242   */\n  tag_59\n  tag_11\n  jump\t// in\ntag_59:\n    /* \"#utility.yul\":1212:1242   */\n  swap1\n  pop\n    /* \"#utility.yul\":1251:1284   */\n  tag_60\n    /* \"#utility.yul\":1279:1283   */\n  dup3\n    /* \"#utility.yul\":1271:1277   */\n  dup3\n    /* \"#utility.yul\":1251:1284   */\n  tag_18\n  jump\t// in\ntag_60:\n    /* \"#utility.yul\":1161:1290   */\n  swap2\n  swap1\n  pop\n  jump\t// out\n    /* \"#utility.yul\":1296:1604   */\ntag_20:\n    /* \"#utility.yul\":1358:1362   */\n  0x00\n    /* \"#utility.yul\":1448:1466   */\n  0xffffffffffffffff\n    /* \"#utility.yul\":1440:1446   */\n  dup3\n    /* \"#utility.yul\":1437:1467   */\n  gt\n    /* \"#utility.yul\":1434:1490   */\n  iszero\n  tag_62\n  jumpi\n    /* \"#utility.yul\":1470:1488   */\n  tag_63\n  tag_17\n  jump\t// in\ntag_63:\n    /* \"#utility.yul\":1434:1490   */\ntag_62:\n    /* \"#utility.yul\":1508:1537   */\n  tag_64\n    /* \"#utility.yul\":1530:1536   */\n  dup3\n    /* \"#utility.yul\":1508:1537   */\n  tag_16\n  jump\t// in\ntag_64:\n    /* \"#utility.yul\":1500:1537   */\n  swap1\n  pop\n    /* \"#utility.yul\":1592:1596   */\n  0x20\n    /* \"#utility.yul\":1586:1590   */\n  dup2\n    /* \"#utility.yul\":1582:1597   */\n  add\n    /* \"#utility.yul\":1574:1597   */\n  swap1\n  pop\n    /* \"#utility.yul\":1296:1604   */\n  swap2\n  swap1\n  pop\n  jump\t// out\n    /* \"#utility.yul\":1610:1749   */\ntag_21:\n    /* \"#utility.yul\":1699:1705   */\n  dup3\n    /* \"#utility.yul\":1694:1697   */\n  dup2\n    /* \"#utility.yul\":1689:1692   */\n  dup4\n    /* \"#utility.yul\":1683:1706   */\n  mcopy\n    /* \"#utility.yul\":1740:1741   */\n  0x00\n    /* \"#utility.yul\":1731:1737   */\n  dup4\n    /* \"#utility.yul\":1726:1729   */\n  dup4\n    /* \"#utility.yul\":1722:1738   */\n  add\n    /* \"#utility.yul\":1715:1742   */\n  mstore\n    /* \"#utility.yul\":1610:1749   */\n  pop\n  pop\n  pop\n  jump\t// out\n    /* \"#utility.yul\":1755:2189   */\ntag_22:\n    /* \"#utility.yul\":1844:1849   */\n  0x00\n    /* \"#utility.yul\":1869:1935   */\n  tag_67\n    /* \"#utility.yul\":1885:1934   */\n  tag_68\n    /* \"#utility.yul\":1927:1933   */\n  dup5\n    /* \"#utility.yul\":1885:1934   */\n  tag_20\n  jump\t// in\ntag_68:\n    /* \"#utility.yul\":1869:1935   */\n  tag_19\n  jump\t// in\ntag_67:\n    /* \"#utility.yul\":1860:1935   */\n  swap1\n  pop\n    /* \"#utility.yul\":1958:1964   */\n  dup3\n    /* \"#utility.yul\":1951:1956   */\n  dup2\n    /* \"#utility.yul\":1944:1965   */\n  mstore\n    /* \"#utility.yul\":1996:2000   */\n  0x20\n    /* \"#utility.yul\":1989:1994   */\n  dup2\n    /* \"#utility.yul\":1985:2001   */\n  add\n    /* \"#utility.yul\":2034:2037   */\n  dup5\n    /* \"#utility.yul\":2025:2031   */\n  dup5\n    /* \"#utility.yul\":2020:2023   */\n  dup5\n    /* \"#utility.yul\":2016:2032   */\n  add\n    /* \"#utility.yul\":2013:2038   */\n  gt\n    /* \"#utility.yul\":2010:2122   */\n  iszero\n  tag_69\n  jumpi\n    /* \"#utility.yul\":2041:2120   */\n  tag_70\n  tag_15\n  jump\t// in\ntag_70:\n    /* \"#utility.yul\":2010:2122   */\ntag_69:\n    /* \"#utility.yul\":2131:2183   */\n  tag_71\n    /* \"#utility.yul\":2176:2182   */\n  dup5\n    /* \"#utility.yul\":2171:2174   */\n  dup3\n    /* \"#utility.yul\":2166:2169   */\n  dup6\n    /* \"#utility.yul\":2131:2183   */\n  tag_21\n  jump\t// in\ntag_71:\n    /* \"#utility.yul\":1850:2189   */\n  pop\n    /* \"#utility.yul\":1755:2189   */\n  swap4\n  swap3\n  pop\n  pop\n  pop\n  jump\t// out\n    /* \"#utility.yul\":2209:2564   */\ntag_23:\n    /* \"#utility.yul\":2276:2281   */\n  0x00\n    /* \"#utility.yul\":2325:2328   */\n  dup3\n    /* \"#utility.yul\":2318:2322   */\n  0x1f\n    /* \"#utility.yul\":2310:2316   */\n  dup4\n    /* \"#utility.yul\":2306:2323   */\n  add\n    /* \"#utility.yul\":2302:2329   */\n  slt\n    /* \"#utility.yul\":2292:2414   */\n  tag_73\n  jumpi\n    /* \"#utility.yul\":2333:2412   */\n  tag_74\n  tag_14\n  jump\t// in\ntag_74:\n    /* \"#utility.yul\":2292:2414   */\ntag_73:\n    /* \"#utility.yul\":2443:2449   */\n  dup2\n    /* \"#utility.yul\":2437:2450   */\n  mload\n    /* \"#utility.yul\":2468:2558   */\n  tag_75\n    /* \"#utility.yul\":2554:2557   */\n  dup5\n    /* \"#utility.yul\":2546:2552   */\n  dup3\n    /* \"#utility.yul\":2539:2543   */\n  0x20\n    /* \"#utility.yul\":2531:2537   */\n  dup7\n    /* \"#utility.yul\":2527:2544   */\n  add\n    /* \"#utility.yul\":2468:2558   */\n  tag_22\n  jump\t// in\ntag_75:\n    /* \"#utility.yul\":2459:2558   */\n  swap2\n  pop\n    /* \"#utility.yul\":2282:2564   */\n  pop\n    /* \"#utility.yul\":2209:2564   */\n  swap3\n  swap2\n  pop\n  pop\n  jump\t// out\n    /* \"#utility.yul\":2570:2647   */\ntag_24:\n    /* \"#utility.yul\":2607:2614   */\n  0x00\n    /* \"#utility.yul\":2636:2641   */\n  dup2\n    /* \"#utility.yul\":2625:2641   */\n  swap1\n  pop\n    /* \"#utility.yul\":2570:2647   */\n  swap2\n  swap1\n  pop\n  jump\t// out\n    /* \"#utility.yul\":2653:2775   */\ntag_25:\n    /* \"#utility.yul\":2726:2750   */\n  tag_78\n    /* \"#utility.yul\":2744:2749   */\n  dup2\n    /* \"#utility.yul\":2726:2750   */\n  tag_24\n  jump\t// in\ntag_78:\n    /* \"#utility.yul\":2719:2724   */\n  dup2\n    /* \"#utility.yul\":2716:2751   */\n  eq\n    /* \"#utility.yul\":2706:2769   */\n  tag_79\n  jumpi\n    /* \"#utility.yul\":2765:2766   */\n  0x00\n    /* \"#utility.yul\":2762:2763   */\n  0x00\n    /* \"#utility.yul\":2755:2767   */\n  revert\n    /* \"#utility.yul\":2706:2769   */\ntag_79:\n    /* \"#utility.yul\":2653:2775   */\n  pop\n  jump\t// out\n    /* \"#utility.yul\":2781:2924   */\ntag_26:\n    /* \"#utility.yul\":2838:2843   */\n  0x00\n    /* \"#utility.yul\":2869:2875   */\n  dup2\n    /* \"#utility.yul\":2863:2876   */\n  mload\n    /* \"#utility.yul\":2854:2876   */\n  swap1\n  pop\n    /* \"#utility.yul\":2885:2918   */\n  tag_81\n    /* \"#utility.yul\":2912:2917   */\n  dup2\n    /* \"#utility.yul\":2885:2918   */\n  tag_25\n  jump\t// in\ntag_81:\n    /* \"#utility.yul\":2781:2924   */\n  swap3\n  swap2\n  pop\n  pop\n  jump\t// out\n    /* \"#utility.yul\":2930:3610   */\ntag_3:\n    /* \"#utility.yul\":3019:3025   */\n  0x00\n    /* \"#utility.yul\":3027:3033   */\n  0x00\n    /* \"#utility.yul\":3076:3078   */\n  0x40\n    /* \"#utility.yul\":3064:3073   */\n  dup4\n    /* \"#utility.yul\":3055:3062   */\n  dup6\n    /* \"#utility.yul\":3051:3074   */\n  sub\n    /* \"#utility.yul\":3047:3079   */\n  slt\n    /* \"#utility.yul\":3044:3163   */\n  iszero\n  tag_83\n  jumpi\n    /* \"#utility.yul\":3082:3161   */\n  tag_84\n  tag_12\n  jump\t// in\ntag_84:\n    /* \"#utility.yul\":3044:3163   */\ntag_83:\n    /* \"#utility.yul\":3223:3224   */\n  0x00\n    /* \"#utility.yul\":3212:3221   */\n  dup4\n    /* \"#utility.yul\":3208:3225   */\n  add\n    /* \"#utility.yul\":3202:3226   */\n  mload\n    /* \"#utility.yul\":3253:3271   */\n  0xffffffffffffffff\n    /* \"#utility.yul\":3245:3251   */\n  dup2\n    /* \"#utility.yul\":3242:3272   */\n  gt\n    /* \"#utility.yul\":3239:3356   */\n  iszero\n  tag_85\n  jumpi\n    /* \"#utility.yul\":3275:3354   */\n  tag_86\n  tag_13\n  jump\t// in\ntag_86:\n    /* \"#utility.yul\":3239:3356   */\ntag_85:\n    /* \"#utility.yul\":3380:3454   */\n  tag_87\n    /* \"#utility.yul\":3446:3453   */\n  dup6\n    /* \"#utility.yul\":3437:3443   */\n  dup3\n    /* \"#utility.yul\":3426:3435   */\n  dup7\n    /* \"#utility.yul\":3422:3444   */\n  add\n    /* \"#utility.yul\":3380:3454   */\n  tag_23\n  jump\t// in\ntag_87:\n    /* \"#utility.yul\":3370:3454   */\n  swap3\n  pop\n    /* \"#utility.yul\":3173:3464   */\n  pop\n    /* \"#utility.yul\":3503:3505   */\n  0x20\n    /* \"#utility.yul\":3529:3593   */\n  tag_88\n    /* \"#utility.yul\":3585:3592   */\n  dup6\n    /* \"#utility.yul\":3576:3582   */\n  dup3\n    /* \"#utility.yul\":3565:3574   */\n  dup7\n    /* \"#utility.yul\":3561:3583   */\n  add\n    /* \"#utility.yul\":3529:3593   */\n  tag_26\n  jump\t// in\ntag_88:\n    /* \"#utility.yul\":3519:3593   */\n  swap2\n  pop\n    /* \"#utility.yul\":3474:3603   */\n  pop\n    /* \"#utility.yul\":2930:3610   */\n  swap3\n  pop\n  swap3\n  swap1\n  pop\n  jump\t// out\n    /* \"#utility.yul\":3616:3715   */\ntag_27:\n    /* \"#utility.yul\":3668:3674   */\n  0x00\n    /* \"#utility.yul\":3702:3707   */\n  dup2\n    /* \"#utility.yul\":3696:3708   */\n  mload\n    /* \"#utility.yul\":3686:3708   */\n  swap1\n  pop\n    /* \"#utility.yul\":3616:3715   */\n  swap2\n  swap1\n  pop\n  jump\t// out\n    /* \"#utility.yul\":3721:3901   */\ntag_28:\n    /* \"#utility.yul\":3769:3846   */\n  0x4e487b7100000000000000000000000000000000000000000000000000000000\n    /* \"#utility.yul\":3766:3767   */\n  0x00\n    /* \"#utility.yul\":3759:3847   */\n  mstore\n    /* \"#utility.yul\":3866:3870   */\n  0x22\n    /* \"#utility.yul\":3863:3864   */\n  0x04\n    /* \"#utility.yul\":3856:3871   */\n  mstore\n    /* \"#utility.yul\":3890:3894   */\n  0x24\n    /* \"#utility.yul\":3887:3888   */\n  0x00\n    /* \"#utility.yul\":3880:3895   */\n  revert\n    /* \"#utility.yul\":3907:4227   */\ntag_29:\n    /* \"#utility.yul\":3951:3957   */\n  0x00\n    /* \"#utility.yul\":3988:3989   */\n  0x02\n    /* \"#utility.yul\":3982:3986   */\n  dup3\n    /* \"#utility.yul\":3978:3990   */\n  div\n    /* \"#utility.yul\":3968:3990   */\n  swap1\n  pop\n    /* \"#utility.yul\":4035:4036   */\n  0x01\n    /* \"#utility.yul\":4029:4033   */\n  dup3\n    /* \"#utility.yul\":4025:4037   */\n  and\n    /* \"#utility.yul\":4056:4074   */\n  dup1\n    /* \"#utility.yul\":4046:4127   */\n  tag_92\n  jumpi\n    /* \"#utility.yul\":4112:4116   */\n  0x7f\n    /* \"#utility.yul\":4104:4110   */\n  dup3\n    /* \"#utility.yul\":4100:4117   */\n  and\n    /* \"#utility.yul\":4090:4117   */\n  swap2\n  pop\n    /* \"#utility.yul\":4046:4127   */\ntag_92:\n    /* \"#utility.yul\":4174:4176   */\n  0x20\n    /* \"#utility.yul\":4166:4172   */\n  dup3\n    /* \"#utility.yul\":4163:4177   */\n  lt\n    /* \"#utility.yul\":4143:4161   */\n  dup2\n    /* \"#utility.yul\":4140:4178   */\n  sub\n    /* \"#utility.yul\":4137:4221   */\n  tag_93\n  jumpi\n    /* \"#utility.yul\":4193:4211   */\n  tag_94\n  tag_28\n  jump\t// in\ntag_94:\n    /* \"#utility.yul\":4137:4221   */\ntag_93:\n    /* \"#utility.yul\":3958:4227   */\n  pop\n    /* \"#utility.yul\":3907:4227   */\n  swap2\n  swap1\n  pop\n  jump\t// out\n    /* \"#utility.yul\":4233:4374   */\ntag_30:\n    /* \"#utility.yul\":4282:4286   */\n  0x00\n    /* \"#utility.yul\":4305:4308   */\n  dup2\n    /* \"#utility.yul\":4297:4308   */\n  swap1\n  pop\n    /* \"#utility.yul\":4328:4331   */\n  dup2\n    /* \"#utility.yul\":4325:4326   */\n  0x00\n    /* \"#utility.yul\":4318:4332   */\n  mstore\n    /* \"#utility.yul\":4362:4366   */\n  0x20\n    /* \"#utility.yul\":4359:4360   */\n  0x00\n    /* \"#utility.yul\":4349:4367   */\n  keccak256\n    /* \"#utility.yul\":4341:4367   */\n  swap1\n  pop\n    /* \"#utility.yul\":4233:4374   */\n  swap2\n  swap1\n  pop\n  jump\t// out\n    /* \"#utility.yul\":4380:4473   */\ntag_31:\n    /* \"#utility.yul\":4417:4423   */\n  0x00\n    /* \"#utility.yul\":4464:4466   */\n  0x20\n    /* \"#utility.yul\":4459:4461   */\n  0x1f\n    /* \"#utility.yul\":4452:4457   */\n  dup4\n    /* \"#utility.yul\":4448:4462   */\n  add\n    /* \"#utility.yul\":4444:4467   */\n  div\n    /* \"#utility.yul\":4434:4467   */\n  swap1\n  pop\n    /* \"#utility.yul\":4380:4473   */\n  swap2\n  swap1\n  pop\n  jump\t// out\n    /* \"#utility.yul\":4479:4586   */\ntag_32:\n    /* \"#utility.yul\":4523:4531   */\n  0x00\n    /* \"#utility.yul\":4573:4578   */\n  dup3\n    /* \"#utility.yul\":4567:4571   */\n  dup3\n    /* \"#utility.yul\":4563:4579   */\n  shl\n    /* \"#utility.yul\":4542:4579   */\n  swap1\n  pop\n    /* \"#utility.yul\":4479:4586   */\n  swap3\n  swap2\n  pop\n  pop\n  jump\t// out\n    /* \"#utility.yul\":4592:4985   */\ntag_33:\n    /* \"#utility.yul\":4661:4667   */\n  0x00\n    /* \"#utility.yul\":4711:4712   */\n  0x08\n    /* \"#utility.yul\":4699:4709   */\n  dup4\n    /* \"#utility.yul\":4695:4713   */\n  mul\n    /* \"#utility.yul\":4734:4831   */\n  tag_99\n    /* \"#utility.yul\":4764:4830   */\n  0xffffffffffffffffffffffffffffffffffffffffffffffffffffffffffffffff\n    /* \"#utility.yul\":4753:4762   */\n  dup3\n    /* \"#utility.yul\":4734:4831   */\n  tag_32\n  jump\t// in\ntag_99:\n    /* \"#utility.yul\":4852:4891   */\n  tag_100\n    /* \"#utility.yul\":4882:4890   */\n  dup7\n    /* \"#utility.yul\":4871:4880   */\n  dup4\n    /* \"#utility.yul\":4852:4891   */\n  tag_32\n  jump\t// in\ntag_100:\n    /* \"#utility.yul\":4840:4891   */\n  swap6\n  pop\n    /* \"#utility.yul\":4924:4928   */\n  dup1\n    /* \"#utility.yul\":4920:4929   */\n  not\n    /* \"#utility.yul\":4913:4918   */\n  dup5\n    /* \"#utility.yul\":4909:4930   */\n  and\n    /* \"#utility.yul\":4900:4930   */\n  swap4\n  pop\n    /* \"#utility.yul\":4973:4977   */\n  dup1\n    /* \"#utility.yul\":4963:4971   */\n  dup7\n    /* \"#utility.yul\":4959:4978   */\n  and\n    /* \"#utility.yul\":4952:4957   */\n  dup5\n    /* \"#utility.yul\":4949:4979   */\n  or\n    /* \"#utility.yul\":4939:4979   */\n  swap3\n  pop\n    /* \"#utility.yul\":4668:4985   */\n  pop\n  pop\n    /* \"#utility.yul\":4592:4985   */\n  swap4\n  swap3\n  pop\n  pop\n  pop\n  jump\t// out\n    /* \"#utility.yul\":4991:5051   */\ntag_34:\n    /* \"#utility.yul\":5019:5022   */\n  0x00\n    /* \"#utility.yul\":5040:5045   */\n  dup2\n    /* \"#utility.yul\":5033:5045   */\n  swap1\n  pop\n    /* \"#utility.yul\":4991:5051   */\n  swap2\n  swap1\n  pop\n  jump\t// out\n    /* \"#utility.yul\":5057:5199   */\ntag_35:\n    /* \"#utility.yul\":5107:5116   */\n  0x00\n    /* \"#utility.yul\":5140:5193   */\n  tag_103\n    /* \"#utility.yul\":5158:5192   */\n  tag_104\n    /* \"#utility.yul\":5167:5191   */\n  tag_105\n    /* \"#utility.yul\":5185:5190   */\n  dup5\n    /* \"#utility.yul\":5167:5191   */\n  tag_24\n  jump\t// in\ntag_105:\n    /* \"#utility.yul\":5158:5192   */\n  tag_34\n  jump\t// in\ntag_104:\n    /* \"#utility.yul\":5140:5193   */\n  tag_24\n  jump\t// in\ntag_103:\n    /* \"#utility.yul\":5127:5193   */\n  swap1\n  pop\n    /* \"#utility.yul\":5057:5199   */\n  swap2\n  swap1\n  pop\n  jump\t// out\n    /* \"#utility.yul\":5205:5280   */\ntag_36:\n    /* \"#utility.yul\":5248:5251   */\n  0x00\n    /* \"#utility.yul\":5269:5274   */\n  dup2\n    /* \"#utility.yul\":5262:5274   */\n  swap1\n  pop\n    /* \"#utility.yul\":5205:5280   */\n  swap2\n  swap1\n  pop\n  jump\t// out\n    /* \"#utility.yul\":5286:5555   */\ntag_37:\n    /* \"#utility.yul\":5396:5435   */\n  tag_108\n    /* \"#utility.yul\":5427:5434   */\n  dup4\n    /* \"#utility.yul\":5396:5435   */\n  tag_35\n  jump\t// in\ntag_108:\n    /* \"#utility.yul\":5457:5548   */\n  tag_109\n    /* \"#utility.yul\":5506:5547   */\n  tag_110\n    /* \"#utility.yul\":5530:5546   */\n  dup3\n    /* \"#utility.yul\":5506:5547   */\n  tag_36\n  jump\t// in\ntag_110:\n    /* \"#utility.yul\":5498:5504   */\n  dup5\n    /* \"#utility.yul\":5491:5495   */\n  dup5\n    /* \"#utility.yul\":5485:5496   */\n  sload\n    /* \"#utility.yul\":5457:5548   */\n  tag_33\n  jump\t// in\ntag_109:\n    /* \"#utility.yul\":5451:5455   */\n  dup3\n    /* \"#utility.yul\":5444:5549   */\n  sstore\n    /* \"#utility.yul\":5362:5555   */\n  pop\n    /* \"#utility.yul\":5286:5555   */\n  pop\n  pop\n  pop\n  jump\t// out\n    /* \"#utility.yul\":5561:5634   */\ntag_38:\n    /* \"#utility.yul\":5606:5609   */\n  0x00\n    /* \"#utility.yul\":5627:5628   */\n  0x00\n    /* \"#utility.yul\":5620:5628   */\n  swap1\n  pop\n    /* \"#utility.yul\":5561:5634   */\n  swap1\n  jump\t// out\n    /* \"#utility.yul\":5640:5829   */\ntag_39:\n    /* \"#utility.yul\":5717:5749   */\n  tag_113\n  tag_38\n  jump\t// in\ntag_113:\n    /* \"#utility.yul\":5758:5823   */\n  tag_114\n    /* \"#utility.yul\":5816:5822   */\n  dup2\n    /* \"#utility.yul\":5808:5814   */\n  dup5\n    /* \"#utility.yul\":5802:5806   */\n  dup5\n    /* \"#utility.yul\":5758:5823   */\n  tag_37\n  jump\t// in\ntag_114:\n    /* \"#utility.yul\":5693:5829   */\n  pop\n    /* \"#utility.yul\":5640:5829   */\n  pop\n  pop\n  jump\t// out\n    /* \"#utility.yul\":5835:6021   */\ntag_40:\n    /* \"#utility.yul\":5895:6015   */\ntag_116:\n    /* \"#utility.yul\":5912:5915   */\n  dup2\n    /* \"#utility.yul\":5905:5910   */\n  dup2\n    /* \"#utility.yul\":5902:5916   */\n  lt\n    /* \"#utility.yul\":5895:6015   */\n  iszero\n  tag_118\n  jumpi\n    /* \"#utility.yul\":5966:6005   */\n  tag_119\n    /* \"#utility.yul\":6003:6004   */\n  0x00\n    /* \"#utility.yul\":5996:6001   */\n  dup3\n    /* \"#utility.yul\":5966:6005   */\n  tag_39\n  jump\t// in\ntag_119:\n    /* \"#utility.yul\":5939:5940   */\n  0x01\n    /* \"#utility.yul\":5932:5937   */\n  dup2\n    /* \"#utility.yul\":5928:5941   */\n  add\n    /* \"#utility.yul\":5919:5941   */\n  swap1\n  pop\n    /* \"#utility.yul\":5895:6015   */\n  jump(tag_116)\ntag_118:\n    /* \"#utility.yul\":5835:6021   */\n  pop\n  pop\n  jump\t// out\n    /* \"#utility.yul\":6027:6570   */\ntag_41:\n    /* \"#utility.yul\":6128:6130   */\n  0x1f\n    /* \"#utility.yul\":6123:6126   */\n  dup3\n    /* \"#utility.yul\":6120:6131   */\n  gt\n    /* \"#utility.yul\":6117:6563   */\n  iszero\n  tag_121\n  jumpi\n    /* \"#utility.yul\":6162:6200   */\n  tag_122\n    /* \"#utility.yul\":6194:6199   */\n  dup2\n    /* \"#utility.yul\":6162:6200   */\n  tag_30\n  jump\t// in\ntag_122:\n    /* \"#utility.yul\":6246:6275   */\n  tag_123\n    /* \"#utility.yul\":6264:6274   */\n  dup5\n    /* \"#utility.yul\":6246:6275   */\n  tag_31\n  jump\t// in\ntag_123:\n    /* \"#utility.yul\":6236:6244   */\n  dup2\n    /* \"#utility.yul\":6232:6276   */\n  add\n    /* \"#utility.yul\":6429:6431   */\n  0x20\n    /* \"#utility.yul\":6417:6427   */\n  dup6\n    /* \"#utility.yul\":6414:6432   */\n  lt\n    /* \"#utility.yul\":6411:6460   */\n  iszero\n  tag_124\n  jumpi\n    /* \"#utility.yul\":6450:6458   */\n  dup2\n    /* \"#utility.yul\":6435:6458   */\n  swap1\n  pop\n    /* \"#utility.yul\":6411:6460   */\ntag_124:\n    /* \"#utility.yul\":6473:6553   */\n  tag_125\n    /* \"#utility.yul\":6529:6551   */\n  tag_126\n    /* \"#utility.yul\":6547:6550   */\n  dup6\n    /* \"#utility.yul\":6529:6551   */\n  tag_31\n  jump\t// in\ntag_126:\n    /* \"#utility.yul\":6519:6527   */\n  dup4\n    /* \"#utility.yul\":6515:6552   */\n  add\n    /* \"#utility.yul\":6502:6513   */\n  dup3\n    /* \"#utility.yul\":6473:6553   */\n  tag_40\n  jump\t// in\ntag_125:\n    /* \"#utility.yul\":6132:6563   */\n  pop\n  pop\n    /* \"#utility.yul\":6117:6563   */\ntag_121:\n    /* \"#utility.yul\":6027:6570   */\n  pop\n  pop\n  pop\n  jump\t// out\n    /* \"#utility.yul\":6576:6693   */\ntag_42:\n    /* \"#utility.yul\":6630:6638   */\n  0x00\n    /* \"#utility.yul\":6680:6685   */\n  dup3\n    /* \"#utility.yul\":6674:6678   */\n  dup3\n    /* \"#utility.yul\":6670:6686   */\n  shr\n    /* \"#utility.yul\":6649:6686   */\n  swap1\n  pop\n    /* \"#utility.yul\":6576:6693   */\n  swap3\n  swap2\n  pop\n  pop\n  jump\t// out\n    /* \"#utility.yul\":6699:6868   */\ntag_43:\n    /* \"#utility.yul\":6743:6749   */\n  0x00\n    /* \"#utility.yul\":6776:6827   */\n  tag_129\n    /* \"#utility.yul\":6824:6825   */\n  0x00\n    /* \"#utility.yul\":6820:6826   */\n  not\n    /* \"#utility.yul\":6812:6817   */\n  dup5\n    /* \"#utility.yul\":6809:6810   */\n  0x08\n    /* \"#utility.yul\":6805:6818   */\n  mul\n    /* \"#utility.yul\":6776:6827   */\n  tag_42\n  jump\t// in\ntag_129:\n    /* \"#utility.yul\":6772:6828   */\n  not\n    /* \"#utility.yul\":6857:6861   */\n  dup1\n    /* \"#utility.yul\":6851:6855   */\n  dup4\n    /* \"#utility.yul\":6847:6862   */\n  and\n    /* \"#utility.yul\":6837:6862   */\n  swap2\n  pop\n    /* \"#utility.yul\":6750:6868   */\n  pop\n    /* \"#utility.yul\":6699:6868   */\n  swap3\n  swap2\n  pop\n  pop\n  jump\t// out\n    /* \"#utility.yul\":6873:7168   */\ntag_44:\n    /* \"#utility.yul\":6949:6953   */\n  0x00\n    /* \"#utility.yul\":7095:7124   */\n  tag_131\n    /* \"#utility.yul\":7120:7123   */\n  dup4\n    /* \"#utility.yul\":7114:7118   */\n  dup4\n    /* \"#utility.yul\":7095:7124   */\n  tag_43\n  jump\t// in\ntag_131:\n    /* \"#utility.yul\":7087:7124   */\n  swap2\n  pop\n    /* \"#utility.yul\":7157:7160   */\n  dup3\n    /* \"#utility.yul\":7154:7155   */\n  0x02\n    /* \"#utility.yul\":7150:7161   */\n  mul\n    /* \"#utility.yul\":7144:7148   */\n  dup3\n    /* \"#utility.yul\":7141:7162   */\n  or\n    /* \"#utility.yul\":7133:7162   */\n  swap1\n  pop\n    /* \"#utility.yul\":6873:7168   */\n  swap3\n  swap2\n  pop\n  pop\n  jump\t// out\n    /* \"#utility.yul\":7173:8568   */\ntag_7:\n    /* \"#utility.yul\":7290:7327   */\n  tag_133\n    /* \"#utility.yul\":7323:7326   */\n  dup3\n    /* \"#utility.yul\":7290:7327   */\n  tag_27\n  jump\t// in\ntag_133:\n    /* \"#utility.yul\":7392:7410   */\n  0xffffffffffffffff\n    /* \"#utility.yul\":7384:7390   */\n  dup2\n    /* \"#utility.yul\":7381:7411   */\n  gt\n    /* \"#utility.yul\":7378:7434   */\n  iszero\n  tag_134\n  jumpi\n    /* \"#utility.yul\":7414:7432   */\n  tag_135\n  tag_17\n  jump\t// in\ntag_135:\n    /* \"#utility.yul\":7378:7434   */\ntag_134:\n    /* \"#utility.yul\":7458:7496   */\n  tag_136\n    /* \"#utility.yul\":7490:7494   */\n  dup3\n    /* \"#utility.yul\":7484:7495   */\n  sload\n    /* \"#utility.yul\":7458:7496   */\n  tag_29\n  jump\t// in\ntag_136:\n    /* \"#utility.yul\":7543:7610   */\n  tag_137\n    /* \"#utility.yul\":7603:7609   */\n  dup3\n    /* \"#utility.yul\":7595:7601   */\n  dup3\n    /* \"#utility.yul\":7589:7593   */\n  dup6\n    /* \"#utility.yul\":7543:7610   */\n  tag_41\n  jump\t// in\ntag_137:\n    /* \"#utility.yul\":7637:7638   */\n  0x00\n    /* \"#utility.yul\":7661:7665   */\n  0x20\n    /* \"#utility.yul\":7648:7665   */\n  swap1\n  pop\n    /* \"#utility.yul\":7693:7695   */\n  0x1f\n    /* \"#utility.yul\":7685:7691   */\n  dup4\n    /* \"#utility.yul\":7682:7696   */\n  gt\n    /* \"#utility.yul\":7710:7711   */\n  0x01\n    /* \"#utility.yul\":7705:8323   */\n  dup2\n  eq\n  tag_139\n  jumpi\n    /* \"#utility.yul\":8367:8368   */\n  0x00\n    /* \"#utility.yul\":8384:8390   */\n  dup5\n    /* \"#utility.yul\":8381:8458   */\n  iszero\n  tag_140\n  jumpi\n    /* \"#utility.yul\":8433:8442   */\n  dup3\n    /* \"#utility.yul\":8428:8431   */\n  dup8\n    /* \"#utility.yul\":8424:8443   */\n  add\n    /* \"#utility.yul\":8418:8444   */\n  mload\n    /* \"#utility.yul\":8409:8444   */\n  swap1\n  pop\n    /* \"#utility.yul\":8381:8458   */\ntag_140:\n    /* \"#utility.yul\":8484:8551   */\n  tag_141\n    /* \"#utility.yul\":8544:8550   */\n  dup6\n    /* \"#utility.yul\":8537:8542   */\n  dup3\n    /* \"#utility.yul\":8484:8551   */\n  tag_44\n  jump\t// in\ntag_141:\n    /* \"#utility.yul\":8478:8482   */\n  dup7\n    /* \"#utility.yul\":8471:8552   */\n  sstore\n    /* \"#utility.yul\":8340:8562   */\n  pop\n    /* \"#utility.yul\":7675:8562   */\n  jump(tag_138)\n    /* \"#utility.yul\":7705:8323   */\ntag_139:\n    /* \"#utility.yul\":7757:7761   */\n  0x1f\n    /* \"#utility.yul\":7753:7762   */\n  not\n    /* \"#utility.yul\":7745:7751   */\n  dup5\n    /* \"#utility.yul\":7741:7763   */\n  and\n    /* \"#utility.yul\":7791:7828   */\n  tag_142\n    /* \"#utility.yul\":7823:7827   */\n  dup7\n    /* \"#utility.yul\":7791:7828   */\n  tag_30\n  jump\t// in\ntag_142:\n    /* \"#utility.yul\":7850:7851   */\n  0x00\n    /* \"#utility.yul\":7864:8072   */\ntag_143:\n    /* \"#utility.yul\":7878:7885   */\n  dup3\n    /* \"#utility.yul\":7875:7876   */\n  dup2\n    /* \"#utility.yul\":7872:7886   */\n  lt\n    /* \"#utility.yul\":7864:8072   */\n  iszero\n  tag_145\n  jumpi\n    /* \"#utility.yul\":7957:7966   */\n  dup5\n    /* \"#utility.yul\":7952:7955   */\n  dup10\n    /* \"#utility.yul\":7948:7967   */\n  add\n    /* \"#utility.yul\":7942:7968   */\n  mload\n    /* \"#utility.yul\":7934:7940   */\n  dup3\n    /* \"#utility.yul\":7927:7969   */\n  sstore\n    /* \"#utility.yul\":8008:8009   */\n  0x01\n    /* \"#utility.yul\":8000:8006   */\n  dup3\n    /* \"#utility.yul\":7996:8010   */\n  add\n    /* \"#utility.yul\":7986:8010   */\n  swap2\n  pop\n    /* \"#utility.yul\":8055:8057   */\n  0x20\n    /* \"#utility.yul\":8044:8053   */\n  dup6\n    /* \"#utility.yul\":8040:8058   */\n  add\n    /* \"#utility.yul\":8027:8058   */\n  swap5\n  pop\n    /* \"#utility.yul\":7901:7905   */\n  0x20\n    /* \"#utility.yul\":7898:7899   */\n  dup2\n    /* \"#utility.yul\":7894:7906   */\n  add\n    /* \"#utility.yul\":7889:7906   */\n  swap1\n  pop\n    /* \"#utility.yul\":7864:8072   */\n  jump(tag_143)\ntag_145:\n    /* \"#utility.yul\":8100:8106   */\n  dup7\n    /* \"#utility.yul\":8091:8098   */\n  dup4\n    /* \"#utility.yul\":8088:8107   */\n  lt\n    /* \"#utility.yul\":8085:8264   */\n  iszero\n  tag_146\n  jumpi\n    /* \"#utility.yul\":8158:8167   */\n  dup5\n    /* \"#utility.yul\":8153:8156   */\n  dup10\n    /* \"#utility.yul\":8149:8168   */\n  add\n    /* \"#utility.yul\":8143:8169   */\n  mload\n    /* \"#utility.yul\":8201:8249   */\n  tag_147\n    /* \"#utility.yul\":8243:8247   */\n  0x1f\n    /* \"#utility.yul\":8235:8241   */\n  dup10\n    /* \"#utility.yul\":8231:8248   */\n  and\n    /* \"#utility.yul\":8220:8229   */\n  dup3\n    /* \"#utility.yul\":8201:8249   */\n  tag_43\n  jump\t// in\ntag_147:\n    /* \"#utility.yul\":8193:8199   */\n  dup4\n    /* \"#utility.yul\":8186:8250   */\n  sstore\n    /* \"#utility.yul\":8108:8264   */\n  pop\n    /* \"#utility.yul\":8085:8264   */\ntag_146:\n    /* \"#utility.yul\":8310:8311   */\n  0x01\n    /* \"#utility.yul\":8306:8307   */\n  0x02\n    /* \"#utility.yul\":8298:8304   */\n  dup9\n    /* \"#utility.yul\":8294:8308   */\n  mul\n    /* \"#utility.yul\":8290:8312   */\n  add\n    /* \"#utility.yul\":8284:8288   */\n  dup9\n    /* \"#utility.yul\":8277:8313   */\n  sstore\n    /* \"#utility.yul\":7712:8323   */\n  pop\n  pop\n  pop\n    /* \"#utility.yul\":7675:8562   */\ntag_138:\n  pop\n    /* \"#utility.yul\":7265:8568   */\n  pop\n  pop\n  pop\n    /* \"#utility.yul\":7173:8568   */\n  pop\n  pop\n  jump\t// out\n    /* \"#utility.yul\":8574:8754   */\ntag_45:\n    /* \"#utility.yul\":8622:8699   */\n  0x4e487b7100000000000000000000000000000000000000000000000000000000\n    /* \"#utility.yul\":8619:8620   */\n  0x00\n    /* \"#utility.yul\":8612:8700   */\n  mstore\n    /* \"#utility.yul\":8719:8723   */\n  0x11\n    /* \"#utility.yul\":8716:8717   */\n  0x04\n    /* \"#utility.yul\":8709:8724   */\n  mstore\n    /* \"#utility.yul\":8743:8747   */\n  0x24\n    /* \"#utility.yul\":8740:8741   */\n  0x00\n    /* \"#utility.yul\":8733:8748   */\n  revert\n    /* \"#utility.yul\":8760:8951   */\ntag_9:\n    /* \"#utility.yul\":8800:8803   */\n  0x00\n    /* \"#utility.yul\":8819:8839   */\n  tag_150\n    /* \"#utility.yul\":8837:8838   */\n  dup3\n    /* \"#utility.yul\":8819:8839   */\n  tag_24\n  jump\t// in\ntag_150:\n    /* \"#utility.yul\":8814:8839   */\n  swap2\n  pop\n    /* \"#utility.yul\":8853:8873   */\n  tag_151\n    /* \"#utility.yul\":8871:8872   */\n  dup4\n    /* \"#utility.yul\":8853:8873   */\n  tag_24\n  jump\t// in\ntag_151:\n    /* \"#utility.yul\":8848:8873   */\n  swap3\n  pop\n    /* \"#utility.yul\":8896:8897   */\n  dup3\n    /* \"#utility.yul\":8893:8894   */\n  dup3\n    /* \"#utility.yul\":8889:8898   */\n  add\n    /* \"#utility.yul\":8882:8898   */\n  swap1\n  pop\n    /* \"#utility.yul\":8917:8920   */\n  dup1\n    /* \"#utility.yul\":8914:8915   */\n  dup3\n    /* \"#utility.yul\":8911:8921   */\n  gt\n    /* \"#utility.yul\":8908:8944   */\n  iszero\n  tag_152\n  jumpi\n    /* \"#utility.yul\":8924:8942   */\n  tag_153\n  tag_45\n  jump\t// in\ntag_153:\n    /* \"#utility.yul\":8908:8944   */\ntag_152:\n    /* \"#utility.yul\":8760:8951   */\n  swap3\n  swap2\n  pop\n  pop\n  jump\t// out\n    /* \"election.sol\":112:7331  contract Voting {... */\ntag_10:\n  dataSize(sub_0)\n  dup1\n  dataOffset(sub_0)\n  0x00\n  codecopy\n  0x00\n  return\nstop\n\nsub_0: assembly {\n        /* \"election.sol\":112:7331  contract Voting {... */\n      mstore(0x40, 0x80)\n      callvalue\n      dup1\n      iszero\n      tag_1\n      jumpi\n      revert(0x00, 0x00)\n    tag_1:\n      pop\n      jumpi(tag_2, lt(calldatasize, 0x04))\n      shr(0xe0, calldataload(0x00))\n      dup1\n      0x78e97925\n      gt\n      tag_19\n      jumpi\n      dup1\n      0xa9a981a3\n      gt\n      tag_20\n      jumpi\n      dup1\n      0xa9a981a3\n      eq\n      tag_15\n      jumpi\n      dup1\n      0xb6a5d7de\n      eq\n      tag_16\n      jumpi\n      dup1\n      0xefbe1c1c\n      eq\n      tag_17\n      jumpi\n      dup1\n      0xf0b37c04\n      eq\n      tag_18\n      jumpi\n      jump(tag_2)\n    tag_20:\n      dup1\n      0x78e97925\n      eq\n      tag_11\n      jumpi\n      dup1\n      0x85e8e7a7\n      eq\n      tag_12\n      jumpi\n      dup1\n      0x8da5cb5b\n      eq\n      tag_13\n      jumpi\n      dup1\n      0xa3ec138d\n      eq\n      tag_14\n      jumpi\n      jump(tag_2)\n    tag_19:\n      dup1\n      0x3477ee2e\n      gt\n      tag_21\n      jumpi\n      dup1\n      0x3477ee2e\n      eq\n      tag_7\n      jumpi\n      dup1\n      0x35b8e820\n      eq\n      tag_8\n      jumpi\n      dup1\n      0x462e91ec\n      eq\n      tag_9\n      jumpi\n      dup1\n      0x4717f97c\n      eq\n      tag_10\n      jumpi\n      jump(tag_2)\n    tag_21:\n      dup1\n      0x0121b93f\n      eq\n      tag_3\n      jumpi\n      dup1\n      0x0d15fd77\n      eq\n      tag_4\n      jumpi\n      dup1\n      0x122902a6\n      eq\n      tag_5\n      jumpi\n      dup1\n      0x3197cbb6\n      eq\n      tag_6\n      jumpi\n    tag_2:\n      revert(0x00, 0x00)\n        /* \"election.sol\":3926:4676  function vote(uint _candidateId) public duringVotingPeriod {... */\n    tag_3:\n      tag_22\n      0x04\n      dup1\n      calldatasize\n      sub\n      dup2\n      add\n      swap1\n      tag_23\n      swap2\n      swap1\n      tag_24\n      jump\t// in\n    tag_23:\n      tag_25\n      jump\t// in\n    tag_22:\n      stop\n        /* \"election.sol\":996:1018  uint public totalVotes */\n    tag_4:\n      tag_26\n      tag_27\n      jump\t// in\n    tag_26:\n      mload(0x40)\n      tag_28\n      swap2\n      swap1\n      tag_29\n      jump\t// in\n    tag_28:\n      mload(0x40)\n      dup1\n      swap2\n      sub\n      swap1\n      return\n        /* \"election.sol\":7154:7329  function getElectionStatus() public view returns (bool) {... */\n    tag_5:\n      tag_30\n      tag_31\n      jump\t// in\n    tag_30:\n      mload(0x40)\n      tag_32\n      swap2\n      swap1\n      tag_33\n      jump\t// in\n    tag_32:\n      mload(0x40)\n      dup1\n      swap2\n      sub\n      swap1\n      return\n        /* \"election.sol\":851:870  uint public endTime */\n    tag_6:\n      tag_34\n      tag_35\n      jump\t// in\n    tag_34:\n      mload(0x40)\n      tag_36\n      swap2\n      swap1\n      tag_29\n      jump\t// in\n    tag_36:\n      mload(0x40)\n      dup1\n      swap2\n      sub\n      swap1\n      return\n        /* \"election.sol\":1183:1227  mapping(uint => Candidate) public candidates */\n    tag_7:\n      tag_37\n      0x04\n      dup1\n      calldatasize\n      sub\n      dup2\n      add\n      swap1\n      tag_38\n      swap2\n      swap1\n      tag_24\n      jump\t// in\n    tag_38:\n      tag_39\n      jump\t// in\n    tag_37:\n      mload(0x40)\n      tag_40\n      swap4\n      swap3\n      swap2\n      swap1\n      tag_41\n      jump\t// in\n    tag_40:\n      mload(0x40)\n      dup1\n      swap2\n      sub\n      swap1\n      return\n        /* \"election.sol\":6333:6681  function getCandidate(uint _candidateId) public view returns (string memory, uint) {... */\n    tag_8:\n      tag_42\n      0x04\n      dup1\n      calldatasize\n      sub\n      dup2\n      add\n      swap1\n      tag_43\n      swap2\n      swap1\n      tag_24\n      jump\t// in\n    tag_43:\n      tag_44\n      jump\t// in\n    tag_42:\n      mload(0x40)\n      tag_45\n      swap3\n      swap2\n      swap1\n      tag_46\n      jump\t// in\n    tag_45:\n      mload(0x40)\n      dup1\n      swap2\n      sub\n      swap1\n      return\n        /* \"election.sol\":2772:3114  function addCandidate(string memory _name) public onlyOwner {... */\n    tag_9:\n      tag_47\n      0x04\n      dup1\n      calldatasize\n      sub\n      dup2\n      add\n      swap1\n      tag_48\n      swap2\n      swap1\n      tag_49\n      jump\t// in\n    tag_48:\n      tag_50\n      jump\t// in\n    tag_47:\n      stop\n        /* \"election.sol\":6729:7113  function getResults() public view returns (uint[] memory) {... */\n    tag_10:\n      tag_51\n      tag_52\n      jump\t// in\n    tag_51:\n      mload(0x40)\n      tag_53\n      swap2\n      swap1\n      tag_54\n      jump\t// in\n    tag_53:\n      mload(0x40)\n      dup1\n      swap2\n      sub\n      swap1\n      return\n        /* \"election.sol\":773:794  uint public startTime */\n    tag_11:\n      tag_55\n      tag_56\n      jump\t// in\n    tag_55:\n      mload(0x40)\n      tag_57\n      swap2\n      swap1\n      tag_29\n      jump\t// in\n    tag_57:\n      mload(0x40)\n      dup1\n      swap2\n      sub\n      swap1\n      return\n        /* \"election.sol\":720:746  string public electionName */\n    tag_12:\n      tag_58\n      tag_59\n      jump\t// in\n    tag_58:\n      mload(0x40)\n      tag_60\n      swap2\n      swap1\n      tag_61\n      jump\t// in\n    tag_60:\n      mload(0x40)\n      dup1\n      swap2\n      sub\n      swap1\n      return\n        /* \"election.sol\":640:660  address public owner */\n    tag_13:\n      tag_62\n      tag_63\n      jump\t// in\n    tag_62:\n      mload(0x40)\n      tag_64\n      swap2\n      swap1\n      tag_65\n      jump\t// in\n    tag_64:\n      mload(0x40)\n      dup1\n      swap2\n      sub\n      swap1\n      return\n        /* \"election.sol\":1091:1130  mapping(address => Voter) public voters */\n    tag_14:\n      tag_66\n      0x04\n      dup1\n      calldatasize\n      sub\n      dup2\n      add\n      swap1\n      tag_67\n      swap2\n      swap1\n      tag_68\n      jump\t// in\n    tag_67:\n      tag_69\n      jump\t// in\n    tag_66:\n      mload(0x40)\n      tag_70\n      swap4\n      swap3\n      swap2\n      swap1\n      tag_71\n      jump\t// in\n    tag_70:\n      mload(0x40)\n      dup1\n      swap2\n      sub\n      swap1\n      return\n        /* \"election.sol\":929:955  uint public candidateCount */\n    tag_15:\n      tag_72\n      tag_73\n      jump\t// in\n    tag_72:\n      mload(0x40)\n      tag_74\n      swap2\n      swap1\n      tag_29\n      jump\t// in\n    tag_74:\n      mload(0x40)\n      dup1\n      swap2\n      sub\n      swap1\n      return\n        /* \"election.sol\":3184:3482  function authorize(address _person) public onlyOwner {... */\n    tag_16:\n      tag_75\n      0x04\n      dup1\n      calldatasize\n      sub\n      dup2\n      add\n      swap1\n      tag_76\n      swap2\n      swap1\n      tag_68\n      jump\t// in\n    tag_76:\n      tag_77\n      jump\t// in\n    tag_75:\n      stop\n        /* \"election.sol\":4757:5614  function end() public onlyOwner view returns (string memory) {... */\n    tag_17:\n      tag_78\n      tag_79\n      jump\t// in\n    tag_78:\n      mload(0x40)\n      tag_80\n      swap2\n      swap1\n      tag_61\n      jump\t// in\n    tag_80:\n      mload(0x40)\n      dup1\n      swap2\n      sub\n      swap1\n      return\n        /* \"election.sol\":3552:3859  function unauthorize(address _person) public onlyOwner {... */\n    tag_18:\n      tag_81\n      0x04\n      dup1\n      calldatasize\n      sub\n      dup2\n      add\n      swap1\n      tag_82\n      swap2\n      swap1\n      tag_68\n      jump\t// in\n    tag_82:\n      tag_83\n      jump\t// in\n    tag_81:\n      stop\n        /* \"election.sol\":3926:4676  function vote(uint _candidateId) public duringVotingPeriod {... */\n    tag_25:\n        /* \"election.sol\":2031:2040  startTime */\n      sload(0x02)\n        /* \"election.sol\":2012:2027  block.timestamp */\n      timestamp\n        /* \"election.sol\":2012:2040  block.timestamp >= startTime */\n      lt\n      iszero\n        /* \"election.sol\":2004:2072  require(block.timestamp >= startTime, \"Voting has not started yet \") */\n      tag_85\n      jumpi\n      mload(0x40)\n      0x08c379a000000000000000000000000000000000000000000000000000000000\n      dup2\n      mstore\n      0x04\n      add\n      tag_86\n      swap1\n      tag_87\n      jump\t// in\n    tag_86:\n      mload(0x40)\n      dup1\n      swap2\n      sub\n      swap1\n      revert\n    tag_85:\n        /* \"election.sol\":2109:2116  endTime */\n      sload(0x03)\n        /* \"election.sol\":2090:2105  block.timestamp */\n      timestamp\n        /* \"election.sol\":2090:2116  block.timestamp <= endTime */\n      gt\n      iszero\n        /* \"election.sol\":2082:2137  require(block.timestamp <= endTime, \"Voting has ended\") */\n      tag_88\n      jumpi\n      mload(0x40)\n      0x08c379a000000000000000000000000000000000000000000000000000000000\n      dup2\n      mstore\n      0x04\n      add\n      tag_89\n      swap1\n      tag_90\n      jump\t// in\n    tag_89:\n      mload(0x40)\n      dup1\n      swap2\n      sub\n      swap1\n      revert\n    tag_88:\n        /* \"election.sol\":4003:4009  voters */\n      0x06\n        /* \"election.sol\":4003:4021  voters[msg.sender] */\n      0x00\n        /* \"election.sol\":4010:4020  msg.sender */\n      caller\n        /* \"election.sol\":4003:4021  voters[msg.sender] */\n      0xffffffffffffffffffffffffffffffffffffffff\n      and\n      0xffffffffffffffffffffffffffffffffffffffff\n      and\n      dup2\n      mstore\n      0x20\n      add\n      swap1\n      dup2\n      mstore\n      0x20\n      add\n      0x00\n      keccak256\n        /* \"election.sol\":4003:4032  voters[msg.sender].authorized */\n      0x00\n      add\n      0x00\n      swap1\n      sload\n      swap1\n      0x0100\n      exp\n      swap1\n      div\n      0xff\n      and\n        /* \"election.sol\":3995:4059  require(voters[msg.sender].authorized, \"Not authorized to vote\") */\n      tag_92\n      jumpi\n      mload(0x40)\n      0x08c379a000000000000000000000000000000000000000000000000000000000\n      dup2\n      mstore\n      0x04\n      add\n      tag_93\n      swap1\n      tag_94\n      jump\t// in\n    tag_93:\n      mload(0x40)\n      dup1\n      swap2\n      sub\n      swap1\n      revert\n    tag_92:\n        /* \"election.sol\":4078:4084  voters */\n      0x06\n        /* \"election.sol\":4078:4096  voters[msg.sender] */\n      0x00\n        /* \"election.sol\":4085:4095  msg.sender */\n      caller\n        /* \"election.sol\":4078:4096  voters[msg.sender] */\n      0xffffffffffffffffffffffffffffffffffffffff\n      and\n      0xffffffffffffffffffffffffffffffffffffffff\n      and\n      dup2\n      mstore\n      0x20\n      add\n      swap1\n      dup2\n      mstore\n      0x20\n      add\n      0x00\n      keccak256\n        /* \"election.sol\":4078:4102  voters[msg.sender].voted */\n      0x00\n      add\n      0x01\n      swap1\n      sload\n      swap1\n      0x0100\n      exp\n      swap1\n      div\n      0xff\n      and\n        /* \"election.sol\":4077:4102  !voters[msg.sender].voted */\n      iszero\n        /* \"election.sol\":4069:4120  require(!voters[msg.sender].voted, \"Already voted\") */\n      tag_95\n      jumpi\n      mload(0x40)\n      0x08c379a000000000000000000000000000000000000000000000000000000000\n      dup2\n      mstore\n      0x04\n      add\n      tag_96\n      swap1\n      tag_97\n      jump\t// in\n    tag_96:\n      mload(0x40)\n      dup1\n      swap2\n      sub\n      swap1\n      revert\n    tag_95:\n        /* \"election.sol\":4153:4154  0 */\n      0x00\n        /* \"election.sol\":4138:4150  _candidateId */\n      dup2\n        /* \"election.sol\":4138:4154  _candidateId > 0 */\n      gt\n        /* \"election.sol\":4138:4188  _candidateId > 0 && _candidateId <= candidateCount */\n      dup1\n      iszero\n      tag_98\n      jumpi\n      pop\n        /* \"election.sol\":4174:4188  candidateCount */\n      sload(0x04)\n        /* \"election.sol\":4158:4170  _candidateId */\n      dup2\n        /* \"election.sol\":4158:4188  _candidateId <= candidateCount */\n      gt\n      iszero\n        /* \"election.sol\":4138:4188  _candidateId > 0 && _candidateId <= candidateCount */\n    tag_98:\n        /* \"election.sol\":4130:4213  require(_candidateId > 0 && _candidateId <= candidateCount, \"Invalid candidate ID\") */\n      tag_99\n      jumpi\n      mload(0x40)\n      0x08c379a000000000000000000000000000000000000000000000000000000000\n      dup2\n      mstore\n      0x04\n      add\n      tag_100\n      swap1\n      tag_101\n      jump\t// in\n    tag_100:\n      mload(0x40)\n      dup1\n      swap2\n      sub\n      swap1\n      revert\n    tag_99:\n        /* \"election.sol\":4251:4255  true */\n      0x01\n        /* \"election.sol\":4224:4230  voters */\n      0x06\n        /* \"election.sol\":4224:4242  voters[msg.sender] */\n      0x00\n        /* \"election.sol\":4231:4241  msg.sender */\n      caller\n        /* \"election.sol\":4224:4242  voters[msg.sender] */\n      0xffffffffffffffffffffffffffffffffffffffff\n      and\n      0xffffffffffffffffffffffffffffffffffffffff\n      and\n      dup2\n      mstore\n      0x20\n      add\n      swap1\n      dup2\n      mstore\n      0x20\n      add\n      0x00\n      keccak256\n        /* \"election.sol\":4224:4248  voters[msg.sender].voted */\n      0x00\n      add\n      0x01\n        /* \"election.sol\":4224:4255  voters[msg.sender].voted = true */\n      0x0100\n      exp\n      dup2\n      sload\n      dup2\n      0xff\n      mul\n      not\n      and\n      swap1\n      dup4\n      iszero\n      iszero\n      mul\n      or\n      swap1\n      sstore\n      pop\n        /* \"election.sol\":4336:4348  _candidateId */\n      dup1\n        /* \"election.sol\":4310:4316  voters */\n      0x06\n        /* \"election.sol\":4310:4328  voters[msg.sender] */\n      0x00\n        /* \"election.sol\":4317:4327  msg.sender */\n      caller\n        /* \"election.sol\":4310:4328  voters[msg.sender] */\n      0xffffffffffffffffffffffffffffffffffffffff\n      and\n      0xffffffffffffffffffffffffffffffffffffffff\n      and\n      dup2\n      mstore\n      0x20\n      add\n      swap1\n      dup2\n      mstore\n      0x20\n      add\n      0x00\n      keccak256\n        /* \"election.sol\":4310:4333  voters[msg.sender].vote */\n      0x01\n      add\n        /* \"election.sol\":4310:4348  voters[msg.sender].vote = _candidateId */\n      dup2\n      swap1\n      sstore\n      pop\n        /* \"election.sol\":4402:4412  candidates */\n      0x07\n        /* \"election.sol\":4402:4426  candidates[_candidateId] */\n      0x00\n        /* \"election.sol\":4413:4425  _candidateId */\n      dup3\n        /* \"election.sol\":4402:4426  candidates[_candidateId] */\n      dup2\n      mstore\n      0x20\n      add\n      swap1\n      dup2\n      mstore\n      0x20\n      add\n      0x00\n      keccak256\n        /* \"election.sol\":4402:4436  candidates[_candidateId].voteCount */\n      0x02\n      add\n      0x00\n        /* \"election.sol\":4402:4438  candidates[_candidateId].voteCount++ */\n      dup2\n      sload\n      dup1\n      swap3\n      swap2\n      swap1\n      tag_102\n      swap1\n      tag_103\n      jump\t// in\n    tag_102:\n      swap2\n      swap1\n      pop\n      sstore\n      pop\n        /* \"election.sol\":4497:4507  totalVotes */\n      0x05\n      0x00\n        /* \"election.sol\":4497:4509  totalVotes++ */\n      dup2\n      sload\n      dup1\n      swap3\n      swap2\n      swap1\n      tag_104\n      swap1\n      tag_103\n      jump\t// in\n    tag_104:\n      swap2\n      swap1\n      pop\n      sstore\n      pop\n        /* \"election.sol\":4589:4623  VoteCast(msg.sender, _candidateId) */\n      0xa36cc2bebb74db33e9f88110a07ef56e1b31b24b4c4f51b54b1664266e29f45b\n        /* \"election.sol\":4598:4608  msg.sender */\n      caller\n        /* \"election.sol\":4610:4622  _candidateId */\n      dup3\n        /* \"election.sol\":4589:4623  VoteCast(msg.sender, _candidateId) */\n      mload(0x40)\n      tag_105\n      swap3\n      swap2\n      swap1\n      tag_106\n      jump\t// in\n    tag_105:\n      mload(0x40)\n      dup1\n      swap2\n      sub\n      swap1\n      log1\n        /* \"election.sol\":3926:4676  function vote(uint _candidateId) public duringVotingPeriod {... */\n      pop\n      jump\t// out\n        /* \"election.sol\":996:1018  uint public totalVotes */\n    tag_27:\n      sload(0x05)\n      dup2\n      jump\t// out\n        /* \"election.sol\":7154:7329  function getElectionStatus() public view returns (bool) {... */\n    tag_31:\n        /* \"election.sol\":7204:7208  bool */\n      0x00\n        /* \"election.sol\":7246:7253  endTime */\n      sload(0x03)\n        /* \"election.sol\":7227:7242  block.timestamp */\n      timestamp\n        /* \"election.sol\":7227:7253  block.timestamp <= endTime */\n      gt\n      iszero\n        /* \"election.sol\":7220:7253  return block.timestamp <= endTime */\n      swap1\n      pop\n        /* \"election.sol\":7154:7329  function getElectionStatus() public view returns (bool) {... */\n      swap1\n      jump\t// out\n        /* \"election.sol\":851:870  uint public endTime */\n    tag_35:\n      sload(0x03)\n      dup2\n      jump\t// out\n        /* \"election.sol\":1183:1227  mapping(uint => Candidate) public candidates */\n    tag_39:\n      mstore(0x20, 0x07)\n      dup1\n      0x00\n      mstore\n      keccak256(0x00, 0x40)\n      0x00\n      swap2\n      pop\n      swap1\n      pop\n      dup1\n      0x00\n      add\n      sload\n      swap1\n      dup1\n      0x01\n      add\n      dup1\n      sload\n      tag_108\n      swap1\n      tag_109\n      jump\t// in\n    tag_108:\n      dup1\n      0x1f\n      add\n      0x20\n      dup1\n      swap2\n      div\n      mul\n      0x20\n      add\n      mload(0x40)\n      swap1\n      dup2\n      add\n      0x40\n      mstore\n      dup1\n      swap3\n      swap2\n      swap1\n      dup2\n      dup2\n      mstore\n      0x20\n      add\n      dup3\n      dup1\n      sload\n      tag_110\n      swap1\n      tag_109\n      jump\t// in\n    tag_110:\n      dup1\n      iszero\n      tag_111\n      jumpi\n      dup1\n      0x1f\n      lt\n      tag_112\n      jumpi\n      0x0100\n      dup1\n      dup4\n      sload\n      div\n      mul\n      dup4\n      mstore\n      swap2\n      0x20\n      add\n      swap2\n      jump(tag_111)\n    tag_112:\n      dup3\n      add\n      swap2\n      swap1\n      0x00\n      mstore\n      keccak256(0x00, 0x20)\n      swap1\n    tag_113:\n      dup2\n      sload\n      dup2\n      mstore\n      swap1\n      0x01\n      add\n      swap1\n      0x20\n      add\n      dup1\n      dup4\n      gt\n      tag_113\n      jumpi\n      dup3\n      swap1\n      sub\n      0x1f\n      and\n      dup3\n      add\n      swap2\n    tag_111:\n      pop\n      pop\n      pop\n      pop\n      pop\n      swap1\n      dup1\n      0x02\n      add\n      sload\n      swap1\n      pop\n      dup4\n      jump\t// out\n        /* \"election.sol\":6333:6681  function getCandidate(uint _candidateId) public view returns (string memory, uint) {... */\n    tag_44:\n        /* \"election.sol\":6395:6408  string memory */\n      0x60\n        /* \"election.sol\":6410:6414  uint */\n      0x00\n        /* \"election.sol\":6449:6450  0 */\n      0x00\n        /* \"election.sol\":6434:6446  _candidateId */\n      dup4\n        /* \"election.sol\":6434:6450  _candidateId > 0 */\n      gt\n        /* \"election.sol\":6434:6484  _candidateId > 0 && _candidateId <= candidateCount */\n      dup1\n      iszero\n      tag_115\n      jumpi\n      pop\n        /* \"election.sol\":6470:6484  candidateCount */\n      sload(0x04)\n        /* \"election.sol\":6454:6466  _candidateId */\n      dup4\n        /* \"election.sol\":6454:6484  _candidateId <= candidateCount */\n      gt\n      iszero\n        /* \"election.sol\":6434:6484  _candidateId > 0 && _candidateId <= candidateCount */\n    tag_115:\n        /* \"election.sol\":6426:6509  require(_candidateId > 0 && _candidateId <= candidateCount, \"Invalid candidate ID\") */\n      tag_116\n      jumpi\n      mload(0x40)\n      0x08c379a000000000000000000000000000000000000000000000000000000000\n      dup2\n      mstore\n      0x04\n      add\n      tag_117\n      swap1\n      tag_101\n      jump\t// in\n    tag_117:\n      mload(0x40)\n      dup1\n      swap2\n      sub\n      swap1\n      revert\n    tag_116:\n        /* \"election.sol\":6519:6545  Candidate memory candidate */\n      0x00\n        /* \"election.sol\":6548:6558  candidates */\n      0x07\n        /* \"election.sol\":6548:6572  candidates[_candidateId] */\n      0x00\n        /* \"election.sol\":6559:6571  _candidateId */\n      dup6\n        /* \"election.sol\":6548:6572  candidates[_candidateId] */\n      dup2\n      mstore\n      0x20\n      add\n      swap1\n      dup2\n      mstore\n      0x20\n      add\n      0x00\n      keccak256\n        /* \"election.sol\":6519:6572  Candidate memory candidate = candidates[_candidateId] */\n      mload(0x40)\n      dup1\n      0x60\n      add\n      0x40\n      mstore\n      swap1\n      dup2\n      0x00\n      dup3\n      add\n      sload\n      dup2\n      mstore\n      0x20\n      add\n      0x01\n      dup3\n      add\n      dup1\n      sload\n      tag_118\n      swap1\n      tag_109\n      jump\t// in\n    tag_118:\n      dup1\n      0x1f\n      add\n      0x20\n      dup1\n      swap2\n      div\n      mul\n      0x20\n      add\n      mload(0x40)\n      swap1\n      dup2\n      add\n      0x40\n      mstore\n      dup1\n      swap3\n      swap2\n      swap1\n      dup2\n      dup2\n      mstore\n      0x20\n      add\n      dup3\n      dup1\n      sload\n      tag_119\n      swap1\n      tag_109\n      jump\t// in\n    tag_119:\n      dup1\n      iszero\n      tag_120\n      jumpi\n      dup1\n      0x1f\n      lt\n      tag_121\n      jumpi\n      0x0100\n      dup1\n      dup4\n      sload\n      div\n      mul\n      dup4\n      mstore\n      swap2\n      0x20\n      add\n      swap2\n      jump(tag_120)\n    tag_121:\n      dup3\n      add\n      swap2\n      swap1\n      0x00\n      mstore\n      keccak256(0x00, 0x20)\n      swap1\n    tag_122:\n      dup2\n      sload\n      dup2\n      mstore\n      swap1\n      0x01\n      add\n      swap1\n      0x20\n      add\n      dup1\n      dup4\n      gt\n      tag_122\n      jumpi\n      dup3\n      swap1\n      sub\n      0x1f\n      and\n      dup3\n      add\n      swap2\n    tag_120:\n      pop\n      pop\n      pop\n      pop\n      pop\n      dup2\n      mstore\n      0x20\n      add\n      0x02\n      dup3\n      add\n      sload\n      dup2\n      mstore\n      pop\n      pop\n      swap1\n      pop\n        /* \"election.sol\":6590:6599  candidate */\n      dup1\n        /* \"election.sol\":6590:6604  candidate.name */\n      0x20\n      add\n      mload\n        /* \"election.sol\":6606:6615  candidate */\n      dup2\n        /* \"election.sol\":6606:6625  candidate.voteCount */\n      0x40\n      add\n      mload\n        /* \"election.sol\":6582:6626  return (candidate.name, candidate.voteCount) */\n      swap3\n      pop\n      swap3\n      pop\n      pop\n        /* \"election.sol\":6333:6681  function getCandidate(uint _candidateId) public view returns (string memory, uint) {... */\n      swap2\n      pop\n      swap2\n      jump\t// out\n        /* \"election.sol\":2772:3114  function addCandidate(string memory _name) public onlyOwner {... */\n    tag_50:\n        /* \"election.sol\":1859:1864  owner */\n      0x00\n      0x00\n      swap1\n      sload\n      swap1\n      0x0100\n      exp\n      swap1\n      div\n      0xffffffffffffffffffffffffffffffffffffffff\n      and\n        /* \"election.sol\":1845:1864  msg.sender == owner */\n      0xffffffffffffffffffffffffffffffffffffffff\n      and\n        /* \"election.sol\":1845:1855  msg.sender */\n      caller\n        /* \"election.sol\":1845:1864  msg.sender == owner */\n      0xffffffffffffffffffffffffffffffffffffffff\n      and\n      eq\n        /* \"election.sol\":1837:1902  require(msg.sender == owner, \"Only owner can call this function\") */\n      tag_124\n      jumpi\n      mload(0x40)\n      0x08c379a000000000000000000000000000000000000000000000000000000000\n      dup2\n      mstore\n      0x04\n      add\n      tag_125\n      swap1\n      tag_126\n      jump\t// in\n    tag_125:\n      mload(0x40)\n      dup1\n      swap2\n      sub\n      swap1\n      revert\n    tag_124:\n        /* \"election.sol\":2842:2856  candidateCount */\n      0x04\n      0x00\n        /* \"election.sol\":2842:2858  candidateCount++ */\n      dup2\n      sload\n      dup1\n      swap3\n      swap2\n      swap1\n      tag_128\n      swap1\n      tag_103\n      jump\t// in\n    tag_128:\n      swap2\n      swap1\n      pop\n      sstore\n      pop\n        /* \"election.sol\":2958:2993  Candidate(candidateCount, _name, 0) */\n      mload(0x40)\n      dup1\n      0x60\n      add\n      0x40\n      mstore\n      dup1\n        /* \"election.sol\":2968:2982  candidateCount */\n      sload(0x04)\n        /* \"election.sol\":2958:2993  Candidate(candidateCount, _name, 0) */\n      dup2\n      mstore\n      0x20\n      add\n        /* \"election.sol\":2984:2989  _name */\n      dup3\n        /* \"election.sol\":2958:2993  Candidate(candidateCount, _name, 0) */\n      dup2\n      mstore\n      0x20\n      add\n        /* \"election.sol\":2991:2992  0 */\n      0x00\n        /* \"election.sol\":2958:2993  Candidate(candidateCount, _name, 0) */\n      dup2\n      mstore\n      pop\n        /* \"election.sol\":2929:2939  candidates */\n      0x07\n        /* \"election.sol\":2929:2955  candidates[candidateCount] */\n      0x00\n        /* \"election.sol\":2940:2954  candidateCount */\n      sload(0x04)\n        /* \"election.sol\":2929:2955  candidates[candidateCount] */\n      dup2\n      mstore\n      0x20\n      add\n      swap1\n      dup2\n      mstore\n      0x20\n      add\n      0x00\n      keccak256\n        /* \"election.sol\":2929:2993  candidates[candidateCount] = Candidate(candidateCount, _name, 0) */\n      0x00\n      dup3\n      add\n      mload\n      dup2\n      0x00\n      add\n      sstore\n      0x20\n      dup3\n      add\n      mload\n      dup2\n      0x01\n      add\n      swap1\n      dup2\n      tag_129\n      swap2\n      swap1\n      tag_130\n      jump\t// in\n    tag_129:\n      pop\n      0x40\n      dup3\n      add\n      mload\n      dup2\n      0x02\n      add\n      sstore\n      swap1\n      pop\n      pop\n        /* \"election.sol\":3040:3077  CandidateAdded(candidateCount, _name) */\n      0xe83b2a43e7e82d975c8a0a6d2f045153c869e111136a34d1889ab7b598e396a3\n        /* \"election.sol\":3055:3069  candidateCount */\n      sload(0x04)\n        /* \"election.sol\":3071:3076  _name */\n      dup3\n        /* \"election.sol\":3040:3077  CandidateAdded(candidateCount, _name) */\n      mload(0x40)\n      tag_131\n      swap3\n      swap2\n      swap1\n      tag_132\n      jump\t// in\n    tag_131:\n      mload(0x40)\n      dup1\n      swap2\n      sub\n      swap1\n      log1\n        /* \"election.sol\":2772:3114  function addCandidate(string memory _name) public onlyOwner {... */\n      pop\n      jump\t// out\n        /* \"election.sol\":6729:7113  function getResults() public view returns (uint[] memory) {... */\n    tag_52:\n        /* \"election.sol\":6772:6785  uint[] memory */\n      0x60\n        /* \"election.sol\":6797:6817  uint[] memory result */\n      0x00\n        /* \"election.sol\":6831:6845  candidateCount */\n      sload(0x04)\n        /* \"election.sol\":6820:6846  new uint[](candidateCount) */\n      0xffffffffffffffff\n      dup2\n      gt\n      iszero\n      tag_134\n      jumpi\n      tag_135\n      tag_136\n      jump\t// in\n    tag_135:\n    tag_134:\n      mload(0x40)\n      swap1\n      dup1\n      dup3\n      mstore\n      dup1\n      0x20\n      mul\n      0x20\n      add\n      dup3\n      add\n      0x40\n      mstore\n      dup1\n      iszero\n      tag_137\n      jumpi\n      dup2\n      0x20\n      add\n      0x20\n      dup3\n      mul\n      dup1\n      calldatasize\n      dup4\n      calldatacopy\n      dup1\n      dup3\n      add\n      swap2\n      pop\n      pop\n      swap1\n      pop\n    tag_137:\n      pop\n        /* \"election.sol\":6797:6846  uint[] memory result = new uint[](candidateCount) */\n      swap1\n      pop\n        /* \"election.sol\":6861:6867  uint i */\n      0x00\n        /* \"election.sol\":6870:6871  1 */\n      0x01\n        /* \"election.sol\":6861:6871  uint i = 1 */\n      swap1\n      pop\n        /* \"election.sol\":6856:7015  for (uint i = 1; i <= candidateCount; i++) {... */\n    tag_138:\n        /* \"election.sol\":6878:6892  candidateCount */\n      sload(0x04)\n        /* \"election.sol\":6873:6874  i */\n      dup2\n        /* \"election.sol\":6873:6892  i <= candidateCount */\n      gt\n        /* \"election.sol\":6856:7015  for (uint i = 1; i <= candidateCount; i++) {... */\n      tag_139\n      jumpi\n        /* \"election.sol\":6927:6937  candidates */\n      0x07\n        /* \"election.sol\":6927:6940  candidates[i] */\n      0x00\n        /* \"election.sol\":6938:6939  i */\n      dup3\n        /* \"election.sol\":6927:6940  candidates[i] */\n      dup2\n      mstore\n      0x20\n      add\n      swap1\n      dup2\n      mstore\n      0x20\n      add\n      0x00\n      keccak256\n        /* \"election.sol\":6927:6950  candidates[i].voteCount */\n      0x02\n      add\n      sload\n        /* \"election.sol\":6913:6919  result */\n      dup3\n        /* \"election.sol\":6922:6923  1 */\n      0x01\n        /* \"election.sol\":6920:6921  i */\n      dup4\n        /* \"election.sol\":6920:6923  i-1 */\n      tag_141\n      swap2\n      swap1\n      tag_142\n      jump\t// in\n    tag_141:\n        /* \"election.sol\":6913:6924  result[i-1] */\n      dup2\n      mload\n      dup2\n      lt\n      tag_143\n      jumpi\n      tag_144\n      tag_145\n      jump\t// in\n    tag_144:\n    tag_143:\n      0x20\n      mul\n      0x20\n      add\n      add\n        /* \"election.sol\":6913:6950  result[i-1] = candidates[i].voteCount */\n      dup2\n      dup2\n      mstore\n      pop\n      pop\n        /* \"election.sol\":6894:6897  i++ */\n      dup1\n      dup1\n      tag_146\n      swap1\n      tag_103\n      jump\t// in\n    tag_146:\n      swap2\n      pop\n      pop\n        /* \"election.sol\":6856:7015  for (uint i = 1; i <= candidateCount; i++) {... */\n      jump(tag_138)\n    tag_139:\n      pop\n        /* \"election.sol\":7031:7037  result */\n      dup1\n        /* \"election.sol\":7024:7037  return result */\n      swap2\n      pop\n      pop\n        /* \"election.sol\":6729:7113  function getResults() public view returns (uint[] memory) {... */\n      swap1\n      jump\t// out\n        /* \"election.sol\":773:794  uint public startTime */\n    tag_56:\n      sload(0x02)\n      dup2\n      jump\t// out\n        /* \"election.sol\":720:746  string public electionName */\n    tag_59:\n      0x01\n      dup1\n      sload\n      tag_147\n      swap1\n      tag_109\n      jump\t// in\n    tag_147:\n      dup1\n      0x1f\n      add\n      0x20\n      dup1\n      swap2\n      div\n      mul\n      0x20\n      add\n      mload(0x40)\n      swap1\n      dup2\n      add\n      0x40\n      mstore\n      dup1\n      swap3\n      swap2\n      swap1\n      dup2\n      dup2\n      mstore\n      0x20\n      add\n      dup3\n      dup1\n      sload\n      tag_148\n      swap1\n      tag_109\n      jump\t// in\n    tag_148:\n      dup1\n      iszero\n      tag_149\n      jumpi\n      dup1\n      0x1f\n      lt\n      tag_150\n      jumpi\n      0x0100\n      dup1\n      dup4\n      sload\n      div\n      mul\n      dup4\n      mstore\n      swap2\n      0x20\n      add\n      swap2\n      jump(tag_149)\n    tag_150:\n      dup3\n      add\n      swap2\n      swap1\n      0x00\n      mstore\n      keccak256(0x00, 0x20)\n      swap1\n    tag_151:\n      dup2\n      sload\n      dup2\n      mstore\n      swap1\n      0x01\n      add\n      swap1\n      0x20\n      add\n      dup1\n      dup4\n      gt\n      tag_151\n      jumpi\n      dup3\n      swap1\n      sub\n      0x1f\n      and\n      dup3\n      add\n      swap2\n    tag_149:\n      pop\n      pop\n      pop\n      pop\n      pop\n      dup2\n      jump\t// out\n        /* \"election.sol\":640:660  address public owner */\n    tag_63:\n      0x00\n      0x00\n      swap1\n      sload\n      swap1\n      0x0100\n      exp\n      swap1\n      div\n      0xffffffffffffffffffffffffffffffffffffffff\n      and\n      dup2\n      jump\t// out\n        /* \"election.sol\":1091:1130  mapping(address => Voter) public voters */\n    tag_69:\n      mstore(0x20, 0x06)\n      dup1\n      0x00\n      mstore\n      keccak256(0x00, 0x40)\n      0x00\n      swap2\n      pop\n      swap1\n      pop\n      dup1\n      0x00\n      add\n      0x00\n      swap1\n      sload\n      swap1\n      0x0100\n      exp\n      swap1\n      div\n      0xff\n      and\n      swap1\n      dup1\n      0x00\n      add\n      0x01\n      swap1\n      sload\n      swap1\n      0x0100\n      exp\n      swap1\n      div\n      0xff\n      and\n      swap1\n      dup1\n      0x01\n      add\n      sload\n      swap1\n      pop\n      dup4\n      jump\t// out\n        /* \"election.sol\":929:955  uint public candidateCount */\n    tag_73:\n      sload(0x04)\n      dup2\n      jump\t// out\n        /* \"election.sol\":3184:3482  function authorize(address _person) public onlyOwner {... */\n    tag_77:\n        /* \"election.sol\":1859:1864  owner */\n      0x00\n      0x00\n      swap1\n      sload\n      swap1\n      0x0100\n      exp\n      swap1\n      div\n      0xffffffffffffffffffffffffffffffffffffffff\n      and\n        /* \"election.sol\":1845:1864  msg.sender == owner */\n      0xffffffffffffffffffffffffffffffffffffffff\n      and\n        /* \"election.sol\":1845:1855  msg.sender */\n      caller\n        /* \"election.sol\":1845:1864  msg.sender == owner */\n      0xffffffffffffffffffffffffffffffffffffffff\n      and\n      eq\n        /* \"election.sol\":1837:1902  require(msg.sender == owner, \"Only owner can call this function\") */\n      tag_153\n      jumpi\n      mload(0x40)\n      0x08c379a000000000000000000000000000000000000000000000000000000000\n      dup2\n      mstore\n      0x04\n      add\n      tag_154\n      swap1\n      tag_126\n      jump\t// in\n    tag_154:\n      mload(0x40)\n      dup1\n      swap2\n      sub\n      swap1\n      revert\n    tag_153:\n        /* \"election.sol\":3256:3262  voters */\n      0x06\n        /* \"election.sol\":3256:3271  voters[_person] */\n      0x00\n        /* \"election.sol\":3263:3270  _person */\n      dup3\n        /* \"election.sol\":3256:3271  voters[_person] */\n      0xffffffffffffffffffffffffffffffffffffffff\n      and\n      0xffffffffffffffffffffffffffffffffffffffff\n      and\n      dup2\n      mstore\n      0x20\n      add\n      swap1\n      dup2\n      mstore\n      0x20\n      add\n      0x00\n      keccak256\n        /* \"election.sol\":3256:3277  voters[_person].voted */\n      0x00\n      add\n      0x01\n      swap1\n      sload\n      swap1\n      0x0100\n      exp\n      swap1\n      div\n      0xff\n      and\n        /* \"election.sol\":3255:3277  !voters[_person].voted */\n      iszero\n        /* \"election.sol\":3247:3306  require(!voters[_person].voted, \"Person has already voted\") */\n      tag_156\n      jumpi\n      mload(0x40)\n      0x08c379a000000000000000000000000000000000000000000000000000000000\n      dup2\n      mstore\n      0x04\n      add\n      tag_157\n      swap1\n      tag_158\n      jump\t// in\n    tag_157:\n      mload(0x40)\n      dup1\n      swap2\n      sub\n      swap1\n      revert\n    tag_156:\n        /* \"election.sol\":3345:3349  true */\n      0x01\n        /* \"election.sol\":3316:3322  voters */\n      0x06\n        /* \"election.sol\":3316:3331  voters[_person] */\n      0x00\n        /* \"election.sol\":3323:3330  _person */\n      dup4\n        /* \"election.sol\":3316:3331  voters[_person] */\n      0xffffffffffffffffffffffffffffffffffffffff\n      and\n      0xffffffffffffffffffffffffffffffffffffffff\n      and\n      dup2\n      mstore\n      0x20\n      add\n      swap1\n      dup2\n      mstore\n      0x20\n      add\n      0x00\n      keccak256\n        /* \"election.sol\":3316:3342  voters[_person].authorized */\n      0x00\n      add\n      0x00\n        /* \"election.sol\":3316:3349  voters[_person].authorized = true */\n      0x0100\n      exp\n      dup2\n      sload\n      dup2\n      0xff\n      mul\n      not\n      and\n      swap1\n      dup4\n      iszero\n      iszero\n      mul\n      or\n      swap1\n      sstore\n      pop\n        /* \"election.sol\":3408:3432  VoterAuthorized(_person) */\n      0x0ca65a9f1f88bd7257ac852d1062853358f81cdc56f9634dcbeed6090f8dfb43\n        /* \"election.sol\":3424:3431  _person */\n      dup2\n        /* \"election.sol\":3408:3432  VoterAuthorized(_person) */\n      mload(0x40)\n      tag_159\n      swap2\n      swap1\n      tag_65\n      jump\t// in\n    tag_159:\n      mload(0x40)\n      dup1\n      swap2\n      sub\n      swap1\n      log1\n        /* \"election.sol\":3184:3482  function authorize(address _person) public onlyOwner {... */\n      pop\n      jump\t// out\n        /* \"election.sol\":4757:5614  function end() public onlyOwner view returns (string memory) {... */\n    tag_79:\n        /* \"election.sol\":4803:4816  string memory */\n      0x60\n        /* \"election.sol\":1859:1864  owner */\n      0x00\n      0x00\n      swap1\n      sload\n      swap1\n      0x0100\n      exp\n      swap1\n      div\n      0xffffffffffffffffffffffffffffffffffffffff\n      and\n        /* \"election.sol\":1845:1864  msg.sender == owner */\n      0xffffffffffffffffffffffffffffffffffffffff\n      and\n        /* \"election.sol\":1845:1855  msg.sender */\n      caller\n        /* \"election.sol\":1845:1864  msg.sender == owner */\n      0xffffffffffffffffffffffffffffffffffffffff\n      and\n      eq\n        /* \"election.sol\":1837:1902  require(msg.sender == owner, \"Only owner can call this function\") */\n      tag_161\n      jumpi\n      mload(0x40)\n      0x08c379a000000000000000000000000000000000000000000000000000000000\n      dup2\n      mstore\n      0x04\n      add\n      tag_162\n      swap1\n      tag_126\n      jump\t// in\n    tag_162:\n      mload(0x40)\n      dup1\n      swap2\n      sub\n      swap1\n      revert\n    tag_161:\n        /* \"election.sol\":4854:4861  endTime */\n      sload(0x03)\n        /* \"election.sol\":4836:4851  block.timestamp */\n      timestamp\n        /* \"election.sol\":4836:4861  block.timestamp > endTime */\n      gt\n        /* \"election.sol\":4828:4897  require(block.timestamp > endTime, \"Voting period has not ended yet\") */\n      tag_164\n      jumpi\n      mload(0x40)\n      0x08c379a000000000000000000000000000000000000000000000000000000000\n      dup2\n      mstore\n      0x04\n      add\n      tag_165\n      swap1\n      tag_166\n      jump\t// in\n    tag_165:\n      mload(0x40)\n      dup1\n      swap2\n      sub\n      swap1\n      revert\n    tag_164:\n        /* \"election.sol\":4934:4935  0 */\n      0x00\n        /* \"election.sol\":4920:4930  totalVotes */\n      sload(0x05)\n        /* \"election.sol\":4920:4935  totalVotes == 0 */\n      sub\n        /* \"election.sol\":4916:4984  if (totalVotes == 0) {... */\n      tag_167\n      jumpi\n        /* \"election.sol\":4951:4973  return \"No votes cast\" */\n      mload(0x40)\n      dup1\n      0x40\n      add\n      0x40\n      mstore\n      dup1\n      0x0d\n      dup2\n      mstore\n      0x20\n      add\n      0x4e6f20766f746573206361737400000000000000000000000000000000000000\n      dup2\n      mstore\n      pop\n      swap1\n      pop\n      jump(tag_163)\n        /* \"election.sol\":4916:4984  if (totalVotes == 0) {... */\n    tag_167:\n        /* \"election.sol\":5002:5023  uint winningVoteCount */\n      0x00\n        /* \"election.sol\":5026:5027  0 */\n      0x00\n        /* \"election.sol\":5002:5027  uint winningVoteCount = 0 */\n      swap1\n      pop\n        /* \"election.sol\":5083:5107  string memory winnerName */\n      0x00\n        /* \"election.sol\":5083:5112  string memory winnerName = \"\" */\n      mload(0x40)\n      dup1\n      0x20\n      add\n      0x40\n      mstore\n      dup1\n      0x00\n      dup2\n      mstore\n      pop\n      swap1\n      pop\n        /* \"election.sol\":5213:5219  uint i */\n      0x00\n        /* \"election.sol\":5222:5223  1 */\n      0x01\n        /* \"election.sol\":5213:5223  uint i = 1 */\n      swap1\n      pop\n        /* \"election.sol\":5208:5447  for (uint i = 1; i <= candidateCount; i++) {... */\n    tag_168:\n        /* \"election.sol\":5230:5244  candidateCount */\n      sload(0x04)\n        /* \"election.sol\":5225:5226  i */\n      dup2\n        /* \"election.sol\":5225:5244  i <= candidateCount */\n      gt\n        /* \"election.sol\":5208:5447  for (uint i = 1; i <= candidateCount; i++) {... */\n      tag_169\n      jumpi\n        /* \"election.sol\":5295:5311  winningVoteCount */\n      dup3\n        /* \"election.sol\":5269:5279  candidates */\n      0x07\n        /* \"election.sol\":5269:5282  candidates[i] */\n      0x00\n        /* \"election.sol\":5280:5281  i */\n      dup4\n        /* \"election.sol\":5269:5282  candidates[i] */\n      dup2\n      mstore\n      0x20\n      add\n      swap1\n      dup2\n      mstore\n      0x20\n      add\n      0x00\n      keccak256\n        /* \"election.sol\":5269:5292  candidates[i].voteCount */\n      0x02\n      add\n      sload\n        /* \"election.sol\":5269:5311  candidates[i].voteCount > winningVoteCount */\n      gt\n        /* \"election.sol\":5265:5437  if (candidates[i].voteCount > winningVoteCount) {... */\n      iszero\n      tag_171\n      jumpi\n        /* \"election.sol\":5350:5360  candidates */\n      0x07\n        /* \"election.sol\":5350:5363  candidates[i] */\n      0x00\n        /* \"election.sol\":5361:5362  i */\n      dup3\n        /* \"election.sol\":5350:5363  candidates[i] */\n      dup2\n      mstore\n      0x20\n      add\n      swap1\n      dup2\n      mstore\n      0x20\n      add\n      0x00\n      keccak256\n        /* \"election.sol\":5350:5373  candidates[i].voteCount */\n      0x02\n      add\n      sload\n        /* \"election.sol\":5331:5373  winningVoteCount = candidates[i].voteCount */\n      swap3\n      pop\n        /* \"election.sol\":5404:5414  candidates */\n      0x07\n        /* \"election.sol\":5404:5417  candidates[i] */\n      0x00\n        /* \"election.sol\":5415:5416  i */\n      dup3\n        /* \"election.sol\":5404:5417  candidates[i] */\n      dup2\n      mstore\n      0x20\n      add\n      swap1\n      dup2\n      mstore\n      0x20\n      add\n      0x00\n      keccak256\n        /* \"election.sol\":5404:5422  candidates[i].name */\n      0x01\n      add\n        /* \"election.sol\":5391:5422  winnerName = candidates[i].name */\n      dup1\n      sload\n      tag_172\n      swap1\n      tag_109\n      jump\t// in\n    tag_172:\n      dup1\n      0x1f\n      add\n      0x20\n      dup1\n      swap2\n      div\n      mul\n      0x20\n      add\n      mload(0x40)\n      swap1\n      dup2\n      add\n      0x40\n      mstore\n      dup1\n      swap3\n      swap2\n      swap1\n      dup2\n      dup2\n      mstore\n      0x20\n      add\n      dup3\n      dup1\n      sload\n      tag_173\n      swap1\n      tag_109\n      jump\t// in\n    tag_173:\n      dup1\n      iszero\n      tag_174\n      jumpi\n      dup1\n      0x1f\n      lt\n      tag_175\n      jumpi\n      0x0100\n      dup1\n      dup4\n      sload\n      div\n      mul\n      dup4\n      mstore\n      swap2\n      0x20\n      add\n      swap2\n      jump(tag_174)\n    tag_175:\n      dup3\n      add\n      swap2\n      swap1\n      0x00\n      mstore\n      keccak256(0x00, 0x20)\n      swap1\n    tag_176:\n      dup2\n      sload\n      dup2\n      mstore\n      swap1\n      0x01\n      add\n      swap1\n      0x20\n      add\n      dup1\n      dup4\n      gt\n      tag_176\n      jumpi\n      dup3\n      swap1\n      sub\n      0x1f\n      and\n      dup3\n      add\n      swap2\n    tag_174:\n      pop\n      pop\n      pop\n      pop\n      pop\n      swap2\n      pop\n        /* \"election.sol\":5265:5437  if (candidates[i].voteCount > winningVoteCount) {... */\n    tag_171:\n        /* \"election.sol\":5246:5249  i++ */\n      dup1\n      dup1\n      tag_177\n      swap1\n      tag_103\n      jump\t// in\n    tag_177:\n      swap2\n      pop\n      pop\n        /* \"election.sol\":5208:5447  for (uint i = 1; i <= candidateCount; i++) {... */\n      jump(tag_168)\n    tag_169:\n      pop\n        /* \"election.sol\":5554:5564  winnerName */\n      dup1\n        /* \"election.sol\":5579:5605  uint2str(winningVoteCount) */\n      tag_178\n        /* \"election.sol\":5588:5604  winningVoteCount */\n      dup4\n        /* \"election.sol\":5579:5587  uint2str */\n      tag_179\n        /* \"election.sol\":5579:5605  uint2str(winningVoteCount) */\n      jump\t// in\n    tag_178:\n        /* \"election.sol\":5525:5606  abi.encodePacked(\"Winner: \", winnerName, \", votes: \", uint2str(winningVoteCount)) */\n      add(0x20, mload(0x40))\n      tag_180\n      swap3\n      swap2\n      swap1\n      tag_181\n      jump\t// in\n    tag_180:\n      mload(0x40)\n      0x20\n      dup2\n      dup4\n      sub\n      sub\n      dup2\n      mstore\n      swap1\n      0x40\n      mstore\n        /* \"election.sol\":5511:5607  return string(abi.encodePacked(\"Winner: \", winnerName, \", votes: \", uint2str(winningVoteCount))) */\n      swap3\n      pop\n      pop\n      pop\n        /* \"election.sol\":1912:1913  _ */\n    tag_163:\n        /* \"election.sol\":4757:5614  function end() public onlyOwner view returns (string memory) {... */\n      swap1\n      jump\t// out\n        /* \"election.sol\":3552:3859  function unauthorize(address _person) public onlyOwner {... */\n    tag_83:\n        /* \"election.sol\":1859:1864  owner */\n      0x00\n      0x00\n      swap1\n      sload\n      swap1\n      0x0100\n      exp\n      swap1\n      div\n      0xffffffffffffffffffffffffffffffffffffffff\n      and\n        /* \"election.sol\":1845:1864  msg.sender == owner */\n      0xffffffffffffffffffffffffffffffffffffffff\n      and\n        /* \"election.sol\":1845:1855  msg.sender */\n      caller\n        /* \"election.sol\":1845:1864  msg.sender == owner */\n      0xffffffffffffffffffffffffffffffffffffffff\n      and\n      eq\n        /* \"election.sol\":1837:1902  require(msg.sender == owner, \"Only owner can call this function\") */\n      tag_183\n      jumpi\n      mload(0x40)\n      0x08c379a000000000000000000000000000000000000000000000000000000000\n      dup2\n      mstore\n      0x04\n      add\n      tag_184\n      swap1\n      tag_126\n      jump\t// in\n    tag_184:\n      mload(0x40)\n      dup1\n      swap2\n      sub\n      swap1\n      revert\n    tag_183:\n        /* \"election.sol\":3626:3632  voters */\n      0x06\n        /* \"election.sol\":3626:3641  voters[_person] */\n      0x00\n        /* \"election.sol\":3633:3640  _person */\n      dup3\n        /* \"election.sol\":3626:3641  voters[_person] */\n      0xffffffffffffffffffffffffffffffffffffffff\n      and\n      0xffffffffffffffffffffffffffffffffffffffff\n      and\n      dup2\n      mstore\n      0x20\n      add\n      swap1\n      dup2\n      mstore\n      0x20\n      add\n      0x00\n      keccak256\n        /* \"election.sol\":3626:3647  voters[_person].voted */\n      0x00\n      add\n      0x01\n      swap1\n      sload\n      swap1\n      0x0100\n      exp\n      swap1\n      div\n      0xff\n      and\n        /* \"election.sol\":3625:3647  !voters[_person].voted */\n      iszero\n        /* \"election.sol\":3617:3683  require(!voters[_person].voted, \"Cannot unauthorize after voting\") */\n      tag_186\n      jumpi\n      mload(0x40)\n      0x08c379a000000000000000000000000000000000000000000000000000000000\n      dup2\n      mstore\n      0x04\n      add\n      tag_187\n      swap1\n      tag_188\n      jump\t// in\n    tag_187:\n      mload(0x40)\n      dup1\n      swap2\n      sub\n      swap1\n      revert\n    tag_186:\n        /* \"election.sol\":3722:3727  false */\n      0x00\n        /* \"election.sol\":3693:3699  voters */\n      0x06\n        /* \"election.sol\":3693:3708  voters[_person] */\n      0x00\n        /* \"election.sol\":3700:3707  _person */\n      dup4\n        /* \"election.sol\":3693:3708  voters[_person] */\n      0xffffffffffffffffffffffffffffffffffffffff\n      and\n      0xffffffffffffffffffffffffffffffffffffffff\n      and\n      dup2\n      mstore\n      0x20\n      add\n      swap1\n      dup2\n      mstore\n      0x20\n      add\n      0x00\n      keccak256\n        /* \"election.sol\":3693:3719  voters[_person].authorized */\n      0x00\n      add\n      0x00\n        /* \"election.sol\":3693:3727  voters[_person].authorized = false */\n      0x0100\n      exp\n      dup2\n      sload\n      dup2\n      0xff\n      mul\n      not\n      and\n      swap1\n      dup4\n      iszero\n      iszero\n      mul\n      or\n      swap1\n      sstore\n      pop\n        /* \"election.sol\":3785:3811  VoterUnauthorized(_person) */\n      0xff4a9a6864608d4e5a0cdaa278ed76bde0c55aa397fa160990622b6d3df2037b\n        /* \"election.sol\":3803:3810  _person */\n      dup2\n        /* \"election.sol\":3785:3811  VoterUnauthorized(_person) */\n      mload(0x40)\n      tag_189\n      swap2\n      swap1\n      tag_65\n      jump\t// in\n    tag_189:\n      mload(0x40)\n      dup1\n      swap2\n      sub\n      swap1\n      log1\n        /* \"election.sol\":3552:3859  function unauthorize(address _person) public onlyOwner {... */\n      pop\n      jump\t// out\n        /* \"election.sol\":5677:6289  function uint2str(uint _i) internal pure returns (string memory) {... */\n    tag_179:\n        /* \"election.sol\":5727:5740  string memory */\n      0x60\n        /* \"election.sol\":5762:5763  0 */\n      0x00\n        /* \"election.sol\":5756:5758  _i */\n      dup3\n        /* \"election.sol\":5756:5763  _i == 0 */\n      sub\n        /* \"election.sol\":5752:5800  if (_i == 0) {... */\n      tag_191\n      jumpi\n        /* \"election.sol\":5779:5789  return \"0\" */\n      mload(0x40)\n      dup1\n      0x40\n      add\n      0x40\n      mstore\n      dup1\n      0x01\n      dup2\n      mstore\n      0x20\n      add\n      0x3000000000000000000000000000000000000000000000000000000000000000\n      dup2\n      mstore\n      pop\n      swap1\n      pop\n      jump(tag_190)\n        /* \"election.sol\":5752:5800  if (_i == 0) {... */\n    tag_191:\n        /* \"election.sol\":5809:5815  uint j */\n      0x00\n        /* \"election.sol\":5818:5820  _i */\n      dup3\n        /* \"election.sol\":5809:5820  uint j = _i */\n      swap1\n      pop\n        /* \"election.sol\":5830:5838  uint len */\n      0x00\n        /* \"election.sol\":5876:5942  while (j != 0) {... */\n    tag_192:\n        /* \"election.sol\":5888:5889  0 */\n      0x00\n        /* \"election.sol\":5883:5884  j */\n      dup3\n        /* \"election.sol\":5883:5889  j != 0 */\n      eq\n        /* \"election.sol\":5876:5942  while (j != 0) {... */\n      tag_193\n      jumpi\n        /* \"election.sol\":5905:5910  len++ */\n      dup1\n      dup1\n      tag_194\n      swap1\n      tag_103\n      jump\t// in\n    tag_194:\n      swap2\n      pop\n      pop\n        /* \"election.sol\":5929:5931  10 */\n      0x0a\n        /* \"election.sol\":5924:5931  j /= 10 */\n      dup3\n      tag_195\n      swap2\n      swap1\n      tag_196\n      jump\t// in\n    tag_195:\n      swap2\n      pop\n        /* \"election.sol\":5876:5942  while (j != 0) {... */\n      jump(tag_192)\n    tag_193:\n        /* \"election.sol\":5951:5968  bytes memory bstr */\n      0x00\n        /* \"election.sol\":5981:5984  len */\n      dup2\n        /* \"election.sol\":5971:5985  new bytes(len) */\n      0xffffffffffffffff\n      dup2\n      gt\n      iszero\n      tag_197\n      jumpi\n      tag_198\n      tag_136\n      jump\t// in\n    tag_198:\n    tag_197:\n      mload(0x40)\n      swap1\n      dup1\n      dup3\n      mstore\n      dup1\n      0x1f\n      add\n      not(0x1f)\n      and\n      0x20\n      add\n      dup3\n      add\n      0x40\n      mstore\n      dup1\n      iszero\n      tag_199\n      jumpi\n      dup2\n      0x20\n      add\n      0x01\n      dup3\n      mul\n      dup1\n      calldatasize\n      dup4\n      calldatacopy\n      dup1\n      dup3\n      add\n      swap2\n      pop\n      pop\n      swap1\n      pop\n    tag_199:\n      pop\n        /* \"election.sol\":5951:5985  bytes memory bstr = new bytes(len) */\n      swap1\n      pop\n        /* \"election.sol\":5995:6001  uint k */\n      0x00\n        /* \"election.sol\":6004:6007  len */\n      dup3\n        /* \"election.sol\":5995:6007  uint k = len */\n      swap1\n      pop\n        /* \"election.sol\":6062:6254  while (_i != 0) {... */\n    tag_200:\n        /* \"election.sol\":6075:6076  0 */\n      0x00\n        /* \"election.sol\":6069:6071  _i */\n      dup7\n        /* \"election.sol\":6069:6076  _i != 0 */\n      eq\n        /* \"election.sol\":6062:6254  while (_i != 0) {... */\n      tag_201\n      jumpi\n        /* \"election.sol\":6098:6099  1 */\n      0x01\n        /* \"election.sol\":6096:6097  k */\n      dup2\n        /* \"election.sol\":6096:6099  k-1 */\n      tag_202\n      swap2\n      swap1\n      tag_142\n      jump\t// in\n    tag_202:\n        /* \"election.sol\":6092:6099  k = k-1 */\n      swap1\n      pop\n        /* \"election.sol\":6113:6123  uint8 temp */\n      0x00\n        /* \"election.sol\":6153:6155  10 */\n      0x0a\n        /* \"election.sol\":6148:6150  10 */\n      dup1\n        /* \"election.sol\":6143:6145  _i */\n      dup9\n        /* \"election.sol\":6143:6150  _i / 10 */\n      tag_203\n      swap2\n      swap1\n      tag_196\n      jump\t// in\n    tag_203:\n        /* \"election.sol\":6143:6155  _i / 10 * 10 */\n      tag_204\n      swap2\n      swap1\n      tag_205\n      jump\t// in\n    tag_204:\n        /* \"election.sol\":6138:6140  _i */\n      dup8\n        /* \"election.sol\":6138:6155  _i - _i / 10 * 10 */\n      tag_206\n      swap2\n      swap1\n      tag_142\n      jump\t// in\n    tag_206:\n        /* \"election.sol\":6127:6129  48 */\n      0x30\n        /* \"election.sol\":6127:6156  48 + uint8(_i - _i / 10 * 10) */\n      tag_207\n      swap2\n      swap1\n      tag_208\n      jump\t// in\n    tag_207:\n        /* \"election.sol\":6113:6157  uint8 temp = (48 + uint8(_i - _i / 10 * 10)) */\n      swap1\n      pop\n        /* \"election.sol\":6171:6180  bytes1 b1 */\n      0x00\n        /* \"election.sol\":6190:6194  temp */\n      dup2\n        /* \"election.sol\":6183:6195  bytes1(temp) */\n      0xf8\n      shl\n        /* \"election.sol\":6171:6195  bytes1 b1 = bytes1(temp) */\n      swap1\n      pop\n        /* \"election.sol\":6219:6221  b1 */\n      dup1\n        /* \"election.sol\":6209:6213  bstr */\n      dup5\n        /* \"election.sol\":6214:6215  k */\n      dup5\n        /* \"election.sol\":6209:6216  bstr[k] */\n      dup2\n      mload\n      dup2\n      lt\n      tag_209\n      jumpi\n      tag_210\n      tag_145\n      jump\t// in\n    tag_210:\n    tag_209:\n      0x20\n      add\n      add\n        /* \"election.sol\":6209:6221  bstr[k] = b1 */\n      swap1\n      not(0xffffffffffffffffffffffffffffffffffffffffffffffffffffffffffffff)\n      and\n      swap1\n      dup2\n      0x00\n      byte\n      swap1\n      mstore8\n      pop\n        /* \"election.sol\":6241:6243  10 */\n      0x0a\n        /* \"election.sol\":6235:6243  _i /= 10 */\n      dup9\n      tag_211\n      swap2\n      swap1\n      tag_196\n      jump\t// in\n    tag_211:\n      swap8\n      pop\n        /* \"election.sol\":6078:6254  {... */\n      pop\n      pop\n        /* \"election.sol\":6062:6254  while (_i != 0) {... */\n      jump(tag_200)\n    tag_201:\n        /* \"election.sol\":6277:6281  bstr */\n      dup2\n        /* \"election.sol\":6263:6282  return string(bstr) */\n      swap5\n      pop\n      pop\n      pop\n      pop\n      pop\n        /* \"election.sol\":5677:6289  function uint2str(uint _i) internal pure returns (string memory) {... */\n    tag_190:\n      swap2\n      swap1\n      pop\n      jump\t// out\n        /* \"#utility.yul\":7:82   */\n    tag_212:\n        /* \"#utility.yul\":40:46   */\n      0x00\n        /* \"#utility.yul\":73:75   */\n      0x40\n        /* \"#utility.yul\":67:76   */\n      mload\n        /* \"#utility.yul\":57:76   */\n      swap1\n      pop\n        /* \"#utility.yul\":7:82   */\n      swap1\n      jump\t// out\n        /* \"#utility.yul\":88:205   */\n    tag_213:\n        /* \"#utility.yul\":197:198   */\n      0x00\n        /* \"#utility.yul\":194:195   */\n      0x00\n        /* \"#utility.yul\":187:199   */\n      revert\n        /* \"#utility.yul\":211:328   */\n    tag_214:\n        /* \"#utility.yul\":320:321   */\n      0x00\n        /* \"#utility.yul\":317:318   */\n      0x00\n        /* \"#utility.yul\":310:322   */\n      revert\n        /* \"#utility.yul\":334:411   */\n    tag_215:\n        /* \"#utility.yul\":371:378   */\n      0x00\n        /* \"#utility.yul\":400:405   */\n      dup2\n        /* \"#utility.yul\":389:405   */\n      swap1\n      pop\n        /* \"#utility.yul\":334:411   */\n      swap2\n      swap1\n      pop\n      jump\t// out\n        /* \"#utility.yul\":417:539   */\n    tag_216:\n        /* \"#utility.yul\":490:514   */\n      tag_295\n        /* \"#utility.yul\":508:513   */\n      dup2\n        /* \"#utility.yul\":490:514   */\n      tag_215\n      jump\t// in\n    tag_295:\n        /* \"#utility.yul\":483:488   */\n      dup2\n        /* \"#utility.yul\":480:515   */\n      eq\n        /* \"#utility.yul\":470:533   */\n      tag_296\n      jumpi\n        /* \"#utility.yul\":529:530   */\n      0x00\n        /* \"#utility.yul\":526:527   */\n      0x00\n        /* \"#utility.yul\":519:531   */\n      revert\n        /* \"#utility.yul\":470:533   */\n    tag_296:\n        /* \"#utility.yul\":417:539   */\n      pop\n      jump\t// out\n        /* \"#utility.yul\":545:684   */\n    tag_217:\n        /* \"#utility.yul\":591:596   */\n      0x00\n        /* \"#utility.yul\":629:635   */\n      dup2\n        /* \"#utility.yul\":616:636   */\n      calldataload\n        /* \"#utility.yul\":607:636   */\n      swap1\n      pop\n        /* \"#utility.yul\":645:678   */\n      tag_298\n        /* \"#utility.yul\":672:677   */\n      dup2\n        /* \"#utility.yul\":645:678   */\n      tag_216\n      jump\t// in\n    tag_298:\n        /* \"#utility.yul\":545:684   */\n      swap3\n      swap2\n      pop\n      pop\n      jump\t// out\n        /* \"#utility.yul\":690:1019   */\n    tag_24:\n        /* \"#utility.yul\":749:755   */\n      0x00\n        /* \"#utility.yul\":798:800   */\n      0x20\n        /* \"#utility.yul\":786:795   */\n      dup3\n        /* \"#utility.yul\":777:784   */\n      dup5\n        /* \"#utility.yul\":773:796   */\n      sub\n        /* \"#utility.yul\":769:801   */\n      slt\n        /* \"#utility.yul\":766:885   */\n      iszero\n      tag_300\n      jumpi\n        /* \"#utility.yul\":804:883   */\n      tag_301\n      tag_213\n      jump\t// in\n    tag_301:\n        /* \"#utility.yul\":766:885   */\n    tag_300:\n        /* \"#utility.yul\":924:925   */\n      0x00\n        /* \"#utility.yul\":949:1002   */\n      tag_302\n        /* \"#utility.yul\":994:1001   */\n      dup5\n        /* \"#utility.yul\":985:991   */\n      dup3\n        /* \"#utility.yul\":974:983   */\n      dup6\n        /* \"#utility.yul\":970:992   */\n      add\n        /* \"#utility.yul\":949:1002   */\n      tag_217\n      jump\t// in\n    tag_302:\n        /* \"#utility.yul\":939:1002   */\n      swap2\n      pop\n        /* \"#utility.yul\":895:1012   */\n      pop\n        /* \"#utility.yul\":690:1019   */\n      swap3\n      swap2\n      pop\n      pop\n      jump\t// out\n        /* \"#utility.yul\":1025:1143   */\n    tag_218:\n        /* \"#utility.yul\":1112:1136   */\n      tag_304\n        /* \"#utility.yul\":1130:1135   */\n      dup2\n        /* \"#utility.yul\":1112:1136   */\n      tag_215\n      jump\t// in\n    tag_304:\n        /* \"#utility.yul\":1107:1110   */\n      dup3\n        /* \"#utility.yul\":1100:1137   */\n      mstore\n        /* \"#utility.yul\":1025:1143   */\n      pop\n      pop\n      jump\t// out\n        /* \"#utility.yul\":1149:1371   */\n    tag_29:\n        /* \"#utility.yul\":1242:1246   */\n      0x00\n        /* \"#utility.yul\":1280:1282   */\n      0x20\n        /* \"#utility.yul\":1269:1278   */\n      dup3\n        /* \"#utility.yul\":1265:1283   */\n      add\n        /* \"#utility.yul\":1257:1283   */\n      swap1\n      pop\n        /* \"#utility.yul\":1293:1364   */\n      tag_306\n        /* \"#utility.yul\":1361:1362   */\n      0x00\n        /* \"#utility.yul\":1350:1359   */\n      dup4\n        /* \"#utility.yul\":1346:1363   */\n      add\n        /* \"#utility.yul\":1337:1343   */\n      dup5\n        /* \"#utility.yul\":1293:1364   */\n      tag_218\n      jump\t// in\n    tag_306:\n        /* \"#utility.yul\":1149:1371   */\n      swap3\n      swap2\n      pop\n      pop\n      jump\t// out\n        /* \"#utility.yul\":1377:1467   */\n    tag_219:\n        /* \"#utility.yul\":1411:1418   */\n      0x00\n        /* \"#utility.yul\":1454:1459   */\n      dup2\n        /* \"#utility.yul\":1447:1460   */\n      iszero\n        /* \"#utility.yul\":1440:1461   */\n      iszero\n        /* \"#utility.yul\":1429:1461   */\n      swap1\n      pop\n        /* \"#utility.yul\":1377:1467   */\n      swap2\n      swap1\n      pop\n      jump\t// out\n        /* \"#utility.yul\":1473:1582   */\n    tag_220:\n        /* \"#utility.yul\":1554:1575   */\n      tag_309\n        /* \"#utility.yul\":1569:1574   */\n      dup2\n        /* \"#utility.yul\":1554:1575   */\n      tag_219\n      jump\t// in\n    tag_309:\n        /* \"#utility.yul\":1549:1552   */\n      dup3\n        /* \"#utility.yul\":1542:1576   */\n      mstore\n        /* \"#utility.yul\":1473:1582   */\n      pop\n      pop\n      jump\t// out\n        /* \"#utility.yul\":1588:1798   */\n    tag_33:\n        /* \"#utility.yul\":1675:1679   */\n      0x00\n        /* \"#utility.yul\":1713:1715   */\n      0x20\n        /* \"#utility.yul\":1702:1711   */\n      dup3\n        /* \"#utility.yul\":1698:1716   */\n      add\n        /* \"#utility.yul\":1690:1716   */\n      swap1\n      pop\n        /* \"#utility.yul\":1726:1791   */\n      tag_311\n        /* \"#utility.yul\":1788:1789   */\n      0x00\n        /* \"#utility.yul\":1777:1786   */\n      dup4\n        /* \"#utility.yul\":1773:1790   */\n      add\n        /* \"#utility.yul\":1764:1770   */\n      dup5\n        /* \"#utility.yul\":1726:1791   */\n      tag_220\n      jump\t// in\n    tag_311:\n        /* \"#utility.yul\":1588:1798   */\n      swap3\n      swap2\n      pop\n      pop\n      jump\t// out\n        /* \"#utility.yul\":1804:1903   */\n    tag_221:\n        /* \"#utility.yul\":1856:1862   */\n      0x00\n        /* \"#utility.yul\":1890:1895   */\n      dup2\n        /* \"#utility.yul\":1884:1896   */\n      mload\n        /* \"#utility.yul\":1874:1896   */\n      swap1\n      pop\n        /* \"#utility.yul\":1804:1903   */\n      swap2\n      swap1\n      pop\n      jump\t// out\n        /* \"#utility.yul\":1909:2078   */\n    tag_222:\n        /* \"#utility.yul\":1993:2004   */\n      0x00\n        /* \"#utility.yul\":2027:2033   */\n      dup3\n        /* \"#utility.yul\":2022:2025   */\n      dup3\n        /* \"#utility.yul\":2015:2034   */\n      mstore\n        /* \"#utility.yul\":2067:2071   */\n      0x20\n        /* \"#utility.yul\":2062:2065   */\n      dup3\n        /* \"#utility.yul\":2058:2072   */\n      add\n        /* \"#utility.yul\":2043:2072   */\n      swap1\n      pop\n        /* \"#utility.yul\":1909:2078   */\n      swap3\n      swap2\n      pop\n      pop\n      jump\t// out\n        /* \"#utility.yul\":2084:2223   */\n    tag_223:\n        /* \"#utility.yul\":2173:2179   */\n      dup3\n        /* \"#utility.yul\":2168:2171   */\n      dup2\n        /* \"#utility.yul\":2163:2166   */\n      dup4\n        /* \"#utility.yul\":2157:2180   */\n      mcopy\n        /* \"#utility.yul\":2214:2215   */\n      0x00\n        /* \"#utility.yul\":2205:2211   */\n      dup4\n        /* \"#utility.yul\":2200:2203   */\n      dup4\n        /* \"#utility.yul\":2196:2212   */\n      add\n        /* \"#utility.yul\":2189:2216   */\n      mstore\n        /* \"#utility.yul\":2084:2223   */\n      pop\n      pop\n      pop\n      jump\t// out\n        /* \"#utility.yul\":2229:2331   */\n    tag_224:\n        /* \"#utility.yul\":2270:2276   */\n      0x00\n        /* \"#utility.yul\":2321:2323   */\n      0x1f\n        /* \"#utility.yul\":2317:2324   */\n      not\n        /* \"#utility.yul\":2312:2314   */\n      0x1f\n        /* \"#utility.yul\":2305:2310   */\n      dup4\n        /* \"#utility.yul\":2301:2315   */\n      add\n        /* \"#utility.yul\":2297:2325   */\n      and\n        /* \"#utility.yul\":2287:2325   */\n      swap1\n      pop\n        /* \"#utility.yul\":2229:2331   */\n      swap2\n      swap1\n      pop\n      jump\t// out\n        /* \"#utility.yul\":2337:2714   */\n    tag_225:\n        /* \"#utility.yul\":2425:2428   */\n      0x00\n        /* \"#utility.yul\":2453:2492   */\n      tag_317\n        /* \"#utility.yul\":2486:2491   */\n      dup3\n        /* \"#utility.yul\":2453:2492   */\n      tag_221\n      jump\t// in\n    tag_317:\n        /* \"#utility.yul\":2508:2579   */\n      tag_318\n        /* \"#utility.yul\":2572:2578   */\n      dup2\n        /* \"#utility.yul\":2567:2570   */\n      dup6\n        /* \"#utility.yul\":2508:2579   */\n      tag_222\n      jump\t// in\n    tag_318:\n        /* \"#utility.yul\":2501:2579   */\n      swap4\n      pop\n        /* \"#utility.yul\":2588:2653   */\n      tag_319\n        /* \"#utility.yul\":2646:2652   */\n      dup2\n        /* \"#utility.yul\":2641:2644   */\n      dup6\n        /* \"#utility.yul\":2634:2638   */\n      0x20\n        /* \"#utility.yul\":2627:2632   */\n      dup7\n        /* \"#utility.yul\":2623:2639   */\n      add\n        /* \"#utility.yul\":2588:2653   */\n      tag_223\n      jump\t// in\n    tag_319:\n        /* \"#utility.yul\":2678:2707   */\n      tag_320\n        /* \"#utility.yul\":2700:2706   */\n      dup2\n        /* \"#utility.yul\":2678:2707   */\n      tag_224\n      jump\t// in\n    tag_320:\n        /* \"#utility.yul\":2673:2676   */\n      dup5\n        /* \"#utility.yul\":2669:2708   */\n      add\n        /* \"#utility.yul\":2662:2708   */\n      swap2\n      pop\n        /* \"#utility.yul\":2429:2714   */\n      pop\n        /* \"#utility.yul\":2337:2714   */\n      swap3\n      swap2\n      pop\n      pop\n      jump\t// out\n        /* \"#utility.yul\":2720:3253   */\n    tag_41:\n        /* \"#utility.yul\":2889:2893   */\n      0x00\n        /* \"#utility.yul\":2927:2929   */\n      0x60\n        /* \"#utility.yul\":2916:2925   */\n      dup3\n        /* \"#utility.yul\":2912:2930   */\n      add\n        /* \"#utility.yul\":2904:2930   */\n      swap1\n      pop\n        /* \"#utility.yul\":2940:3011   */\n      tag_322\n        /* \"#utility.yul\":3008:3009   */\n      0x00\n        /* \"#utility.yul\":2997:3006   */\n      dup4\n        /* \"#utility.yul\":2993:3010   */\n      add\n        /* \"#utility.yul\":2984:2990   */\n      dup7\n        /* \"#utility.yul\":2940:3011   */\n      tag_218\n      jump\t// in\n    tag_322:\n        /* \"#utility.yul\":3058:3067   */\n      dup2\n        /* \"#utility.yul\":3052:3056   */\n      dup2\n        /* \"#utility.yul\":3048:3068   */\n      sub\n        /* \"#utility.yul\":3043:3045   */\n      0x20\n        /* \"#utility.yul\":3032:3041   */\n      dup4\n        /* \"#utility.yul\":3028:3046   */\n      add\n        /* \"#utility.yul\":3021:3069   */\n      mstore\n        /* \"#utility.yul\":3086:3164   */\n      tag_323\n        /* \"#utility.yul\":3159:3163   */\n      dup2\n        /* \"#utility.yul\":3150:3156   */\n      dup6\n        /* \"#utility.yul\":3086:3164   */\n      tag_225\n      jump\t// in\n    tag_323:\n        /* \"#utility.yul\":3078:3164   */\n      swap1\n      pop\n        /* \"#utility.yul\":3174:3246   */\n      tag_324\n        /* \"#utility.yul\":3242:3244   */\n      0x40\n        /* \"#utility.yul\":3231:3240   */\n      dup4\n        /* \"#utility.yul\":3227:3245   */\n      add\n        /* \"#utility.yul\":3218:3224   */\n      dup5\n        /* \"#utility.yul\":3174:3246   */\n      tag_218\n      jump\t// in\n    tag_324:\n        /* \"#utility.yul\":2720:3253   */\n      swap5\n      swap4\n      pop\n      pop\n      pop\n      pop\n      jump\t// out\n        /* \"#utility.yul\":3259:3682   */\n    tag_46:\n        /* \"#utility.yul\":3400:3404   */\n      0x00\n        /* \"#utility.yul\":3438:3440   */\n      0x40\n        /* \"#utility.yul\":3427:3436   */\n      dup3\n        /* \"#utility.yul\":3423:3441   */\n      add\n        /* \"#utility.yul\":3415:3441   */\n      swap1\n      pop\n        /* \"#utility.yul\":3487:3496   */\n      dup2\n        /* \"#utility.yul\":3481:3485   */\n      dup2\n        /* \"#utility.yul\":3477:3497   */\n      sub\n        /* \"#utility.yul\":3473:3474   */\n      0x00\n        /* \"#utility.yul\":3462:3471   */\n      dup4\n        /* \"#utility.yul\":3458:3475   */\n      add\n        /* \"#utility.yul\":3451:3498   */\n      mstore\n        /* \"#utility.yul\":3515:3593   */\n      tag_326\n        /* \"#utility.yul\":3588:3592   */\n      dup2\n        /* \"#utility.yul\":3579:3585   */\n      dup6\n        /* \"#utility.yul\":3515:3593   */\n      tag_225\n      jump\t// in\n    tag_326:\n        /* \"#utility.yul\":3507:3593   */\n      swap1\n      pop\n        /* \"#utility.yul\":3603:3675   */\n      tag_327\n        /* \"#utility.yul\":3671:3673   */\n      0x20\n        /* \"#utility.yul\":3660:3669   */\n      dup4\n        /* \"#utility.yul\":3656:3674   */\n      add\n        /* \"#utility.yul\":3647:3653   */\n      dup5\n        /* \"#utility.yul\":3603:3675   */\n      tag_218\n      jump\t// in\n    tag_327:\n        /* \"#utility.yul\":3259:3682   */\n      swap4\n      swap3\n      pop\n      pop\n      pop\n      jump\t// out\n        /* \"#utility.yul\":3688:3805   */\n    tag_226:\n        /* \"#utility.yul\":3797:3798   */\n      0x00\n        /* \"#utility.yul\":3794:3795   */\n      0x00\n        /* \"#utility.yul\":3787:3799   */\n      revert\n        /* \"#utility.yul\":3811:3928   */\n    tag_227:\n        /* \"#utility.yul\":3920:3921   */\n      0x00\n        /* \"#utility.yul\":3917:3918   */\n      0x00\n        /* \"#utility.yul\":3910:3922   */\n      revert\n        /* \"#utility.yul\":3934:4114   */\n    tag_136:\n        /* \"#utility.yul\":3982:4059   */\n      0x4e487b7100000000000000000000000000000000000000000000000000000000\n        /* \"#utility.yul\":3979:3980   */\n      0x00\n        /* \"#utility.yul\":3972:4060   */\n      mstore\n        /* \"#utility.yul\":4079:4083   */\n      0x41\n        /* \"#utility.yul\":4076:4077   */\n      0x04\n        /* \"#utility.yul\":4069:4084   */\n      mstore\n        /* \"#utility.yul\":4103:4107   */\n      0x24\n        /* \"#utility.yul\":4100:4101   */\n      0x00\n        /* \"#utility.yul\":4093:4108   */\n      revert\n        /* \"#utility.yul\":4120:4401   */\n    tag_228:\n        /* \"#utility.yul\":4203:4230   */\n      tag_332\n        /* \"#utility.yul\":4225:4229   */\n      dup3\n        /* \"#utility.yul\":4203:4230   */\n      tag_224\n      jump\t// in\n    tag_332:\n        /* \"#utility.yul\":4195:4201   */\n      dup2\n        /* \"#utility.yul\":4191:4231   */\n      add\n        /* \"#utility.yul\":4333:4339   */\n      dup2\n        /* \"#utility.yul\":4321:4331   */\n      dup2\n        /* \"#utility.yul\":4318:4340   */\n      lt\n        /* \"#utility.yul\":4297:4315   */\n      0xffffffffffffffff\n        /* \"#utility.yul\":4285:4295   */\n      dup3\n        /* \"#utility.yul\":4282:4316   */\n      gt\n        /* \"#utility.yul\":4279:4341   */\n      or\n        /* \"#utility.yul\":4276:4364   */\n      iszero\n      tag_333\n      jumpi\n        /* \"#utility.yul\":4344:4362   */\n      tag_334\n      tag_136\n      jump\t// in\n    tag_334:\n        /* \"#utility.yul\":4276:4364   */\n    tag_333:\n        /* \"#utility.yul\":4384:4394   */\n      dup1\n        /* \"#utility.yul\":4380:4382   */\n      0x40\n        /* \"#utility.yul\":4373:4395   */\n      mstore\n        /* \"#utility.yul\":4163:4401   */\n      pop\n        /* \"#utility.yul\":4120:4401   */\n      pop\n      pop\n      jump\t// out\n        /* \"#utility.yul\":4407:4536   */\n    tag_229:\n        /* \"#utility.yul\":4441:4447   */\n      0x00\n        /* \"#utility.yul\":4468:4488   */\n      tag_336\n      tag_212\n      jump\t// in\n    tag_336:\n        /* \"#utility.yul\":4458:4488   */\n      swap1\n      pop\n        /* \"#utility.yul\":4497:4530   */\n      tag_337\n        /* \"#utility.yul\":4525:4529   */\n      dup3\n        /* \"#utility.yul\":4517:4523   */\n      dup3\n        /* \"#utility.yul\":4497:4530   */\n      tag_228\n      jump\t// in\n    tag_337:\n        /* \"#utility.yul\":4407:4536   */\n      swap2\n      swap1\n      pop\n      jump\t// out\n        /* \"#utility.yul\":4542:4850   */\n    tag_230:\n        /* \"#utility.yul\":4604:4608   */\n      0x00\n        /* \"#utility.yul\":4694:4712   */\n      0xffffffffffffffff\n        /* \"#utility.yul\":4686:4692   */\n      dup3\n        /* \"#utility.yul\":4683:4713   */\n      gt\n        /* \"#utility.yul\":4680:4736   */\n      iszero\n      tag_339\n      jumpi\n        /* \"#utility.yul\":4716:4734   */\n      tag_340\n      tag_136\n      jump\t// in\n    tag_340:\n        /* \"#utility.yul\":4680:4736   */\n    tag_339:\n        /* \"#utility.yul\":4754:4783   */\n      tag_341\n        /* \"#utility.yul\":4776:4782   */\n      dup3\n        /* \"#utility.yul\":4754:4783   */\n      tag_224\n      jump\t// in\n    tag_341:\n        /* \"#utility.yul\":4746:4783   */\n      swap1\n      pop\n        /* \"#utility.yul\":4838:4842   */\n      0x20\n        /* \"#utility.yul\":4832:4836   */\n      dup2\n        /* \"#utility.yul\":4828:4843   */\n      add\n        /* \"#utility.yul\":4820:4843   */\n      swap1\n      pop\n        /* \"#utility.yul\":4542:4850   */\n      swap2\n      swap1\n      pop\n      jump\t// out\n        /* \"#utility.yul\":4856:5004   */\n    tag_231:\n        /* \"#utility.yul\":4954:4960   */\n      dup3\n        /* \"#utility.yul\":4949:4952   */\n      dup2\n        /* \"#utility.yul\":4944:4947   */\n      dup4\n        /* \"#utility.yul\":4931:4961   */\n      calldatacopy\n        /* \"#utility.yul\":4995:4996   */\n      0x00\n        /* \"#utility.yul\":4986:4992   */\n      dup4\n        /* \"#utility.yul\":4981:4984   */\n      dup4\n        /* \"#utility.yul\":4977:4993   */\n      add\n        /* \"#utility.yul\":4970:4997   */\n      mstore\n        /* \"#utility.yul\":4856:5004   */\n      pop\n      pop\n      pop\n      jump\t// out\n        /* \"#utility.yul\":5010:5435   */\n    tag_232:\n        /* \"#utility.yul\":5088:5093   */\n      0x00\n        /* \"#utility.yul\":5113:5179   */\n      tag_344\n        /* \"#utility.yul\":5129:5178   */\n      tag_345\n        /* \"#utility.yul\":5171:5177   */\n      dup5\n        /* \"#utility.yul\":5129:5178   */\n      tag_230\n      jump\t// in\n    tag_345:\n        /* \"#utility.yul\":5113:5179   */\n      tag_229\n      jump\t// in\n    tag_344:\n        /* \"#utility.yul\":5104:5179   */\n      swap1\n      pop\n        /* \"#utility.yul\":5202:5208   */\n      dup3\n        /* \"#utility.yul\":5195:5200   */\n      dup2\n        /* \"#utility.yul\":5188:5209   */\n      mstore\n        /* \"#utility.yul\":5240:5244   */\n      0x20\n        /* \"#utility.yul\":5233:5238   */\n      dup2\n        /* \"#utility.yul\":5229:5245   */\n      add\n        /* \"#utility.yul\":5278:5281   */\n      dup5\n        /* \"#utility.yul\":5269:5275   */\n      dup5\n        /* \"#utility.yul\":5264:5267   */\n      dup5\n        /* \"#utility.yul\":5260:5276   */\n      add\n        /* \"#utility.yul\":5257:5282   */\n      gt\n        /* \"#utility.yul\":5254:5366   */\n      iszero\n      tag_346\n      jumpi\n        /* \"#utility.yul\":5285:5364   */\n      tag_347\n      tag_227\n      jump\t// in\n    tag_347:\n        /* \"#utility.yul\":5254:5366   */\n    tag_346:\n        /* \"#utility.yul\":5375:5429   */\n      tag_348\n        /* \"#utility.yul\":5422:5428   */\n      dup5\n        /* \"#utility.yul\":5417:5420   */\n      dup3\n        /* \"#utility.yul\":5412:5415   */\n      dup6\n        /* \"#utility.yul\":5375:5429   */\n      tag_231\n      jump\t// in\n    tag_348:\n        /* \"#utility.yul\":5094:5435   */\n      pop\n        /* \"#utility.yul\":5010:5435   */\n      swap4\n      swap3\n      pop\n      pop\n      pop\n      jump\t// out\n        /* \"#utility.yul\":5455:5795   */\n    tag_233:\n        /* \"#utility.yul\":5511:5516   */\n      0x00\n        /* \"#utility.yul\":5560:5563   */\n      dup3\n        /* \"#utility.yul\":5553:5557   */\n      0x1f\n        /* \"#utility.yul\":5545:5551   */\n      dup4\n        /* \"#utility.yul\":5541:5558   */\n      add\n        /* \"#utility.yul\":5537:5564   */\n      slt\n        /* \"#utility.yul\":5527:5649   */\n      tag_350\n      jumpi\n        /* \"#utility.yul\":5568:5647   */\n      tag_351\n      tag_226\n      jump\t// in\n    tag_351:\n        /* \"#utility.yul\":5527:5649   */\n    tag_350:\n        /* \"#utility.yul\":5685:5691   */\n      dup2\n        /* \"#utility.yul\":5672:5692   */\n      calldataload\n        /* \"#utility.yul\":5710:5789   */\n      tag_352\n        /* \"#utility.yul\":5785:5788   */\n      dup5\n        /* \"#utility.yul\":5777:5783   */\n      dup3\n        /* \"#utility.yul\":5770:5774   */\n      0x20\n        /* \"#utility.yul\":5762:5768   */\n      dup7\n        /* \"#utility.yul\":5758:5775   */\n      add\n        /* \"#utility.yul\":5710:5789   */\n      tag_232\n      jump\t// in\n    tag_352:\n        /* \"#utility.yul\":5701:5789   */\n      swap2\n      pop\n        /* \"#utility.yul\":5517:5795   */\n      pop\n        /* \"#utility.yul\":5455:5795   */\n      swap3\n      swap2\n      pop\n      pop\n      jump\t// out\n        /* \"#utility.yul\":5801:6310   */\n    tag_49:\n        /* \"#utility.yul\":5870:5876   */\n      0x00\n        /* \"#utility.yul\":5919:5921   */\n      0x20\n        /* \"#utility.yul\":5907:5916   */\n      dup3\n        /* \"#utility.yul\":5898:5905   */\n      dup5\n        /* \"#utility.yul\":5894:5917   */\n      sub\n        /* \"#utility.yul\":5890:5922   */\n      slt\n        /* \"#utility.yul\":5887:6006   */\n      iszero\n      tag_354\n      jumpi\n        /* \"#utility.yul\":5925:6004   */\n      tag_355\n      tag_213\n      jump\t// in\n    tag_355:\n        /* \"#utility.yul\":5887:6006   */\n    tag_354:\n        /* \"#utility.yul\":6073:6074   */\n      0x00\n        /* \"#utility.yul\":6062:6071   */\n      dup3\n        /* \"#utility.yul\":6058:6075   */\n      add\n        /* \"#utility.yul\":6045:6076   */\n      calldataload\n        /* \"#utility.yul\":6103:6121   */\n      0xffffffffffffffff\n        /* \"#utility.yul\":6095:6101   */\n      dup2\n        /* \"#utility.yul\":6092:6122   */\n      gt\n        /* \"#utility.yul\":6089:6206   */\n      iszero\n      tag_356\n      jumpi\n        /* \"#utility.yul\":6125:6204   */\n      tag_357\n      tag_214\n      jump\t// in\n    tag_357:\n        /* \"#utility.yul\":6089:6206   */\n    tag_356:\n        /* \"#utility.yul\":6230:6293   */\n      tag_358\n        /* \"#utility.yul\":6285:6292   */\n      dup5\n        /* \"#utility.yul\":6276:6282   */\n      dup3\n        /* \"#utility.yul\":6265:6274   */\n      dup6\n        /* \"#utility.yul\":6261:6283   */\n      add\n        /* \"#utility.yul\":6230:6293   */\n      tag_233\n      jump\t// in\n    tag_358:\n        /* \"#utility.yul\":6220:6293   */\n      swap2\n      pop\n        /* \"#utility.yul\":6016:6303   */\n      pop\n        /* \"#utility.yul\":5801:6310   */\n      swap3\n      swap2\n      pop\n      pop\n      jump\t// out\n        /* \"#utility.yul\":6316:6430   */\n    tag_234:\n        /* \"#utility.yul\":6383:6389   */\n      0x00\n        /* \"#utility.yul\":6417:6422   */\n      dup2\n        /* \"#utility.yul\":6411:6423   */\n      mload\n        /* \"#utility.yul\":6401:6423   */\n      swap1\n      pop\n        /* \"#utility.yul\":6316:6430   */\n      swap2\n      swap1\n      pop\n      jump\t// out\n        /* \"#utility.yul\":6436:6620   */\n    tag_235:\n        /* \"#utility.yul\":6535:6546   */\n      0x00\n        /* \"#utility.yul\":6569:6575   */\n      dup3\n        /* \"#utility.yul\":6564:6567   */\n      dup3\n        /* \"#utility.yul\":6557:6576   */\n      mstore\n        /* \"#utility.yul\":6609:6613   */\n      0x20\n        /* \"#utility.yul\":6604:6607   */\n      dup3\n        /* \"#utility.yul\":6600:6614   */\n      add\n        /* \"#utility.yul\":6585:6614   */\n      swap1\n      pop\n        /* \"#utility.yul\":6436:6620   */\n      swap3\n      swap2\n      pop\n      pop\n      jump\t// out\n        /* \"#utility.yul\":6626:6758   */\n    tag_236:\n        /* \"#utility.yul\":6693:6697   */\n      0x00\n        /* \"#utility.yul\":6716:6719   */\n      dup2\n        /* \"#utility.yul\":6708:6719   */\n      swap1\n      pop\n        /* \"#utility.yul\":6746:6750   */\n      0x20\n        /* \"#utility.yul\":6741:6744   */\n      dup3\n        /* \"#utility.yul\":6737:6751   */\n      add\n        /* \"#utility.yul\":6729:6751   */\n      swap1\n      pop\n        /* \"#utility.yul\":6626:6758   */\n      swap2\n      swap1\n      pop\n      jump\t// out\n        /* \"#utility.yul\":6764:6872   */\n    tag_237:\n        /* \"#utility.yul\":6841:6865   */\n      tag_363\n        /* \"#utility.yul\":6859:6864   */\n      dup2\n        /* \"#utility.yul\":6841:6865   */\n      tag_215\n      jump\t// in\n    tag_363:\n        /* \"#utility.yul\":6836:6839   */\n      dup3\n        /* \"#utility.yul\":6829:6866   */\n      mstore\n        /* \"#utility.yul\":6764:6872   */\n      pop\n      pop\n      jump\t// out\n        /* \"#utility.yul\":6878:7057   */\n    tag_238:\n        /* \"#utility.yul\":6947:6957   */\n      0x00\n        /* \"#utility.yul\":6968:7014   */\n      tag_365\n        /* \"#utility.yul\":7010:7013   */\n      dup4\n        /* \"#utility.yul\":7002:7008   */\n      dup4\n        /* \"#utility.yul\":6968:7014   */\n      tag_237\n      jump\t// in\n    tag_365:\n        /* \"#utility.yul\":7046:7050   */\n      0x20\n        /* \"#utility.yul\":7041:7044   */\n      dup4\n        /* \"#utility.yul\":7037:7051   */\n      add\n        /* \"#utility.yul\":7023:7051   */\n      swap1\n      pop\n        /* \"#utility.yul\":6878:7057   */\n      swap3\n      swap2\n      pop\n      pop\n      jump\t// out\n        /* \"#utility.yul\":7063:7176   */\n    tag_239:\n        /* \"#utility.yul\":7133:7137   */\n      0x00\n        /* \"#utility.yul\":7165:7169   */\n      0x20\n        /* \"#utility.yul\":7160:7163   */\n      dup3\n        /* \"#utility.yul\":7156:7170   */\n      add\n        /* \"#utility.yul\":7148:7170   */\n      swap1\n      pop\n        /* \"#utility.yul\":7063:7176   */\n      swap2\n      swap1\n      pop\n      jump\t// out\n        /* \"#utility.yul\":7212:7944   */\n    tag_240:\n        /* \"#utility.yul\":7331:7334   */\n      0x00\n        /* \"#utility.yul\":7360:7414   */\n      tag_368\n        /* \"#utility.yul\":7408:7413   */\n      dup3\n        /* \"#utility.yul\":7360:7414   */\n      tag_234\n      jump\t// in\n    tag_368:\n        /* \"#utility.yul\":7430:7516   */\n      tag_369\n        /* \"#utility.yul\":7509:7515   */\n      dup2\n        /* \"#utility.yul\":7504:7507   */\n      dup6\n        /* \"#utility.yul\":7430:7516   */\n      tag_235\n      jump\t// in\n    tag_369:\n        /* \"#utility.yul\":7423:7516   */\n      swap4\n      pop\n        /* \"#utility.yul\":7540:7596   */\n      tag_370\n        /* \"#utility.yul\":7590:7595   */\n      dup4\n        /* \"#utility.yul\":7540:7596   */\n      tag_236\n      jump\t// in\n    tag_370:\n        /* \"#utility.yul\":7619:7626   */\n      dup1\n        /* \"#utility.yul\":7650:7651   */\n      0x00\n        /* \"#utility.yul\":7635:7919   */\n    tag_371:\n        /* \"#utility.yul\":7660:7666   */\n      dup4\n        /* \"#utility.yul\":7657:7658   */\n      dup2\n        /* \"#utility.yul\":7654:7667   */\n      lt\n        /* \"#utility.yul\":7635:7919   */\n      iszero\n      tag_373\n      jumpi\n        /* \"#utility.yul\":7736:7742   */\n      dup2\n        /* \"#utility.yul\":7730:7743   */\n      mload\n        /* \"#utility.yul\":7763:7826   */\n      tag_374\n        /* \"#utility.yul\":7822:7825   */\n      dup9\n        /* \"#utility.yul\":7807:7820   */\n      dup3\n        /* \"#utility.yul\":7763:7826   */\n      tag_238\n      jump\t// in\n    tag_374:\n        /* \"#utility.yul\":7756:7826   */\n      swap8\n      pop\n        /* \"#utility.yul\":7849:7909   */\n      tag_375\n        /* \"#utility.yul\":7902:7908   */\n      dup4\n        /* \"#utility.yul\":7849:7909   */\n      tag_239\n      jump\t// in\n    tag_375:\n        /* \"#utility.yul\":7839:7909   */\n      swap3\n      pop\n        /* \"#utility.yul\":7695:7919   */\n      pop\n        /* \"#utility.yul\":7682:7683   */\n      0x01\n        /* \"#utility.yul\":7679:7680   */\n      dup2\n        /* \"#utility.yul\":7675:7684   */\n      add\n        /* \"#utility.yul\":7670:7684   */\n      swap1\n      pop\n        /* \"#utility.yul\":7635:7919   */\n      jump(tag_371)\n    tag_373:\n        /* \"#utility.yul\":7639:7653   */\n      pop\n        /* \"#utility.yul\":7935:7938   */\n      dup6\n        /* \"#utility.yul\":7928:7938   */\n      swap4\n      pop\n        /* \"#utility.yul\":7336:7944   */\n      pop\n      pop\n      pop\n        /* \"#utility.yul\":7212:7944   */\n      swap3\n      swap2\n      pop\n      pop\n      jump\t// out\n        /* \"#utility.yul\":7950:8323   */\n    tag_54:\n        /* \"#utility.yul\":8093:8097   */\n      0x00\n        /* \"#utility.yul\":8131:8133   */\n      0x20\n        /* \"#utility.yul\":8120:8129   */\n      dup3\n        /* \"#utility.yul\":8116:8134   */\n      add\n        /* \"#utility.yul\":8108:8134   */\n      swap1\n      pop\n        /* \"#utility.yul\":8180:8189   */\n      dup2\n        /* \"#utility.yul\":8174:8178   */\n      dup2\n        /* \"#utility.yul\":8170:8190   */\n      sub\n        /* \"#utility.yul\":8166:8167   */\n      0x00\n        /* \"#utility.yul\":8155:8164   */\n      dup4\n        /* \"#utility.yul\":8151:8168   */\n      add\n        /* \"#utility.yul\":8144:8191   */\n      mstore\n        /* \"#utility.yul\":8208:8316   */\n      tag_377\n        /* \"#utility.yul\":8311:8315   */\n      dup2\n        /* \"#utility.yul\":8302:8308   */\n      dup5\n        /* \"#utility.yul\":8208:8316   */\n      tag_240\n      jump\t// in\n    tag_377:\n        /* \"#utility.yul\":8200:8316   */\n      swap1\n      pop\n        /* \"#utility.yul\":7950:8323   */\n      swap3\n      swap2\n      pop\n      pop\n      jump\t// out\n        /* \"#utility.yul\":8329:8642   */\n    tag_61:\n        /* \"#utility.yul\":8442:8446   */\n      0x00\n        /* \"#utility.yul\":8480:8482   */\n      0x20\n        /* \"#utility.yul\":8469:8478   */\n      dup3\n        /* \"#utility.yul\":8465:8483   */\n      add\n        /* \"#utility.yul\":8457:8483   */\n      swap1\n      pop\n        /* \"#utility.yul\":8529:8538   */\n      dup2\n        /* \"#utility.yul\":8523:8527   */\n      dup2\n        /* \"#utility.yul\":8519:8539   */\n      sub\n        /* \"#utility.yul\":8515:8516   */\n      0x00\n        /* \"#utility.yul\":8504:8513   */\n      dup4\n        /* \"#utility.yul\":8500:8517   */\n      add\n        /* \"#utility.yul\":8493:8540   */\n      mstore\n        /* \"#utility.yul\":8557:8635   */\n      tag_379\n        /* \"#utility.yul\":8630:8634   */\n      dup2\n        /* \"#utility.yul\":8621:8627   */\n      dup5\n        /* \"#utility.yul\":8557:8635   */\n      tag_225\n      jump\t// in\n    tag_379:\n        /* \"#utility.yul\":8549:8635   */\n      swap1\n      pop\n        /* \"#utility.yul\":8329:8642   */\n      swap3\n      swap2\n      pop\n      pop\n      jump\t// out\n        /* \"#utility.yul\":8648:8774   */\n    tag_241:\n        /* \"#utility.yul\":8685:8692   */\n      0x00\n        /* \"#utility.yul\":8725:8767   */\n      0xffffffffffffffffffffffffffffffffffffffff\n        /* \"#utility.yul\":8718:8723   */\n      dup3\n        /* \"#utility.yul\":8714:8768   */\n      and\n        /* \"#utility.yul\":8703:8768   */\n      swap1\n      pop\n        /* \"#utility.yul\":8648:8774   */\n      swap2\n      swap1\n      pop\n      jump\t// out\n        /* \"#utility.yul\":8780:8876   */\n    tag_242:\n        /* \"#utility.yul\":8817:8824   */\n      0x00\n        /* \"#utility.yul\":8846:8870   */\n      tag_382\n        /* \"#utility.yul\":8864:8869   */\n      dup3\n        /* \"#utility.yul\":8846:8870   */\n      tag_241\n      jump\t// in\n    tag_382:\n        /* \"#utility.yul\":8835:8870   */\n      swap1\n      pop\n        /* \"#utility.yul\":8780:8876   */\n      swap2\n      swap1\n      pop\n      jump\t// out\n        /* \"#utility.yul\":8882:9000   */\n    tag_243:\n        /* \"#utility.yul\":8969:8993   */\n      tag_384\n        /* \"#utility.yul\":8987:8992   */\n      dup2\n        /* \"#utility.yul\":8969:8993   */\n      tag_242\n      jump\t// in\n    tag_384:\n        /* \"#utility.yul\":8964:8967   */\n      dup3\n        /* \"#utility.yul\":8957:8994   */\n      mstore\n        /* \"#utility.yul\":8882:9000   */\n      pop\n      pop\n      jump\t// out\n        /* \"#utility.yul\":9006:9228   */\n    tag_65:\n        /* \"#utility.yul\":9099:9103   */\n      0x00\n        /* \"#utility.yul\":9137:9139   */\n      0x20\n        /* \"#utility.yul\":9126:9135   */\n      dup3\n        /* \"#utility.yul\":9122:9140   */\n      add\n        /* \"#utility.yul\":9114:9140   */\n      swap1\n      pop\n        /* \"#utility.yul\":9150:9221   */\n      tag_386\n        /* \"#utility.yul\":9218:9219   */\n      0x00\n        /* \"#utility.yul\":9207:9216   */\n      dup4\n        /* \"#utility.yul\":9203:9220   */\n      add\n        /* \"#utility.yul\":9194:9200   */\n      dup5\n        /* \"#utility.yul\":9150:9221   */\n      tag_243\n      jump\t// in\n    tag_386:\n        /* \"#utility.yul\":9006:9228   */\n      swap3\n      swap2\n      pop\n      pop\n      jump\t// out\n        /* \"#utility.yul\":9234:9356   */\n    tag_244:\n        /* \"#utility.yul\":9307:9331   */\n      tag_388\n        /* \"#utility.yul\":9325:9330   */\n      dup2\n        /* \"#utility.yul\":9307:9331   */\n      tag_242\n      jump\t// in\n    tag_388:\n        /* \"#utility.yul\":9300:9305   */\n      dup2\n        /* \"#utility.yul\":9297:9332   */\n      eq\n        /* \"#utility.yul\":9287:9350   */\n      tag_389\n      jumpi\n        /* \"#utility.yul\":9346:9347   */\n      0x00\n        /* \"#utility.yul\":9343:9344   */\n      0x00\n        /* \"#utility.yul\":9336:9348   */\n      revert\n        /* \"#utility.yul\":9287:9350   */\n    tag_389:\n        /* \"#utility.yul\":9234:9356   */\n      pop\n      jump\t// out\n        /* \"#utility.yul\":9362:9501   */\n    tag_245:\n        /* \"#utility.yul\":9408:9413   */\n      0x00\n        /* \"#utility.yul\":9446:9452   */\n      dup2\n        /* \"#utility.yul\":9433:9453   */\n      calldataload\n        /* \"#utility.yul\":9424:9453   */\n      swap1\n      pop\n        /* \"#utility.yul\":9462:9495   */\n      tag_391\n        /* \"#utility.yul\":9489:9494   */\n      dup2\n        /* \"#utility.yul\":9462:9495   */\n      tag_244\n      jump\t// in\n    tag_391:\n        /* \"#utility.yul\":9362:9501   */\n      swap3\n      swap2\n      pop\n      pop\n      jump\t// out\n        /* \"#utility.yul\":9507:9836   */\n    tag_68:\n        /* \"#utility.yul\":9566:9572   */\n      0x00\n        /* \"#utility.yul\":9615:9617   */\n      0x20\n        /* \"#utility.yul\":9603:9612   */\n      dup3\n        /* \"#utility.yul\":9594:9601   */\n      dup5\n        /* \"#utility.yul\":9590:9613   */\n      sub\n        /* \"#utility.yul\":9586:9618   */\n      slt\n        /* \"#utility.yul\":9583:9702   */\n      iszero\n      tag_393\n      jumpi\n        /* \"#utility.yul\":9621:9700   */\n      tag_394\n      tag_213\n      jump\t// in\n    tag_394:\n        /* \"#utility.yul\":9583:9702   */\n    tag_393:\n        /* \"#utility.yul\":9741:9742   */\n      0x00\n        /* \"#utility.yul\":9766:9819   */\n      tag_395\n        /* \"#utility.yul\":9811:9818   */\n      dup5\n        /* \"#utility.yul\":9802:9808   */\n      dup3\n        /* \"#utility.yul\":9791:9800   */\n      dup6\n        /* \"#utility.yul\":9787:9809   */\n      add\n        /* \"#utility.yul\":9766:9819   */\n      tag_245\n      jump\t// in\n    tag_395:\n        /* \"#utility.yul\":9756:9819   */\n      swap2\n      pop\n        /* \"#utility.yul\":9712:9829   */\n      pop\n        /* \"#utility.yul\":9507:9836   */\n      swap3\n      swap2\n      pop\n      pop\n      jump\t// out\n        /* \"#utility.yul\":9842:10260   */\n    tag_71:\n        /* \"#utility.yul\":9979:9983   */\n      0x00\n        /* \"#utility.yul\":10017:10019   */\n      0x60\n        /* \"#utility.yul\":10006:10015   */\n      dup3\n        /* \"#utility.yul\":10002:10020   */\n      add\n        /* \"#utility.yul\":9994:10020   */\n      swap1\n      pop\n        /* \"#utility.yul\":10030:10095   */\n      tag_397\n        /* \"#utility.yul\":10092:10093   */\n      0x00\n        /* \"#utility.yul\":10081:10090   */\n      dup4\n        /* \"#utility.yul\":10077:10094   */\n      add\n        /* \"#utility.yul\":10068:10074   */\n      dup7\n        /* \"#utility.yul\":10030:10095   */\n      tag_220\n      jump\t// in\n    tag_397:\n        /* \"#utility.yul\":10105:10171   */\n      tag_398\n        /* \"#utility.yul\":10167:10169   */\n      0x20\n        /* \"#utility.yul\":10156:10165   */\n      dup4\n        /* \"#utility.yul\":10152:10170   */\n      add\n        /* \"#utility.yul\":10143:10149   */\n      dup6\n        /* \"#utility.yul\":10105:10171   */\n      tag_220\n      jump\t// in\n    tag_398:\n        /* \"#utility.yul\":10181:10253   */\n      tag_399\n        /* \"#utility.yul\":10249:10251   */\n      0x40\n        /* \"#utility.yul\":10238:10247   */\n      dup4\n        /* \"#utility.yul\":10234:10252   */\n      add\n        /* \"#utility.yul\":10225:10231   */\n      dup5\n        /* \"#utility.yul\":10181:10253   */\n      tag_218\n      jump\t// in\n    tag_399:\n        /* \"#utility.yul\":9842:10260   */\n      swap5\n      swap4\n      pop\n      pop\n      pop\n      pop\n      jump\t// out\n        /* \"#utility.yul\":10266:10443   */\n    tag_246:\n        /* \"#utility.yul\":10406:10435   */\n      0x566f74696e6720686173206e6f74207374617274656420796574200000000000\n        /* \"#utility.yul\":10402:10403   */\n      0x00\n        /* \"#utility.yul\":10394:10400   */\n      dup3\n        /* \"#utility.yul\":10390:10404   */\n      add\n        /* \"#utility.yul\":10383:10436   */\n      mstore\n        /* \"#utility.yul\":10266:10443   */\n      pop\n      jump\t// out\n        /* \"#utility.yul\":10449:10815   */\n    tag_247:\n        /* \"#utility.yul\":10591:10594   */\n      0x00\n        /* \"#utility.yul\":10612:10679   */\n      tag_402\n        /* \"#utility.yul\":10676:10678   */\n      0x1b\n        /* \"#utility.yul\":10671:10674   */\n      dup4\n        /* \"#utility.yul\":10612:10679   */\n      tag_222\n      jump\t// in\n    tag_402:\n        /* \"#utility.yul\":10605:10679   */\n      swap2\n      pop\n        /* \"#utility.yul\":10688:10781   */\n      tag_403\n        /* \"#utility.yul\":10777:10780   */\n      dup3\n        /* \"#utility.yul\":10688:10781   */\n      tag_246\n      jump\t// in\n    tag_403:\n        /* \"#utility.yul\":10806:10808   */\n      0x20\n        /* \"#utility.yul\":10801:10804   */\n      dup3\n        /* \"#utility.yul\":10797:10809   */\n      add\n        /* \"#utility.yul\":10790:10809   */\n      swap1\n      pop\n        /* \"#utility.yul\":10449:10815   */\n      swap2\n      swap1\n      pop\n      jump\t// out\n        /* \"#utility.yul\":10821:11240   */\n    tag_87:\n        /* \"#utility.yul\":10987:10991   */\n      0x00\n        /* \"#utility.yul\":11025:11027   */\n      0x20\n        /* \"#utility.yul\":11014:11023   */\n      dup3\n        /* \"#utility.yul\":11010:11028   */\n      add\n        /* \"#utility.yul\":11002:11028   */\n      swap1\n      pop\n        /* \"#utility.yul\":11074:11083   */\n      dup2\n        /* \"#utility.yul\":11068:11072   */\n      dup2\n        /* \"#utility.yul\":11064:11084   */\n      sub\n        /* \"#utility.yul\":11060:11061   */\n      0x00\n        /* \"#utility.yul\":11049:11058   */\n      dup4\n        /* \"#utility.yul\":11045:11062   */\n      add\n        /* \"#utility.yul\":11038:11085   */\n      mstore\n        /* \"#utility.yul\":11102:11233   */\n      tag_405\n        /* \"#utility.yul\":11228:11232   */\n      dup2\n        /* \"#utility.yul\":11102:11233   */\n      tag_247\n      jump\t// in\n    tag_405:\n        /* \"#utility.yul\":11094:11233   */\n      swap1\n      pop\n        /* \"#utility.yul\":10821:11240   */\n      swap2\n      swap1\n      pop\n      jump\t// out\n        /* \"#utility.yul\":11246:11412   */\n    tag_248:\n        /* \"#utility.yul\":11386:11404   */\n      0x566f74696e672068617320656e64656400000000000000000000000000000000\n        /* \"#utility.yul\":11382:11383   */\n      0x00\n        /* \"#utility.yul\":11374:11380   */\n      dup3\n        /* \"#utility.yul\":11370:11384   */\n      add\n        /* \"#utility.yul\":11363:11405   */\n      mstore\n        /* \"#utility.yul\":11246:11412   */\n      pop\n      jump\t// out\n        /* \"#utility.yul\":11418:11784   */\n    tag_249:\n        /* \"#utility.yul\":11560:11563   */\n      0x00\n        /* \"#utility.yul\":11581:11648   */\n      tag_408\n        /* \"#utility.yul\":11645:11647   */\n      0x10\n        /* \"#utility.yul\":11640:11643   */\n      dup4\n        /* \"#utility.yul\":11581:11648   */\n      tag_222\n      jump\t// in\n    tag_408:\n        /* \"#utility.yul\":11574:11648   */\n      swap2\n      pop\n        /* \"#utility.yul\":11657:11750   */\n      tag_409\n        /* \"#utility.yul\":11746:11749   */\n      dup3\n        /* \"#utility.yul\":11657:11750   */\n      tag_248\n      jump\t// in\n    tag_409:\n        /* \"#utility.yul\":11775:11777   */\n      0x20\n        /* \"#utility.yul\":11770:11773   */\n      dup3\n        /* \"#utility.yul\":11766:11778   */\n      add\n        /* \"#utility.yul\":11759:11778   */\n      swap1\n      pop\n        /* \"#utility.yul\":11418:11784   */\n      swap2\n      swap1\n      pop\n      jump\t// out\n        /* \"#utility.yul\":11790:12209   */\n    tag_90:\n        /* \"#utility.yul\":11956:11960   */\n      0x00\n        /* \"#utility.yul\":11994:11996   */\n      0x20\n        /* \"#utility.yul\":11983:11992   */\n      dup3\n        /* \"#utility.yul\":11979:11997   */\n      add\n        /* \"#utility.yul\":11971:11997   */\n      swap1\n      pop\n        /* \"#utility.yul\":12043:12052   */\n      dup2\n        /* \"#utility.yul\":12037:12041   */\n      dup2\n        /* \"#utility.yul\":12033:12053   */\n      sub\n        /* \"#utility.yul\":12029:12030   */\n      0x00\n        /* \"#utility.yul\":12018:12027   */\n      dup4\n        /* \"#utility.yul\":12014:12031   */\n      add\n        /* \"#utility.yul\":12007:12054   */\n      mstore\n        /* \"#utility.yul\":12071:12202   */\n      tag_411\n        /* \"#utility.yul\":12197:12201   */\n      dup2\n        /* \"#utility.yul\":12071:12202   */\n      tag_249\n      jump\t// in\n    tag_411:\n        /* \"#utility.yul\":12063:12202   */\n      swap1\n      pop\n        /* \"#utility.yul\":11790:12209   */\n      swap2\n      swap1\n      pop\n      jump\t// out\n        /* \"#utility.yul\":12215:12387   */\n    tag_250:\n        /* \"#utility.yul\":12355:12379   */\n      0x4e6f7420617574686f72697a656420746f20766f746500000000000000000000\n        /* \"#utility.yul\":12351:12352   */\n      0x00\n        /* \"#utility.yul\":12343:12349   */\n      dup3\n        /* \"#utility.yul\":12339:12353   */\n      add\n        /* \"#utility.yul\":12332:12380   */\n      mstore\n        /* \"#utility.yul\":12215:12387   */\n      pop\n      jump\t// out\n        /* \"#utility.yul\":12393:12759   */\n    tag_251:\n        /* \"#utility.yul\":12535:12538   */\n      0x00\n        /* \"#utility.yul\":12556:12623   */\n      tag_414\n        /* \"#utility.yul\":12620:12622   */\n      0x16\n        /* \"#utility.yul\":12615:12618   */\n      dup4\n        /* \"#utility.yul\":12556:12623   */\n      tag_222\n      jump\t// in\n    tag_414:\n        /* \"#utility.yul\":12549:12623   */\n      swap2\n      pop\n        /* \"#utility.yul\":12632:12725   */\n      tag_415\n        /* \"#utility.yul\":12721:12724   */\n      dup3\n        /* \"#utility.yul\":12632:12725   */\n      tag_250\n      jump\t// in\n    tag_415:\n        /* \"#utility.yul\":12750:12752   */\n      0x20\n        /* \"#utility.yul\":12745:12748   */\n      dup3\n        /* \"#utility.yul\":12741:12753   */\n      add\n        /* \"#utility.yul\":12734:12753   */\n      swap1\n      pop\n        /* \"#utility.yul\":12393:12759   */\n      swap2\n      swap1\n      pop\n      jump\t// out\n        /* \"#utility.yul\":12765:13184   */\n    tag_94:\n        /* \"#utility.yul\":12931:12935   */\n      0x00\n        /* \"#utility.yul\":12969:12971   */\n      0x20\n        /* \"#utility.yul\":12958:12967   */\n      dup3\n        /* \"#utility.yul\":12954:12972   */\n      add\n        /* \"#utility.yul\":12946:12972   */\n      swap1\n      pop\n        /* \"#utility.yul\":13018:13027   */\n      dup2\n        /* \"#utility.yul\":13012:13016   */\n      dup2\n        /* \"#utility.yul\":13008:13028   */\n      sub\n        /* \"#utility.yul\":13004:13005   */\n      0x00\n        /* \"#utility.yul\":12993:13002   */\n      dup4\n        /* \"#utility.yul\":12989:13006   */\n      add\n        /* \"#utility.yul\":12982:13029   */\n      mstore\n        /* \"#utility.yul\":13046:13177   */\n      tag_417\n        /* \"#utility.yul\":13172:13176   */\n      dup2\n        /* \"#utility.yul\":13046:13177   */\n      tag_251\n      jump\t// in\n    tag_417:\n        /* \"#utility.yul\":13038:13177   */\n      swap1\n      pop\n        /* \"#utility.yul\":12765:13184   */\n      swap2\n      swap1\n      pop\n      jump\t// out\n        /* \"#utility.yul\":13190:13353   */\n    tag_252:\n        /* \"#utility.yul\":13330:13345   */\n      0x416c726561647920766f74656400000000000000000000000000000000000000\n        /* \"#utility.yul\":13326:13327   */\n      0x00\n        /* \"#utility.yul\":13318:13324   */\n      dup3\n        /* \"#utility.yul\":13314:13328   */\n      add\n        /* \"#utility.yul\":13307:13346   */\n      mstore\n        /* \"#utility.yul\":13190:13353   */\n      pop\n      jump\t// out\n        /* \"#utility.yul\":13359:13725   */\n    tag_253:\n        /* \"#utility.yul\":13501:13504   */\n      0x00\n        /* \"#utility.yul\":13522:13589   */\n      tag_420\n        /* \"#utility.yul\":13586:13588   */\n      0x0d\n        /* \"#utility.yul\":13581:13584   */\n      dup4\n        /* \"#utility.yul\":13522:13589   */\n      tag_222\n      jump\t// in\n    tag_420:\n        /* \"#utility.yul\":13515:13589   */\n      swap2\n      pop\n        /* \"#utility.yul\":13598:13691   */\n      tag_421\n        /* \"#utility.yul\":13687:13690   */\n      dup3\n        /* \"#utility.yul\":13598:13691   */\n      tag_252\n      jump\t// in\n    tag_421:\n        /* \"#utility.yul\":13716:13718   */\n      0x20\n        /* \"#utility.yul\":13711:13714   */\n      dup3\n        /* \"#utility.yul\":13707:13719   */\n      add\n        /* \"#utility.yul\":13700:13719   */\n      swap1\n      pop\n        /* \"#utility.yul\":13359:13725   */\n      swap2\n      swap1\n      pop\n      jump\t// out\n        /* \"#utility.yul\":13731:14150   */\n    tag_97:\n        /* \"#utility.yul\":13897:13901   */\n      0x00\n        /* \"#utility.yul\":13935:13937   */\n      0x20\n        /* \"#utility.yul\":13924:13933   */\n      dup3\n        /* \"#utility.yul\":13920:13938   */\n      add\n        /* \"#utility.yul\":13912:13938   */\n      swap1\n      pop\n        /* \"#utility.yul\":13984:13993   */\n      dup2\n        /* \"#utility.yul\":13978:13982   */\n      dup2\n        /* \"#utility.yul\":13974:13994   */\n      sub\n        /* \"#utility.yul\":13970:13971   */\n      0x00\n        /* \"#utility.yul\":13959:13968   */\n      dup4\n        /* \"#utility.yul\":13955:13972   */\n      add\n        /* \"#utility.yul\":13948:13995   */\n      mstore\n        /* \"#utility.yul\":14012:14143   */\n      tag_423\n        /* \"#utility.yul\":14138:14142   */\n      dup2\n        /* \"#utility.yul\":14012:14143   */\n      tag_253\n      jump\t// in\n    tag_423:\n        /* \"#utility.yul\":14004:14143   */\n      swap1\n      pop\n        /* \"#utility.yul\":13731:14150   */\n      swap2\n      swap1\n      pop\n      jump\t// out\n        /* \"#utility.yul\":14156:14326   */\n    tag_254:\n        /* \"#utility.yul\":14296:14318   */\n      0x496e76616c69642063616e646964617465204944000000000000000000000000\n        /* \"#utility.yul\":14292:14293   */\n      0x00\n        /* \"#utility.yul\":14284:14290   */\n      dup3\n        /* \"#utility.yul\":14280:14294   */\n      add\n        /* \"#utility.yul\":14273:14319   */\n      mstore\n        /* \"#utility.yul\":14156:14326   */\n      pop\n      jump\t// out\n        /* \"#utility.yul\":14332:14698   */\n    tag_255:\n        /* \"#utility.yul\":14474:14477   */\n      0x00\n        /* \"#utility.yul\":14495:14562   */\n      tag_426\n        /* \"#utility.yul\":14559:14561   */\n      0x14\n        /* \"#utility.yul\":14554:14557   */\n      dup4\n        /* \"#utility.yul\":14495:14562   */\n      tag_222\n      jump\t// in\n    tag_426:\n        /* \"#utility.yul\":14488:14562   */\n      swap2\n      pop\n        /* \"#utility.yul\":14571:14664   */\n      tag_427\n        /* \"#utility.yul\":14660:14663   */\n      dup3\n        /* \"#utility.yul\":14571:14664   */\n      tag_254\n      jump\t// in\n    tag_427:\n        /* \"#utility.yul\":14689:14691   */\n      0x20\n        /* \"#utility.yul\":14684:14687   */\n      dup3\n        /* \"#utility.yul\":14680:14692   */\n      add\n        /* \"#utility.yul\":14673:14692   */\n      swap1\n      pop\n        /* \"#utility.yul\":14332:14698   */\n      swap2\n      swap1\n      pop\n      jump\t// out\n        /* \"#utility.yul\":14704:15123   */\n    tag_101:\n        /* \"#utility.yul\":14870:14874   */\n      0x00\n        /* \"#utility.yul\":14908:14910   */\n      0x20\n        /* \"#utility.yul\":14897:14906   */\n      dup3\n        /* \"#utility.yul\":14893:14911   */\n      add\n        /* \"#utility.yul\":14885:14911   */\n      swap1\n      pop\n        /* \"#utility.yul\":14957:14966   */\n      dup2\n        /* \"#utility.yul\":14951:14955   */\n      dup2\n        /* \"#utility.yul\":14947:14967   */\n      sub\n        /* \"#utility.yul\":14943:14944   */\n      0x00\n        /* \"#utility.yul\":14932:14941   */\n      dup4\n        /* \"#utility.yul\":14928:14945   */\n      add\n        /* \"#utility.yul\":14921:14968   */\n      mstore\n        /* \"#utility.yul\":14985:15116   */\n      tag_429\n        /* \"#utility.yul\":15111:15115   */\n      dup2\n        /* \"#utility.yul\":14985:15116   */\n      tag_255\n      jump\t// in\n    tag_429:\n        /* \"#utility.yul\":14977:15116   */\n      swap1\n      pop\n        /* \"#utility.yul\":14704:15123   */\n      swap2\n      swap1\n      pop\n      jump\t// out\n        /* \"#utility.yul\":15129:15309   */\n    tag_256:\n        /* \"#utility.yul\":15177:15254   */\n      0x4e487b7100000000000000000000000000000000000000000000000000000000\n        /* \"#utility.yul\":15174:15175   */\n      0x00\n        /* \"#utility.yul\":15167:15255   */\n      mstore\n        /* \"#utility.yul\":15274:15278   */\n      0x11\n        /* \"#utility.yul\":15271:15272   */\n      0x04\n        /* \"#utility.yul\":15264:15279   */\n      mstore\n        /* \"#utility.yul\":15298:15302   */\n      0x24\n        /* \"#utility.yul\":15295:15296   */\n      0x00\n        /* \"#utility.yul\":15288:15303   */\n      revert\n        /* \"#utility.yul\":15315:15548   */\n    tag_103:\n        /* \"#utility.yul\":15354:15357   */\n      0x00\n        /* \"#utility.yul\":15377:15401   */\n      tag_432\n        /* \"#utility.yul\":15395:15400   */\n      dup3\n        /* \"#utility.yul\":15377:15401   */\n      tag_215\n      jump\t// in\n    tag_432:\n        /* \"#utility.yul\":15368:15401   */\n      swap2\n      pop\n        /* \"#utility.yul\":15423:15489   */\n      0xffffffffffffffffffffffffffffffffffffffffffffffffffffffffffffffff\n        /* \"#utility.yul\":15416:15421   */\n      dup3\n        /* \"#utility.yul\":15413:15490   */\n      sub\n        /* \"#utility.yul\":15410:15513   */\n      tag_433\n      jumpi\n        /* \"#utility.yul\":15493:15511   */\n      tag_434\n      tag_256\n      jump\t// in\n    tag_434:\n        /* \"#utility.yul\":15410:15513   */\n    tag_433:\n        /* \"#utility.yul\":15540:15541   */\n      0x01\n        /* \"#utility.yul\":15533:15538   */\n      dup3\n        /* \"#utility.yul\":15529:15542   */\n      add\n        /* \"#utility.yul\":15522:15542   */\n      swap1\n      pop\n        /* \"#utility.yul\":15315:15548   */\n      swap2\n      swap1\n      pop\n      jump\t// out\n        /* \"#utility.yul\":15554:15886   */\n    tag_106:\n        /* \"#utility.yul\":15675:15679   */\n      0x00\n        /* \"#utility.yul\":15713:15715   */\n      0x40\n        /* \"#utility.yul\":15702:15711   */\n      dup3\n        /* \"#utility.yul\":15698:15716   */\n      add\n        /* \"#utility.yul\":15690:15716   */\n      swap1\n      pop\n        /* \"#utility.yul\":15726:15797   */\n      tag_436\n        /* \"#utility.yul\":15794:15795   */\n      0x00\n        /* \"#utility.yul\":15783:15792   */\n      dup4\n        /* \"#utility.yul\":15779:15796   */\n      add\n        /* \"#utility.yul\":15770:15776   */\n      dup6\n        /* \"#utility.yul\":15726:15797   */\n      tag_243\n      jump\t// in\n    tag_436:\n        /* \"#utility.yul\":15807:15879   */\n      tag_437\n        /* \"#utility.yul\":15875:15877   */\n      0x20\n        /* \"#utility.yul\":15864:15873   */\n      dup4\n        /* \"#utility.yul\":15860:15878   */\n      add\n        /* \"#utility.yul\":15851:15857   */\n      dup5\n        /* \"#utility.yul\":15807:15879   */\n      tag_218\n      jump\t// in\n    tag_437:\n        /* \"#utility.yul\":15554:15886   */\n      swap4\n      swap3\n      pop\n      pop\n      pop\n      jump\t// out\n        /* \"#utility.yul\":15892:16072   */\n    tag_257:\n        /* \"#utility.yul\":15940:16017   */\n      0x4e487b7100000000000000000000000000000000000000000000000000000000\n        /* \"#utility.yul\":15937:15938   */\n      0x00\n        /* \"#utility.yul\":15930:16018   */\n      mstore\n        /* \"#utility.yul\":16037:16041   */\n      0x22\n        /* \"#utility.yul\":16034:16035   */\n      0x04\n        /* \"#utility.yul\":16027:16042   */\n      mstore\n        /* \"#utility.yul\":16061:16065   */\n      0x24\n        /* \"#utility.yul\":16058:16059   */\n      0x00\n        /* \"#utility.yul\":16051:16066   */\n      revert\n        /* \"#utility.yul\":16078:16398   */\n    tag_109:\n        /* \"#utility.yul\":16122:16128   */\n      0x00\n        /* \"#utility.yul\":16159:16160   */\n      0x02\n        /* \"#utility.yul\":16153:16157   */\n      dup3\n        /* \"#utility.yul\":16149:16161   */\n      div\n        /* \"#utility.yul\":16139:16161   */\n      swap1\n      pop\n        /* \"#utility.yul\":16206:16207   */\n      0x01\n        /* \"#utility.yul\":16200:16204   */\n      dup3\n        /* \"#utility.yul\":16196:16208   */\n      and\n        /* \"#utility.yul\":16227:16245   */\n      dup1\n        /* \"#utility.yul\":16217:16298   */\n      tag_440\n      jumpi\n        /* \"#utility.yul\":16283:16287   */\n      0x7f\n        /* \"#utility.yul\":16275:16281   */\n      dup3\n        /* \"#utility.yul\":16271:16288   */\n      and\n        /* \"#utility.yul\":16261:16288   */\n      swap2\n      pop\n        /* \"#utility.yul\":16217:16298   */\n    tag_440:\n        /* \"#utility.yul\":16345:16347   */\n      0x20\n        /* \"#utility.yul\":16337:16343   */\n      dup3\n        /* \"#utility.yul\":16334:16348   */\n      lt\n        /* \"#utility.yul\":16314:16332   */\n      dup2\n        /* \"#utility.yul\":16311:16349   */\n      sub\n        /* \"#utility.yul\":16308:16392   */\n      tag_441\n      jumpi\n        /* \"#utility.yul\":16364:16382   */\n      tag_442\n      tag_257\n      jump\t// in\n    tag_442:\n        /* \"#utility.yul\":16308:16392   */\n    tag_441:\n        /* \"#utility.yul\":16129:16398   */\n      pop\n        /* \"#utility.yul\":16078:16398   */\n      swap2\n      swap1\n      pop\n      jump\t// out\n        /* \"#utility.yul\":16404:16624   */\n    tag_258:\n        /* \"#utility.yul\":16544:16578   */\n      0x4f6e6c79206f776e65722063616e2063616c6c20746869732066756e6374696f\n        /* \"#utility.yul\":16540:16541   */\n      0x00\n        /* \"#utility.yul\":16532:16538   */\n      dup3\n        /* \"#utility.yul\":16528:16542   */\n      add\n        /* \"#utility.yul\":16521:16579   */\n      mstore\n        /* \"#utility.yul\":16613:16616   */\n      0x6e00000000000000000000000000000000000000000000000000000000000000\n        /* \"#utility.yul\":16608:16610   */\n      0x20\n        /* \"#utility.yul\":16600:16606   */\n      dup3\n        /* \"#utility.yul\":16596:16611   */\n      add\n        /* \"#utility.yul\":16589:16617   */\n      mstore\n        /* \"#utility.yul\":16404:16624   */\n      pop\n      jump\t// out\n        /* \"#utility.yul\":16630:16996   */\n    tag_259:\n        /* \"#utility.yul\":16772:16775   */\n      0x00\n        /* \"#utility.yul\":16793:16860   */\n      tag_445\n        /* \"#utility.yul\":16857:16859   */\n      0x21\n        /* \"#utility.yul\":16852:16855   */\n      dup4\n        /* \"#utility.yul\":16793:16860   */\n      tag_222\n      jump\t// in\n    tag_445:\n        /* \"#utility.yul\":16786:16860   */\n      swap2\n      pop\n        /* \"#utility.yul\":16869:16962   */\n      tag_446\n        /* \"#utility.yul\":16958:16961   */\n      dup3\n        /* \"#utility.yul\":16869:16962   */\n      tag_258\n      jump\t// in\n    tag_446:\n        /* \"#utility.yul\":16987:16989   */\n      0x40\n        /* \"#utility.yul\":16982:16985   */\n      dup3\n        /* \"#utility.yul\":16978:16990   */\n      add\n        /* \"#utility.yul\":16971:16990   */\n      swap1\n      pop\n        /* \"#utility.yul\":16630:16996   */\n      swap2\n      swap1\n      pop\n      jump\t// out\n        /* \"#utility.yul\":17002:17421   */\n    tag_126:\n        /* \"#utility.yul\":17168:17172   */\n      0x00\n        /* \"#utility.yul\":17206:17208   */\n      0x20\n        /* \"#utility.yul\":17195:17204   */\n      dup3\n        /* \"#utility.yul\":17191:17209   */\n      add\n        /* \"#utility.yul\":17183:17209   */\n      swap1\n      pop\n        /* \"#utility.yul\":17255:17264   */\n      dup2\n        /* \"#utility.yul\":17249:17253   */\n      dup2\n        /* \"#utility.yul\":17245:17265   */\n      sub\n        /* \"#utility.yul\":17241:17242   */\n      0x00\n        /* \"#utility.yul\":17230:17239   */\n      dup4\n        /* \"#utility.yul\":17226:17243   */\n      add\n        /* \"#utility.yul\":17219:17266   */\n      mstore\n        /* \"#utility.yul\":17283:17414   */\n      tag_448\n        /* \"#utility.yul\":17409:17413   */\n      dup2\n        /* \"#utility.yul\":17283:17414   */\n      tag_259\n      jump\t// in\n    tag_448:\n        /* \"#utility.yul\":17275:17414   */\n      swap1\n      pop\n        /* \"#utility.yul\":17002:17421   */\n      swap2\n      swap1\n      pop\n      jump\t// out\n        /* \"#utility.yul\":17427:17568   */\n    tag_260:\n        /* \"#utility.yul\":17476:17480   */\n      0x00\n        /* \"#utility.yul\":17499:17502   */\n      dup2\n        /* \"#utility.yul\":17491:17502   */\n      swap1\n      pop\n        /* \"#utility.yul\":17522:17525   */\n      dup2\n        /* \"#utility.yul\":17519:17520   */\n      0x00\n        /* \"#utility.yul\":17512:17526   */\n      mstore\n        /* \"#utility.yul\":17556:17560   */\n      0x20\n        /* \"#utility.yul\":17553:17554   */\n      0x00\n        /* \"#utility.yul\":17543:17561   */\n      keccak256\n        /* \"#utility.yul\":17535:17561   */\n      swap1\n      pop\n        /* \"#utility.yul\":17427:17568   */\n      swap2\n      swap1\n      pop\n      jump\t// out\n        /* \"#utility.yul\":17574:17667   */\n    tag_261:\n        /* \"#utility.yul\":17611:17617   */\n      0x00\n        /* \"#utility.yul\":17658:17660   */\n      0x20\n        /* \"#utility.yul\":17653:17655   */\n      0x1f\n        /* \"#utility.yul\":17646:17651   */\n      dup4\n        /* \"#utility.yul\":17642:17656   */\n      add\n        /* \"#utility.yul\":17638:17661   */\n      div\n        /* \"#utility.yul\":17628:17661   */\n      swap1\n      pop\n        /* \"#utility.yul\":17574:17667   */\n      swap2\n      swap1\n      pop\n      jump\t// out\n        /* \"#utility.yul\":17673:17780   */\n    tag_262:\n        /* \"#utility.yul\":17717:17725   */\n      0x00\n        /* \"#utility.yul\":17767:17772   */\n      dup3\n        /* \"#utility.yul\":17761:17765   */\n      dup3\n        /* \"#utility.yul\":17757:17773   */\n      shl\n        /* \"#utility.yul\":17736:17773   */\n      swap1\n      pop\n        /* \"#utility.yul\":17673:17780   */\n      swap3\n      swap2\n      pop\n      pop\n      jump\t// out\n        /* \"#utility.yul\":17786:18179   */\n    tag_263:\n        /* \"#utility.yul\":17855:17861   */\n      0x00\n        /* \"#utility.yul\":17905:17906   */\n      0x08\n        /* \"#utility.yul\":17893:17903   */\n      dup4\n        /* \"#utility.yul\":17889:17907   */\n      mul\n        /* \"#utility.yul\":17928:18025   */\n      tag_453\n        /* \"#utility.yul\":17958:18024   */\n      0xffffffffffffffffffffffffffffffffffffffffffffffffffffffffffffffff\n        /* \"#utility.yul\":17947:17956   */\n      dup3\n        /* \"#utility.yul\":17928:18025   */\n      tag_262\n      jump\t// in\n    tag_453:\n        /* \"#utility.yul\":18046:18085   */\n      tag_454\n        /* \"#utility.yul\":18076:18084   */\n      dup7\n        /* \"#utility.yul\":18065:18074   */\n      dup4\n        /* \"#utility.yul\":18046:18085   */\n      tag_262\n      jump\t// in\n    tag_454:\n        /* \"#utility.yul\":18034:18085   */\n      swap6\n      pop\n        /* \"#utility.yul\":18118:18122   */\n      dup1\n        /* \"#utility.yul\":18114:18123   */\n      not\n        /* \"#utility.yul\":18107:18112   */\n      dup5\n        /* \"#utility.yul\":18103:18124   */\n      and\n        /* \"#utility.yul\":18094:18124   */\n      swap4\n      pop\n        /* \"#utility.yul\":18167:18171   */\n      dup1\n        /* \"#utility.yul\":18157:18165   */\n      dup7\n        /* \"#utility.yul\":18153:18172   */\n      and\n        /* \"#utility.yul\":18146:18151   */\n      dup5\n        /* \"#utility.yul\":18143:18173   */\n      or\n        /* \"#utility.yul\":18133:18173   */\n      swap3\n      pop\n        /* \"#utility.yul\":17862:18179   */\n      pop\n      pop\n        /* \"#utility.yul\":17786:18179   */\n      swap4\n      swap3\n      pop\n      pop\n      pop\n      jump\t// out\n        /* \"#utility.yul\":18185:18245   */\n    tag_264:\n        /* \"#utility.yul\":18213:18216   */\n      0x00\n        /* \"#utility.yul\":18234:18239   */\n      dup2\n        /* \"#utility.yul\":18227:18239   */\n      swap1\n      pop\n        /* \"#utility.yul\":18185:18245   */\n      swap2\n      swap1\n      pop\n      jump\t// out\n        /* \"#utility.yul\":18251:18393   */\n    tag_265:\n        /* \"#utility.yul\":18301:18310   */\n      0x00\n        /* \"#utility.yul\":18334:18387   */\n      tag_457\n        /* \"#utility.yul\":18352:18386   */\n      tag_458\n        /* \"#utility.yul\":18361:18385   */\n      tag_459\n        /* \"#utility.yul\":18379:18384   */\n      dup5\n        /* \"#utility.yul\":18361:18385   */\n      tag_215\n      jump\t// in\n    tag_459:\n        /* \"#utility.yul\":18352:18386   */\n      tag_264\n      jump\t// in\n    tag_458:\n        /* \"#utility.yul\":18334:18387   */\n      tag_215\n      jump\t// in\n    tag_457:\n        /* \"#utility.yul\":18321:18387   */\n      swap1\n      pop\n        /* \"#utility.yul\":18251:18393   */\n      swap2\n      swap1\n      pop\n      jump\t// out\n        /* \"#utility.yul\":18399:18474   */\n    tag_266:\n        /* \"#utility.yul\":18442:18445   */\n      0x00\n        /* \"#utility.yul\":18463:18468   */\n      dup2\n        /* \"#utility.yul\":18456:18468   */\n      swap1\n      pop\n        /* \"#utility.yul\":18399:18474   */\n      swap2\n      swap1\n      pop\n      jump\t// out\n        /* \"#utility.yul\":18480:18749   */\n    tag_267:\n        /* \"#utility.yul\":18590:18629   */\n      tag_462\n        /* \"#utility.yul\":18621:18628   */\n      dup4\n        /* \"#utility.yul\":18590:18629   */\n      tag_265\n      jump\t// in\n    tag_462:\n        /* \"#utility.yul\":18651:18742   */\n      tag_463\n        /* \"#utility.yul\":18700:18741   */\n      tag_464\n        /* \"#utility.yul\":18724:18740   */\n      dup3\n        /* \"#utility.yul\":18700:18741   */\n      tag_266\n      jump\t// in\n    tag_464:\n        /* \"#utility.yul\":18692:18698   */\n      dup5\n        /* \"#utility.yul\":18685:18689   */\n      dup5\n        /* \"#utility.yul\":18679:18690   */\n      sload\n        /* \"#utility.yul\":18651:18742   */\n      tag_263\n      jump\t// in\n    tag_463:\n        /* \"#utility.yul\":18645:18649   */\n      dup3\n        /* \"#utility.yul\":18638:18743   */\n      sstore\n        /* \"#utility.yul\":18556:18749   */\n      pop\n        /* \"#utility.yul\":18480:18749   */\n      pop\n      pop\n      pop\n      jump\t// out\n        /* \"#utility.yul\":18755:18828   */\n    tag_268:\n        /* \"#utility.yul\":18800:18803   */\n      0x00\n        /* \"#utility.yul\":18821:18822   */\n      0x00\n        /* \"#utility.yul\":18814:18822   */\n      swap1\n      pop\n        /* \"#utility.yul\":18755:18828   */\n      swap1\n      jump\t// out\n        /* \"#utility.yul\":18834:19023   */\n    tag_269:\n        /* \"#utility.yul\":18911:18943   */\n      tag_467\n      tag_268\n      jump\t// in\n    tag_467:\n        /* \"#utility.yul\":18952:19017   */\n      tag_468\n        /* \"#utility.yul\":19010:19016   */\n      dup2\n        /* \"#utility.yul\":19002:19008   */\n      dup5\n        /* \"#utility.yul\":18996:19000   */\n      dup5\n        /* \"#utility.yul\":18952:19017   */\n      tag_267\n      jump\t// in\n    tag_468:\n        /* \"#utility.yul\":18887:19023   */\n      pop\n        /* \"#utility.yul\":18834:19023   */\n      pop\n      pop\n      jump\t// out\n        /* \"#utility.yul\":19029:19215   */\n    tag_270:\n        /* \"#utility.yul\":19089:19209   */\n    tag_470:\n        /* \"#utility.yul\":19106:19109   */\n      dup2\n        /* \"#utility.yul\":19099:19104   */\n      dup2\n        /* \"#utility.yul\":19096:19110   */\n      lt\n        /* \"#utility.yul\":19089:19209   */\n      iszero\n      tag_472\n      jumpi\n        /* \"#utility.yul\":19160:19199   */\n      tag_473\n        /* \"#utility.yul\":19197:19198   */\n      0x00\n        /* \"#utility.yul\":19190:19195   */\n      dup3\n        /* \"#utility.yul\":19160:19199   */\n      tag_269\n      jump\t// in\n    tag_473:\n        /* \"#utility.yul\":19133:19134   */\n      0x01\n        /* \"#utility.yul\":19126:19131   */\n      dup2\n        /* \"#utility.yul\":19122:19135   */\n      add\n        /* \"#utility.yul\":19113:19135   */\n      swap1\n      pop\n        /* \"#utility.yul\":19089:19209   */\n      jump(tag_470)\n    tag_472:\n        /* \"#utility.yul\":19029:19215   */\n      pop\n      pop\n      jump\t// out\n        /* \"#utility.yul\":19221:19764   */\n    tag_271:\n        /* \"#utility.yul\":19322:19324   */\n      0x1f\n        /* \"#utility.yul\":19317:19320   */\n      dup3\n        /* \"#utility.yul\":19314:19325   */\n      gt\n        /* \"#utility.yul\":19311:19757   */\n      iszero\n      tag_475\n      jumpi\n        /* \"#utility.yul\":19356:19394   */\n      tag_476\n        /* \"#utility.yul\":19388:19393   */\n      dup2\n        /* \"#utility.yul\":19356:19394   */\n      tag_260\n      jump\t// in\n    tag_476:\n        /* \"#utility.yul\":19440:19469   */\n      tag_477\n        /* \"#utility.yul\":19458:19468   */\n      dup5\n        /* \"#utility.yul\":19440:19469   */\n      tag_261\n      jump\t// in\n    tag_477:\n        /* \"#utility.yul\":19430:19438   */\n      dup2\n        /* \"#utility.yul\":19426:19470   */\n      add\n        /* \"#utility.yul\":19623:19625   */\n      0x20\n        /* \"#utility.yul\":19611:19621   */\n      dup6\n        /* \"#utility.yul\":19608:19626   */\n      lt\n        /* \"#utility.yul\":19605:19654   */\n      iszero\n      tag_478\n      jumpi\n        /* \"#utility.yul\":19644:19652   */\n      dup2\n        /* \"#utility.yul\":19629:19652   */\n      swap1\n      pop\n        /* \"#utility.yul\":19605:19654   */\n    tag_478:\n        /* \"#utility.yul\":19667:19747   */\n      tag_479\n        /* \"#utility.yul\":19723:19745   */\n      tag_480\n        /* \"#utility.yul\":19741:19744   */\n      dup6\n        /* \"#utility.yul\":19723:19745   */\n      tag_261\n      jump\t// in\n    tag_480:\n        /* \"#utility.yul\":19713:19721   */\n      dup4\n        /* \"#utility.yul\":19709:19746   */\n      add\n        /* \"#utility.yul\":19696:19707   */\n      dup3\n        /* \"#utility.yul\":19667:19747   */\n      tag_270\n      jump\t// in\n    tag_479:\n        /* \"#utility.yul\":19326:19757   */\n      pop\n      pop\n        /* \"#utility.yul\":19311:19757   */\n    tag_475:\n        /* \"#utility.yul\":19221:19764   */\n      pop\n      pop\n      pop\n      jump\t// out\n        /* \"#utility.yul\":19770:19887   */\n    tag_272:\n        /* \"#utility.yul\":19824:19832   */\n      0x00\n        /* \"#utility.yul\":19874:19879   */\n      dup3\n        /* \"#utility.yul\":19868:19872   */\n      dup3\n        /* \"#utility.yul\":19864:19880   */\n      shr\n        /* \"#utility.yul\":19843:19880   */\n      swap1\n      pop\n        /* \"#utility.yul\":19770:19887   */\n      swap3\n      swap2\n      pop\n      pop\n      jump\t// out\n        /* \"#utility.yul\":19893:20062   */\n    tag_273:\n        /* \"#utility.yul\":19937:19943   */\n      0x00\n        /* \"#utility.yul\":19970:20021   */\n      tag_483\n        /* \"#utility.yul\":20018:20019   */\n      0x00\n        /* \"#utility.yul\":20014:20020   */\n      not\n        /* \"#utility.yul\":20006:20011   */\n      dup5\n        /* \"#utility.yul\":20003:20004   */\n      0x08\n        /* \"#utility.yul\":19999:20012   */\n      mul\n        /* \"#utility.yul\":19970:20021   */\n      tag_272\n      jump\t// in\n    tag_483:\n        /* \"#utility.yul\":19966:20022   */\n      not\n        /* \"#utility.yul\":20051:20055   */\n      dup1\n        /* \"#utility.yul\":20045:20049   */\n      dup4\n        /* \"#utility.yul\":20041:20056   */\n      and\n        /* \"#utility.yul\":20031:20056   */\n      swap2\n      pop\n        /* \"#utility.yul\":19944:20062   */\n      pop\n        /* \"#utility.yul\":19893:20062   */\n      swap3\n      swap2\n      pop\n      pop\n      jump\t// out\n        /* \"#utility.yul\":20067:20362   */\n    tag_274:\n        /* \"#utility.yul\":20143:20147   */\n      0x00\n        /* \"#utility.yul\":20289:20318   */\n      tag_485\n        /* \"#utility.yul\":20314:20317   */\n      dup4\n        /* \"#utility.yul\":20308:20312   */\n      dup4\n        /* \"#utility.yul\":20289:20318   */\n      tag_273\n      jump\t// in\n    tag_485:\n        /* \"#utility.yul\":20281:20318   */\n      swap2\n      pop\n        /* \"#utility.yul\":20351:20354   */\n      dup3\n        /* \"#utility.yul\":20348:20349   */\n      0x02\n        /* \"#utility.yul\":20344:20355   */\n      mul\n        /* \"#utility.yul\":20338:20342   */\n      dup3\n        /* \"#utility.yul\":20335:20356   */\n      or\n        /* \"#utility.yul\":20327:20356   */\n      swap1\n      pop\n        /* \"#utility.yul\":20067:20362   */\n      swap3\n      swap2\n      pop\n      pop\n      jump\t// out\n        /* \"#utility.yul\":20367:21762   */\n    tag_130:\n        /* \"#utility.yul\":20484:20521   */\n      tag_487\n        /* \"#utility.yul\":20517:20520   */\n      dup3\n        /* \"#utility.yul\":20484:20521   */\n      tag_221\n      jump\t// in\n    tag_487:\n        /* \"#utility.yul\":20586:20604   */\n      0xffffffffffffffff\n        /* \"#utility.yul\":20578:20584   */\n      dup2\n        /* \"#utility.yul\":20575:20605   */\n      gt\n        /* \"#utility.yul\":20572:20628   */\n      iszero\n      tag_488\n      jumpi\n        /* \"#utility.yul\":20608:20626   */\n      tag_489\n      tag_136\n      jump\t// in\n    tag_489:\n        /* \"#utility.yul\":20572:20628   */\n    tag_488:\n        /* \"#utility.yul\":20652:20690   */\n      tag_490\n        /* \"#utility.yul\":20684:20688   */\n      dup3\n        /* \"#utility.yul\":20678:20689   */\n      sload\n        /* \"#utility.yul\":20652:20690   */\n      tag_109\n      jump\t// in\n    tag_490:\n        /* \"#utility.yul\":20737:20804   */\n      tag_491\n        /* \"#utility.yul\":20797:20803   */\n      dup3\n        /* \"#utility.yul\":20789:20795   */\n      dup3\n        /* \"#utility.yul\":20783:20787   */\n      dup6\n        /* \"#utility.yul\":20737:20804   */\n      tag_271\n      jump\t// in\n    tag_491:\n        /* \"#utility.yul\":20831:20832   */\n      0x00\n        /* \"#utility.yul\":20855:20859   */\n      0x20\n        /* \"#utility.yul\":20842:20859   */\n      swap1\n      pop\n        /* \"#utility.yul\":20887:20889   */\n      0x1f\n        /* \"#utility.yul\":20879:20885   */\n      dup4\n        /* \"#utility.yul\":20876:20890   */\n      gt\n        /* \"#utility.yul\":20904:20905   */\n      0x01\n        /* \"#utility.yul\":20899:21517   */\n      dup2\n      eq\n      tag_493\n      jumpi\n        /* \"#utility.yul\":21561:21562   */\n      0x00\n        /* \"#utility.yul\":21578:21584   */\n      dup5\n        /* \"#utility.yul\":21575:21652   */\n      iszero\n      tag_494\n      jumpi\n        /* \"#utility.yul\":21627:21636   */\n      dup3\n        /* \"#utility.yul\":21622:21625   */\n      dup8\n        /* \"#utility.yul\":21618:21637   */\n      add\n        /* \"#utility.yul\":21612:21638   */\n      mload\n        /* \"#utility.yul\":21603:21638   */\n      swap1\n      pop\n        /* \"#utility.yul\":21575:21652   */\n    tag_494:\n        /* \"#utility.yul\":21678:21745   */\n      tag_495\n        /* \"#utility.yul\":21738:21744   */\n      dup6\n        /* \"#utility.yul\":21731:21736   */\n      dup3\n        /* \"#utility.yul\":21678:21745   */\n      tag_274\n      jump\t// in\n    tag_495:\n        /* \"#utility.yul\":21672:21676   */\n      dup7\n        /* \"#utility.yul\":21665:21746   */\n      sstore\n        /* \"#utility.yul\":21534:21756   */\n      pop\n        /* \"#utility.yul\":20869:21756   */\n      jump(tag_492)\n        /* \"#utility.yul\":20899:21517   */\n    tag_493:\n        /* \"#utility.yul\":20951:20955   */\n      0x1f\n        /* \"#utility.yul\":20947:20956   */\n      not\n        /* \"#utility.yul\":20939:20945   */\n      dup5\n        /* \"#utility.yul\":20935:20957   */\n      and\n        /* \"#utility.yul\":20985:21022   */\n      tag_496\n        /* \"#utility.yul\":21017:21021   */\n      dup7\n        /* \"#utility.yul\":20985:21022   */\n      tag_260\n      jump\t// in\n    tag_496:\n        /* \"#utility.yul\":21044:21045   */\n      0x00\n        /* \"#utility.yul\":21058:21266   */\n    tag_497:\n        /* \"#utility.yul\":21072:21079   */\n      dup3\n        /* \"#utility.yul\":21069:21070   */\n      dup2\n        /* \"#utility.yul\":21066:21080   */\n      lt\n        /* \"#utility.yul\":21058:21266   */\n      iszero\n      tag_499\n      jumpi\n        /* \"#utility.yul\":21151:21160   */\n      dup5\n        /* \"#utility.yul\":21146:21149   */\n      dup10\n        /* \"#utility.yul\":21142:21161   */\n      add\n        /* \"#utility.yul\":21136:21162   */\n      mload\n        /* \"#utility.yul\":21128:21134   */\n      dup3\n        /* \"#utility.yul\":21121:21163   */\n      sstore\n        /* \"#utility.yul\":21202:21203   */\n      0x01\n        /* \"#utility.yul\":21194:21200   */\n      dup3\n        /* \"#utility.yul\":21190:21204   */\n      add\n        /* \"#utility.yul\":21180:21204   */\n      swap2\n      pop\n        /* \"#utility.yul\":21249:21251   */\n      0x20\n        /* \"#utility.yul\":21238:21247   */\n      dup6\n        /* \"#utility.yul\":21234:21252   */\n      add\n        /* \"#utility.yul\":21221:21252   */\n      swap5\n      pop\n        /* \"#utility.yul\":21095:21099   */\n      0x20\n        /* \"#utility.yul\":21092:21093   */\n      dup2\n        /* \"#utility.yul\":21088:21100   */\n      add\n        /* \"#utility.yul\":21083:21100   */\n      swap1\n      pop\n        /* \"#utility.yul\":21058:21266   */\n      jump(tag_497)\n    tag_499:\n        /* \"#utility.yul\":21294:21300   */\n      dup7\n        /* \"#utility.yul\":21285:21292   */\n      dup4\n        /* \"#utility.yul\":21282:21301   */\n      lt\n        /* \"#utility.yul\":21279:21458   */\n      iszero\n      tag_500\n      jumpi\n        /* \"#utility.yul\":21352:21361   */\n      dup5\n        /* \"#utility.yul\":21347:21350   */\n      dup10\n        /* \"#utility.yul\":21343:21362   */\n      add\n        /* \"#utility.yul\":21337:21363   */\n      mload\n        /* \"#utility.yul\":21395:21443   */\n      tag_501\n        /* \"#utility.yul\":21437:21441   */\n      0x1f\n        /* \"#utility.yul\":21429:21435   */\n      dup10\n        /* \"#utility.yul\":21425:21442   */\n      and\n        /* \"#utility.yul\":21414:21423   */\n      dup3\n        /* \"#utility.yul\":21395:21443   */\n      tag_273\n      jump\t// in\n    tag_501:\n        /* \"#utility.yul\":21387:21393   */\n      dup4\n        /* \"#utility.yul\":21380:21444   */\n      sstore\n        /* \"#utility.yul\":21302:21458   */\n      pop\n        /* \"#utility.yul\":21279:21458   */\n    tag_500:\n        /* \"#utility.yul\":21504:21505   */\n      0x01\n        /* \"#utility.yul\":21500:21501   */\n      0x02\n        /* \"#utility.yul\":21492:21498   */\n      dup9\n        /* \"#utility.yul\":21488:21502   */\n      mul\n        /* \"#utility.yul\":21484:21506   */\n      add\n        /* \"#utility.yul\":21478:21482   */\n      dup9\n        /* \"#utility.yul\":21471:21507   */\n      sstore\n        /* \"#utility.yul\":20906:21517   */\n      pop\n      pop\n      pop\n        /* \"#utility.yul\":20869:21756   */\n    tag_492:\n      pop\n        /* \"#utility.yul\":20459:21762   */\n      pop\n      pop\n      pop\n        /* \"#utility.yul\":20367:21762   */\n      pop\n      pop\n      jump\t// out\n        /* \"#utility.yul\":21768:22191   */\n    tag_132:\n        /* \"#utility.yul\":21909:21913   */\n      0x00\n        /* \"#utility.yul\":21947:21949   */\n      0x40\n        /* \"#utility.yul\":21936:21945   */\n      dup3\n        /* \"#utility.yul\":21932:21950   */\n      add\n        /* \"#utility.yul\":21924:21950   */\n      swap1\n      pop\n        /* \"#utility.yul\":21960:22031   */\n      tag_503\n        /* \"#utility.yul\":22028:22029   */\n      0x00\n        /* \"#utility.yul\":22017:22026   */\n      dup4\n        /* \"#utility.yul\":22013:22030   */\n      add\n        /* \"#utility.yul\":22004:22010   */\n      dup6\n        /* \"#utility.yul\":21960:22031   */\n      tag_218\n      jump\t// in\n    tag_503:\n        /* \"#utility.yul\":22078:22087   */\n      dup2\n        /* \"#utility.yul\":22072:22076   */\n      dup2\n        /* \"#utility.yul\":22068:22088   */\n      sub\n        /* \"#utility.yul\":22063:22065   */\n      0x20\n        /* \"#utility.yul\":22052:22061   */\n      dup4\n        /* \"#utility.yul\":22048:22066   */\n      add\n        /* \"#utility.yul\":22041:22089   */\n      mstore\n        /* \"#utility.yul\":22106:22184   */\n      tag_504\n        /* \"#utility.yul\":22179:22183   */\n      dup2\n        /* \"#utility.yul\":22170:22176   */\n      dup5\n        /* \"#utility.yul\":22106:22184   */\n      tag_225\n      jump\t// in\n    tag_504:\n        /* \"#utility.yul\":22098:22184   */\n      swap1\n      pop\n        /* \"#utility.yul\":21768:22191   */\n      swap4\n      swap3\n      pop\n      pop\n      pop\n      jump\t// out\n        /* \"#utility.yul\":22197:22391   */\n    tag_142:\n        /* \"#utility.yul\":22237:22241   */\n      0x00\n        /* \"#utility.yul\":22257:22277   */\n      tag_506\n        /* \"#utility.yul\":22275:22276   */\n      dup3\n        /* \"#utility.yul\":22257:22277   */\n      tag_215\n      jump\t// in\n    tag_506:\n        /* \"#utility.yul\":22252:22277   */\n      swap2\n      pop\n        /* \"#utility.yul\":22291:22311   */\n      tag_507\n        /* \"#utility.yul\":22309:22310   */\n      dup4\n        /* \"#utility.yul\":22291:22311   */\n      tag_215\n      jump\t// in\n    tag_507:\n        /* \"#utility.yul\":22286:22311   */\n      swap3\n      pop\n        /* \"#utility.yul\":22335:22336   */\n      dup3\n        /* \"#utility.yul\":22332:22333   */\n      dup3\n        /* \"#utility.yul\":22328:22337   */\n      sub\n        /* \"#utility.yul\":22320:22337   */\n      swap1\n      pop\n        /* \"#utility.yul\":22359:22360   */\n      dup2\n        /* \"#utility.yul\":22353:22357   */\n      dup2\n        /* \"#utility.yul\":22350:22361   */\n      gt\n        /* \"#utility.yul\":22347:22384   */\n      iszero\n      tag_508\n      jumpi\n        /* \"#utility.yul\":22364:22382   */\n      tag_509\n      tag_256\n      jump\t// in\n    tag_509:\n        /* \"#utility.yul\":22347:22384   */\n    tag_508:\n        /* \"#utility.yul\":22197:22391   */\n      swap3\n      swap2\n      pop\n      pop\n      jump\t// out\n        /* \"#utility.yul\":22397:22577   */\n    tag_145:\n        /* \"#utility.yul\":22445:22522   */\n      0x4e487b7100000000000000000000000000000000000000000000000000000000\n        /* \"#utility.yul\":22442:22443   */\n      0x00\n        /* \"#utility.yul\":22435:22523   */\n      mstore\n        /* \"#utility.yul\":22542:22546   */\n      0x32\n        /* \"#utility.yul\":22539:22540   */\n      0x04\n        /* \"#utility.yul\":22532:22547   */\n      mstore\n        /* \"#utility.yul\":22566:22570   */\n      0x24\n        /* \"#utility.yul\":22563:22564   */\n      0x00\n        /* \"#utility.yul\":22556:22571   */\n      revert\n        /* \"#utility.yul\":22583:22757   */\n    tag_275:\n        /* \"#utility.yul\":22723:22749   */\n      0x506572736f6e2068617320616c726561647920766f7465640000000000000000\n        /* \"#utility.yul\":22719:22720   */\n      0x00\n        /* \"#utility.yul\":22711:22717   */\n      dup3\n        /* \"#utility.yul\":22707:22721   */\n      add\n        /* \"#utility.yul\":22700:22750   */\n      mstore\n        /* \"#utility.yul\":22583:22757   */\n      pop\n      jump\t// out\n        /* \"#utility.yul\":22763:23129   */\n    tag_276:\n        /* \"#utility.yul\":22905:22908   */\n      0x00\n        /* \"#utility.yul\":22926:22993   */\n      tag_513\n        /* \"#utility.yul\":22990:22992   */\n      0x18\n        /* \"#utility.yul\":22985:22988   */\n      dup4\n        /* \"#utility.yul\":22926:22993   */\n      tag_222\n      jump\t// in\n    tag_513:\n        /* \"#utility.yul\":22919:22993   */\n      swap2\n      pop\n        /* \"#utility.yul\":23002:23095   */\n      tag_514\n        /* \"#utility.yul\":23091:23094   */\n      dup3\n        /* \"#utility.yul\":23002:23095   */\n      tag_275\n      jump\t// in\n    tag_514:\n        /* \"#utility.yul\":23120:23122   */\n      0x20\n        /* \"#utility.yul\":23115:23118   */\n      dup3\n        /* \"#utility.yul\":23111:23123   */\n      add\n        /* \"#utility.yul\":23104:23123   */\n      swap1\n      pop\n        /* \"#utility.yul\":22763:23129   */\n      swap2\n      swap1\n      pop\n      jump\t// out\n        /* \"#utility.yul\":23135:23554   */\n    tag_158:\n        /* \"#utility.yul\":23301:23305   */\n      0x00\n        /* \"#utility.yul\":23339:23341   */\n      0x20\n        /* \"#utility.yul\":23328:23337   */\n      dup3\n        /* \"#utility.yul\":23324:23342   */\n      add\n        /* \"#utility.yul\":23316:23342   */\n      swap1\n      pop\n        /* \"#utility.yul\":23388:23397   */\n      dup2\n        /* \"#utility.yul\":23382:23386   */\n      dup2\n        /* \"#utility.yul\":23378:23398   */\n      sub\n        /* \"#utility.yul\":23374:23375   */\n      0x00\n        /* \"#utility.yul\":23363:23372   */\n      dup4\n        /* \"#utility.yul\":23359:23376   */\n      add\n        /* \"#utility.yul\":23352:23399   */\n      mstore\n        /* \"#utility.yul\":23416:23547   */\n      tag_516\n        /* \"#utility.yul\":23542:23546   */\n      dup2\n        /* \"#utility.yul\":23416:23547   */\n      tag_276\n      jump\t// in\n    tag_516:\n        /* \"#utility.yul\":23408:23547   */\n      swap1\n      pop\n        /* \"#utility.yul\":23135:23554   */\n      swap2\n      swap1\n      pop\n      jump\t// out\n        /* \"#utility.yul\":23560:23741   */\n    tag_277:\n        /* \"#utility.yul\":23700:23733   */\n      0x566f74696e6720706572696f6420686173206e6f7420656e6465642079657400\n        /* \"#utility.yul\":23696:23697   */\n      0x00\n        /* \"#utility.yul\":23688:23694   */\n      dup3\n        /* \"#utility.yul\":23684:23698   */\n      add\n        /* \"#utility.yul\":23677:23734   */\n      mstore\n        /* \"#utility.yul\":23560:23741   */\n      pop\n      jump\t// out\n        /* \"#utility.yul\":23747:24113   */\n    tag_278:\n        /* \"#utility.yul\":23889:23892   */\n      0x00\n        /* \"#utility.yul\":23910:23977   */\n      tag_519\n        /* \"#utility.yul\":23974:23976   */\n      0x1f\n        /* \"#utility.yul\":23969:23972   */\n      dup4\n        /* \"#utility.yul\":23910:23977   */\n      tag_222\n      jump\t// in\n    tag_519:\n        /* \"#utility.yul\":23903:23977   */\n      swap2\n      pop\n        /* \"#utility.yul\":23986:24079   */\n      tag_520\n        /* \"#utility.yul\":24075:24078   */\n      dup3\n        /* \"#utility.yul\":23986:24079   */\n      tag_277\n      jump\t// in\n    tag_520:\n        /* \"#utility.yul\":24104:24106   */\n      0x20\n        /* \"#utility.yul\":24099:24102   */\n      dup3\n        /* \"#utility.yul\":24095:24107   */\n      add\n        /* \"#utility.yul\":24088:24107   */\n      swap1\n      pop\n        /* \"#utility.yul\":23747:24113   */\n      swap2\n      swap1\n      pop\n      jump\t// out\n        /* \"#utility.yul\":24119:24538   */\n    tag_166:\n        /* \"#utility.yul\":24285:24289   */\n      0x00\n        /* \"#utility.yul\":24323:24325   */\n      0x20\n        /* \"#utility.yul\":24312:24321   */\n      dup3\n        /* \"#utility.yul\":24308:24326   */\n      add\n        /* \"#utility.yul\":24300:24326   */\n      swap1\n      pop\n        /* \"#utility.yul\":24372:24381   */\n      dup2\n        /* \"#utility.yul\":24366:24370   */\n      dup2\n        /* \"#utility.yul\":24362:24382   */\n      sub\n        /* \"#utility.yul\":24358:24359   */\n      0x00\n        /* \"#utility.yul\":24347:24356   */\n      dup4\n        /* \"#utility.yul\":24343:24360   */\n      add\n        /* \"#utility.yul\":24336:24383   */\n      mstore\n        /* \"#utility.yul\":24400:24531   */\n      tag_522\n        /* \"#utility.yul\":24526:24530   */\n      dup2\n        /* \"#utility.yul\":24400:24531   */\n      tag_278\n      jump\t// in\n    tag_522:\n        /* \"#utility.yul\":24392:24531   */\n      swap1\n      pop\n        /* \"#utility.yul\":24119:24538   */\n      swap2\n      swap1\n      pop\n      jump\t// out\n        /* \"#utility.yul\":24544:24692   */\n    tag_279:\n        /* \"#utility.yul\":24646:24657   */\n      0x00\n        /* \"#utility.yul\":24683:24686   */\n      dup2\n        /* \"#utility.yul\":24668:24686   */\n      swap1\n      pop\n        /* \"#utility.yul\":24544:24692   */\n      swap3\n      swap2\n      pop\n      pop\n      jump\t// out\n        /* \"#utility.yul\":24698:24856   */\n    tag_280:\n        /* \"#utility.yul\":24838:24848   */\n      0x57696e6e65723a20000000000000000000000000000000000000000000000000\n        /* \"#utility.yul\":24834:24835   */\n      0x00\n        /* \"#utility.yul\":24826:24832   */\n      dup3\n        /* \"#utility.yul\":24822:24836   */\n      add\n        /* \"#utility.yul\":24815:24849   */\n      mstore\n        /* \"#utility.yul\":24698:24856   */\n      pop\n      jump\t// out\n        /* \"#utility.yul\":24862:25262   */\n    tag_281:\n        /* \"#utility.yul\":25022:25025   */\n      0x00\n        /* \"#utility.yul\":25043:25127   */\n      tag_526\n        /* \"#utility.yul\":25125:25126   */\n      0x08\n        /* \"#utility.yul\":25120:25123   */\n      dup4\n        /* \"#utility.yul\":25043:25127   */\n      tag_279\n      jump\t// in\n    tag_526:\n        /* \"#utility.yul\":25036:25127   */\n      swap2\n      pop\n        /* \"#utility.yul\":25136:25229   */\n      tag_527\n        /* \"#utility.yul\":25225:25228   */\n      dup3\n        /* \"#utility.yul\":25136:25229   */\n      tag_280\n      jump\t// in\n    tag_527:\n        /* \"#utility.yul\":25254:25255   */\n      0x08\n        /* \"#utility.yul\":25249:25252   */\n      dup3\n        /* \"#utility.yul\":25245:25256   */\n      add\n        /* \"#utility.yul\":25238:25256   */\n      swap1\n      pop\n        /* \"#utility.yul\":24862:25262   */\n      swap2\n      swap1\n      pop\n      jump\t// out\n        /* \"#utility.yul\":25268:25658   */\n    tag_282:\n        /* \"#utility.yul\":25374:25377   */\n      0x00\n        /* \"#utility.yul\":25402:25441   */\n      tag_529\n        /* \"#utility.yul\":25435:25440   */\n      dup3\n        /* \"#utility.yul\":25402:25441   */\n      tag_221\n      jump\t// in\n    tag_529:\n        /* \"#utility.yul\":25457:25546   */\n      tag_530\n        /* \"#utility.yul\":25539:25545   */\n      dup2\n        /* \"#utility.yul\":25534:25537   */\n      dup6\n        /* \"#utility.yul\":25457:25546   */\n      tag_279\n      jump\t// in\n    tag_530:\n        /* \"#utility.yul\":25450:25546   */\n      swap4\n      pop\n        /* \"#utility.yul\":25555:25620   */\n      tag_531\n        /* \"#utility.yul\":25613:25619   */\n      dup2\n        /* \"#utility.yul\":25608:25611   */\n      dup6\n        /* \"#utility.yul\":25601:25605   */\n      0x20\n        /* \"#utility.yul\":25594:25599   */\n      dup7\n        /* \"#utility.yul\":25590:25606   */\n      add\n        /* \"#utility.yul\":25555:25620   */\n      tag_223\n      jump\t// in\n    tag_531:\n        /* \"#utility.yul\":25645:25651   */\n      dup1\n        /* \"#utility.yul\":25640:25643   */\n      dup5\n        /* \"#utility.yul\":25636:25652   */\n      add\n        /* \"#utility.yul\":25629:25652   */\n      swap2\n      pop\n        /* \"#utility.yul\":25378:25658   */\n      pop\n        /* \"#utility.yul\":25268:25658   */\n      swap3\n      swap2\n      pop\n      pop\n      jump\t// out\n        /* \"#utility.yul\":25664:25823   */\n    tag_283:\n        /* \"#utility.yul\":25804:25815   */\n      0x2c20766f7465733a200000000000000000000000000000000000000000000000\n        /* \"#utility.yul\":25800:25801   */\n      0x00\n        /* \"#utility.yul\":25792:25798   */\n      dup3\n        /* \"#utility.yul\":25788:25802   */\n      add\n        /* \"#utility.yul\":25781:25816   */\n      mstore\n        /* \"#utility.yul\":25664:25823   */\n      pop\n      jump\t// out\n        /* \"#utility.yul\":25829:26229   */\n    tag_284:\n        /* \"#utility.yul\":25989:25992   */\n      0x00\n        /* \"#utility.yul\":26010:26094   */\n      tag_534\n        /* \"#utility.yul\":26092:26093   */\n      0x09\n        /* \"#utility.yul\":26087:26090   */\n      dup4\n        /* \"#utility.yul\":26010:26094   */\n      tag_279\n      jump\t// in\n    tag_534:\n        /* \"#utility.yul\":26003:26094   */\n      swap2\n      pop\n        /* \"#utility.yul\":26103:26196   */\n      tag_535\n        /* \"#utility.yul\":26192:26195   */\n      dup3\n        /* \"#utility.yul\":26103:26196   */\n      tag_283\n      jump\t// in\n    tag_535:\n        /* \"#utility.yul\":26221:26222   */\n      0x09\n        /* \"#utility.yul\":26216:26219   */\n      dup3\n        /* \"#utility.yul\":26212:26223   */\n      add\n        /* \"#utility.yul\":26205:26223   */\n      swap1\n      pop\n        /* \"#utility.yul\":25829:26229   */\n      swap2\n      swap1\n      pop\n      jump\t// out\n        /* \"#utility.yul\":26235:27202   */\n    tag_181:\n        /* \"#utility.yul\":26617:26620   */\n      0x00\n        /* \"#utility.yul\":26639:26787   */\n      tag_537\n        /* \"#utility.yul\":26783:26786   */\n      dup3\n        /* \"#utility.yul\":26639:26787   */\n      tag_281\n      jump\t// in\n    tag_537:\n        /* \"#utility.yul\":26632:26787   */\n      swap2\n      pop\n        /* \"#utility.yul\":26804:26899   */\n      tag_538\n        /* \"#utility.yul\":26895:26898   */\n      dup3\n        /* \"#utility.yul\":26886:26892   */\n      dup6\n        /* \"#utility.yul\":26804:26899   */\n      tag_282\n      jump\t// in\n    tag_538:\n        /* \"#utility.yul\":26797:26899   */\n      swap2\n      pop\n        /* \"#utility.yul\":26916:27064   */\n      tag_539\n        /* \"#utility.yul\":27060:27063   */\n      dup3\n        /* \"#utility.yul\":26916:27064   */\n      tag_284\n      jump\t// in\n    tag_539:\n        /* \"#utility.yul\":26909:27064   */\n      swap2\n      pop\n        /* \"#utility.yul\":27081:27176   */\n      tag_540\n        /* \"#utility.yul\":27172:27175   */\n      dup3\n        /* \"#utility.yul\":27163:27169   */\n      dup5\n        /* \"#utility.yul\":27081:27176   */\n      tag_282\n      jump\t// in\n    tag_540:\n        /* \"#utility.yul\":27074:27176   */\n      swap2\n      pop\n        /* \"#utility.yul\":27193:27196   */\n      dup2\n        /* \"#utility.yul\":27186:27196   */\n      swap1\n      pop\n        /* \"#utility.yul\":26235:27202   */\n      swap4\n      swap3\n      pop\n      pop\n      pop\n      jump\t// out\n        /* \"#utility.yul\":27208:27389   */\n    tag_285:\n        /* \"#utility.yul\":27348:27381   */\n      0x43616e6e6f7420756e617574686f72697a6520616674657220766f74696e6700\n        /* \"#utility.yul\":27344:27345   */\n      0x00\n        /* \"#utility.yul\":27336:27342   */\n      dup3\n        /* \"#utility.yul\":27332:27346   */\n      add\n        /* \"#utility.yul\":27325:27382   */\n      mstore\n        /* \"#utility.yul\":27208:27389   */\n      pop\n      jump\t// out\n        /* \"#utility.yul\":27395:27761   */\n    tag_286:\n        /* \"#utility.yul\":27537:27540   */\n      0x00\n        /* \"#utility.yul\":27558:27625   */\n      tag_543\n        /* \"#utility.yul\":27622:27624   */\n      0x1f\n        /* \"#utility.yul\":27617:27620   */\n      dup4\n        /* \"#utility.yul\":27558:27625   */\n      tag_222\n      jump\t// in\n    tag_543:\n        /* \"#utility.yul\":27551:27625   */\n      swap2\n      pop\n        /* \"#utility.yul\":27634:27727   */\n      tag_544\n        /* \"#utility.yul\":27723:27726   */\n      dup3\n        /* \"#utility.yul\":27634:27727   */\n      tag_285\n      jump\t// in\n    tag_544:\n        /* \"#utility.yul\":27752:27754   */\n      0x20\n        /* \"#utility.yul\":27747:27750   */\n      dup3\n        /* \"#utility.yul\":27743:27755   */\n      add\n        /* \"#utility.yul\":27736:27755   */\n      swap1\n      pop\n        /* \"#utility.yul\":27395:27761   */\n      swap2\n      swap1\n      pop\n      jump\t// out\n        /* \"#utility.yul\":27767:28186   */\n    tag_188:\n        /* \"#utility.yul\":27933:27937   */\n      0x00\n        /* \"#utility.yul\":27971:27973   */\n      0x20\n        /* \"#utility.yul\":27960:27969   */\n      dup3\n        /* \"#utility.yul\":27956:27974   */\n      add\n        /* \"#utility.yul\":27948:27974   */\n      swap1\n      pop\n        /* \"#utility.yul\":28020:28029   */\n      dup2\n        /* \"#utility.yul\":28014:28018   */\n      dup2\n        /* \"#utility.yul\":28010:28030   */\n      sub\n        /* \"#utility.yul\":28006:28007   */\n      0x00\n        /* \"#utility.yul\":27995:28004   */\n      dup4\n        /* \"#utility.yul\":27991:28008   */\n      add\n        /* \"#utility.yul\":27984:28031   */\n      mstore\n        /* \"#utility.yul\":28048:28179   */\n      tag_546\n        /* \"#utility.yul\":28174:28178   */\n      dup2\n        /* \"#utility.yul\":28048:28179   */\n      tag_286\n      jump\t// in\n    tag_546:\n        /* \"#utility.yul\":28040:28179   */\n      swap1\n      pop\n        /* \"#utility.yul\":27767:28186   */\n      swap2\n      swap1\n      pop\n      jump\t// out\n        /* \"#utility.yul\":28192:28372   */\n    tag_287:\n        /* \"#utility.yul\":28240:28317   */\n      0x4e487b7100000000000000000000000000000000000000000000000000000000\n        /* \"#utility.yul\":28237:28238   */\n      0x00\n        /* \"#utility.yul\":28230:28318   */\n      mstore\n        /* \"#utility.yul\":28337:28341   */\n      0x12\n        /* \"#utility.yul\":28334:28335   */\n      0x04\n        /* \"#utility.yul\":28327:28342   */\n      mstore\n        /* \"#utility.yul\":28361:28365   */\n      0x24\n        /* \"#utility.yul\":28358:28359   */\n      0x00\n        /* \"#utility.yul\":28351:28366   */\n      revert\n        /* \"#utility.yul\":28378:28563   */\n    tag_196:\n        /* \"#utility.yul\":28418:28419   */\n      0x00\n        /* \"#utility.yul\":28435:28455   */\n      tag_549\n        /* \"#utility.yul\":28453:28454   */\n      dup3\n        /* \"#utility.yul\":28435:28455   */\n      tag_215\n      jump\t// in\n    tag_549:\n        /* \"#utility.yul\":28430:28455   */\n      swap2\n      pop\n        /* \"#utility.yul\":28469:28489   */\n      tag_550\n        /* \"#utility.yul\":28487:28488   */\n      dup4\n        /* \"#utility.yul\":28469:28489   */\n      tag_215\n      jump\t// in\n    tag_550:\n        /* \"#utility.yul\":28464:28489   */\n      swap3\n      pop\n        /* \"#utility.yul\":28508:28509   */\n      dup3\n        /* \"#utility.yul\":28498:28533   */\n      tag_551\n      jumpi\n        /* \"#utility.yul\":28513:28531   */\n      tag_552\n      tag_287\n      jump\t// in\n    tag_552:\n        /* \"#utility.yul\":28498:28533   */\n    tag_551:\n        /* \"#utility.yul\":28555:28556   */\n      dup3\n        /* \"#utility.yul\":28552:28553   */\n      dup3\n        /* \"#utility.yul\":28548:28557   */\n      div\n        /* \"#utility.yul\":28543:28557   */\n      swap1\n      pop\n        /* \"#utility.yul\":28378:28563   */\n      swap3\n      swap2\n      pop\n      pop\n      jump\t// out\n        /* \"#utility.yul\":28569:28979   */\n    tag_205:\n        /* \"#utility.yul\":28609:28616   */\n      0x00\n        /* \"#utility.yul\":28632:28652   */\n      tag_554\n        /* \"#utility.yul\":28650:28651   */\n      dup3\n        /* \"#utility.yul\":28632:28652   */\n      tag_215\n      jump\t// in\n    tag_554:\n        /* \"#utility.yul\":28627:28652   */\n      swap2\n      pop\n        /* \"#utility.yul\":28666:28686   */\n      tag_555\n        /* \"#utility.yul\":28684:28685   */\n      dup4\n        /* \"#utility.yul\":28666:28686   */\n      tag_215\n      jump\t// in\n    tag_555:\n        /* \"#utility.yul\":28661:28686   */\n      swap3\n      pop\n        /* \"#utility.yul\":28721:28722   */\n      dup3\n        /* \"#utility.yul\":28718:28719   */\n      dup3\n        /* \"#utility.yul\":28714:28723   */\n      mul\n        /* \"#utility.yul\":28743:28773   */\n      tag_556\n        /* \"#utility.yul\":28761:28772   */\n      dup2\n        /* \"#utility.yul\":28743:28773   */\n      tag_215\n      jump\t// in\n    tag_556:\n        /* \"#utility.yul\":28732:28773   */\n      swap2\n      pop\n        /* \"#utility.yul\":28922:28923   */\n      dup3\n        /* \"#utility.yul\":28913:28920   */\n      dup3\n        /* \"#utility.yul\":28909:28924   */\n      div\n        /* \"#utility.yul\":28906:28907   */\n      dup5\n        /* \"#utility.yul\":28903:28925   */\n      eq\n        /* \"#utility.yul\":28883:28884   */\n      dup4\n        /* \"#utility.yul\":28876:28885   */\n      iszero\n        /* \"#utility.yul\":28856:28939   */\n      or\n        /* \"#utility.yul\":28833:28972   */\n      tag_557\n      jumpi\n        /* \"#utility.yul\":28952:28970   */\n      tag_558\n      tag_256\n      jump\t// in\n    tag_558:\n        /* \"#utility.yul\":28833:28972   */\n    tag_557:\n        /* \"#utility.yul\":28617:28979   */\n      pop\n        /* \"#utility.yul\":28569:28979   */\n      swap3\n      swap2\n      pop\n      pop\n      jump\t// out\n        /* \"#utility.yul\":28985:29071   */\n    tag_288:\n        /* \"#utility.yul\":29020:29027   */\n      0x00\n        /* \"#utility.yul\":29060:29064   */\n      0xff\n        /* \"#utility.yul\":29053:29058   */\n      dup3\n        /* \"#utility.yul\":29049:29065   */\n      and\n        /* \"#utility.yul\":29038:29065   */\n      swap1\n      pop\n        /* \"#utility.yul\":28985:29071   */\n      swap2\n      swap1\n      pop\n      jump\t// out\n        /* \"#utility.yul\":29077:29265   */\n    tag_208:\n        /* \"#utility.yul\":29115:29118   */\n      0x00\n        /* \"#utility.yul\":29134:29152   */\n      tag_561\n        /* \"#utility.yul\":29150:29151   */\n      dup3\n        /* \"#utility.yul\":29134:29152   */\n      tag_288\n      jump\t// in\n    tag_561:\n        /* \"#utility.yul\":29129:29152   */\n      swap2\n      pop\n        /* \"#utility.yul\":29166:29184   */\n      tag_562\n        /* \"#utility.yul\":29182:29183   */\n      dup4\n        /* \"#utility.yul\":29166:29184   */\n      tag_288\n      jump\t// in\n    tag_562:\n        /* \"#utility.yul\":29161:29184   */\n      swap3\n      pop\n        /* \"#utility.yul\":29207:29208   */\n      dup3\n        /* \"#utility.yul\":29204:29205   */\n      dup3\n        /* \"#utility.yul\":29200:29209   */\n      add\n        /* \"#utility.yul\":29193:29209   */\n      swap1\n      pop\n        /* \"#utility.yul\":29230:29234   */\n      0xff\n        /* \"#utility.yul\":29225:29228   */\n      dup2\n        /* \"#utility.yul\":29222:29235   */\n      gt\n        /* \"#utility.yul\":29219:29258   */\n      iszero\n      tag_563\n      jumpi\n        /* \"#utility.yul\":29238:29256   */\n      tag_564\n      tag_256\n      jump\t// in\n    tag_564:\n        /* \"#utility.yul\":29219:29258   */\n    tag_563:\n        /* \"#utility.yul\":29077:29265   */\n      swap3\n      swap2\n      pop\n      pop\n      jump\t// out\n\n    auxdata: 0xa2646970667358221220b76152d41bd2890550b2a9c27b720663f84c92bca7e0d90e6d921291857a653664736f6c634300081e0033\n}\n",
				"bytecode": {
					"linkReferences": {},
					"object": "608060405234801561000f575f5ffd5b506040516126b53803806126b583398181016040528101906100319190610220565b335f5f6101000a81548173ffffffffffffffffffffffffffffffffffffffff021916908373ffffffffffffffffffffffffffffffffffffffff160217905550816001908161007f9190610481565b50426002819055508042610093919061057d565b60038190555050506105b0565b5f604051905090565b5f5ffd5b5f5ffd5b5f5ffd5b5f5ffd5b5f601f19601f8301169050919050565b7f4e487b71000000000000000000000000000000000000000000000000000000005f52604160045260245ffd5b6100ff826100b9565b810181811067ffffffffffffffff8211171561011e5761011d6100c9565b5b80604052505050565b5f6101306100a0565b905061013c82826100f6565b919050565b5f67ffffffffffffffff82111561015b5761015a6100c9565b5b610164826100b9565b9050602081019050919050565b8281835e5f83830152505050565b5f61019161018c84610141565b610127565b9050828152602081018484840111156101ad576101ac6100b5565b5b6101b8848285610171565b509392505050565b5f82601f8301126101d4576101d36100b1565b5b81516101e484826020860161017f565b91505092915050565b5f819050919050565b6101ff816101ed565b8114610209575f5ffd5b50565b5f8151905061021a816101f6565b92915050565b5f5f60408385031215610236576102356100a9565b5b5f83015167ffffffffffffffff811115610253576102526100ad565b5b61025f858286016101c0565b92505060206102708582860161020c565b9150509250929050565b5f81519050919050565b7f4e487b71000000000000000000000000000000000000000000000000000000005f52602260045260245ffd5b5f60028204905060018216806102c857607f821691505b6020821081036102db576102da610284565b5b50919050565b5f819050815f5260205f209050919050565b5f6020601f8301049050919050565b5f82821b905092915050565b5f6008830261033d7fffffffffffffffffffffffffffffffffffffffffffffffffffffffffffffffff82610302565b6103478683610302565b95508019841693508086168417925050509392505050565b5f819050919050565b5f61038261037d610378846101ed565b61035f565b6101ed565b9050919050565b5f819050919050565b61039b83610368565b6103af6103a782610389565b84845461030e565b825550505050565b5f5f905090565b6103c66103b7565b6103d1818484610392565b505050565b5b818110156103f4576103e95f826103be565b6001810190506103d7565b5050565b601f8211156104395761040a816102e1565b610413846102f3565b81016020851015610422578190505b61043661042e856102f3565b8301826103d6565b50505b505050565b5f82821c905092915050565b5f6104595f198460080261043e565b1980831691505092915050565b5f610471838361044a565b9150826002028217905092915050565b61048a8261027a565b67ffffffffffffffff8111156104a3576104a26100c9565b5b6104ad82546102b1565b6104b88282856103f8565b5f60209050601f8311600181146104e9575f84156104d7578287015190505b6104e18582610466565b865550610548565b601f1984166104f7866102e1565b5f5b8281101561051e578489015182556001820191506020850194506020810190506104f9565b8683101561053b5784890151610537601f89168261044a565b8355505b6001600288020188555050505b505050505050565b7f4e487b71000000000000000000000000000000000000000000000000000000005f52601160045260245ffd5b5f610587826101ed565b9150610592836101ed565b92508282019050808211156105aa576105a9610550565b5b92915050565b6120f8806105bd5f395ff3fe608060405234801561000f575f5ffd5b50600436106100fe575f3560e01c806378e9792511610095578063a9a981a311610064578063a9a981a3146102a1578063b6a5d7de146102bf578063efbe1c1c146102db578063f0b37c04146102f9576100fe565b806378e979251461021557806385e8e7a7146102335780638da5cb5b14610251578063a3ec138d1461026f576100fe565b80633477ee2e116100d15780633477ee2e1461017857806335b8e820146101aa578063462e91ec146101db5780634717f97c146101f7576100fe565b80630121b93f146101025780630d15fd771461011e578063122902a61461013c5780633197cbb61461015a575b5f5ffd5b61011c6004803603810190610117919061126e565b610315565b005b610126610620565b60405161013391906112a8565b60405180910390f35b610144610626565b60405161015191906112db565b60405180910390f35b610162610632565b60405161016f91906112a8565b60405180910390f35b610192600480360381019061018d919061126e565b610638565b6040516101a193929190611364565b60405180910390f35b6101c460048036038101906101bf919061126e565b6106e4565b6040516101d29291906113a0565b60405180910390f35b6101f560048036038101906101f091906114fa565b61080d565b005b6101ff61094b565b60405161020c91906115f8565b60405180910390f35b61021d610a05565b60405161022a91906112a8565b60405180910390f35b61023b610a0b565b6040516102489190611618565b60405180910390f35b610259610a97565b6040516102669190611677565b60405180910390f35b610289600480360381019061028491906116ba565b610abb565b604051610298939291906116e5565b60405180910390f35b6102a9610af9565b6040516102b691906112a8565b60405180910390f35b6102d960048036038101906102d491906116ba565b610aff565b005b6102e3610cab565b6040516102f09190611618565b60405180910390f35b610313600480360381019061030e91906116ba565b610f01565b005b60025442101561035a576040517f08c379a000000000000000000000000000000000000000000000000000000000815260040161035190611764565b60405180910390fd5b60035442111561039f576040517f08c379a0000000000000000000000000000000000000000000000000000000008152600401610396906117cc565b60405180910390fd5b60065f3373ffffffffffffffffffffffffffffffffffffffff1673ffffffffffffffffffffffffffffffffffffffff1681526020019081526020015f205f015f9054906101000a900460ff1661042a576040517f08c379a000000000000000000000000000000000000000000000000000000000815260040161042190611834565b60405180910390fd5b60065f3373ffffffffffffffffffffffffffffffffffffffff1673ffffffffffffffffffffffffffffffffffffffff1681526020019081526020015f205f0160019054906101000a900460ff16156104b7576040517f08c379a00000000000000000000000000000000000000000000000000000000081526004016104ae9061189c565b60405180910390fd5b5f811180156104c857506004548111155b610507576040517f08c379a00000000000000000000000000000000000000000000000000000000081526004016104fe90611904565b60405180910390fd5b600160065f3373ffffffffffffffffffffffffffffffffffffffff1673ffffffffffffffffffffffffffffffffffffffff1681526020019081526020015f205f0160016101000a81548160ff0219169083151502179055508060065f3373ffffffffffffffffffffffffffffffffffffffff1673ffffffffffffffffffffffffffffffffffffffff1681526020019081526020015f206001018190555060075f8281526020019081526020015f206002015f8154809291906105c89061194f565b919050555060055f8154809291906105df9061194f565b91905055507fa36cc2bebb74db33e9f88110a07ef56e1b31b24b4c4f51b54b1664266e29f45b3382604051610615929190611996565b60405180910390a150565b60055481565b5f600354421115905090565b60035481565b6007602052805f5260405f205f91509050805f01549080600101805461065d906119ea565b80601f0160208091040260200160405190810160405280929190818152602001828054610689906119ea565b80156106d45780601f106106ab576101008083540402835291602001916106d4565b820191905f5260205f20905b8154815290600101906020018083116106b757829003601f168201915b5050505050908060020154905083565b60605f5f831180156106f857506004548311155b610737576040517f08c379a000000000000000000000000000000000000000000000000000000000815260040161072e90611904565b60405180910390fd5b5f60075f8581526020019081526020015f206040518060600160405290815f820154815260200160018201805461076d906119ea565b80601f0160208091040260200160405190810160405280929190818152602001828054610799906119ea565b80156107e45780601f106107bb576101008083540402835291602001916107e4565b820191905f5260205f20905b8154815290600101906020018083116107c757829003601f168201915b505050505081526020016002820154815250509050806020015181604001519250925050915091565b5f5f9054906101000a900473ffffffffffffffffffffffffffffffffffffffff1673ffffffffffffffffffffffffffffffffffffffff163373ffffffffffffffffffffffffffffffffffffffff161461089b576040517f08c379a000000000000000000000000000000000000000000000000000000000815260040161089290611a8a565b60405180910390fd5b60045f8154809291906108ad9061194f565b9190505550604051806060016040528060045481526020018281526020015f81525060075f60045481526020019081526020015f205f820151815f015560208201518160010190816108ff9190611c48565b50604082015181600201559050507fe83b2a43e7e82d975c8a0a6d2f045153c869e111136a34d1889ab7b598e396a360045482604051610940929190611d17565b60405180910390a150565b60605f60045467ffffffffffffffff81111561096a576109696113d6565b5b6040519080825280602002602001820160405280156109985781602001602082028036833780820191505090505b5090505f600190505b60045481116109fd5760075f8281526020019081526020015f2060020154826001836109cd9190611d45565b815181106109de576109dd611d78565b5b60200260200101818152505080806109f59061194f565b9150506109a1565b508091505090565b60025481565b60018054610a18906119ea565b80601f0160208091040260200160405190810160405280929190818152602001828054610a44906119ea565b8015610a8f5780601f10610a6657610100808354040283529160200191610a8f565b820191905f5260205f20905b815481529060010190602001808311610a7257829003601f168201915b505050505081565b5f5f9054906101000a900473ffffffffffffffffffffffffffffffffffffffff1681565b6006602052805f5260405f205f91509050805f015f9054906101000a900460ff1690805f0160019054906101000a900460ff16908060010154905083565b60045481565b5f5f9054906101000a900473ffffffffffffffffffffffffffffffffffffffff1673ffffffffffffffffffffffffffffffffffffffff163373ffffffffffffffffffffffffffffffffffffffff1614610b8d576040517f08c379a0000000000000000000000000000000000000000000000000000000008152600401610b8490611a8a565b60405180910390fd5b60065f8273ffffffffffffffffffffffffffffffffffffffff1673ffffffffffffffffffffffffffffffffffffffff1681526020019081526020015f205f0160019054906101000a900460ff1615610c1a576040517f08c379a0000000000000000000000000000000000000000000000000000000008152600401610c1190611def565b60405180910390fd5b600160065f8373ffffffffffffffffffffffffffffffffffffffff1673ffffffffffffffffffffffffffffffffffffffff1681526020019081526020015f205f015f6101000a81548160ff0219169083151502179055507f0ca65a9f1f88bd7257ac852d1062853358f81cdc56f9634dcbeed6090f8dfb4381604051610ca09190611677565b60405180910390a150565b60605f5f9054906101000a900473ffffffffffffffffffffffffffffffffffffffff1673ffffffffffffffffffffffffffffffffffffffff163373ffffffffffffffffffffffffffffffffffffffff1614610d3b576040517f08c379a0000000000000000000000000000000000000000000000000000000008152600401610d3290611a8a565b60405180910390fd5b6003544211610d7f576040517f08c379a0000000000000000000000000000000000000000000000000000000008152600401610d7690611e57565b60405180910390fd5b5f60055403610dc5576040518060400160405280600d81526020017f4e6f20766f7465732063617374000000000000000000000000000000000000008152509050610efe565b5f5f90505f60405180602001604052805f81525090505f600190505b6004548111610ece578260075f8381526020019081526020015f20600201541115610ebb5760075f8281526020019081526020015f2060020154925060075f8281526020019081526020015f206001018054610e3c906119ea565b80601f0160208091040260200160405190810160405280929190818152602001828054610e68906119ea565b8015610eb35780601f10610e8a57610100808354040283529160200191610eb3565b820191905f5260205f20905b815481529060010190602001808311610e9657829003601f168201915b505050505091505b8080610ec69061194f565b915050610de1565b5080610ed9836110ac565b604051602001610eea929190611f43565b604051602081830303815290604052925050505b90565b5f5f9054906101000a900473ffffffffffffffffffffffffffffffffffffffff1673ffffffffffffffffffffffffffffffffffffffff163373ffffffffffffffffffffffffffffffffffffffff1614610f8f576040517f08c379a0000000000000000000000000000000000000000000000000000000008152600401610f8690611a8a565b60405180910390fd5b60065f8273ffffffffffffffffffffffffffffffffffffffff1673ffffffffffffffffffffffffffffffffffffffff1681526020019081526020015f205f0160019054906101000a900460ff161561101c576040517f08c379a000000000000000000000000000000000000000000000000000000000815260040161101390611fc6565b60405180910390fd5b5f60065f8373ffffffffffffffffffffffffffffffffffffffff1673ffffffffffffffffffffffffffffffffffffffff1681526020019081526020015f205f015f6101000a81548160ff0219169083151502179055507fff4a9a6864608d4e5a0cdaa278ed76bde0c55aa397fa160990622b6d3df2037b816040516110a19190611677565b60405180910390a150565b60605f82036110f2576040518060400160405280600181526020017f30000000000000000000000000000000000000000000000000000000000000008152509050611225565b5f8290505f5b5f821461112157808061110a9061194f565b915050600a8261111a9190612011565b91506110f8565b5f8167ffffffffffffffff81111561113c5761113b6113d6565b5b6040519080825280601f01601f19166020018201604052801561116e5781602001600182028036833780820191505090505b5090505f8290505b5f861461121d5760018161118a9190611d45565b90505f600a808861119b9190612011565b6111a59190612041565b876111b09190611d45565b60306111bc919061208e565b90505f8160f81b9050808484815181106111d9576111d8611d78565b5b60200101907effffffffffffffffffffffffffffffffffffffffffffffffffffffffffffff191690815f1a905350600a886112149190612011565b97505050611176565b819450505050505b919050565b5f604051905090565b5f5ffd5b5f5ffd5b5f819050919050565b61124d8161123b565b8114611257575f5ffd5b50565b5f8135905061126881611244565b92915050565b5f6020828403121561128357611282611233565b5b5f6112908482850161125a565b91505092915050565b6112a28161123b565b82525050565b5f6020820190506112bb5f830184611299565b92915050565b5f8115159050919050565b6112d5816112c1565b82525050565b5f6020820190506112ee5f8301846112cc565b92915050565b5f81519050919050565b5f82825260208201905092915050565b8281835e5f83830152505050565b5f601f19601f8301169050919050565b5f611336826112f4565b61134081856112fe565b935061135081856020860161130e565b6113598161131c565b840191505092915050565b5f6060820190506113775f830186611299565b8181036020830152611389818561132c565b90506113986040830184611299565b949350505050565b5f6040820190508181035f8301526113b8818561132c565b90506113c76020830184611299565b9392505050565b5f5ffd5b5f5ffd5b7f4e487b71000000000000000000000000000000000000000000000000000000005f52604160045260245ffd5b61140c8261131c565b810181811067ffffffffffffffff8211171561142b5761142a6113d6565b5b80604052505050565b5f61143d61122a565b90506114498282611403565b919050565b5f67ffffffffffffffff821115611468576114676113d6565b5b6114718261131c565b9050602081019050919050565b828183375f83830152505050565b5f61149e6114998461144e565b611434565b9050828152602081018484840111156114ba576114b96113d2565b5b6114c584828561147e565b509392505050565b5f82601f8301126114e1576114e06113ce565b5b81356114f184826020860161148c565b91505092915050565b5f6020828403121561150f5761150e611233565b5b5f82013567ffffffffffffffff81111561152c5761152b611237565b5b611538848285016114cd565b91505092915050565b5f81519050919050565b5f82825260208201905092915050565b5f819050602082019050919050565b6115738161123b565b82525050565b5f611584838361156a565b60208301905092915050565b5f602082019050919050565b5f6115a682611541565b6115b0818561154b565b93506115bb8361155b565b805f5b838110156115eb5781516115d28882611579565b97506115dd83611590565b9250506001810190506115be565b5085935050505092915050565b5f6020820190508181035f830152611610818461159c565b905092915050565b5f6020820190508181035f830152611630818461132c565b905092915050565b5f73ffffffffffffffffffffffffffffffffffffffff82169050919050565b5f61166182611638565b9050919050565b61167181611657565b82525050565b5f60208201905061168a5f830184611668565b92915050565b61169981611657565b81146116a3575f5ffd5b50565b5f813590506116b481611690565b92915050565b5f602082840312156116cf576116ce611233565b5b5f6116dc848285016116a6565b91505092915050565b5f6060820190506116f85f8301866112cc565b61170560208301856112cc565b6117126040830184611299565b949350505050565b7f566f74696e6720686173206e6f742073746172746564207965742000000000005f82015250565b5f61174e601b836112fe565b91506117598261171a565b602082019050919050565b5f6020820190508181035f83015261177b81611742565b9050919050565b7f566f74696e672068617320656e646564000000000000000000000000000000005f82015250565b5f6117b66010836112fe565b91506117c182611782565b602082019050919050565b5f6020820190508181035f8301526117e3816117aa565b9050919050565b7f4e6f7420617574686f72697a656420746f20766f7465000000000000000000005f82015250565b5f61181e6016836112fe565b9150611829826117ea565b602082019050919050565b5f6020820190508181035f83015261184b81611812565b9050919050565b7f416c726561647920766f746564000000000000000000000000000000000000005f82015250565b5f611886600d836112fe565b915061189182611852565b602082019050919050565b5f6020820190508181035f8301526118b38161187a565b9050919050565b7f496e76616c69642063616e6469646174652049440000000000000000000000005f82015250565b5f6118ee6014836112fe565b91506118f9826118ba565b602082019050919050565b5f6020820190508181035f83015261191b816118e2565b9050919050565b7f4e487b71000000000000000000000000000000000000000000000000000000005f52601160045260245ffd5b5f6119598261123b565b91507fffffffffffffffffffffffffffffffffffffffffffffffffffffffffffffffff820361198b5761198a611922565b5b600182019050919050565b5f6040820190506119a95f830185611668565b6119b66020830184611299565b9392505050565b7f4e487b71000000000000000000000000000000000000000000000000000000005f52602260045260245ffd5b5f6002820490506001821680611a0157607f821691505b602082108103611a1457611a136119bd565b5b50919050565b7f4f6e6c79206f776e65722063616e2063616c6c20746869732066756e6374696f5f8201527f6e00000000000000000000000000000000000000000000000000000000000000602082015250565b5f611a746021836112fe565b9150611a7f82611a1a565b604082019050919050565b5f6020820190508181035f830152611aa181611a68565b9050919050565b5f819050815f5260205f209050919050565b5f6020601f8301049050919050565b5f82821b905092915050565b5f60088302611b047fffffffffffffffffffffffffffffffffffffffffffffffffffffffffffffffff82611ac9565b611b0e8683611ac9565b95508019841693508086168417925050509392505050565b5f819050919050565b5f611b49611b44611b3f8461123b565b611b26565b61123b565b9050919050565b5f819050919050565b611b6283611b2f565b611b76611b6e82611b50565b848454611ad5565b825550505050565b5f5f905090565b611b8d611b7e565b611b98818484611b59565b505050565b5b81811015611bbb57611bb05f82611b85565b600181019050611b9e565b5050565b601f821115611c0057611bd181611aa8565b611bda84611aba565b81016020851015611be9578190505b611bfd611bf585611aba565b830182611b9d565b50505b505050565b5f82821c905092915050565b5f611c205f1984600802611c05565b1980831691505092915050565b5f611c388383611c11565b9150826002028217905092915050565b611c51826112f4565b67ffffffffffffffff811115611c6a57611c696113d6565b5b611c7482546119ea565b611c7f828285611bbf565b5f60209050601f831160018114611cb0575f8415611c9e578287015190505b611ca88582611c2d565b865550611d0f565b601f198416611cbe86611aa8565b5f5b82811015611ce557848901518255600182019150602085019450602081019050611cc0565b86831015611d025784890151611cfe601f891682611c11565b8355505b6001600288020188555050505b505050505050565b5f604082019050611d2a5f830185611299565b8181036020830152611d3c818461132c565b90509392505050565b5f611d4f8261123b565b9150611d5a8361123b565b9250828203905081811115611d7257611d71611922565b5b92915050565b7f4e487b71000000000000000000000000000000000000000000000000000000005f52603260045260245ffd5b7f506572736f6e2068617320616c726561647920766f74656400000000000000005f82015250565b5f611dd96018836112fe565b9150611de482611da5565b602082019050919050565b5f6020820190508181035f830152611e0681611dcd565b9050919050565b7f566f74696e6720706572696f6420686173206e6f7420656e64656420796574005f82015250565b5f611e41601f836112fe565b9150611e4c82611e0d565b602082019050919050565b5f6020820190508181035f830152611e6e81611e35565b9050919050565b5f81905092915050565b7f57696e6e65723a200000000000000000000000000000000000000000000000005f82015250565b5f611eb3600883611e75565b9150611ebe82611e7f565b600882019050919050565b5f611ed3826112f4565b611edd8185611e75565b9350611eed81856020860161130e565b80840191505092915050565b7f2c20766f7465733a2000000000000000000000000000000000000000000000005f82015250565b5f611f2d600983611e75565b9150611f3882611ef9565b600982019050919050565b5f611f4d82611ea7565b9150611f598285611ec9565b9150611f6482611f21565b9150611f708284611ec9565b91508190509392505050565b7f43616e6e6f7420756e617574686f72697a6520616674657220766f74696e67005f82015250565b5f611fb0601f836112fe565b9150611fbb82611f7c565b602082019050919050565b5f6020820190508181035f830152611fdd81611fa4565b9050919050565b7f4e487b71000000000000000000000000000000000000000000000000000000005f52601260045260245ffd5b5f61201b8261123b565b91506120268361123b565b92508261203657612035611fe4565b5b828204905092915050565b5f61204b8261123b565b91506120568361123b565b92508282026120648161123b565b9150828204841483151761207b5761207a611922565b5b5092915050565b5f60ff82169050919050565b5f61209882612082565b91506120a383612082565b9250828201905060ff8111156120bc576120bb611922565b5b9291505056fea2646970667358221220b76152d41bd2890550b2a9c27b720663f84c92bca7e0d90e6d921291857a653664736f6c634300081e0033",
					"opcodes": "PUSH1 0x80 PUSH1 0x40 MSTORE CALLVALUE DUP1 ISZERO PUSH2 0xF JUMPI PUSH0 PUSH0 REVERT JUMPDEST POP PUSH1 0x40 MLOAD PUSH2 0x26B5 CODESIZE SUB DUP1 PUSH2 0x26B5 DUP4 CODECOPY DUP2 DUP2 ADD PUSH1 0x40 MSTORE DUP2 ADD SWAP1 PUSH2 0x31 SWAP2 SWAP1 PUSH2 0x220 JUMP JUMPDEST CALLER PUSH0 PUSH0 PUSH2 0x100 EXP DUP2 SLOAD DUP2 PUSH20 0xFFFFFFFFFFFFFFFFFFFFFFFFFFFFFFFFFFFFFFFF MUL NOT AND SWAP1 DUP4 PUSH20 0xFFFFFFFFFFFFFFFFFFFFFFFFFFFFFFFFFFFFFFFF AND MUL OR SWAP1 SSTORE POP DUP2 PUSH1 0x1 SWAP1 DUP2 PUSH2 0x7F SWAP2 SWAP1 PUSH2 0x481 JUMP JUMPDEST POP TIMESTAMP PUSH1 0x2 DUP2 SWAP1 SSTORE POP DUP1 TIMESTAMP PUSH2 0x93 SWAP2 SWAP1 PUSH2 0x57D JUMP JUMPDEST PUSH1 0x3 DUP2 SWAP1 SSTORE POP POP POP PUSH2 0x5B0 JUMP JUMPDEST PUSH0 PUSH1 0x40 MLOAD SWAP1 POP SWAP1 JUMP JUMPDEST PUSH0 PUSH0 REVERT JUMPDEST PUSH0 PUSH0 REVERT JUMPDEST PUSH0 PUSH0 REVERT JUMPDEST PUSH0 PUSH0 REVERT JUMPDEST PUSH0 PUSH1 0x1F NOT PUSH1 0x1F DUP4 ADD AND SWAP1 POP SWAP2 SWAP1 POP JUMP JUMPDEST PUSH32 0x4E487B7100000000000000000000000000000000000000000000000000000000 PUSH0 MSTORE PUSH1 0x41 PUSH1 0x4 MSTORE PUSH1 0x24 PUSH0 REVERT JUMPDEST PUSH2 0xFF DUP3 PUSH2 0xB9 JUMP JUMPDEST DUP2 ADD DUP2 DUP2 LT PUSH8 0xFFFFFFFFFFFFFFFF DUP3 GT OR ISZERO PUSH2 0x11E JUMPI PUSH2 0x11D PUSH2 0xC9 JUMP JUMPDEST JUMPDEST DUP1 PUSH1 0x40 MSTORE POP POP POP JUMP JUMPDEST PUSH0 PUSH2 0x130 PUSH2 0xA0 JUMP JUMPDEST SWAP1 POP PUSH2 0x13C DUP3 DUP3 PUSH2 0xF6 JUMP JUMPDEST SWAP2 SWAP1 POP JUMP JUMPDEST PUSH0 PUSH8 0xFFFFFFFFFFFFFFFF DUP3 GT ISZERO PUSH2 0x15B JUMPI PUSH2 0x15A PUSH2 0xC9 JUMP JUMPDEST JUMPDEST PUSH2 0x164 DUP3 PUSH2 0xB9 JUMP JUMPDEST SWAP1 POP PUSH1 0x20 DUP2 ADD SWAP1 POP SWAP2 SWAP1 POP JUMP JUMPDEST DUP3 DUP2 DUP4 MCOPY PUSH0 DUP4 DUP4 ADD MSTORE POP POP POP JUMP JUMPDEST PUSH0 PUSH2 0x191 PUSH2 0x18C DUP5 PUSH2 0x141 JUMP JUMPDEST PUSH2 0x127 JUMP JUMPDEST SWAP1 POP DUP3 DUP2 MSTORE PUSH1 0x20 DUP2 ADD DUP5 DUP5 DUP5 ADD GT ISZERO PUSH2 0x1AD JUMPI PUSH2 0x1AC PUSH2 0xB5 JUMP JUMPDEST JUMPDEST PUSH2 0x1B8 DUP5 DUP3 DUP6 PUSH2 0x171 JUMP JUMPDEST POP SWAP4 SWAP3 POP POP POP JUMP JUMPDEST PUSH0 DUP3 PUSH1 0x1F DUP4 ADD SLT PUSH2 0x1D4 JUMPI PUSH2 0x1D3 PUSH2 0xB1 JUMP JUMPDEST JUMPDEST DUP2 MLOAD PUSH2 0x1E4 DUP5 DUP3 PUSH1 0x20 DUP7 ADD PUSH2 0x17F JUMP JUMPDEST SWAP2 POP POP SWAP3 SWAP2 POP POP JUMP JUMPDEST PUSH0 DUP2 SWAP1 POP SWAP2 SWAP1 POP JUMP JUMPDEST PUSH2 0x1FF DUP2 PUSH2 0x1ED JUMP JUMPDEST DUP2 EQ PUSH2 0x209 JUMPI PUSH0 PUSH0 REVERT JUMPDEST POP JUMP JUMPDEST PUSH0 DUP2 MLOAD SWAP1 POP PUSH2 0x21A DUP2 PUSH2 0x1F6 JUMP JUMPDEST SWAP3 SWAP2 POP POP JUMP JUMPDEST PUSH0 PUSH0 PUSH1 0x40 DUP4 DUP6 SUB SLT ISZERO PUSH2 0x236 JUMPI PUSH2 0x235 PUSH2 0xA9 JUMP JUMPDEST JUMPDEST PUSH0 DUP4 ADD MLOAD PUSH8 0xFFFFFFFFFFFFFFFF DUP2 GT ISZERO PUSH2 0x253 JUMPI PUSH2 0x252 PUSH2 0xAD JUMP JUMPDEST JUMPDEST PUSH2 0x25F DUP6 DUP3 DUP7 ADD PUSH2 0x1C0 JUMP JUMPDEST SWAP3 POP POP PUSH1 0x20 PUSH2 0x270 DUP6 DUP3 DUP7 ADD PUSH2 0x20C JUMP JUMPDEST SWAP2 POP POP SWAP3 POP SWAP3 SWAP1 POP JUMP JUMPDEST PUSH0 DUP2 MLOAD SWAP1 POP SWAP2 SWAP1 POP JUMP JUMPDEST PUSH32 0x4E487B7100000000000000000000000000000000000000000000000000000000 PUSH0 MSTORE PUSH1 0x22 PUSH1 0x4 MSTORE PUSH1 0x24 PUSH0 REVERT JUMPDEST PUSH0 PUSH1 0x2 DUP3 DIV SWAP1 POP PUSH1 0x1 DUP3 AND DUP1 PUSH2 0x2C8 JUMPI PUSH1 0x7F DUP3 AND SWAP2 POP JUMPDEST PUSH1 0x20 DUP3 LT DUP2 SUB PUSH2 0x2DB JUMPI PUSH2 0x2DA PUSH2 0x284 JUMP JUMPDEST JUMPDEST POP SWAP2 SWAP1 POP JUMP JUMPDEST PUSH0 DUP2 SWAP1 POP DUP2 PUSH0 MSTORE PUSH1 0x20 PUSH0 KECCAK256 SWAP1 POP SWAP2 SWAP1 POP JUMP JUMPDEST PUSH0 PUSH1 0x20 PUSH1 0x1F DUP4 ADD DIV SWAP1 POP SWAP2 SWAP1 POP JUMP JUMPDEST PUSH0 DUP3 DUP3 SHL SWAP1 POP SWAP3 SWAP2 POP POP JUMP JUMPDEST PUSH0 PUSH1 0x8 DUP4 MUL PUSH2 0x33D PUSH32 0xFFFFFFFFFFFFFFFFFFFFFFFFFFFFFFFFFFFFFFFFFFFFFFFFFFFFFFFFFFFFFFFF DUP3 PUSH2 0x302 JUMP JUMPDEST PUSH2 0x347 DUP7 DUP4 PUSH2 0x302 JUMP JUMPDEST SWAP6 POP DUP1 NOT DUP5 AND SWAP4 POP DUP1 DUP7 AND DUP5 OR SWAP3 POP POP POP SWAP4 SWAP3 POP POP POP JUMP JUMPDEST PUSH0 DUP2 SWAP1 POP SWAP2 SWAP1 POP JUMP JUMPDEST PUSH0 PUSH2 0x382 PUSH2 0x37D PUSH2 0x378 DUP5 PUSH2 0x1ED JUMP JUMPDEST PUSH2 0x35F JUMP JUMPDEST PUSH2 0x1ED JUMP JUMPDEST SWAP1 POP SWAP2 SWAP1 POP JUMP JUMPDEST PUSH0 DUP2 SWAP1 POP SWAP2 SWAP1 POP JUMP JUMPDEST PUSH2 0x39B DUP4 PUSH2 0x368 JUMP JUMPDEST PUSH2 0x3AF PUSH2 0x3A7 DUP3 PUSH2 0x389 JUMP JUMPDEST DUP5 DUP5 SLOAD PUSH2 0x30E JUMP JUMPDEST DUP3 SSTORE POP POP POP POP JUMP JUMPDEST PUSH0 PUSH0 SWAP1 POP SWAP1 JUMP JUMPDEST PUSH2 0x3C6 PUSH2 0x3B7 JUMP JUMPDEST PUSH2 0x3D1 DUP2 DUP5 DUP5 PUSH2 0x392 JUMP JUMPDEST POP POP POP JUMP JUMPDEST JUMPDEST DUP2 DUP2 LT ISZERO PUSH2 0x3F4 JUMPI PUSH2 0x3E9 PUSH0 DUP3 PUSH2 0x3BE JUMP JUMPDEST PUSH1 0x1 DUP2 ADD SWAP1 POP PUSH2 0x3D7 JUMP JUMPDEST POP POP JUMP JUMPDEST PUSH1 0x1F DUP3 GT ISZERO PUSH2 0x439 JUMPI PUSH2 0x40A DUP2 PUSH2 0x2E1 JUMP JUMPDEST PUSH2 0x413 DUP5 PUSH2 0x2F3 JUMP JUMPDEST DUP2 ADD PUSH1 0x20 DUP6 LT ISZERO PUSH2 0x422 JUMPI DUP2 SWAP1 POP JUMPDEST PUSH2 0x436 PUSH2 0x42E DUP6 PUSH2 0x2F3 JUMP JUMPDEST DUP4 ADD DUP3 PUSH2 0x3D6 JUMP JUMPDEST POP POP JUMPDEST POP POP POP JUMP JUMPDEST PUSH0 DUP3 DUP3 SHR SWAP1 POP SWAP3 SWAP2 POP POP JUMP JUMPDEST PUSH0 PUSH2 0x459 PUSH0 NOT DUP5 PUSH1 0x8 MUL PUSH2 0x43E JUMP JUMPDEST NOT DUP1 DUP4 AND SWAP2 POP POP SWAP3 SWAP2 POP POP JUMP JUMPDEST PUSH0 PUSH2 0x471 DUP4 DUP4 PUSH2 0x44A JUMP JUMPDEST SWAP2 POP DUP3 PUSH1 0x2 MUL DUP3 OR SWAP1 POP SWAP3 SWAP2 POP POP JUMP JUMPDEST PUSH2 0x48A DUP3 PUSH2 0x27A JUMP JUMPDEST PUSH8 0xFFFFFFFFFFFFFFFF DUP2 GT ISZERO PUSH2 0x4A3 JUMPI PUSH2 0x4A2 PUSH2 0xC9 JUMP JUMPDEST JUMPDEST PUSH2 0x4AD DUP3 SLOAD PUSH2 0x2B1 JUMP JUMPDEST PUSH2 0x4B8 DUP3 DUP3 DUP6 PUSH2 0x3F8 JUMP JUMPDEST PUSH0 PUSH1 0x20 SWAP1 POP PUSH1 0x1F DUP4 GT PUSH1 0x1 DUP2 EQ PUSH2 0x4E9 JUMPI PUSH0 DUP5 ISZERO PUSH2 0x4D7 JUMPI DUP3 DUP8 ADD MLOAD SWAP1 POP JUMPDEST PUSH2 0x4E1 DUP6 DUP3 PUSH2 0x466 JUMP JUMPDEST DUP7 SSTORE POP PUSH2 0x548 JUMP JUMPDEST PUSH1 0x1F NOT DUP5 AND PUSH2 0x4F7 DUP7 PUSH2 0x2E1 JUMP JUMPDEST PUSH0 JUMPDEST DUP3 DUP2 LT ISZERO PUSH2 0x51E JUMPI DUP5 DUP10 ADD MLOAD DUP3 SSTORE PUSH1 0x1 DUP3 ADD SWAP2 POP PUSH1 0x20 DUP6 ADD SWAP5 POP PUSH1 0x20 DUP2 ADD SWAP1 POP PUSH2 0x4F9 JUMP JUMPDEST DUP7 DUP4 LT ISZERO PUSH2 0x53B JUMPI DUP5 DUP10 ADD MLOAD PUSH2 0x537 PUSH1 0x1F DUP10 AND DUP3 PUSH2 0x44A JUMP JUMPDEST DUP4 SSTORE POP JUMPDEST PUSH1 0x1 PUSH1 0x2 DUP9 MUL ADD DUP9 SSTORE POP POP POP JUMPDEST POP POP POP POP POP POP JUMP JUMPDEST PUSH32 0x4E487B7100000000000000000000000000000000000000000000000000000000 PUSH0 MSTORE PUSH1 0x11 PUSH1 0x4 MSTORE PUSH1 0x24 PUSH0 REVERT JUMPDEST PUSH0 PUSH2 0x587 DUP3 PUSH2 0x1ED JUMP JUMPDEST SWAP2 POP PUSH2 0x592 DUP4 PUSH2 0x1ED JUMP JUMPDEST SWAP3 POP DUP3 DUP3 ADD SWAP1 POP DUP1 DUP3 GT ISZERO PUSH2 0x5AA JUMPI PUSH2 0x5A9 PUSH2 0x550 JUMP JUMPDEST JUMPDEST SWAP3 SWAP2 POP POP JUMP JUMPDEST PUSH2 0x20F8 DUP1 PUSH2 0x5BD PUSH0 CODECOPY PUSH0 RETURN INVALID PUSH1 0x80 PUSH1 0x40 MSTORE CALLVALUE DUP1 ISZERO PUSH2 0xF JUMPI PUSH0 PUSH0 REVERT JUMPDEST POP PUSH1 0x4 CALLDATASIZE LT PUSH2 0xFE JUMPI PUSH0 CALLDATALOAD PUSH1 0xE0 SHR DUP1 PUSH4 0x78E97925 GT PUSH2 0x95 JUMPI DUP1 PUSH4 0xA9A981A3 GT PUSH2 0x64 JUMPI DUP1 PUSH4 0xA9A981A3 EQ PUSH2 0x2A1 JUMPI DUP1 PUSH4 0xB6A5D7DE EQ PUSH2 0x2BF JUMPI DUP1 PUSH4 0xEFBE1C1C EQ PUSH2 0x2DB JUMPI DUP1 PUSH4 0xF0B37C04 EQ PUSH2 0x2F9 JUMPI PUSH2 0xFE JUMP JUMPDEST DUP1 PUSH4 0x78E97925 EQ PUSH2 0x215 JUMPI DUP1 PUSH4 0x85E8E7A7 EQ PUSH2 0x233 JUMPI DUP1 PUSH4 0x8DA5CB5B EQ PUSH2 0x251 JUMPI DUP1 PUSH4 0xA3EC138D EQ PUSH2 0x26F JUMPI PUSH2 0xFE JUMP JUMPDEST DUP1 PUSH4 0x3477EE2E GT PUSH2 0xD1 JUMPI DUP1 PUSH4 0x3477EE2E EQ PUSH2 0x178 JUMPI DUP1 PUSH4 0x35B8E820 EQ PUSH2 0x1AA JUMPI DUP1 PUSH4 0x462E91EC EQ PUSH2 0x1DB JUMPI DUP1 PUSH4 0x4717F97C EQ PUSH2 0x1F7 JUMPI PUSH2 0xFE JUMP JUMPDEST DUP1 PUSH4 0x121B93F EQ PUSH2 0x102 JUMPI DUP1 PUSH4 0xD15FD77 EQ PUSH2 0x11E JUMPI DUP1 PUSH4 0x122902A6 EQ PUSH2 0x13C JUMPI DUP1 PUSH4 0x3197CBB6 EQ PUSH2 0x15A JUMPI JUMPDEST PUSH0 PUSH0 REVERT JUMPDEST PUSH2 0x11C PUSH1 0x4 DUP1 CALLDATASIZE SUB DUP2 ADD SWAP1 PUSH2 0x117 SWAP2 SWAP1 PUSH2 0x126E JUMP JUMPDEST PUSH2 0x315 JUMP JUMPDEST STOP JUMPDEST PUSH2 0x126 PUSH2 0x620 JUMP JUMPDEST PUSH1 0x40 MLOAD PUSH2 0x133 SWAP2 SWAP1 PUSH2 0x12A8 JUMP JUMPDEST PUSH1 0x40 MLOAD DUP1 SWAP2 SUB SWAP1 RETURN JUMPDEST PUSH2 0x144 PUSH2 0x626 JUMP JUMPDEST PUSH1 0x40 MLOAD PUSH2 0x151 SWAP2 SWAP1 PUSH2 0x12DB JUMP JUMPDEST PUSH1 0x40 MLOAD DUP1 SWAP2 SUB SWAP1 RETURN JUMPDEST PUSH2 0x162 PUSH2 0x632 JUMP JUMPDEST PUSH1 0x40 MLOAD PUSH2 0x16F SWAP2 SWAP1 PUSH2 0x12A8 JUMP JUMPDEST PUSH1 0x40 MLOAD DUP1 SWAP2 SUB SWAP1 RETURN JUMPDEST PUSH2 0x192 PUSH1 0x4 DUP1 CALLDATASIZE SUB DUP2 ADD SWAP1 PUSH2 0x18D SWAP2 SWAP1 PUSH2 0x126E JUMP JUMPDEST PUSH2 0x638 JUMP JUMPDEST PUSH1 0x40 MLOAD PUSH2 0x1A1 SWAP4 SWAP3 SWAP2 SWAP1 PUSH2 0x1364 JUMP JUMPDEST PUSH1 0x40 MLOAD DUP1 SWAP2 SUB SWAP1 RETURN JUMPDEST PUSH2 0x1C4 PUSH1 0x4 DUP1 CALLDATASIZE SUB DUP2 ADD SWAP1 PUSH2 0x1BF SWAP2 SWAP1 PUSH2 0x126E JUMP JUMPDEST PUSH2 0x6E4 JUMP JUMPDEST PUSH1 0x40 MLOAD PUSH2 0x1D2 SWAP3 SWAP2 SWAP1 PUSH2 0x13A0 JUMP JUMPDEST PUSH1 0x40 MLOAD DUP1 SWAP2 SUB SWAP1 RETURN JUMPDEST PUSH2 0x1F5 PUSH1 0x4 DUP1 CALLDATASIZE SUB DUP2 ADD SWAP1 PUSH2 0x1F0 SWAP2 SWAP1 PUSH2 0x14FA JUMP JUMPDEST PUSH2 0x80D JUMP JUMPDEST STOP JUMPDEST PUSH2 0x1FF PUSH2 0x94B JUMP JUMPDEST PUSH1 0x40 MLOAD PUSH2 0x20C SWAP2 SWAP1 PUSH2 0x15F8 JUMP JUMPDEST PUSH1 0x40 MLOAD DUP1 SWAP2 SUB SWAP1 RETURN JUMPDEST PUSH2 0x21D PUSH2 0xA05 JUMP JUMPDEST PUSH1 0x40 MLOAD PUSH2 0x22A SWAP2 SWAP1 PUSH2 0x12A8 JUMP JUMPDEST PUSH1 0x40 MLOAD DUP1 SWAP2 SUB SWAP1 RETURN JUMPDEST PUSH2 0x23B PUSH2 0xA0B JUMP JUMPDEST PUSH1 0x40 MLOAD PUSH2 0x248 SWAP2 SWAP1 PUSH2 0x1618 JUMP JUMPDEST PUSH1 0x40 MLOAD DUP1 SWAP2 SUB SWAP1 RETURN JUMPDEST PUSH2 0x259 PUSH2 0xA97 JUMP JUMPDEST PUSH1 0x40 MLOAD PUSH2 0x266 SWAP2 SWAP1 PUSH2 0x1677 JUMP JUMPDEST PUSH1 0x40 MLOAD DUP1 SWAP2 SUB SWAP1 RETURN JUMPDEST PUSH2 0x289 PUSH1 0x4 DUP1 CALLDATASIZE SUB DUP2 ADD SWAP1 PUSH2 0x284 SWAP2 SWAP1 PUSH2 0x16BA JUMP JUMPDEST PUSH2 0xABB JUMP JUMPDEST PUSH1 0x40 MLOAD PUSH2 0x298 SWAP4 SWAP3 SWAP2 SWAP1 PUSH2 0x16E5 JUMP JUMPDEST PUSH1 0x40 MLOAD DUP1 SWAP2 SUB SWAP1 RETURN JUMPDEST PUSH2 0x2A9 PUSH2 0xAF9 JUMP JUMPDEST PUSH1 0x40 MLOAD PUSH2 0x2B6 SWAP2 SWAP1 PUSH2 0x12A8 JUMP JUMPDEST PUSH1 0x40 MLOAD DUP1 SWAP2 SUB SWAP1 RETURN JUMPDEST PUSH2 0x2D9 PUSH1 0x4 DUP1 CALLDATASIZE SUB DUP2 ADD SWAP1 PUSH2 0x2D4 SWAP2 SWAP1 PUSH2 0x16BA JUMP JUMPDEST PUSH2 0xAFF JUMP JUMPDEST STOP JUMPDEST PUSH2 0x2E3 PUSH2 0xCAB JUMP JUMPDEST PUSH1 0x40 MLOAD PUSH2 0x2F0 SWAP2 SWAP1 PUSH2 0x1618 JUMP JUMPDEST PUSH1 0x40 MLOAD DUP1 SWAP2 SUB SWAP1 RETURN JUMPDEST PUSH2 0x313 PUSH1 0x4 DUP1 CALLDATASIZE SUB DUP2 ADD SWAP1 PUSH2 0x30E SWAP2 SWAP1 PUSH2 0x16BA JUMP JUMPDEST PUSH2 0xF01 JUMP JUMPDEST STOP JUMPDEST PUSH1 0x2 SLOAD TIMESTAMP LT ISZERO PUSH2 0x35A JUMPI PUSH1 0x40 MLOAD PUSH32 0x8C379A000000000000000000000000000000000000000000000000000000000 DUP2 MSTORE PUSH1 0x4 ADD PUSH2 0x351 SWAP1 PUSH2 0x1764 JUMP JUMPDEST PUSH1 0x40 MLOAD DUP1 SWAP2 SUB SWAP1 REVERT JUMPDEST PUSH1 0x3 SLOAD TIMESTAMP GT ISZERO PUSH2 0x39F JUMPI PUSH1 0x40 MLOAD PUSH32 0x8C379A000000000000000000000000000000000000000000000000000000000 DUP2 MSTORE PUSH1 0x4 ADD PUSH2 0x396 SWAP1 PUSH2 0x17CC JUMP JUMPDEST PUSH1 0x40 MLOAD DUP1 SWAP2 SUB SWAP1 REVERT JUMPDEST PUSH1 0x6 PUSH0 CALLER PUSH20 0xFFFFFFFFFFFFFFFFFFFFFFFFFFFFFFFFFFFFFFFF AND PUSH20 0xFFFFFFFFFFFFFFFFFFFFFFFFFFFFFFFFFFFFFFFF AND DUP2 MSTORE PUSH1 0x20 ADD SWAP1 DUP2 MSTORE PUSH1 0x20 ADD PUSH0 KECCAK256 PUSH0 ADD PUSH0 SWAP1 SLOAD SWAP1 PUSH2 0x100 EXP SWAP1 DIV PUSH1 0xFF AND PUSH2 0x42A JUMPI PUSH1 0x40 MLOAD PUSH32 0x8C379A000000000000000000000000000000000000000000000000000000000 DUP2 MSTORE PUSH1 0x4 ADD PUSH2 0x421 SWAP1 PUSH2 0x1834 JUMP JUMPDEST PUSH1 0x40 MLOAD DUP1 SWAP2 SUB SWAP1 REVERT JUMPDEST PUSH1 0x6 PUSH0 CALLER PUSH20 0xFFFFFFFFFFFFFFFFFFFFFFFFFFFFFFFFFFFFFFFF AND PUSH20 0xFFFFFFFFFFFFFFFFFFFFFFFFFFFFFFFFFFFFFFFF AND DUP2 MSTORE PUSH1 0x20 ADD SWAP1 DUP2 MSTORE PUSH1 0x20 ADD PUSH0 KECCAK256 PUSH0 ADD PUSH1 0x1 SWAP1 SLOAD SWAP1 PUSH2 0x100 EXP SWAP1 DIV PUSH1 0xFF AND ISZERO PUSH2 0x4B7 JUMPI PUSH1 0x40 MLOAD PUSH32 0x8C379A000000000000000000000000000000000000000000000000000000000 DUP2 MSTORE PUSH1 0x4 ADD PUSH2 0x4AE SWAP1 PUSH2 0x189C JUMP JUMPDEST PUSH1 0x40 MLOAD DUP1 SWAP2 SUB SWAP1 REVERT JUMPDEST PUSH0 DUP2 GT DUP1 ISZERO PUSH2 0x4C8 JUMPI POP PUSH1 0x4 SLOAD DUP2 GT ISZERO JUMPDEST PUSH2 0x507 JUMPI PUSH1 0x40 MLOAD PUSH32 0x8C379A000000000000000000000000000000000000000000000000000000000 DUP2 MSTORE PUSH1 0x4 ADD PUSH2 0x4FE SWAP1 PUSH2 0x1904 JUMP JUMPDEST PUSH1 0x40 MLOAD DUP1 SWAP2 SUB SWAP1 REVERT JUMPDEST PUSH1 0x1 PUSH1 0x6 PUSH0 CALLER PUSH20 0xFFFFFFFFFFFFFFFFFFFFFFFFFFFFFFFFFFFFFFFF AND PUSH20 0xFFFFFFFFFFFFFFFFFFFFFFFFFFFFFFFFFFFFFFFF AND DUP2 MSTORE PUSH1 0x20 ADD SWAP1 DUP2 MSTORE PUSH1 0x20 ADD PUSH0 KECCAK256 PUSH0 ADD PUSH1 0x1 PUSH2 0x100 EXP DUP2 SLOAD DUP2 PUSH1 0xFF MUL NOT AND SWAP1 DUP4 ISZERO ISZERO MUL OR SWAP1 SSTORE POP DUP1 PUSH1 0x6 PUSH0 CALLER PUSH20 0xFFFFFFFFFFFFFFFFFFFFFFFFFFFFFFFFFFFFFFFF AND PUSH20 0xFFFFFFFFFFFFFFFFFFFFFFFFFFFFFFFFFFFFFFFF AND DUP2 MSTORE PUSH1 0x20 ADD SWAP1 DUP2 MSTORE PUSH1 0x20 ADD PUSH0 KECCAK256 PUSH1 0x1 ADD DUP2 SWAP1 SSTORE POP PUSH1 0x7 PUSH0 DUP3 DUP2 MSTORE PUSH1 0x20 ADD SWAP1 DUP2 MSTORE PUSH1 0x20 ADD PUSH0 KECCAK256 PUSH1 0x2 ADD PUSH0 DUP2 SLOAD DUP1 SWAP3 SWAP2 SWAP1 PUSH2 0x5C8 SWAP1 PUSH2 0x194F JUMP JUMPDEST SWAP2 SWAP1 POP SSTORE POP PUSH1 0x5 PUSH0 DUP2 SLOAD DUP1 SWAP3 SWAP2 SWAP1 PUSH2 0x5DF SWAP1 PUSH2 0x194F JUMP JUMPDEST SWAP2 SWAP1 POP SSTORE POP PUSH32 0xA36CC2BEBB74DB33E9F88110A07EF56E1B31B24B4C4F51B54B1664266E29F45B CALLER DUP3 PUSH1 0x40 MLOAD PUSH2 0x615 SWAP3 SWAP2 SWAP1 PUSH2 0x1996 JUMP JUMPDEST PUSH1 0x40 MLOAD DUP1 SWAP2 SUB SWAP1 LOG1 POP JUMP JUMPDEST PUSH1 0x5 SLOAD DUP2 JUMP JUMPDEST PUSH0 PUSH1 0x3 SLOAD TIMESTAMP GT ISZERO SWAP1 POP SWAP1 JUMP JUMPDEST PUSH1 0x3 SLOAD DUP2 JUMP JUMPDEST PUSH1 0x7 PUSH1 0x20 MSTORE DUP1 PUSH0 MSTORE PUSH1 0x40 PUSH0 KECCAK256 PUSH0 SWAP2 POP SWAP1 POP DUP1 PUSH0 ADD SLOAD SWAP1 DUP1 PUSH1 0x1 ADD DUP1 SLOAD PUSH2 0x65D SWAP1 PUSH2 0x19EA JUMP JUMPDEST DUP1 PUSH1 0x1F ADD PUSH1 0x20 DUP1 SWAP2 DIV MUL PUSH1 0x20 ADD PUSH1 0x40 MLOAD SWAP1 DUP2 ADD PUSH1 0x40 MSTORE DUP1 SWAP3 SWAP2 SWAP1 DUP2 DUP2 MSTORE PUSH1 0x20 ADD DUP3 DUP1 SLOAD PUSH2 0x689 SWAP1 PUSH2 0x19EA JUMP JUMPDEST DUP1 ISZERO PUSH2 0x6D4 JUMPI DUP1 PUSH1 0x1F LT PUSH2 0x6AB JUMPI PUSH2 0x100 DUP1 DUP4 SLOAD DIV MUL DUP4 MSTORE SWAP2 PUSH1 0x20 ADD SWAP2 PUSH2 0x6D4 JUMP JUMPDEST DUP3 ADD SWAP2 SWAP1 PUSH0 MSTORE PUSH1 0x20 PUSH0 KECCAK256 SWAP1 JUMPDEST DUP2 SLOAD DUP2 MSTORE SWAP1 PUSH1 0x1 ADD SWAP1 PUSH1 0x20 ADD DUP1 DUP4 GT PUSH2 0x6B7 JUMPI DUP3 SWAP1 SUB PUSH1 0x1F AND DUP3 ADD SWAP2 JUMPDEST POP POP POP POP POP SWAP1 DUP1 PUSH1 0x2 ADD SLOAD SWAP1 POP DUP4 JUMP JUMPDEST PUSH1 0x60 PUSH0 PUSH0 DUP4 GT DUP1 ISZERO PUSH2 0x6F8 JUMPI POP PUSH1 0x4 SLOAD DUP4 GT ISZERO JUMPDEST PUSH2 0x737 JUMPI PUSH1 0x40 MLOAD PUSH32 0x8C379A000000000000000000000000000000000000000000000000000000000 DUP2 MSTORE PUSH1 0x4 ADD PUSH2 0x72E SWAP1 PUSH2 0x1904 JUMP JUMPDEST PUSH1 0x40 MLOAD DUP1 SWAP2 SUB SWAP1 REVERT JUMPDEST PUSH0 PUSH1 0x7 PUSH0 DUP6 DUP2 MSTORE PUSH1 0x20 ADD SWAP1 DUP2 MSTORE PUSH1 0x20 ADD PUSH0 KECCAK256 PUSH1 0x40 MLOAD DUP1 PUSH1 0x60 ADD PUSH1 0x40 MSTORE SWAP1 DUP2 PUSH0 DUP3 ADD SLOAD DUP2 MSTORE PUSH1 0x20 ADD PUSH1 0x1 DUP3 ADD DUP1 SLOAD PUSH2 0x76D SWAP1 PUSH2 0x19EA JUMP JUMPDEST DUP1 PUSH1 0x1F ADD PUSH1 0x20 DUP1 SWAP2 DIV MUL PUSH1 0x20 ADD PUSH1 0x40 MLOAD SWAP1 DUP2 ADD PUSH1 0x40 MSTORE DUP1 SWAP3 SWAP2 SWAP1 DUP2 DUP2 MSTORE PUSH1 0x20 ADD DUP3 DUP1 SLOAD PUSH2 0x799 SWAP1 PUSH2 0x19EA JUMP JUMPDEST DUP1 ISZERO PUSH2 0x7E4 JUMPI DUP1 PUSH1 0x1F LT PUSH2 0x7BB JUMPI PUSH2 0x100 DUP1 DUP4 SLOAD DIV MUL DUP4 MSTORE SWAP2 PUSH1 0x20 ADD SWAP2 PUSH2 0x7E4 JUMP JUMPDEST DUP3 ADD SWAP2 SWAP1 PUSH0 MSTORE PUSH1 0x20 PUSH0 KECCAK256 SWAP1 JUMPDEST DUP2 SLOAD DUP2 MSTORE SWAP1 PUSH1 0x1 ADD SWAP1 PUSH1 0x20 ADD DUP1 DUP4 GT PUSH2 0x7C7 JUMPI DUP3 SWAP1 SUB PUSH1 0x1F AND DUP3 ADD SWAP2 JUMPDEST POP POP POP POP POP DUP2 MSTORE PUSH1 0x20 ADD PUSH1 0x2 DUP3 ADD SLOAD DUP2 MSTORE POP POP SWAP1 POP DUP1 PUSH1 0x20 ADD MLOAD DUP2 PUSH1 0x40 ADD MLOAD SWAP3 POP SWAP3 POP POP SWAP2 POP SWAP2 JUMP JUMPDEST PUSH0 PUSH0 SWAP1 SLOAD SWAP1 PUSH2 0x100 EXP SWAP1 DIV PUSH20 0xFFFFFFFFFFFFFFFFFFFFFFFFFFFFFFFFFFFFFFFF AND PUSH20 0xFFFFFFFFFFFFFFFFFFFFFFFFFFFFFFFFFFFFFFFF AND CALLER PUSH20 0xFFFFFFFFFFFFFFFFFFFFFFFFFFFFFFFFFFFFFFFF AND EQ PUSH2 0x89B JUMPI PUSH1 0x40 MLOAD PUSH32 0x8C379A000000000000000000000000000000000000000000000000000000000 DUP2 MSTORE PUSH1 0x4 ADD PUSH2 0x892 SWAP1 PUSH2 0x1A8A JUMP JUMPDEST PUSH1 0x40 MLOAD DUP1 SWAP2 SUB SWAP1 REVERT JUMPDEST PUSH1 0x4 PUSH0 DUP2 SLOAD DUP1 SWAP3 SWAP2 SWAP1 PUSH2 0x8AD SWAP1 PUSH2 0x194F JUMP JUMPDEST SWAP2 SWAP1 POP SSTORE POP PUSH1 0x40 MLOAD DUP1 PUSH1 0x60 ADD PUSH1 0x40 MSTORE DUP1 PUSH1 0x4 SLOAD DUP2 MSTORE PUSH1 0x20 ADD DUP3 DUP2 MSTORE PUSH1 0x20 ADD PUSH0 DUP2 MSTORE POP PUSH1 0x7 PUSH0 PUSH1 0x4 SLOAD DUP2 MSTORE PUSH1 0x20 ADD SWAP1 DUP2 MSTORE PUSH1 0x20 ADD PUSH0 KECCAK256 PUSH0 DUP3 ADD MLOAD DUP2 PUSH0 ADD SSTORE PUSH1 0x20 DUP3 ADD MLOAD DUP2 PUSH1 0x1 ADD SWAP1 DUP2 PUSH2 0x8FF SWAP2 SWAP1 PUSH2 0x1C48 JUMP JUMPDEST POP PUSH1 0x40 DUP3 ADD MLOAD DUP2 PUSH1 0x2 ADD SSTORE SWAP1 POP POP PUSH32 0xE83B2A43E7E82D975C8A0A6D2F045153C869E111136A34D1889AB7B598E396A3 PUSH1 0x4 SLOAD DUP3 PUSH1 0x40 MLOAD PUSH2 0x940 SWAP3 SWAP2 SWAP1 PUSH2 0x1D17 JUMP JUMPDEST PUSH1 0x40 MLOAD DUP1 SWAP2 SUB SWAP1 LOG1 POP JUMP JUMPDEST PUSH1 0x60 PUSH0 PUSH1 0x4 SLOAD PUSH8 0xFFFFFFFFFFFFFFFF DUP2 GT ISZERO PUSH2 0x96A JUMPI PUSH2 0x969 PUSH2 0x13D6 JUMP JUMPDEST JUMPDEST PUSH1 0x40 MLOAD SWAP1 DUP1 DUP3 MSTORE DUP1 PUSH1 0x20 MUL PUSH1 0x20 ADD DUP3 ADD PUSH1 0x40 MSTORE DUP1 ISZERO PUSH2 0x998 JUMPI DUP2 PUSH1 0x20 ADD PUSH1 0x20 DUP3 MUL DUP1 CALLDATASIZE DUP4 CALLDATACOPY DUP1 DUP3 ADD SWAP2 POP POP SWAP1 POP JUMPDEST POP SWAP1 POP PUSH0 PUSH1 0x1 SWAP1 POP JUMPDEST PUSH1 0x4 SLOAD DUP2 GT PUSH2 0x9FD JUMPI PUSH1 0x7 PUSH0 DUP3 DUP2 MSTORE PUSH1 0x20 ADD SWAP1 DUP2 MSTORE PUSH1 0x20 ADD PUSH0 KECCAK256 PUSH1 0x2 ADD SLOAD DUP3 PUSH1 0x1 DUP4 PUSH2 0x9CD SWAP2 SWAP1 PUSH2 0x1D45 JUMP JUMPDEST DUP2 MLOAD DUP2 LT PUSH2 0x9DE JUMPI PUSH2 0x9DD PUSH2 0x1D78 JUMP JUMPDEST JUMPDEST PUSH1 0x20 MUL PUSH1 0x20 ADD ADD DUP2 DUP2 MSTORE POP POP DUP1 DUP1 PUSH2 0x9F5 SWAP1 PUSH2 0x194F JUMP JUMPDEST SWAP2 POP POP PUSH2 0x9A1 JUMP JUMPDEST POP DUP1 SWAP2 POP POP SWAP1 JUMP JUMPDEST PUSH1 0x2 SLOAD DUP2 JUMP JUMPDEST PUSH1 0x1 DUP1 SLOAD PUSH2 0xA18 SWAP1 PUSH2 0x19EA JUMP JUMPDEST DUP1 PUSH1 0x1F ADD PUSH1 0x20 DUP1 SWAP2 DIV MUL PUSH1 0x20 ADD PUSH1 0x40 MLOAD SWAP1 DUP2 ADD PUSH1 0x40 MSTORE DUP1 SWAP3 SWAP2 SWAP1 DUP2 DUP2 MSTORE PUSH1 0x20 ADD DUP3 DUP1 SLOAD PUSH2 0xA44 SWAP1 PUSH2 0x19EA JUMP JUMPDEST DUP1 ISZERO PUSH2 0xA8F JUMPI DUP1 PUSH1 0x1F LT PUSH2 0xA66 JUMPI PUSH2 0x100 DUP1 DUP4 SLOAD DIV MUL DUP4 MSTORE SWAP2 PUSH1 0x20 ADD SWAP2 PUSH2 0xA8F JUMP JUMPDEST DUP3 ADD SWAP2 SWAP1 PUSH0 MSTORE PUSH1 0x20 PUSH0 KECCAK256 SWAP1 JUMPDEST DUP2 SLOAD DUP2 MSTORE SWAP1 PUSH1 0x1 ADD SWAP1 PUSH1 0x20 ADD DUP1 DUP4 GT PUSH2 0xA72 JUMPI DUP3 SWAP1 SUB PUSH1 0x1F AND DUP3 ADD SWAP2 JUMPDEST POP POP POP POP POP DUP2 JUMP JUMPDEST PUSH0 PUSH0 SWAP1 SLOAD SWAP1 PUSH2 0x100 EXP SWAP1 DIV PUSH20 0xFFFFFFFFFFFFFFFFFFFFFFFFFFFFFFFFFFFFFFFF AND DUP2 JUMP JUMPDEST PUSH1 0x6 PUSH1 0x20 MSTORE DUP1 PUSH0 MSTORE PUSH1 0x40 PUSH0 KECCAK256 PUSH0 SWAP2 POP SWAP1 POP DUP1 PUSH0 ADD PUSH0 SWAP1 SLOAD SWAP1 PUSH2 0x100 EXP SWAP1 DIV PUSH1 0xFF AND SWAP1 DUP1 PUSH0 ADD PUSH1 0x1 SWAP1 SLOAD SWAP1 PUSH2 0x100 EXP SWAP1 DIV PUSH1 0xFF AND SWAP1 DUP1 PUSH1 0x1 ADD SLOAD SWAP1 POP DUP4 JUMP JUMPDEST PUSH1 0x4 SLOAD DUP2 JUMP JUMPDEST PUSH0 PUSH0 SWAP1 SLOAD SWAP1 PUSH2 0x100 EXP SWAP1 DIV PUSH20 0xFFFFFFFFFFFFFFFFFFFFFFFFFFFFFFFFFFFFFFFF AND PUSH20 0xFFFFFFFFFFFFFFFFFFFFFFFFFFFFFFFFFFFFFFFF AND CALLER PUSH20 0xFFFFFFFFFFFFFFFFFFFFFFFFFFFFFFFFFFFFFFFF AND EQ PUSH2 0xB8D JUMPI PUSH1 0x40 MLOAD PUSH32 0x8C379A000000000000000000000000000000000000000000000000000000000 DUP2 MSTORE PUSH1 0x4 ADD PUSH2 0xB84 SWAP1 PUSH2 0x1A8A JUMP JUMPDEST PUSH1 0x40 MLOAD DUP1 SWAP2 SUB SWAP1 REVERT JUMPDEST PUSH1 0x6 PUSH0 DUP3 PUSH20 0xFFFFFFFFFFFFFFFFFFFFFFFFFFFFFFFFFFFFFFFF AND PUSH20 0xFFFFFFFFFFFFFFFFFFFFFFFFFFFFFFFFFFFFFFFF AND DUP2 MSTORE PUSH1 0x20 ADD SWAP1 DUP2 MSTORE PUSH1 0x20 ADD PUSH0 KECCAK256 PUSH0 ADD PUSH1 0x1 SWAP1 SLOAD SWAP1 PUSH2 0x100 EXP SWAP1 DIV PUSH1 0xFF AND ISZERO PUSH2 0xC1A JUMPI PUSH1 0x40 MLOAD PUSH32 0x8C379A000000000000000000000000000000000000000000000000000000000 DUP2 MSTORE PUSH1 0x4 ADD PUSH2 0xC11 SWAP1 PUSH2 0x1DEF JUMP JUMPDEST PUSH1 0x40 MLOAD DUP1 SWAP2 SUB SWAP1 REVERT JUMPDEST PUSH1 0x1 PUSH1 0x6 PUSH0 DUP4 PUSH20 0xFFFFFFFFFFFFFFFFFFFFFFFFFFFFFFFFFFFFFFFF AND PUSH20 0xFFFFFFFFFFFFFFFFFFFFFFFFFFFFFFFFFFFFFFFF AND DUP2 MSTORE PUSH1 0x20 ADD SWAP1 DUP2 MSTORE PUSH1 0x20 ADD PUSH0 KECCAK256 PUSH0 ADD PUSH0 PUSH2 0x100 EXP DUP2 SLOAD DUP2 PUSH1 0xFF MUL NOT AND SWAP1 DUP4 ISZERO ISZERO MUL OR SWAP1 SSTORE POP PUSH32 0xCA65A9F1F88BD7257AC852D1062853358F81CDC56F9634DCBEED6090F8DFB43 DUP2 PUSH1 0x40 MLOAD PUSH2 0xCA0 SWAP2 SWAP1 PUSH2 0x1677 JUMP JUMPDEST PUSH1 0x40 MLOAD DUP1 SWAP2 SUB SWAP1 LOG1 POP JUMP JUMPDEST PUSH1 0x60 PUSH0 PUSH0 SWAP1 SLOAD SWAP1 PUSH2 0x100 EXP SWAP1 DIV PUSH20 0xFFFFFFFFFFFFFFFFFFFFFFFFFFFFFFFFFFFFFFFF AND PUSH20 0xFFFFFFFFFFFFFFFFFFFFFFFFFFFFFFFFFFFFFFFF AND CALLER PUSH20 0xFFFFFFFFFFFFFFFFFFFFFFFFFFFFFFFFFFFFFFFF AND EQ PUSH2 0xD3B JUMPI PUSH1 0x40 MLOAD PUSH32 0x8C379A000000000000000000000000000000000000000000000000000000000 DUP2 MSTORE PUSH1 0x4 ADD PUSH2 0xD32 SWAP1 PUSH2 0x1A8A JUMP JUMPDEST PUSH1 0x40 MLOAD DUP1 SWAP2 SUB SWAP1 REVERT JUMPDEST PUSH1 0x3 SLOAD TIMESTAMP GT PUSH2 0xD7F JUMPI PUSH1 0x40 MLOAD PUSH32 0x8C379A000000000000000000000000000000000000000000000000000000000 DUP2 MSTORE PUSH1 0x4 ADD PUSH2 0xD76 SWAP1 PUSH2 0x1E57 JUMP JUMPDEST PUSH1 0x40 MLOAD DUP1 SWAP2 SUB SWAP1 REVERT JUMPDEST PUSH0 PUSH1 0x5 SLOAD SUB PUSH2 0xDC5 JUMPI PUSH1 0x40 MLOAD DUP1 PUSH1 0x40 ADD PUSH1 0x40 MSTORE DUP1 PUSH1 0xD DUP2 MSTORE PUSH1 0x20 ADD PUSH32 0x4E6F20766F746573206361737400000000000000000000000000000000000000 DUP2 MSTORE POP SWAP1 POP PUSH2 0xEFE JUMP JUMPDEST PUSH0 PUSH0 SWAP1 POP PUSH0 PUSH1 0x40 MLOAD DUP1 PUSH1 0x20 ADD PUSH1 0x40 MSTORE DUP1 PUSH0 DUP2 MSTORE POP SWAP1 POP PUSH0 PUSH1 0x1 SWAP1 POP JUMPDEST PUSH1 0x4 SLOAD DUP2 GT PUSH2 0xECE JUMPI DUP3 PUSH1 0x7 PUSH0 DUP4 DUP2 MSTORE PUSH1 0x20 ADD SWAP1 DUP2 MSTORE PUSH1 0x20 ADD PUSH0 KECCAK256 PUSH1 0x2 ADD SLOAD GT ISZERO PUSH2 0xEBB JUMPI PUSH1 0x7 PUSH0 DUP3 DUP2 MSTORE PUSH1 0x20 ADD SWAP1 DUP2 MSTORE PUSH1 0x20 ADD PUSH0 KECCAK256 PUSH1 0x2 ADD SLOAD SWAP3 POP PUSH1 0x7 PUSH0 DUP3 DUP2 MSTORE PUSH1 0x20 ADD SWAP1 DUP2 MSTORE PUSH1 0x20 ADD PUSH0 KECCAK256 PUSH1 0x1 ADD DUP1 SLOAD PUSH2 0xE3C SWAP1 PUSH2 0x19EA JUMP JUMPDEST DUP1 PUSH1 0x1F ADD PUSH1 0x20 DUP1 SWAP2 DIV MUL PUSH1 0x20 ADD PUSH1 0x40 MLOAD SWAP1 DUP2 ADD PUSH1 0x40 MSTORE DUP1 SWAP3 SWAP2 SWAP1 DUP2 DUP2 MSTORE PUSH1 0x20 ADD DUP3 DUP1 SLOAD PUSH2 0xE68 SWAP1 PUSH2 0x19EA JUMP JUMPDEST DUP1 ISZERO PUSH2 0xEB3 JUMPI DUP1 PUSH1 0x1F LT PUSH2 0xE8A JUMPI PUSH2 0x100 DUP1 DUP4 SLOAD DIV MUL DUP4 MSTORE SWAP2 PUSH1 0x20 ADD SWAP2 PUSH2 0xEB3 JUMP JUMPDEST DUP3 ADD SWAP2 SWAP1 PUSH0 MSTORE PUSH1 0x20 PUSH0 KECCAK256 SWAP1 JUMPDEST DUP2 SLOAD DUP2 MSTORE SWAP1 PUSH1 0x1 ADD SWAP1 PUSH1 0x20 ADD DUP1 DUP4 GT PUSH2 0xE96 JUMPI DUP3 SWAP1 SUB PUSH1 0x1F AND DUP3 ADD SWAP2 JUMPDEST POP POP POP POP POP SWAP2 POP JUMPDEST DUP1 DUP1 PUSH2 0xEC6 SWAP1 PUSH2 0x194F JUMP JUMPDEST SWAP2 POP POP PUSH2 0xDE1 JUMP JUMPDEST POP DUP1 PUSH2 0xED9 DUP4 PUSH2 0x10AC JUMP JUMPDEST PUSH1 0x40 MLOAD PUSH1 0x20 ADD PUSH2 0xEEA SWAP3 SWAP2 SWAP1 PUSH2 0x1F43 JUMP JUMPDEST PUSH1 0x40 MLOAD PUSH1 0x20 DUP2 DUP4 SUB SUB DUP2 MSTORE SWAP1 PUSH1 0x40 MSTORE SWAP3 POP POP POP JUMPDEST SWAP1 JUMP JUMPDEST PUSH0 PUSH0 SWAP1 SLOAD SWAP1 PUSH2 0x100 EXP SWAP1 DIV PUSH20 0xFFFFFFFFFFFFFFFFFFFFFFFFFFFFFFFFFFFFFFFF AND PUSH20 0xFFFFFFFFFFFFFFFFFFFFFFFFFFFFFFFFFFFFFFFF AND CALLER PUSH20 0xFFFFFFFFFFFFFFFFFFFFFFFFFFFFFFFFFFFFFFFF AND EQ PUSH2 0xF8F JUMPI PUSH1 0x40 MLOAD PUSH32 0x8C379A000000000000000000000000000000000000000000000000000000000 DUP2 MSTORE PUSH1 0x4 ADD PUSH2 0xF86 SWAP1 PUSH2 0x1A8A JUMP JUMPDEST PUSH1 0x40 MLOAD DUP1 SWAP2 SUB SWAP1 REVERT JUMPDEST PUSH1 0x6 PUSH0 DUP3 PUSH20 0xFFFFFFFFFFFFFFFFFFFFFFFFFFFFFFFFFFFFFFFF AND PUSH20 0xFFFFFFFFFFFFFFFFFFFFFFFFFFFFFFFFFFFFFFFF AND DUP2 MSTORE PUSH1 0x20 ADD SWAP1 DUP2 MSTORE PUSH1 0x20 ADD PUSH0 KECCAK256 PUSH0 ADD PUSH1 0x1 SWAP1 SLOAD SWAP1 PUSH2 0x100 EXP SWAP1 DIV PUSH1 0xFF AND ISZERO PUSH2 0x101C JUMPI PUSH1 0x40 MLOAD PUSH32 0x8C379A000000000000000000000000000000000000000000000000000000000 DUP2 MSTORE PUSH1 0x4 ADD PUSH2 0x1013 SWAP1 PUSH2 0x1FC6 JUMP JUMPDEST PUSH1 0x40 MLOAD DUP1 SWAP2 SUB SWAP1 REVERT JUMPDEST PUSH0 PUSH1 0x6 PUSH0 DUP4 PUSH20 0xFFFFFFFFFFFFFFFFFFFFFFFFFFFFFFFFFFFFFFFF AND PUSH20 0xFFFFFFFFFFFFFFFFFFFFFFFFFFFFFFFFFFFFFFFF AND DUP2 MSTORE PUSH1 0x20 ADD SWAP1 DUP2 MSTORE PUSH1 0x20 ADD PUSH0 KECCAK256 PUSH0 ADD PUSH0 PUSH2 0x100 EXP DUP2 SLOAD DUP2 PUSH1 0xFF MUL NOT AND SWAP1 DUP4 ISZERO ISZERO MUL OR SWAP1 SSTORE POP PUSH32 0xFF4A9A6864608D4E5A0CDAA278ED76BDE0C55AA397FA160990622B6D3DF2037B DUP2 PUSH1 0x40 MLOAD PUSH2 0x10A1 SWAP2 SWAP1 PUSH2 0x1677 JUMP JUMPDEST PUSH1 0x40 MLOAD DUP1 SWAP2 SUB SWAP1 LOG1 POP JUMP JUMPDEST PUSH1 0x60 PUSH0 DUP3 SUB PUSH2 0x10F2 JUMPI PUSH1 0x40 MLOAD DUP1 PUSH1 0x40 ADD PUSH1 0x40 MSTORE DUP1 PUSH1 0x1 DUP2 MSTORE PUSH1 0x20 ADD PUSH32 0x3000000000000000000000000000000000000000000000000000000000000000 DUP2 MSTORE POP SWAP1 POP PUSH2 0x1225 JUMP JUMPDEST PUSH0 DUP3 SWAP1 POP PUSH0 JUMPDEST PUSH0 DUP3 EQ PUSH2 0x1121 JUMPI DUP1 DUP1 PUSH2 0x110A SWAP1 PUSH2 0x194F JUMP JUMPDEST SWAP2 POP POP PUSH1 0xA DUP3 PUSH2 0x111A SWAP2 SWAP1 PUSH2 0x2011 JUMP JUMPDEST SWAP2 POP PUSH2 0x10F8 JUMP JUMPDEST PUSH0 DUP2 PUSH8 0xFFFFFFFFFFFFFFFF DUP2 GT ISZERO PUSH2 0x113C JUMPI PUSH2 0x113B PUSH2 0x13D6 JUMP JUMPDEST JUMPDEST PUSH1 0x40 MLOAD SWAP1 DUP1 DUP3 MSTORE DUP1 PUSH1 0x1F ADD PUSH1 0x1F NOT AND PUSH1 0x20 ADD DUP3 ADD PUSH1 0x40 MSTORE DUP1 ISZERO PUSH2 0x116E JUMPI DUP2 PUSH1 0x20 ADD PUSH1 0x1 DUP3 MUL DUP1 CALLDATASIZE DUP4 CALLDATACOPY DUP1 DUP3 ADD SWAP2 POP POP SWAP1 POP JUMPDEST POP SWAP1 POP PUSH0 DUP3 SWAP1 POP JUMPDEST PUSH0 DUP7 EQ PUSH2 0x121D JUMPI PUSH1 0x1 DUP2 PUSH2 0x118A SWAP2 SWAP1 PUSH2 0x1D45 JUMP JUMPDEST SWAP1 POP PUSH0 PUSH1 0xA DUP1 DUP9 PUSH2 0x119B SWAP2 SWAP1 PUSH2 0x2011 JUMP JUMPDEST PUSH2 0x11A5 SWAP2 SWAP1 PUSH2 0x2041 JUMP JUMPDEST DUP8 PUSH2 0x11B0 SWAP2 SWAP1 PUSH2 0x1D45 JUMP JUMPDEST PUSH1 0x30 PUSH2 0x11BC SWAP2 SWAP1 PUSH2 0x208E JUMP JUMPDEST SWAP1 POP PUSH0 DUP2 PUSH1 0xF8 SHL SWAP1 POP DUP1 DUP5 DUP5 DUP2 MLOAD DUP2 LT PUSH2 0x11D9 JUMPI PUSH2 0x11D8 PUSH2 0x1D78 JUMP JUMPDEST JUMPDEST PUSH1 0x20 ADD ADD SWAP1 PUSH31 0xFFFFFFFFFFFFFFFFFFFFFFFFFFFFFFFFFFFFFFFFFFFFFFFFFFFFFFFFFFFFFF NOT AND SWAP1 DUP2 PUSH0 BYTE SWAP1 MSTORE8 POP PUSH1 0xA DUP9 PUSH2 0x1214 SWAP2 SWAP1 PUSH2 0x2011 JUMP JUMPDEST SWAP8 POP POP POP PUSH2 0x1176 JUMP JUMPDEST DUP2 SWAP5 POP POP POP POP POP JUMPDEST SWAP2 SWAP1 POP JUMP JUMPDEST PUSH0 PUSH1 0x40 MLOAD SWAP1 POP SWAP1 JUMP JUMPDEST PUSH0 PUSH0 REVERT JUMPDEST PUSH0 PUSH0 REVERT JUMPDEST PUSH0 DUP2 SWAP1 POP SWAP2 SWAP1 POP JUMP JUMPDEST PUSH2 0x124D DUP2 PUSH2 0x123B JUMP JUMPDEST DUP2 EQ PUSH2 0x1257 JUMPI PUSH0 PUSH0 REVERT JUMPDEST POP JUMP JUMPDEST PUSH0 DUP2 CALLDATALOAD SWAP1 POP PUSH2 0x1268 DUP2 PUSH2 0x1244 JUMP JUMPDEST SWAP3 SWAP2 POP POP JUMP JUMPDEST PUSH0 PUSH1 0x20 DUP3 DUP5 SUB SLT ISZERO PUSH2 0x1283 JUMPI PUSH2 0x1282 PUSH2 0x1233 JUMP JUMPDEST JUMPDEST PUSH0 PUSH2 0x1290 DUP5 DUP3 DUP6 ADD PUSH2 0x125A JUMP JUMPDEST SWAP2 POP POP SWAP3 SWAP2 POP POP JUMP JUMPDEST PUSH2 0x12A2 DUP2 PUSH2 0x123B JUMP JUMPDEST DUP3 MSTORE POP POP JUMP JUMPDEST PUSH0 PUSH1 0x20 DUP3 ADD SWAP1 POP PUSH2 0x12BB PUSH0 DUP4 ADD DUP5 PUSH2 0x1299 JUMP JUMPDEST SWAP3 SWAP2 POP POP JUMP JUMPDEST PUSH0 DUP2 ISZERO ISZERO SWAP1 POP SWAP2 SWAP1 POP JUMP JUMPDEST PUSH2 0x12D5 DUP2 PUSH2 0x12C1 JUMP JUMPDEST DUP3 MSTORE POP POP JUMP JUMPDEST PUSH0 PUSH1 0x20 DUP3 ADD SWAP1 POP PUSH2 0x12EE PUSH0 DUP4 ADD DUP5 PUSH2 0x12CC JUMP JUMPDEST SWAP3 SWAP2 POP POP JUMP JUMPDEST PUSH0 DUP2 MLOAD SWAP1 POP SWAP2 SWAP1 POP JUMP JUMPDEST PUSH0 DUP3 DUP3 MSTORE PUSH1 0x20 DUP3 ADD SWAP1 POP SWAP3 SWAP2 POP POP JUMP JUMPDEST DUP3 DUP2 DUP4 MCOPY PUSH0 DUP4 DUP4 ADD MSTORE POP POP POP JUMP JUMPDEST PUSH0 PUSH1 0x1F NOT PUSH1 0x1F DUP4 ADD AND SWAP1 POP SWAP2 SWAP1 POP JUMP JUMPDEST PUSH0 PUSH2 0x1336 DUP3 PUSH2 0x12F4 JUMP JUMPDEST PUSH2 0x1340 DUP2 DUP6 PUSH2 0x12FE JUMP JUMPDEST SWAP4 POP PUSH2 0x1350 DUP2 DUP6 PUSH1 0x20 DUP7 ADD PUSH2 0x130E JUMP JUMPDEST PUSH2 0x1359 DUP2 PUSH2 0x131C JUMP JUMPDEST DUP5 ADD SWAP2 POP POP SWAP3 SWAP2 POP POP JUMP JUMPDEST PUSH0 PUSH1 0x60 DUP3 ADD SWAP1 POP PUSH2 0x1377 PUSH0 DUP4 ADD DUP7 PUSH2 0x1299 JUMP JUMPDEST DUP2 DUP2 SUB PUSH1 0x20 DUP4 ADD MSTORE PUSH2 0x1389 DUP2 DUP6 PUSH2 0x132C JUMP JUMPDEST SWAP1 POP PUSH2 0x1398 PUSH1 0x40 DUP4 ADD DUP5 PUSH2 0x1299 JUMP JUMPDEST SWAP5 SWAP4 POP POP POP POP JUMP JUMPDEST PUSH0 PUSH1 0x40 DUP3 ADD SWAP1 POP DUP2 DUP2 SUB PUSH0 DUP4 ADD MSTORE PUSH2 0x13B8 DUP2 DUP6 PUSH2 0x132C JUMP JUMPDEST SWAP1 POP PUSH2 0x13C7 PUSH1 0x20 DUP4 ADD DUP5 PUSH2 0x1299 JUMP JUMPDEST SWAP4 SWAP3 POP POP POP JUMP JUMPDEST PUSH0 PUSH0 REVERT JUMPDEST PUSH0 PUSH0 REVERT JUMPDEST PUSH32 0x4E487B7100000000000000000000000000000000000000000000000000000000 PUSH0 MSTORE PUSH1 0x41 PUSH1 0x4 MSTORE PUSH1 0x24 PUSH0 REVERT JUMPDEST PUSH2 0x140C DUP3 PUSH2 0x131C JUMP JUMPDEST DUP2 ADD DUP2 DUP2 LT PUSH8 0xFFFFFFFFFFFFFFFF DUP3 GT OR ISZERO PUSH2 0x142B JUMPI PUSH2 0x142A PUSH2 0x13D6 JUMP JUMPDEST JUMPDEST DUP1 PUSH1 0x40 MSTORE POP POP POP JUMP JUMPDEST PUSH0 PUSH2 0x143D PUSH2 0x122A JUMP JUMPDEST SWAP1 POP PUSH2 0x1449 DUP3 DUP3 PUSH2 0x1403 JUMP JUMPDEST SWAP2 SWAP1 POP JUMP JUMPDEST PUSH0 PUSH8 0xFFFFFFFFFFFFFFFF DUP3 GT ISZERO PUSH2 0x1468 JUMPI PUSH2 0x1467 PUSH2 0x13D6 JUMP JUMPDEST JUMPDEST PUSH2 0x1471 DUP3 PUSH2 0x131C JUMP JUMPDEST SWAP1 POP PUSH1 0x20 DUP2 ADD SWAP1 POP SWAP2 SWAP1 POP JUMP JUMPDEST DUP3 DUP2 DUP4 CALLDATACOPY PUSH0 DUP4 DUP4 ADD MSTORE POP POP POP JUMP JUMPDEST PUSH0 PUSH2 0x149E PUSH2 0x1499 DUP5 PUSH2 0x144E JUMP JUMPDEST PUSH2 0x1434 JUMP JUMPDEST SWAP1 POP DUP3 DUP2 MSTORE PUSH1 0x20 DUP2 ADD DUP5 DUP5 DUP5 ADD GT ISZERO PUSH2 0x14BA JUMPI PUSH2 0x14B9 PUSH2 0x13D2 JUMP JUMPDEST JUMPDEST PUSH2 0x14C5 DUP5 DUP3 DUP6 PUSH2 0x147E JUMP JUMPDEST POP SWAP4 SWAP3 POP POP POP JUMP JUMPDEST PUSH0 DUP3 PUSH1 0x1F DUP4 ADD SLT PUSH2 0x14E1 JUMPI PUSH2 0x14E0 PUSH2 0x13CE JUMP JUMPDEST JUMPDEST DUP2 CALLDATALOAD PUSH2 0x14F1 DUP5 DUP3 PUSH1 0x20 DUP7 ADD PUSH2 0x148C JUMP JUMPDEST SWAP2 POP POP SWAP3 SWAP2 POP POP JUMP JUMPDEST PUSH0 PUSH1 0x20 DUP3 DUP5 SUB SLT ISZERO PUSH2 0x150F JUMPI PUSH2 0x150E PUSH2 0x1233 JUMP JUMPDEST JUMPDEST PUSH0 DUP3 ADD CALLDATALOAD PUSH8 0xFFFFFFFFFFFFFFFF DUP2 GT ISZERO PUSH2 0x152C JUMPI PUSH2 0x152B PUSH2 0x1237 JUMP JUMPDEST JUMPDEST PUSH2 0x1538 DUP5 DUP3 DUP6 ADD PUSH2 0x14CD JUMP JUMPDEST SWAP2 POP POP SWAP3 SWAP2 POP POP JUMP JUMPDEST PUSH0 DUP2 MLOAD SWAP1 POP SWAP2 SWAP1 POP JUMP JUMPDEST PUSH0 DUP3 DUP3 MSTORE PUSH1 0x20 DUP3 ADD SWAP1 POP SWAP3 SWAP2 POP POP JUMP JUMPDEST PUSH0 DUP2 SWAP1 POP PUSH1 0x20 DUP3 ADD SWAP1 POP SWAP2 SWAP1 POP JUMP JUMPDEST PUSH2 0x1573 DUP2 PUSH2 0x123B JUMP JUMPDEST DUP3 MSTORE POP POP JUMP JUMPDEST PUSH0 PUSH2 0x1584 DUP4 DUP4 PUSH2 0x156A JUMP JUMPDEST PUSH1 0x20 DUP4 ADD SWAP1 POP SWAP3 SWAP2 POP POP JUMP JUMPDEST PUSH0 PUSH1 0x20 DUP3 ADD SWAP1 POP SWAP2 SWAP1 POP JUMP JUMPDEST PUSH0 PUSH2 0x15A6 DUP3 PUSH2 0x1541 JUMP JUMPDEST PUSH2 0x15B0 DUP2 DUP6 PUSH2 0x154B JUMP JUMPDEST SWAP4 POP PUSH2 0x15BB DUP4 PUSH2 0x155B JUMP JUMPDEST DUP1 PUSH0 JUMPDEST DUP4 DUP2 LT ISZERO PUSH2 0x15EB JUMPI DUP2 MLOAD PUSH2 0x15D2 DUP9 DUP3 PUSH2 0x1579 JUMP JUMPDEST SWAP8 POP PUSH2 0x15DD DUP4 PUSH2 0x1590 JUMP JUMPDEST SWAP3 POP POP PUSH1 0x1 DUP2 ADD SWAP1 POP PUSH2 0x15BE JUMP JUMPDEST POP DUP6 SWAP4 POP POP POP POP SWAP3 SWAP2 POP POP JUMP JUMPDEST PUSH0 PUSH1 0x20 DUP3 ADD SWAP1 POP DUP2 DUP2 SUB PUSH0 DUP4 ADD MSTORE PUSH2 0x1610 DUP2 DUP5 PUSH2 0x159C JUMP JUMPDEST SWAP1 POP SWAP3 SWAP2 POP POP JUMP JUMPDEST PUSH0 PUSH1 0x20 DUP3 ADD SWAP1 POP DUP2 DUP2 SUB PUSH0 DUP4 ADD MSTORE PUSH2 0x1630 DUP2 DUP5 PUSH2 0x132C JUMP JUMPDEST SWAP1 POP SWAP3 SWAP2 POP POP JUMP JUMPDEST PUSH0 PUSH20 0xFFFFFFFFFFFFFFFFFFFFFFFFFFFFFFFFFFFFFFFF DUP3 AND SWAP1 POP SWAP2 SWAP1 POP JUMP JUMPDEST PUSH0 PUSH2 0x1661 DUP3 PUSH2 0x1638 JUMP JUMPDEST SWAP1 POP SWAP2 SWAP1 POP JUMP JUMPDEST PUSH2 0x1671 DUP2 PUSH2 0x1657 JUMP JUMPDEST DUP3 MSTORE POP POP JUMP JUMPDEST PUSH0 PUSH1 0x20 DUP3 ADD SWAP1 POP PUSH2 0x168A PUSH0 DUP4 ADD DUP5 PUSH2 0x1668 JUMP JUMPDEST SWAP3 SWAP2 POP POP JUMP JUMPDEST PUSH2 0x1699 DUP2 PUSH2 0x1657 JUMP JUMPDEST DUP2 EQ PUSH2 0x16A3 JUMPI PUSH0 PUSH0 REVERT JUMPDEST POP JUMP JUMPDEST PUSH0 DUP2 CALLDATALOAD SWAP1 POP PUSH2 0x16B4 DUP2 PUSH2 0x1690 JUMP JUMPDEST SWAP3 SWAP2 POP POP JUMP JUMPDEST PUSH0 PUSH1 0x20 DUP3 DUP5 SUB SLT ISZERO PUSH2 0x16CF JUMPI PUSH2 0x16CE PUSH2 0x1233 JUMP JUMPDEST JUMPDEST PUSH0 PUSH2 0x16DC DUP5 DUP3 DUP6 ADD PUSH2 0x16A6 JUMP JUMPDEST SWAP2 POP POP SWAP3 SWAP2 POP POP JUMP JUMPDEST PUSH0 PUSH1 0x60 DUP3 ADD SWAP1 POP PUSH2 0x16F8 PUSH0 DUP4 ADD DUP7 PUSH2 0x12CC JUMP JUMPDEST PUSH2 0x1705 PUSH1 0x20 DUP4 ADD DUP6 PUSH2 0x12CC JUMP JUMPDEST PUSH2 0x1712 PUSH1 0x40 DUP4 ADD DUP5 PUSH2 0x1299 JUMP JUMPDEST SWAP5 SWAP4 POP POP POP POP JUMP JUMPDEST PUSH32 0x566F74696E6720686173206E6F74207374617274656420796574200000000000 PUSH0 DUP3 ADD MSTORE POP JUMP JUMPDEST PUSH0 PUSH2 0x174E PUSH1 0x1B DUP4 PUSH2 0x12FE JUMP JUMPDEST SWAP2 POP PUSH2 0x1759 DUP3 PUSH2 0x171A JUMP JUMPDEST PUSH1 0x20 DUP3 ADD SWAP1 POP SWAP2 SWAP1 POP JUMP JUMPDEST PUSH0 PUSH1 0x20 DUP3 ADD SWAP1 POP DUP2 DUP2 SUB PUSH0 DUP4 ADD MSTORE PUSH2 0x177B DUP2 PUSH2 0x1742 JUMP JUMPDEST SWAP1 POP SWAP2 SWAP1 POP JUMP JUMPDEST PUSH32 0x566F74696E672068617320656E64656400000000000000000000000000000000 PUSH0 DUP3 ADD MSTORE POP JUMP JUMPDEST PUSH0 PUSH2 0x17B6 PUSH1 0x10 DUP4 PUSH2 0x12FE JUMP JUMPDEST SWAP2 POP PUSH2 0x17C1 DUP3 PUSH2 0x1782 JUMP JUMPDEST PUSH1 0x20 DUP3 ADD SWAP1 POP SWAP2 SWAP1 POP JUMP JUMPDEST PUSH0 PUSH1 0x20 DUP3 ADD SWAP1 POP DUP2 DUP2 SUB PUSH0 DUP4 ADD MSTORE PUSH2 0x17E3 DUP2 PUSH2 0x17AA JUMP JUMPDEST SWAP1 POP SWAP2 SWAP1 POP JUMP JUMPDEST PUSH32 0x4E6F7420617574686F72697A656420746F20766F746500000000000000000000 PUSH0 DUP3 ADD MSTORE POP JUMP JUMPDEST PUSH0 PUSH2 0x181E PUSH1 0x16 DUP4 PUSH2 0x12FE JUMP JUMPDEST SWAP2 POP PUSH2 0x1829 DUP3 PUSH2 0x17EA JUMP JUMPDEST PUSH1 0x20 DUP3 ADD SWAP1 POP SWAP2 SWAP1 POP JUMP JUMPDEST PUSH0 PUSH1 0x20 DUP3 ADD SWAP1 POP DUP2 DUP2 SUB PUSH0 DUP4 ADD MSTORE PUSH2 0x184B DUP2 PUSH2 0x1812 JUMP JUMPDEST SWAP1 POP SWAP2 SWAP1 POP JUMP JUMPDEST PUSH32 0x416C726561647920766F74656400000000000000000000000000000000000000 PUSH0 DUP3 ADD MSTORE POP JUMP JUMPDEST PUSH0 PUSH2 0x1886 PUSH1 0xD DUP4 PUSH2 0x12FE JUMP JUMPDEST SWAP2 POP PUSH2 0x1891 DUP3 PUSH2 0x1852 JUMP JUMPDEST PUSH1 0x20 DUP3 ADD SWAP1 POP SWAP2 SWAP1 POP JUMP JUMPDEST PUSH0 PUSH1 0x20 DUP3 ADD SWAP1 POP DUP2 DUP2 SUB PUSH0 DUP4 ADD MSTORE PUSH2 0x18B3 DUP2 PUSH2 0x187A JUMP JUMPDEST SWAP1 POP SWAP2 SWAP1 POP JUMP JUMPDEST PUSH32 0x496E76616C69642063616E646964617465204944000000000000000000000000 PUSH0 DUP3 ADD MSTORE POP JUMP JUMPDEST PUSH0 PUSH2 0x18EE PUSH1 0x14 DUP4 PUSH2 0x12FE JUMP JUMPDEST SWAP2 POP PUSH2 0x18F9 DUP3 PUSH2 0x18BA JUMP JUMPDEST PUSH1 0x20 DUP3 ADD SWAP1 POP SWAP2 SWAP1 POP JUMP JUMPDEST PUSH0 PUSH1 0x20 DUP3 ADD SWAP1 POP DUP2 DUP2 SUB PUSH0 DUP4 ADD MSTORE PUSH2 0x191B DUP2 PUSH2 0x18E2 JUMP JUMPDEST SWAP1 POP SWAP2 SWAP1 POP JUMP JUMPDEST PUSH32 0x4E487B7100000000000000000000000000000000000000000000000000000000 PUSH0 MSTORE PUSH1 0x11 PUSH1 0x4 MSTORE PUSH1 0x24 PUSH0 REVERT JUMPDEST PUSH0 PUSH2 0x1959 DUP3 PUSH2 0x123B JUMP JUMPDEST SWAP2 POP PUSH32 0xFFFFFFFFFFFFFFFFFFFFFFFFFFFFFFFFFFFFFFFFFFFFFFFFFFFFFFFFFFFFFFFF DUP3 SUB PUSH2 0x198B JUMPI PUSH2 0x198A PUSH2 0x1922 JUMP JUMPDEST JUMPDEST PUSH1 0x1 DUP3 ADD SWAP1 POP SWAP2 SWAP1 POP JUMP JUMPDEST PUSH0 PUSH1 0x40 DUP3 ADD SWAP1 POP PUSH2 0x19A9 PUSH0 DUP4 ADD DUP6 PUSH2 0x1668 JUMP JUMPDEST PUSH2 0x19B6 PUSH1 0x20 DUP4 ADD DUP5 PUSH2 0x1299 JUMP JUMPDEST SWAP4 SWAP3 POP POP POP JUMP JUMPDEST PUSH32 0x4E487B7100000000000000000000000000000000000000000000000000000000 PUSH0 MSTORE PUSH1 0x22 PUSH1 0x4 MSTORE PUSH1 0x24 PUSH0 REVERT JUMPDEST PUSH0 PUSH1 0x2 DUP3 DIV SWAP1 POP PUSH1 0x1 DUP3 AND DUP1 PUSH2 0x1A01 JUMPI PUSH1 0x7F DUP3 AND SWAP2 POP JUMPDEST PUSH1 0x20 DUP3 LT DUP2 SUB PUSH2 0x1A14 JUMPI PUSH2 0x1A13 PUSH2 0x19BD JUMP JUMPDEST JUMPDEST POP SWAP2 SWAP1 POP JUMP JUMPDEST PUSH32 0x4F6E6C79206F776E65722063616E2063616C6C20746869732066756E6374696F PUSH0 DUP3 ADD MSTORE PUSH32 0x6E00000000000000000000000000000000000000000000000000000000000000 PUSH1 0x20 DUP3 ADD MSTORE POP JUMP JUMPDEST PUSH0 PUSH2 0x1A74 PUSH1 0x21 DUP4 PUSH2 0x12FE JUMP JUMPDEST SWAP2 POP PUSH2 0x1A7F DUP3 PUSH2 0x1A1A JUMP JUMPDEST PUSH1 0x40 DUP3 ADD SWAP1 POP SWAP2 SWAP1 POP JUMP JUMPDEST PUSH0 PUSH1 0x20 DUP3 ADD SWAP1 POP DUP2 DUP2 SUB PUSH0 DUP4 ADD MSTORE PUSH2 0x1AA1 DUP2 PUSH2 0x1A68 JUMP JUMPDEST SWAP1 POP SWAP2 SWAP1 POP JUMP JUMPDEST PUSH0 DUP2 SWAP1 POP DUP2 PUSH0 MSTORE PUSH1 0x20 PUSH0 KECCAK256 SWAP1 POP SWAP2 SWAP1 POP JUMP JUMPDEST PUSH0 PUSH1 0x20 PUSH1 0x1F DUP4 ADD DIV SWAP1 POP SWAP2 SWAP1 POP JUMP JUMPDEST PUSH0 DUP3 DUP3 SHL SWAP1 POP SWAP3 SWAP2 POP POP JUMP JUMPDEST PUSH0 PUSH1 0x8 DUP4 MUL PUSH2 0x1B04 PUSH32 0xFFFFFFFFFFFFFFFFFFFFFFFFFFFFFFFFFFFFFFFFFFFFFFFFFFFFFFFFFFFFFFFF DUP3 PUSH2 0x1AC9 JUMP JUMPDEST PUSH2 0x1B0E DUP7 DUP4 PUSH2 0x1AC9 JUMP JUMPDEST SWAP6 POP DUP1 NOT DUP5 AND SWAP4 POP DUP1 DUP7 AND DUP5 OR SWAP3 POP POP POP SWAP4 SWAP3 POP POP POP JUMP JUMPDEST PUSH0 DUP2 SWAP1 POP SWAP2 SWAP1 POP JUMP JUMPDEST PUSH0 PUSH2 0x1B49 PUSH2 0x1B44 PUSH2 0x1B3F DUP5 PUSH2 0x123B JUMP JUMPDEST PUSH2 0x1B26 JUMP JUMPDEST PUSH2 0x123B JUMP JUMPDEST SWAP1 POP SWAP2 SWAP1 POP JUMP JUMPDEST PUSH0 DUP2 SWAP1 POP SWAP2 SWAP1 POP JUMP JUMPDEST PUSH2 0x1B62 DUP4 PUSH2 0x1B2F JUMP JUMPDEST PUSH2 0x1B76 PUSH2 0x1B6E DUP3 PUSH2 0x1B50 JUMP JUMPDEST DUP5 DUP5 SLOAD PUSH2 0x1AD5 JUMP JUMPDEST DUP3 SSTORE POP POP POP POP JUMP JUMPDEST PUSH0 PUSH0 SWAP1 POP SWAP1 JUMP JUMPDEST PUSH2 0x1B8D PUSH2 0x1B7E JUMP JUMPDEST PUSH2 0x1B98 DUP2 DUP5 DUP5 PUSH2 0x1B59 JUMP JUMPDEST POP POP POP JUMP JUMPDEST JUMPDEST DUP2 DUP2 LT ISZERO PUSH2 0x1BBB JUMPI PUSH2 0x1BB0 PUSH0 DUP3 PUSH2 0x1B85 JUMP JUMPDEST PUSH1 0x1 DUP2 ADD SWAP1 POP PUSH2 0x1B9E JUMP JUMPDEST POP POP JUMP JUMPDEST PUSH1 0x1F DUP3 GT ISZERO PUSH2 0x1C00 JUMPI PUSH2 0x1BD1 DUP2 PUSH2 0x1AA8 JUMP JUMPDEST PUSH2 0x1BDA DUP5 PUSH2 0x1ABA JUMP JUMPDEST DUP2 ADD PUSH1 0x20 DUP6 LT ISZERO PUSH2 0x1BE9 JUMPI DUP2 SWAP1 POP JUMPDEST PUSH2 0x1BFD PUSH2 0x1BF5 DUP6 PUSH2 0x1ABA JUMP JUMPDEST DUP4 ADD DUP3 PUSH2 0x1B9D JUMP JUMPDEST POP POP JUMPDEST POP POP POP JUMP JUMPDEST PUSH0 DUP3 DUP3 SHR SWAP1 POP SWAP3 SWAP2 POP POP JUMP JUMPDEST PUSH0 PUSH2 0x1C20 PUSH0 NOT DUP5 PUSH1 0x8 MUL PUSH2 0x1C05 JUMP JUMPDEST NOT DUP1 DUP4 AND SWAP2 POP POP SWAP3 SWAP2 POP POP JUMP JUMPDEST PUSH0 PUSH2 0x1C38 DUP4 DUP4 PUSH2 0x1C11 JUMP JUMPDEST SWAP2 POP DUP3 PUSH1 0x2 MUL DUP3 OR SWAP1 POP SWAP3 SWAP2 POP POP JUMP JUMPDEST PUSH2 0x1C51 DUP3 PUSH2 0x12F4 JUMP JUMPDEST PUSH8 0xFFFFFFFFFFFFFFFF DUP2 GT ISZERO PUSH2 0x1C6A JUMPI PUSH2 0x1C69 PUSH2 0x13D6 JUMP JUMPDEST JUMPDEST PUSH2 0x1C74 DUP3 SLOAD PUSH2 0x19EA JUMP JUMPDEST PUSH2 0x1C7F DUP3 DUP3 DUP6 PUSH2 0x1BBF JUMP JUMPDEST PUSH0 PUSH1 0x20 SWAP1 POP PUSH1 0x1F DUP4 GT PUSH1 0x1 DUP2 EQ PUSH2 0x1CB0 JUMPI PUSH0 DUP5 ISZERO PUSH2 0x1C9E JUMPI DUP3 DUP8 ADD MLOAD SWAP1 POP JUMPDEST PUSH2 0x1CA8 DUP6 DUP3 PUSH2 0x1C2D JUMP JUMPDEST DUP7 SSTORE POP PUSH2 0x1D0F JUMP JUMPDEST PUSH1 0x1F NOT DUP5 AND PUSH2 0x1CBE DUP7 PUSH2 0x1AA8 JUMP JUMPDEST PUSH0 JUMPDEST DUP3 DUP2 LT ISZERO PUSH2 0x1CE5 JUMPI DUP5 DUP10 ADD MLOAD DUP3 SSTORE PUSH1 0x1 DUP3 ADD SWAP2 POP PUSH1 0x20 DUP6 ADD SWAP5 POP PUSH1 0x20 DUP2 ADD SWAP1 POP PUSH2 0x1CC0 JUMP JUMPDEST DUP7 DUP4 LT ISZERO PUSH2 0x1D02 JUMPI DUP5 DUP10 ADD MLOAD PUSH2 0x1CFE PUSH1 0x1F DUP10 AND DUP3 PUSH2 0x1C11 JUMP JUMPDEST DUP4 SSTORE POP JUMPDEST PUSH1 0x1 PUSH1 0x2 DUP9 MUL ADD DUP9 SSTORE POP POP POP JUMPDEST POP POP POP POP POP POP JUMP JUMPDEST PUSH0 PUSH1 0x40 DUP3 ADD SWAP1 POP PUSH2 0x1D2A PUSH0 DUP4 ADD DUP6 PUSH2 0x1299 JUMP JUMPDEST DUP2 DUP2 SUB PUSH1 0x20 DUP4 ADD MSTORE PUSH2 0x1D3C DUP2 DUP5 PUSH2 0x132C JUMP JUMPDEST SWAP1 POP SWAP4 SWAP3 POP POP POP JUMP JUMPDEST PUSH0 PUSH2 0x1D4F DUP3 PUSH2 0x123B JUMP JUMPDEST SWAP2 POP PUSH2 0x1D5A DUP4 PUSH2 0x123B JUMP JUMPDEST SWAP3 POP DUP3 DUP3 SUB SWAP1 POP DUP2 DUP2 GT ISZERO PUSH2 0x1D72 JUMPI PUSH2 0x1D71 PUSH2 0x1922 JUMP JUMPDEST JUMPDEST SWAP3 SWAP2 POP POP JUMP JUMPDEST PUSH32 0x4E487B7100000000000000000000000000000000000000000000000000000000 PUSH0 MSTORE PUSH1 0x32 PUSH1 0x4 MSTORE PUSH1 0x24 PUSH0 REVERT JUMPDEST PUSH32 0x506572736F6E2068617320616C726561647920766F7465640000000000000000 PUSH0 DUP3 ADD MSTORE POP JUMP JUMPDEST PUSH0 PUSH2 0x1DD9 PUSH1 0x18 DUP4 PUSH2 0x12FE JUMP JUMPDEST SWAP2 POP PUSH2 0x1DE4 DUP3 PUSH2 0x1DA5 JUMP JUMPDEST PUSH1 0x20 DUP3 ADD SWAP1 POP SWAP2 SWAP1 POP JUMP JUMPDEST PUSH0 PUSH1 0x20 DUP3 ADD SWAP1 POP DUP2 DUP2 SUB PUSH0 DUP4 ADD MSTORE PUSH2 0x1E06 DUP2 PUSH2 0x1DCD JUMP JUMPDEST SWAP1 POP SWAP2 SWAP1 POP JUMP JUMPDEST PUSH32 0x566F74696E6720706572696F6420686173206E6F7420656E6465642079657400 PUSH0 DUP3 ADD MSTORE POP JUMP JUMPDEST PUSH0 PUSH2 0x1E41 PUSH1 0x1F DUP4 PUSH2 0x12FE JUMP JUMPDEST SWAP2 POP PUSH2 0x1E4C DUP3 PUSH2 0x1E0D JUMP JUMPDEST PUSH1 0x20 DUP3 ADD SWAP1 POP SWAP2 SWAP1 POP JUMP JUMPDEST PUSH0 PUSH1 0x20 DUP3 ADD SWAP1 POP DUP2 DUP2 SUB PUSH0 DUP4 ADD MSTORE PUSH2 0x1E6E DUP2 PUSH2 0x1E35 JUMP JUMPDEST SWAP1 POP SWAP2 SWAP1 POP JUMP JUMPDEST PUSH0 DUP2 SWAP1 POP SWAP3 SWAP2 POP POP JUMP JUMPDEST PUSH32 0x57696E6E65723A20000000000000000000000000000000000000000000000000 PUSH0 DUP3 ADD MSTORE POP JUMP JUMPDEST PUSH0 PUSH2 0x1EB3 PUSH1 0x8 DUP4 PUSH2 0x1E75 JUMP JUMPDEST SWAP2 POP PUSH2 0x1EBE DUP3 PUSH2 0x1E7F JUMP JUMPDEST PUSH1 0x8 DUP3 ADD SWAP1 POP SWAP2 SWAP1 POP JUMP JUMPDEST PUSH0 PUSH2 0x1ED3 DUP3 PUSH2 0x12F4 JUMP JUMPDEST PUSH2 0x1EDD DUP2 DUP6 PUSH2 0x1E75 JUMP JUMPDEST SWAP4 POP PUSH2 0x1EED DUP2 DUP6 PUSH1 0x20 DUP7 ADD PUSH2 0x130E JUMP JUMPDEST DUP1 DUP5 ADD SWAP2 POP POP SWAP3 SWAP2 POP POP JUMP JUMPDEST PUSH32 0x2C20766F7465733A200000000000000000000000000000000000000000000000 PUSH0 DUP3 ADD MSTORE POP JUMP JUMPDEST PUSH0 PUSH2 0x1F2D PUSH1 0x9 DUP4 PUSH2 0x1E75 JUMP JUMPDEST SWAP2 POP PUSH2 0x1F38 DUP3 PUSH2 0x1EF9 JUMP JUMPDEST PUSH1 0x9 DUP3 ADD SWAP1 POP SWAP2 SWAP1 POP JUMP JUMPDEST PUSH0 PUSH2 0x1F4D DUP3 PUSH2 0x1EA7 JUMP JUMPDEST SWAP2 POP PUSH2 0x1F59 DUP3 DUP6 PUSH2 0x1EC9 JUMP JUMPDEST SWAP2 POP PUSH2 0x1F64 DUP3 PUSH2 0x1F21 JUMP JUMPDEST SWAP2 POP PUSH2 0x1F70 DUP3 DUP5 PUSH2 0x1EC9 JUMP JUMPDEST SWAP2 POP DUP2 SWAP1 POP SWAP4 SWAP3 POP POP POP JUMP JUMPDEST PUSH32 0x43616E6E6F7420756E617574686F72697A6520616674657220766F74696E6700 PUSH0 DUP3 ADD MSTORE POP JUMP JUMPDEST PUSH0 PUSH2 0x1FB0 PUSH1 0x1F DUP4 PUSH2 0x12FE JUMP JUMPDEST SWAP2 POP PUSH2 0x1FBB DUP3 PUSH2 0x1F7C JUMP JUMPDEST PUSH1 0x20 DUP3 ADD SWAP1 POP SWAP2 SWAP1 POP JUMP JUMPDEST PUSH0 PUSH1 0x20 DUP3 ADD SWAP1 POP DUP2 DUP2 SUB PUSH0 DUP4 ADD MSTORE PUSH2 0x1FDD DUP2 PUSH2 0x1FA4 JUMP JUMPDEST SWAP1 POP SWAP2 SWAP1 POP JUMP JUMPDEST PUSH32 0x4E487B7100000000000000000000000000000000000000000000000000000000 PUSH0 MSTORE PUSH1 0x12 PUSH1 0x4 MSTORE PUSH1 0x24 PUSH0 REVERT JUMPDEST PUSH0 PUSH2 0x201B DUP3 PUSH2 0x123B JUMP JUMPDEST SWAP2 POP PUSH2 0x2026 DUP4 PUSH2 0x123B JUMP JUMPDEST SWAP3 POP DUP3 PUSH2 0x2036 JUMPI PUSH2 0x2035 PUSH2 0x1FE4 JUMP JUMPDEST JUMPDEST DUP3 DUP3 DIV SWAP1 POP SWAP3 SWAP2 POP POP JUMP JUMPDEST PUSH0 PUSH2 0x204B DUP3 PUSH2 0x123B JUMP JUMPDEST SWAP2 POP PUSH2 0x2056 DUP4 PUSH2 0x123B JUMP JUMPDEST SWAP3 POP DUP3 DUP3 MUL PUSH2 0x2064 DUP2 PUSH2 0x123B JUMP JUMPDEST SWAP2 POP DUP3 DUP3 DIV DUP5 EQ DUP4 ISZERO OR PUSH2 0x207B JUMPI PUSH2 0x207A PUSH2 0x1922 JUMP JUMPDEST JUMPDEST POP SWAP3 SWAP2 POP POP JUMP JUMPDEST PUSH0 PUSH1 0xFF DUP3 AND SWAP1 POP SWAP2 SWAP1 POP JUMP JUMPDEST PUSH0 PUSH2 0x2098 DUP3 PUSH2 0x2082 JUMP JUMPDEST SWAP2 POP PUSH2 0x20A3 DUP4 PUSH2 0x2082 JUMP JUMPDEST SWAP3 POP DUP3 DUP3 ADD SWAP1 POP PUSH1 0xFF DUP2 GT ISZERO PUSH2 0x20BC JUMPI PUSH2 0x20BB PUSH2 0x1922 JUMP JUMPDEST JUMPDEST SWAP3 SWAP2 POP POP JUMP INVALID LOG2 PUSH5 0x6970667358 0x22 SLT KECCAK256 0xB7 PUSH2 0x52D4 SHL 0xD2 DUP10 SDIV POP 0xB2 0xA9 0xC2 PUSH28 0x720663F84C92BCA7E0D90E6D921291857A653664736F6C634300081E STOP CALLER "
				},
				"gasEstimates": {
					"creation": {
						"codeDepositCost": "1688000",
						"executionCost": "infinite",
						"totalCost": "infinite"
					},
					"external": {
						"addCandidate(string)": "infinite",
						"authorize(address)": "infinite",
						"candidateCount()": "2447",
						"candidates(uint256)": "infinite",
						"electionName()": "infinite",
						"end()": "infinite",
						"endTime()": "2515",
						"getCandidate(uint256)": "infinite",
						"getElectionStatus()": "2514",
						"getResults()": "infinite",
						"owner()": "2574",
						"startTime()": "2448",
						"totalVotes()": "2471",
						"unauthorize(address)": "infinite",
						"vote(uint256)": "infinite",
						"voters(address)": "infinite"
					},
					"internal": {
						"uint2str(uint256)": "infinite"
					}
				},
				"methodIdentifiers": {
					"addCandidate(string)": "462e91ec",
					"authorize(address)": "b6a5d7de",
					"candidateCount()": "a9a981a3",
					"candidates(uint256)": "3477ee2e",
					"electionName()": "85e8e7a7",
					"end()": "efbe1c1c",
					"endTime()": "3197cbb6",
					"getCandidate(uint256)": "35b8e820",
					"getElectionStatus()": "122902a6",
					"getResults()": "4717f97c",
					"owner()": "8da5cb5b",
					"startTime()": "78e97925",
					"totalVotes()": "0d15fd77",
					"unauthorize(address)": "f0b37c04",
					"vote(uint256)": "0121b93f",
					"voters(address)": "a3ec138d"
				}
			},
			"storageLayout": {
				"storage": [
					{
						"astId": 17,
						"contract": "election.sol:Voting",
						"label": "owner",
						"offset": 0,
						"slot": "0",
						"type": "t_address"
					},
					{
						"astId": 19,
						"contract": "election.sol:Voting",
						"label": "electionName",
						"offset": 0,
						"slot": "1",
						"type": "t_string_storage"
					},
					{
						"astId": 21,
						"contract": "election.sol:Voting",
						"label": "startTime",
						"offset": 0,
						"slot": "2",
						"type": "t_uint256"
					},
					{
						"astId": 23,
						"contract": "election.sol:Voting",
						"label": "endTime",
						"offset": 0,
						"slot": "3",
						"type": "t_uint256"
					},
					{
						"astId": 25,
						"contract": "election.sol:Voting",
						"label": "candidateCount",
						"offset": 0,
						"slot": "4",
						"type": "t_uint256"
					},
					{
						"astId": 27,
						"contract": "election.sol:Voting",
						"label": "totalVotes",
						"offset": 0,
						"slot": "5",
						"type": "t_uint256"
					},
					{
						"astId": 32,
						"contract": "election.sol:Voting",
						"label": "voters",
						"offset": 0,
						"slot": "6",
						"type": "t_mapping(t_address,t_struct(Voter)15_storage)"
					},
					{
						"astId": 37,
						"contract": "election.sol:Voting",
						"label": "candidates",
						"offset": 0,
						"slot": "7",
						"type": "t_mapping(t_uint256,t_struct(Candidate)8_storage)"
					}
				],
				"types": {
					"t_address": {
						"encoding": "inplace",
						"label": "address",
						"numberOfBytes": "20"
					},
					"t_bool": {
						"encoding": "inplace",
						"label": "bool",
						"numberOfBytes": "1"
					},
					"t_mapping(t_address,t_struct(Voter)15_storage)": {
						"encoding": "mapping",
						"key": "t_address",
						"label": "mapping(address => struct Voting.Voter)",
						"numberOfBytes": "32",
						"value": "t_struct(Voter)15_storage"
					},
					"t_mapping(t_uint256,t_struct(Candidate)8_storage)": {
						"encoding": "mapping",
						"key": "t_uint256",
						"label": "mapping(uint256 => struct Voting.Candidate)",
						"numberOfBytes": "32",
						"value": "t_struct(Candidate)8_storage"
					},
					"t_string_storage": {
						"encoding": "bytes",
						"label": "string",
						"numberOfBytes": "32"
					},
					"t_struct(Candidate)8_storage": {
						"encoding": "inplace",
						"label": "struct Voting.Candidate",
						"members": [
							{
								"astId": 3,
								"contract": "election.sol:Voting",
								"label": "id",
								"offset": 0,
								"slot": "0",
								"type": "t_uint256"
							},
							{
								"astId": 5,
								"contract": "election.sol:Voting",
								"label": "name",
								"offset": 0,
								"slot": "1",
								"type": "t_string_storage"
							},
							{
								"astId": 7,
								"contract": "election.sol:Voting",
								"label": "voteCount",
								"offset": 0,
								"slot": "2",
								"type": "t_uint256"
							}
						],
						"numberOfBytes": "96"
					},
					"t_struct(Voter)15_storage": {
						"encoding": "inplace",
						"label": "struct Voting.Voter",
						"members": [
							{
								"astId": 10,
								"contract": "election.sol:Voting",
								"label": "authorized",
								"offset": 0,
								"slot": "0",
								"type": "t_bool"
							},
							{
								"astId": 12,
								"contract": "election.sol:Voting",
								"label": "voted",
								"offset": 1,
								"slot": "0",
								"type": "t_bool"
							},
							{
								"astId": 14,
								"contract": "election.sol:Voting",
								"label": "vote",
								"offset": 0,
								"slot": "1",
								"type": "t_uint256"
							}
						],
						"numberOfBytes": "64"
					},
					"t_uint256": {
						"encoding": "inplace",
						"label": "uint256",
						"numberOfBytes": "32"
					}
				}
			},
			"userdoc": {
				"kind": "user",
				"methods": {},
				"version": 1
			}
		}
	}
}