{
  "_format": "hh-sol-artifact-1",
  "contractName": "Voting",
  "sourceName": "contracts/election.sol",
  "abi": [
    {
      "inputs": [
        {
          "internalType": "string",
          "name": "_name",
          "type": "string"
        },
        {
          "internalType": "uint256",
          "name": "_votingDuration",
          "type": "uint256"
        }
      ],
      "stateMutability": "nonpayable",
      "type": "constructor"
    },
    {
      "anonymous": false,
      "inputs": [
        {
          "indexed": false,
          "internalType": "uint256",
          "name": "candidateId",
          "type": "uint256"
        },
        {
          "indexed": false,
          "internalType": "string",
          "name": "name",
          "type": "string"
        }
      ],
      "name": "CandidateAdded",
      "type": "event"
    },
    {
      "anonymous": false,
      "inputs": [
        {
          "indexed": false,
          "internalType": "uint256",
          "name": "timestamp",
          "type": "uint256"
        }
      ],
      "name": "ElectionClosed",
      "type": "event"
    },
    {
      "anonymous": false,
      "inputs": [
        {
          "indexed": false,
          "internalType": "address",
          "name": "voter",
          "type": "address"
        },
        {
          "indexed": false,
          "internalType": "uint256",
          "name": "candidateId",
          "type": "uint256"
        }
      ],
      "name": "VoteCast",
      "type": "event"
    },
    {
      "anonymous": false,
      "inputs": [
        {
          "indexed": false,
          "internalType": "address",
          "name": "voter",
          "type": "address"
        }
      ],
      "name": "VoterAuthorized",
      "type": "event"
    },
    {
      "anonymous": false,
      "inputs": [
        {
          "indexed": false,
          "internalType": "address",
          "name": "voter",
          "type": "address"
        }
      ],
      "name": "VoterUnauthorized",
      "type": "event"
    },
    {
      "anonymous": false,
      "inputs": [
        {
          "indexed": false,
          "internalType": "string",
          "name": "winnerName",
          "type": "string"
        },
        {
          "indexed": false,
          "internalType": "uint256",
          "name": "winnerVotes",
          "type": "uint256"
        },
        {
          "indexed": false,
          "internalType": "uint256",
          "name": "totalVotes",
          "type": "uint256"
        },
        {
          "indexed": false,
          "internalType": "uint256",
          "name": "timestamp",
          "type": "uint256"
        }
      ],
      "name": "WinnerAnnounced",
      "type": "event"
    },
    {
      "inputs": [
        {
          "internalType": "string",
          "name": "_name",
          "type": "string"
        }
      ],
      "name": "addCandidate",
      "outputs": [],
      "stateMutability": "nonpayable",
      "type": "function"
    },
    {
      "inputs": [],
      "name": "announceWinner",
      "outputs": [
        {
          "internalType": "string",
          "name": "",
          "type": "string"
        }
      ],
      "stateMutability": "nonpayable",
      "type": "function"
    },
    {
      "inputs": [
        {
          "internalType": "address",
          "name": "_person",
          "type": "address"
        }
      ],
      "name": "authorize",
      "outputs": [],
      "stateMutability": "nonpayable",
      "type": "function"
    },
    {
      "inputs": [],
      "name": "candidateCount",
      "outputs": [
        {
          "internalType": "uint256",
          "name": "",
          "type": "uint256"
        }
      ],
      "stateMutability": "view",
      "type": "function"
    },
    {
      "inputs": [
        {
          "internalType": "uint256",
          "name": "",
          "type": "uint256"
        }
      ],
      "name": "candidates",
      "outputs": [
        {
          "internalType": "uint256",
          "name": "id",
          "type": "uint256"
        },
        {
          "internalType": "string",
          "name": "name",
          "type": "string"
        },
        {
          "internalType": "uint256",
          "name": "voteCount",
          "type": "uint256"
        }
      ],
      "stateMutability": "view",
      "type": "function"
    },
    {
      "inputs": [],
      "name": "closeElection",
      "outputs": [],
      "stateMutability": "nonpayable",
      "type": "function"
    },
    {
      "inputs": [],
      "name": "electionClosed",
      "outputs": [
        {
          "internalType": "bool",
          "name": "",
          "type": "bool"
        }
      ],
      "stateMutability": "view",
      "type": "function"
    },
    {
      "inputs": [],
      "name": "electionName",
      "outputs": [
        {
          "internalType": "string",
          "name": "",
          "type": "string"
        }
      ],
      "stateMutability": "view",
      "type": "function"
    },
    {
      "inputs": [],
      "name": "end",
      "outputs": [
        {
          "internalType": "string",
          "name": "",
          "type": "string"
        }
      ],
      "stateMutability": "view",
      "type": "function"
    },
    {
      "inputs": [],
      "name": "endTime",
      "outputs": [
        {
          "internalType": "uint256",
          "name": "",
          "type": "uint256"
        }
      ],
      "stateMutability": "view",
      "type": "function"
    },
    {
      "inputs": [],
      "name": "finalResult",
      "outputs": [
        {
          "internalType": "string",
          "name": "winnerName",
          "type": "string"
        },
        {
          "internalType": "uint256",
          "name": "winnerVotes",
          "type": "uint256"
        },
        {
          "internalType": "uint256",
          "name": "totalVotes",
          "type": "uint256"
        },
        {
          "internalType": "uint256",
          "name": "timestamp",
          "type": "uint256"
        },
        {
          "internalType": "bool",
          "name": "announced",
          "type": "bool"
        }
      ],
      "stateMutability": "view",
      "type": "function"
    },
    {
      "inputs": [
        {
          "internalType": "uint256",
          "name": "_candidateId",
          "type": "uint256"
        }
      ],
      "name": "getCandidate",
      "outputs": [
        {
          "internalType": "string",
          "name": "",
          "type": "string"
        },
        {
          "internalType": "uint256",
          "name": "",
          "type": "uint256"
        }
      ],
      "stateMutability": "view",
      "type": "function"
    },
    {
      "inputs": [],
      "name": "getDetailedResults",
      "outputs": [
        {
          "internalType": "string[]",
          "name": "candidateNames",
          "type": "string[]"
        },
        {
          "internalType": "uint256[]",
          "name": "voteCounts",
          "type": "uint256[]"
        },
        {
          "internalType": "string",
          "name": "winner",
          "type": "string"
        },
        {
          "internalType": "bool",
          "name": "isFinalized",
          "type": "bool"
        }
      ],
      "stateMutability": "view",
      "type": "function"
    },
    {
      "inputs": [],
      "name": "getElectionStatus",
      "outputs": [
        {
          "internalType": "bool",
          "name": "",
          "type": "bool"
        }
      ],
      "stateMutability": "view",
      "type": "function"
    },
    {
      "inputs": [],
      "name": "getResults",
      "outputs": [
        {
          "internalType": "uint256[]",
          "name": "",
          "type": "uint256[]"
        }
      ],
      "stateMutability": "view",
      "type": "function"
    },
    {
      "inputs": [],
      "name": "owner",
      "outputs": [
        {
          "internalType": "address",
          "name": "",
          "type": "address"
        }
      ],
      "stateMutability": "view",
      "type": "function"
    },
    {
      "inputs": [],
      "name": "startTime",
      "outputs": [
        {
          "internalType": "uint256",
          "name": "",
          "type": "uint256"
        }
      ],
      "stateMutability": "view",
      "type": "function"
    },
    {
      "inputs": [],
      "name": "totalVotes",
      "outputs": [
        {
          "internalType": "uint256",
          "name": "",
          "type": "uint256"
        }
      ],
      "stateMutability": "view",
      "type": "function"
    },
    {
      "inputs": [
        {
          "internalType": "address",
          "name": "_person",
          "type": "address"
        }
      ],
      "name": "unauthorize",
      "outputs": [],
      "stateMutability": "nonpayable",
      "type": "function"
    },
    {
      "inputs": [
        {
          "internalType": "uint256",
          "name": "_candidateId",
          "type": "uint256"
        }
      ],
      "name": "vote",
      "outputs": [],
      "stateMutability": "nonpayable",
      "type": "function"
    },
    {
      "inputs": [
        {
          "internalType": "address",
          "name": "",
          "type": "address"
        }
      ],
      "name": "voters",
      "outputs": [
        {
          "internalType": "bool",
          "name": "authorized",
          "type": "bool"
        },
        {
          "internalType": "bool",
          "name": "voted",
          "type": "bool"
        },
        {
          "internalType": "uint256",
          "name": "vote",
          "type": "uint256"
        }
      ],
      "stateMutability": "view",
      "type": "function"
    }
  ],
  "bytecode": "0x60806040523480156200001157600080fd5b5060405162001f1338038062001f13833981016040819052620000349162000093565b600080546001600160a01b031916331790556001620000548382620001fd565b5042600281905562000068908290620002c9565b60035550506004805460ff19169055620002f1565b634e487b7160e01b600052604160045260246000fd5b60008060408385031215620000a757600080fd5b82516001600160401b0380821115620000bf57600080fd5b818501915085601f830112620000d457600080fd5b815181811115620000e957620000e96200007d565b604051601f8201601f19908116603f011681019083821181831017156200011457620001146200007d565b816040528281526020935088848487010111156200013157600080fd5b600091505b8282101562000155578482018401518183018501529083019062000136565b6000928101840192909252509401519395939450505050565b600181811c908216806200018357607f821691505b602082108103620001a457634e487b7160e01b600052602260045260246000fd5b50919050565b601f821115620001f857600081815260208120601f850160051c81016020861015620001d35750805b601f850160051c820191505b81811015620001f457828155600101620001df565b5050505b505050565b81516001600160401b038111156200021957620002196200007d565b62000231816200022a84546200016e565b84620001aa565b602080601f831160018114620002695760008415620002505750858301515b600019600386901b1c1916600185901b178555620001f4565b600085815260208120601f198616915b828110156200029a5788860151825594840194600190910190840162000279565b5085821015620002b95787850151600019600388901b60f8161c191681555b5050505050600190811b01905550565b80820180821115620002eb57634e487b7160e01b600052601160045260246000fd5b92915050565b611c1280620003016000396000f3fe608060405234801561001057600080fd5b50600436106101375760003560e01c80636c6c32d0116100b8578063a9a981a31161007c578063a9a981a3146102b0578063b6a5d7de146102b9578063e2b6006e146102cc578063efbe1c1c146102e4578063f0b37c04146102ec578063f3a8286f146102ff57600080fd5b80636c6c32d01461021b57806378e979251461022357806385e8e7a71461022c5780638da5cb5b14610234578063a3ec138d1461025f57600080fd5b80633477ee2e116100ff5780633477ee2e146101a357806335b8e820146101c5578063462e91ec146101e65780634717f97c146101f95780634c901b991461020e57600080fd5b80630121b93f1461013c5780630d15fd7714610151578063122902a61461016d5780632d8cd096146101855780633197cbb61461019a575b600080fd5b61014f61014a36600461156f565b610318565b005b61015a600d5481565b6040519081526020015b60405180910390f35b61017561055a565b6040519015158152602001610164565b61018d610576565b60405161016491906115d8565b61015a60035481565b6101b66101b136600461156f565b610874565b604051610164939291906115f2565b6101d86101d336600461156f565b61091f565b60405161016492919061161b565b61014f6101f4366004611653565b610a53565b610201610b14565b604051610164919061173f565b6004546101759060ff1681565b61014f610bbc565b61015a60025481565b61018d610cd4565b600054610247906001600160a01b031681565b6040516001600160a01b039091168152602001610164565b61029361026d366004611752565b600a602052600090815260409020805460019091015460ff808316926101009004169083565b604080519315158452911515602084015290820152606001610164565b61015a600c5481565b61014f6102c7366004611752565b610d62565b6102d4610e4e565b604051610164949392919061177b565b61018d6110e3565b61014f6102fa366004611752565b6112ac565b610307611395565b604051610164959493929190611810565b60025442101561036f5760405162461bcd60e51b815260206004820152601a60248201527f566f74696e6720686173206e6f7420737461727465642079657400000000000060448201526064015b60405180910390fd5b6003544211158015610384575060045460ff16155b6103c35760405162461bcd60e51b815260206004820152601060248201526f159bdd1a5b99c81a185cc8195b99195960821b6044820152606401610366565b336000908152600a602052604090205460ff1661041b5760405162461bcd60e51b81526020600482015260166024820152754e6f7420617574686f72697a656420746f20766f746560501b6044820152606401610366565b336000908152600a6020526040902054610100900460ff16156104705760405162461bcd60e51b815260206004820152600d60248201526c105b1c9958591e481d9bdd1959609a1b6044820152606401610366565b6000811180156104825750600c548111155b6104c55760405162461bcd60e51b8152602060048201526014602482015273125b9d985b1a590818d85b991a59185d1948125160621b6044820152606401610366565b336000908152600a60209081526040808320805461ff001916610100178155600101849055838352600b90915281206002018054916105038361185f565b9091555050600d80549060006105188361185f565b909155505060408051338152602081018390527fa36cc2bebb74db33e9f88110a07ef56e1b31b24b4c4f51b54b1664266e29f45b91015b60405180910390a150565b60006003544211158015610571575060045460ff16155b905090565b6000546060906001600160a01b031633146105a35760405162461bcd60e51b815260040161036690611878565b6003544211806105b5575060045460ff165b6106015760405162461bcd60e51b815260206004820152601960248201527f456c656374696f6e206973207374696c6c206f6e676f696e67000000000000006044820152606401610366565b60095460ff16156106545760405162461bcd60e51b815260206004820152601860248201527f57696e6e657220616c726561647920616e6e6f756e63656400000000000000006044820152606401610366565b6000600d54116106965760405162461bcd60e51b815260206004820152600d60248201526c139bc81d9bdd195cc818d85cdd609a1b6044820152606401610366565b604080516020810190915260008082529060015b600c548111610786576000818152600b6020526040902060020154831015610774576000818152600b60205260409020600281015460019091018054919450906106f3906118b9565b80601f016020809104026020016040519081016040528092919081815260200182805461071f906118b9565b801561076c5780601f106107415761010080835404028352916020019161076c565b820191906000526020600020905b81548152906001019060200180831161074f57829003601f168201915b505050505091505b8061077e8161185f565b9150506106aa565b506040805160a08101825282815260208101849052600d5491810191909152426060820152600160808201526005806107bf848261193c565b50602082015160018201556040808301516002830155606083015160038301556080909201516004909101805460ff1916911515919091179055600d5490517fee03e894d531694970055d59446b0d72f846db82d4d20968bc61c11b8090ff7a9161082f918491869142906119fc565b60405180910390a18061084183611443565b61084c600d54611443565b60405160200161085e93929190611a2b565b6040516020818303038152906040529250505090565b600b6020526000908152604090208054600182018054919291610896906118b9565b80601f01602080910402602001604051908101604052809291908181526020018280546108c2906118b9565b801561090f5780601f106108e45761010080835404028352916020019161090f565b820191906000526020600020905b8154815290600101906020018083116108f257829003601f168201915b5050505050908060020154905083565b6060600080831180156109345750600c548311155b6109775760405162461bcd60e51b8152602060048201526014602482015273125b9d985b1a590818d85b991a59185d1948125160621b6044820152606401610366565b6000600b6000858152602001908152602001600020604051806060016040529081600082015481526020016001820180546109b1906118b9565b80601f01602080910402602001604051908101604052809291908181526020018280546109dd906118b9565b8015610a2a5780601f106109ff57610100808354040283529160200191610a2a565b820191906000526020600020905b815481529060010190602001808311610a0d57829003601f168201915b505050505081526020016002820154815250509050806020015181604001519250925050915091565b6000546001600160a01b03163314610a7d5760405162461bcd60e51b815260040161036690611878565b600c8054906000610a8d8361185f565b909155505060408051606081018252600c5480825260208083018581526000848601819052928352600b9091529290208151815591519091906001820190610ad5908261193c565b50604091820151600290910155600c5490517fe83b2a43e7e82d975c8a0a6d2f045153c869e111136a34d1889ab7b598e396a39161054f918490611ad2565b60606000600c5467ffffffffffffffff811115610b3357610b3361163d565b604051908082528060200260200182016040528015610b5c578160200160208202803683370190505b50905060015b600c548111610bb6576000818152600b602052604090206002015482610b89600184611af3565b81518110610b9957610b99611b0c565b602090810291909101015280610bae8161185f565b915050610b62565b50919050565b6000546001600160a01b03163314610be65760405162461bcd60e51b815260040161036690611878565b60045460ff1615610c395760405162461bcd60e51b815260206004820152601760248201527f456c656374696f6e20616c726561647920636c6f7365640000000000000000006044820152606401610366565b600254421015610c8b5760405162461bcd60e51b815260206004820152601c60248201527f456c656374696f6e20686173206e6f74207374617274656420796574000000006044820152606401610366565b6004805460ff191660011790556040517f393c4b8e62f1195313cf17dcf00793c668ddfc35881cd8015559c074f6d61e8390610cca9042815260200190565b60405180910390a1565b60018054610ce1906118b9565b80601f0160208091040260200160405190810160405280929190818152602001828054610d0d906118b9565b8015610d5a5780601f10610d2f57610100808354040283529160200191610d5a565b820191906000526020600020905b815481529060010190602001808311610d3d57829003601f168201915b505050505081565b6000546001600160a01b03163314610d8c5760405162461bcd60e51b815260040161036690611878565b6001600160a01b0381166000908152600a6020526040902054610100900460ff1615610dfa5760405162461bcd60e51b815260206004820152601860248201527f506572736f6e2068617320616c726561647920766f74656400000000000000006044820152606401610366565b6001600160a01b0381166000818152600a6020908152604091829020805460ff1916600117905590519182527f0ca65a9f1f88bd7257ac852d1062853358f81cdc56f9634dcbeed6090f8dfb43910161054f565b60608060606000600c5467ffffffffffffffff811115610e7057610e7061163d565b604051908082528060200260200182016040528015610ea357816020015b6060815260200190600190039081610e8e5790505b509350600c5467ffffffffffffffff811115610ec157610ec161163d565b604051908082528060200260200182016040528015610eea578160200160208202803683370190505b50925060015b600c54811161100e576000818152600b602052604090206001018054610f15906118b9565b80601f0160208091040260200160405190810160405280929190818152602001828054610f41906118b9565b8015610f8e5780601f10610f6357610100808354040283529160200191610f8e565b820191906000526020600020905b815481529060010190602001808311610f7157829003601f168201915b505050505085600183610fa19190611af3565b81518110610fb157610fb1611b0c565b6020026020010181905250600b60008281526020019081526020016000206002015484600183610fe19190611af3565b81518110610ff157610ff1611b0c565b6020908102919091010152806110068161185f565b915050610ef0565b5060095460ff16156110b05760058054611027906118b9565b80601f0160208091040260200160405190810160405280929190818152602001828054611053906118b9565b80156110a05780601f10611075576101008083540402835291602001916110a0565b820191906000526020600020905b81548152906001019060200180831161108357829003601f168201915b50505050509150600190506110dd565b5050604080518082019091526011815270139bdd08185b9b9bdd5b98d959081e595d607a1b602082015260005b90919293565b6000546060906001600160a01b031633146111105760405162461bcd60e51b815260040161036690611878565b600354421180611122575060045460ff165b61116e5760405162461bcd60e51b815260206004820152601f60248201527f566f74696e6720706572696f6420686173206e6f7420656e64656420796574006044820152606401610366565b600d546000036111a0575060408051808201909152600d81526c139bc81d9bdd195cc818d85cdd609a1b602082015290565b604080516020810190915260008082529060015b600c548111611290576000818152600b602052604090206002015483101561127e576000818152600b60205260409020600281015460019091018054919450906111fd906118b9565b80601f0160208091040260200160405190810160405280929190818152602001828054611229906118b9565b80156112765780601f1061124b57610100808354040283529160200191611276565b820191906000526020600020905b81548152906001019060200180831161125957829003601f168201915b505050505091505b806112888161185f565b9150506111b4565b508061129b83611443565b60405160200161085e929190611b22565b6000546001600160a01b031633146112d65760405162461bcd60e51b815260040161036690611878565b6001600160a01b0381166000908152600a6020526040902054610100900460ff16156113445760405162461bcd60e51b815260206004820152601f60248201527f43616e6e6f7420756e617574686f72697a6520616674657220766f74696e67006044820152606401610366565b6001600160a01b0381166000818152600a6020908152604091829020805460ff1916905590519182527fff4a9a6864608d4e5a0cdaa278ed76bde0c55aa397fa160990622b6d3df2037b910161054f565b6005805481906113a4906118b9565b80601f01602080910402602001604051908101604052809291908181526020018280546113d0906118b9565b801561141d5780601f106113f25761010080835404028352916020019161141d565b820191906000526020600020905b81548152906001019060200180831161140057829003601f168201915b505050506001830154600284015460038501546004909501549394919390925060ff1685565b60608160000361146a5750506040805180820190915260018152600360fc1b602082015290565b8160005b8115611494578061147e8161185f565b915061148d9050600a83611b8a565b915061146e565b60008167ffffffffffffffff8111156114af576114af61163d565b6040519080825280601f01601f1916602001820160405280156114d9576020820181803683370190505b509050815b8515611566576114ef600182611af3565b905060006114fe600a88611b8a565b61150990600a611bac565b6115139088611af3565b61151e906030611bc3565b905060008160f81b90508084848151811061153b5761153b611b0c565b60200101906001600160f81b031916908160001a90535061155d600a89611b8a565b975050506114de565b50949350505050565b60006020828403121561158157600080fd5b5035919050565b60005b838110156115a357818101518382015260200161158b565b50506000910152565b600081518084526115c4816020860160208601611588565b601f01601f19169290920160200192915050565b6020815260006115eb60208301846115ac565b9392505050565b83815260606020820152600061160b60608301856115ac565b9050826040830152949350505050565b60408152600061162e60408301856115ac565b90508260208301529392505050565b634e487b7160e01b600052604160045260246000fd5b60006020828403121561166557600080fd5b813567ffffffffffffffff8082111561167d57600080fd5b818401915084601f83011261169157600080fd5b8135818111156116a3576116a361163d565b604051601f8201601f19908116603f011681019083821181831017156116cb576116cb61163d565b816040528281528760208487010111156116e457600080fd5b826020860160208301376000928101602001929092525095945050505050565b600081518084526020808501945080840160005b8381101561173457815187529582019590820190600101611718565b509495945050505050565b6020815260006115eb6020830184611704565b60006020828403121561176457600080fd5b81356001600160a01b03811681146115eb57600080fd5b6000608082016080835280875180835260a08501915060a08160051b86010192506020808a0160005b838110156117d257609f198887030185526117c08683516115ac565b955093820193908201906001016117a4565b5050858403818701525050506117e88187611704565b905082810360408401526117fc81866115ac565b915050821515606083015295945050505050565b60a08152600061182360a08301886115ac565b905085602083015284604083015283606083015282151560808301529695505050505050565b634e487b7160e01b600052601160045260246000fd5b60006001820161187157611871611849565b5060010190565b60208082526021908201527f4f6e6c79206f776e65722063616e2063616c6c20746869732066756e6374696f6040820152603760f91b606082015260800190565b600181811c908216806118cd57607f821691505b602082108103610bb657634e487b7160e01b600052602260045260246000fd5b601f82111561193757600081815260208120601f850160051c810160208610156119145750805b601f850160051c820191505b8181101561193357828155600101611920565b5050505b505050565b815167ffffffffffffffff8111156119565761195661163d565b61196a8161196484546118b9565b846118ed565b602080601f83116001811461199f57600084156119875750858301515b600019600386901b1c1916600185901b178555611933565b600085815260208120601f198616915b828110156119ce578886015182559484019460019091019084016119af565b50858210156119ec5787850151600019600388901b60f8161c191681555b5050505050600190811b01905550565b608081526000611a0f60808301876115ac565b6020830195909552506040810192909252606090910152919050565b70027a32324a1a4a0a6102ba4a72722a91d1607d1b815260008451611a57816011850160208901611588565b650103bb4ba34160d51b6011918401918201528451611a7d816017840160208901611588565b6d0103b37ba32b99037baba1037b3160951b601792909101918201528351611aac816025840160208801611588565b6b20746f74616c20766f74657360a01b6025929091019182015260310195945050505050565b828152604060208201526000611aeb60408301846115ac565b949350505050565b81810381811115611b0657611b06611849565b92915050565b634e487b7160e01b600052603260045260246000fd5b6702bb4b73732b91d160c51b815260008351611b45816008850160208801611588565b650103bb4ba34160d51b6008918401918201528351611b6b81600e840160208801611588565b6520766f74657360d01b600e9290910191820152601401949350505050565b600082611ba757634e487b7160e01b600052601260045260246000fd5b500490565b8082028115828204841417611b0657611b06611849565b60ff8181168382160190811115611b0657611b0661184956fea26469706673582212203d40110d6f4340837097faa2d9c075912e1564f3acb598777341f78d6492cd6964736f6c63430008140033",
  "linkReferences": {},
  "deployedLinkReferences": {}
}