{
  "_format": "hh-sol-artifact-1",
  "contractName": "Voting",
  "sourceName": "contracts/election.sol",
  "abi": [
    {
      "inputs": [
        {
          "internalType": "string",
          "name": "_name",
          "type": "string"
        },
        {
          "internalType": "uint256",
          "name": "_votingDuration",
          "type": "uint256"
        }
      ],
      "stateMutability": "nonpayable",
      "type": "constructor"
    },
    {
      "anonymous": false,
      "inputs": [
        {
          "indexed": false,
          "internalType": "uint256",
          "name": "candidateId",
          "type": "uint256"
        },
        {
          "indexed": false,
          "internalType": "string",
          "name": "name",
          "type": "string"
        }
      ],
      "name": "CandidateAdded",
      "type": "event"
    },
    {
      "anonymous": false,
      "inputs": [
        {
          "indexed": false,
          "internalType": "uint256",
          "name": "timestamp",
          "type": "uint256"
        }
      ],
      "name": "ElectionClosed",
      "type": "event"
    },
    {
      "anonymous": false,
      "inputs": [
        {
          "indexed": false,
          "internalType": "address",
          "name": "voter",
          "type": "address"
        },
        {
          "indexed": false,
          "internalType": "uint256",
          "name": "candidateId",
          "type": "uint256"
        }
      ],
      "name": "VoteCast",
      "type": "event"
    },
    {
      "anonymous": false,
      "inputs": [
        {
          "indexed": false,
          "internalType": "address",
          "name": "voter",
          "type": "address"
        }
      ],
      "name": "VoterAuthorized",
      "type": "event"
    },
    {
      "anonymous": false,
      "inputs": [
        {
          "indexed": false,
          "internalType": "address",
          "name": "voter",
          "type": "address"
        }
      ],
      "name": "VoterUnauthorized",
      "type": "event"
    },
    {
      "anonymous": false,
      "inputs": [
        {
          "indexed": false,
          "internalType": "string",
          "name": "winnerName",
          "type": "string"
        },
        {
          "indexed": false,
          "internalType": "uint256",
          "name": "winnerVotes",
          "type": "uint256"
        },
        {
          "indexed": false,
          "internalType": "uint256",
          "name": "totalVotes",
          "type": "uint256"
        },
        {
          "indexed": false,
          "internalType": "uint256",
          "name": "timestamp",
          "type": "uint256"
        }
      ],
      "name": "WinnerAnnounced",
      "type": "event"
    },
    {
      "inputs": [
        {
          "internalType": "string",
          "name": "_name",
          "type": "string"
        }
      ],
      "name": "addCandidate",
      "outputs": [],
      "stateMutability": "nonpayable",
      "type": "function"
    },
    {
      "inputs": [],
      "name": "announceWinner",
      "outputs": [
        {
          "internalType": "string",
          "name": "",
          "type": "string"
        }
      ],
      "stateMutability": "nonpayable",
      "type": "function"
    },
    {
      "inputs": [
        {
          "internalType": "address",
          "name": "_person",
          "type": "address"
        }
      ],
      "name": "authorize",
      "outputs": [],
      "stateMutability": "nonpayable",
      "type": "function"
    },
    {
      "inputs": [],
      "name": "candidateCount",
      "outputs": [
        {
          "internalType": "uint256",
          "name": "",
          "type": "uint256"
        }
      ],
      "stateMutability": "view",
      "type": "function"
    },
    {
      "inputs": [
        {
          "internalType": "uint256",
          "name": "",
          "type": "uint256"
        }
      ],
      "name": "candidates",
      "outputs": [
        {
          "internalType": "uint256",
          "name": "id",
          "type": "uint256"
        },
        {
          "internalType": "string",
          "name": "name",
          "type": "string"
        },
        {
          "internalType": "uint256",
          "name": "voteCount",
          "type": "uint256"
        }
      ],
      "stateMutability": "view",
      "type": "function"
    },
    {
      "inputs": [],
      "name": "closeElection",
      "outputs": [],
      "stateMutability": "nonpayable",
      "type": "function"
    },
    {
      "inputs": [],
      "name": "electionClosed",
      "outputs": [
        {
          "internalType": "bool",
          "name": "",
          "type": "bool"
        }
      ],
      "stateMutability": "view",
      "type": "function"
    },
    {
      "inputs": [],
      "name": "electionName",
      "outputs": [
        {
          "internalType": "string",
          "name": "",
          "type": "string"
        }
      ],
      "stateMutability": "view",
      "type": "function"
    },
    {
      "inputs": [],
      "name": "electionSummary",
      "outputs": [
        {
          "internalType": "string",
          "name": "",
          "type": "string"
        }
      ],
      "stateMutability": "view",
      "type": "function"
    },
    {
      "inputs": [],
      "name": "end",
      "outputs": [
        {
          "internalType": "string",
          "name": "",
          "type": "string"
        }
      ],
      "stateMutability": "view",
      "type": "function"
    },
    {
      "inputs": [],
      "name": "endTime",
      "outputs": [
        {
          "internalType": "uint256",
          "name": "",
          "type": "uint256"
        }
      ],
      "stateMutability": "view",
      "type": "function"
    },
    {
      "inputs": [],
      "name": "finalResult",
      "outputs": [
        {
          "internalType": "string",
          "name": "winnerName",
          "type": "string"
        },
        {
          "internalType": "uint256",
          "name": "winnerVotes",
          "type": "uint256"
        },
        {
          "internalType": "uint256",
          "name": "totalVotes",
          "type": "uint256"
        },
        {
          "internalType": "uint256",
          "name": "timestamp",
          "type": "uint256"
        },
        {
          "internalType": "bool",
          "name": "announced",
          "type": "bool"
        }
      ],
      "stateMutability": "view",
      "type": "function"
    },
    {
      "inputs": [
        {
          "internalType": "uint256",
          "name": "_candidateId",
          "type": "uint256"
        }
      ],
      "name": "getCandidate",
      "outputs": [
        {
          "internalType": "string",
          "name": "",
          "type": "string"
        },
        {
          "internalType": "uint256",
          "name": "",
          "type": "uint256"
        }
      ],
      "stateMutability": "view",
      "type": "function"
    },
    {
      "inputs": [],
      "name": "getDetailedResults",
      "outputs": [
        {
          "internalType": "string[]",
          "name": "candidateNames",
          "type": "string[]"
        },
        {
          "internalType": "uint256[]",
          "name": "voteCounts",
          "type": "uint256[]"
        },
        {
          "internalType": "string",
          "name": "winner",
          "type": "string"
        },
        {
          "internalType": "bool",
          "name": "isFinalized",
          "type": "bool"
        }
      ],
      "stateMutability": "view",
      "type": "function"
    },
    {
      "inputs": [],
      "name": "getElectionStatus",
      "outputs": [
        {
          "internalType": "bool",
          "name": "",
          "type": "bool"
        }
      ],
      "stateMutability": "view",
      "type": "function"
    },
    {
      "inputs": [],
      "name": "getResults",
      "outputs": [
        {
          "internalType": "uint256[]",
          "name": "",
          "type": "uint256[]"
        }
      ],
      "stateMutability": "view",
      "type": "function"
    },
    {
      "inputs": [],
      "name": "officialResultAnnounced",
      "outputs": [
        {
          "internalType": "bool",
          "name": "",
          "type": "bool"
        }
      ],
      "stateMutability": "view",
      "type": "function"
    },
    {
      "inputs": [],
      "name": "officialWinner",
      "outputs": [
        {
          "internalType": "string",
          "name": "",
          "type": "string"
        }
      ],
      "stateMutability": "view",
      "type": "function"
    },
    {
      "inputs": [],
      "name": "officialWinnerVotes",
      "outputs": [
        {
          "internalType": "uint256",
          "name": "",
          "type": "uint256"
        }
      ],
      "stateMutability": "view",
      "type": "function"
    },
    {
      "inputs": [],
      "name": "owner",
      "outputs": [
        {
          "internalType": "address",
          "name": "",
          "type": "address"
        }
      ],
      "stateMutability": "view",
      "type": "function"
    },
    {
      "inputs": [],
      "name": "startTime",
      "outputs": [
        {
          "internalType": "uint256",
          "name": "",
          "type": "uint256"
        }
      ],
      "stateMutability": "view",
      "type": "function"
    },
    {
      "inputs": [],
      "name": "totalVotes",
      "outputs": [
        {
          "internalType": "uint256",
          "name": "",
          "type": "uint256"
        }
      ],
      "stateMutability": "view",
      "type": "function"
    },
    {
      "inputs": [
        {
          "internalType": "address",
          "name": "_person",
          "type": "address"
        }
      ],
      "name": "unauthorize",
      "outputs": [],
      "stateMutability": "nonpayable",
      "type": "function"
    },
    {
      "inputs": [
        {
          "internalType": "uint256",
          "name": "_candidateId",
          "type": "uint256"
        }
      ],
      "name": "vote",
      "outputs": [],
      "stateMutability": "nonpayable",
      "type": "function"
    },
    {
      "inputs": [
        {
          "internalType": "address",
          "name": "",
          "type": "address"
        }
      ],
      "name": "voters",
      "outputs": [
        {
          "internalType": "bool",
          "name": "authorized",
          "type": "bool"
        },
        {
          "internalType": "bool",
          "name": "voted",
          "type": "bool"
        },
        {
          "internalType": "uint256",
          "name": "vote",
          "type": "uint256"
        }
      ],
      "stateMutability": "view",
      "type": "function"
    }
  ],
  "bytecode": "0x60a060405260006080908152600e906200001a908262000168565b506000600f8190556010805460ff19169055604080516020810190915290815260119062000049908262000168565b503480156200005757600080fd5b50604051620020b4380380620020b48339810160408190526200007a9162000234565b600080546001600160a01b0319163317905560016200009a838262000168565b50426002819055620000ae9082906200030f565b60035550506004805460ff1916905562000337565b634e487b7160e01b600052604160045260246000fd5b600181811c90821680620000ee57607f821691505b6020821081036200010f57634e487b7160e01b600052602260045260246000fd5b50919050565b601f8211156200016357600081815260208120601f850160051c810160208610156200013e5750805b601f850160051c820191505b818110156200015f578281556001016200014a565b5050505b505050565b81516001600160401b03811115620001845762000184620000c3565b6200019c81620001958454620000d9565b8462000115565b602080601f831160018114620001d45760008415620001bb5750858301515b600019600386901b1c1916600185901b1785556200015f565b600085815260208120601f198616915b828110156200020557888601518255948401946001909101908401620001e4565b5085821015620002245787850151600019600388901b60f8161c191681555b5050505050600190811b01905550565b600080604083850312156200024857600080fd5b82516001600160401b03808211156200026057600080fd5b818501915085601f8301126200027557600080fd5b8151818111156200028a576200028a620000c3565b604051601f8201601f19908116603f01168101908382118183101715620002b557620002b5620000c3565b81604052828152602093508884848701011115620002d257600080fd5b600091505b82821015620002f65784820184015181830185015290830190620002d7565b6000928101840192909252509401519395939450505050565b808201808211156200033157634e487b7160e01b600052601160045260246000fd5b92915050565b611d6d80620003476000396000f3fe608060405234801561001057600080fd5b50600436106101735760003560e01c806385e8e7a7116100de578063e1e127f611610097578063efbe1c1c11610071578063efbe1c1c1461033e578063f0b37c0414610346578063f3a8286f14610359578063f5d16d411461037257600080fd5b8063e1e127f614610315578063e2b6006e1461031e578063ea5fcc811461033657600080fd5b806385e8e7a7146102685780638da5cb5b14610270578063a3ec138d1461029b578063a9a981a3146102ec578063b6a5d7de146102f5578063cd8a3b131461030857600080fd5b806335b8e8201161013057806335b8e82014610201578063462e91ec146102225780634717f97c146102355780634c901b991461024a5780636c6c32d01461025757806378e979251461025f57600080fd5b80630121b93f146101785780630d15fd771461018d578063122902a6146101a95780632d8cd096146101c15780633197cbb6146101d65780633477ee2e146101df575b600080fd5b61018b61018636600461164f565b61037a565b005b610196600d5481565b6040519081526020015b60405180910390f35b6101b16105bc565b60405190151581526020016101a0565b6101c96105d8565b6040516101a091906116b8565b61019660035481565b6101f26101ed36600461164f565b61093a565b6040516101a0939291906116d2565b61021461020f36600461164f565b6109e5565b6040516101a09291906116fb565b61018b610230366004611733565b610b19565b61023d610bda565b6040516101a0919061181f565b6004546101b19060ff1681565b61018b610c82565b61019660025481565b6101c9610d9a565b600054610283906001600160a01b031681565b6040516001600160a01b0390911681526020016101a0565b6102cf6102a9366004611832565b600a602052600090815260409020805460019091015460ff808316926101009004169083565b6040805193151584529115156020840152908201526060016101a0565b610196600c5481565b61018b610303366004611832565b610e28565b6010546101b19060ff1681565b610196600f5481565b610326610f14565b6040516101a0949392919061185b565b6101c96111a9565b6101c96111b6565b61018b610354366004611832565b61137f565b610361611468565b6040516101a09594939291906118f0565b6101c9611516565b6002544210156103d15760405162461bcd60e51b815260206004820152601a60248201527f566f74696e6720686173206e6f7420737461727465642079657400000000000060448201526064015b60405180910390fd5b60035442111580156103e6575060045460ff16155b6104255760405162461bcd60e51b815260206004820152601060248201526f159bdd1a5b99c81a185cc8195b99195960821b60448201526064016103c8565b336000908152600a602052604090205460ff1661047d5760405162461bcd60e51b81526020600482015260166024820152754e6f7420617574686f72697a656420746f20766f746560501b60448201526064016103c8565b336000908152600a6020526040902054610100900460ff16156104d25760405162461bcd60e51b815260206004820152600d60248201526c105b1c9958591e481d9bdd1959609a1b60448201526064016103c8565b6000811180156104e45750600c548111155b6105275760405162461bcd60e51b8152602060048201526014602482015273125b9d985b1a590818d85b991a59185d1948125160621b60448201526064016103c8565b336000908152600a60209081526040808320805461ff001916610100178155600101849055838352600b90915281206002018054916105658361193f565b9091555050600d805490600061057a8361193f565b909155505060408051338152602081018390527fa36cc2bebb74db33e9f88110a07ef56e1b31b24b4c4f51b54b1664266e29f45b91015b60405180910390a150565b600060035442111580156105d3575060045460ff16155b905090565b6000546060906001600160a01b031633146106055760405162461bcd60e51b81526004016103c890611958565b600354421180610617575060045460ff165b6106635760405162461bcd60e51b815260206004820152601960248201527f456c656374696f6e206973207374696c6c206f6e676f696e670000000000000060448201526064016103c8565b60095460ff16156106b65760405162461bcd60e51b815260206004820152601860248201527f57696e6e657220616c726561647920616e6e6f756e636564000000000000000060448201526064016103c8565b6000600d54116106f85760405162461bcd60e51b815260206004820152600d60248201526c139bc81d9bdd195cc818d85cdd609a1b60448201526064016103c8565b604080516020810190915260008082529060015b600c5481116107e8576000818152600b60205260409020600201548310156107d6576000818152600b602052604090206002810154600190910180549194509061075590611999565b80601f016020809104026020016040519081016040528092919081815260200182805461078190611999565b80156107ce5780601f106107a3576101008083540402835291602001916107ce565b820191906000526020600020905b8154815290600101906020018083116107b157829003601f168201915b505050505091505b806107e08161193f565b91505061070c565b506040805160a08101825282815260208101849052600d5491810191909152426060820152600160808201526005806108218482611a1c565b506020820151600182015560408201516002820155606082015160038201556080909101516004909101805460ff1916911515919091179055600e6108668282611a1c565b50600f8290556010805460ff191660011790558061088383611523565b61088e600d54611523565b6040516020016108a093929190611adc565b604051602081830303815290604052601190816108bd9190611a1c565b507fee03e894d531694970055d59446b0d72f846db82d4d20968bc61c11b8090ff7a8183600d54426040516108f59493929190611b57565b60405180910390a18061090783611523565b610912600d54611523565b60405160200161092493929190611b86565b6040516020818303038152906040529250505090565b600b602052600090815260409020805460018201805491929161095c90611999565b80601f016020809104026020016040519081016040528092919081815260200182805461098890611999565b80156109d55780601f106109aa576101008083540402835291602001916109d5565b820191906000526020600020905b8154815290600101906020018083116109b857829003601f168201915b5050505050908060020154905083565b6060600080831180156109fa5750600c548311155b610a3d5760405162461bcd60e51b8152602060048201526014602482015273125b9d985b1a590818d85b991a59185d1948125160621b60448201526064016103c8565b6000600b600085815260200190815260200160002060405180606001604052908160008201548152602001600182018054610a7790611999565b80601f0160208091040260200160405190810160405280929190818152602001828054610aa390611999565b8015610af05780601f10610ac557610100808354040283529160200191610af0565b820191906000526020600020905b815481529060010190602001808311610ad357829003601f168201915b505050505081526020016002820154815250509050806020015181604001519250925050915091565b6000546001600160a01b03163314610b435760405162461bcd60e51b81526004016103c890611958565b600c8054906000610b538361193f565b909155505060408051606081018252600c5480825260208083018581526000848601819052928352600b9091529290208151815591519091906001820190610b9b9082611a1c565b50604091820151600290910155600c5490517fe83b2a43e7e82d975c8a0a6d2f045153c869e111136a34d1889ab7b598e396a3916105b1918490611c2d565b60606000600c5467ffffffffffffffff811115610bf957610bf961171d565b604051908082528060200260200182016040528015610c22578160200160208202803683370190505b50905060015b600c548111610c7c576000818152600b602052604090206002015482610c4f600184611c4e565b81518110610c5f57610c5f611c67565b602090810291909101015280610c748161193f565b915050610c28565b50919050565b6000546001600160a01b03163314610cac5760405162461bcd60e51b81526004016103c890611958565b60045460ff1615610cff5760405162461bcd60e51b815260206004820152601760248201527f456c656374696f6e20616c726561647920636c6f73656400000000000000000060448201526064016103c8565b600254421015610d515760405162461bcd60e51b815260206004820152601c60248201527f456c656374696f6e20686173206e6f742073746172746564207965740000000060448201526064016103c8565b6004805460ff191660011790556040517f393c4b8e62f1195313cf17dcf00793c668ddfc35881cd8015559c074f6d61e8390610d909042815260200190565b60405180910390a1565b60018054610da790611999565b80601f0160208091040260200160405190810160405280929190818152602001828054610dd390611999565b8015610e205780601f10610df557610100808354040283529160200191610e20565b820191906000526020600020905b815481529060010190602001808311610e0357829003601f168201915b505050505081565b6000546001600160a01b03163314610e525760405162461bcd60e51b81526004016103c890611958565b6001600160a01b0381166000908152600a6020526040902054610100900460ff1615610ec05760405162461bcd60e51b815260206004820152601860248201527f506572736f6e2068617320616c726561647920766f746564000000000000000060448201526064016103c8565b6001600160a01b0381166000818152600a6020908152604091829020805460ff1916600117905590519182527f0ca65a9f1f88bd7257ac852d1062853358f81cdc56f9634dcbeed6090f8dfb4391016105b1565b60608060606000600c5467ffffffffffffffff811115610f3657610f3661171d565b604051908082528060200260200182016040528015610f6957816020015b6060815260200190600190039081610f545790505b509350600c5467ffffffffffffffff811115610f8757610f8761171d565b604051908082528060200260200182016040528015610fb0578160200160208202803683370190505b50925060015b600c5481116110d4576000818152600b602052604090206001018054610fdb90611999565b80601f016020809104026020016040519081016040528092919081815260200182805461100790611999565b80156110545780601f1061102957610100808354040283529160200191611054565b820191906000526020600020905b81548152906001019060200180831161103757829003601f168201915b5050505050856001836110679190611c4e565b8151811061107757611077611c67565b6020026020010181905250600b600082815260200190815260200160002060020154846001836110a79190611c4e565b815181106110b7576110b7611c67565b6020908102919091010152806110cc8161193f565b915050610fb6565b5060095460ff161561117657600580546110ed90611999565b80601f016020809104026020016040519081016040528092919081815260200182805461111990611999565b80156111665780601f1061113b57610100808354040283529160200191611166565b820191906000526020600020905b81548152906001019060200180831161114957829003601f168201915b50505050509150600190506111a3565b5050604080518082019091526011815270139bdd08185b9b9bdd5b98d959081e595d607a1b602082015260005b90919293565b60118054610da790611999565b6000546060906001600160a01b031633146111e35760405162461bcd60e51b81526004016103c890611958565b6003544211806111f5575060045460ff165b6112415760405162461bcd60e51b815260206004820152601f60248201527f566f74696e6720706572696f6420686173206e6f7420656e646564207965740060448201526064016103c8565b600d54600003611273575060408051808201909152600d81526c139bc81d9bdd195cc818d85cdd609a1b602082015290565b604080516020810190915260008082529060015b600c548111611363576000818152600b6020526040902060020154831015611351576000818152600b60205260409020600281015460019091018054919450906112d090611999565b80601f01602080910402602001604051908101604052809291908181526020018280546112fc90611999565b80156113495780601f1061131e57610100808354040283529160200191611349565b820191906000526020600020905b81548152906001019060200180831161132c57829003601f168201915b505050505091505b8061135b8161193f565b915050611287565b508061136e83611523565b604051602001610924929190611c7d565b6000546001600160a01b031633146113a95760405162461bcd60e51b81526004016103c890611958565b6001600160a01b0381166000908152600a6020526040902054610100900460ff16156114175760405162461bcd60e51b815260206004820152601f60248201527f43616e6e6f7420756e617574686f72697a6520616674657220766f74696e670060448201526064016103c8565b6001600160a01b0381166000818152600a6020908152604091829020805460ff1916905590519182527fff4a9a6864608d4e5a0cdaa278ed76bde0c55aa397fa160990622b6d3df2037b91016105b1565b60058054819061147790611999565b80601f01602080910402602001604051908101604052809291908181526020018280546114a390611999565b80156114f05780601f106114c5576101008083540402835291602001916114f0565b820191906000526020600020905b8154815290600101906020018083116114d357829003601f168201915b505050506001830154600284015460038501546004909501549394919390925060ff1685565b600e8054610da790611999565b60608160000361154a5750506040805180820190915260018152600360fc1b602082015290565b8160005b8115611574578061155e8161193f565b915061156d9050600a83611ce5565b915061154e565b60008167ffffffffffffffff81111561158f5761158f61171d565b6040519080825280601f01601f1916602001820160405280156115b9576020820181803683370190505b509050815b8515611646576115cf600182611c4e565b905060006115de600a88611ce5565b6115e990600a611d07565b6115f39088611c4e565b6115fe906030611d1e565b905060008160f81b90508084848151811061161b5761161b611c67565b60200101906001600160f81b031916908160001a90535061163d600a89611ce5565b975050506115be565b50949350505050565b60006020828403121561166157600080fd5b5035919050565b60005b8381101561168357818101518382015260200161166b565b50506000910152565b600081518084526116a4816020860160208601611668565b601f01601f19169290920160200192915050565b6020815260006116cb602083018461168c565b9392505050565b8381526060602082015260006116eb606083018561168c565b9050826040830152949350505050565b60408152600061170e604083018561168c565b90508260208301529392505050565b634e487b7160e01b600052604160045260246000fd5b60006020828403121561174557600080fd5b813567ffffffffffffffff8082111561175d57600080fd5b818401915084601f83011261177157600080fd5b8135818111156117835761178361171d565b604051601f8201601f19908116603f011681019083821181831017156117ab576117ab61171d565b816040528281528760208487010111156117c457600080fd5b826020860160208301376000928101602001929092525095945050505050565b600081518084526020808501945080840160005b83811015611814578151875295820195908201906001016117f8565b509495945050505050565b6020815260006116cb60208301846117e4565b60006020828403121561184457600080fd5b81356001600160a01b03811681146116cb57600080fd5b6000608082016080835280875180835260a08501915060a08160051b86010192506020808a0160005b838110156118b257609f198887030185526118a086835161168c565b95509382019390820190600101611884565b5050858403818701525050506118c881876117e4565b905082810360408401526118dc818661168c565b915050821515606083015295945050505050565b60a08152600061190360a083018861168c565b905085602083015284604083015283606083015282151560808301529695505050505050565b634e487b7160e01b600052601160045260246000fd5b60006001820161195157611951611929565b5060010190565b60208082526021908201527f4f6e6c79206f776e65722063616e2063616c6c20746869732066756e6374696f6040820152603760f91b606082015260800190565b600181811c908216806119ad57607f821691505b602082108103610c7c57634e487b7160e01b600052602260045260246000fd5b601f821115611a1757600081815260208120601f850160051c810160208610156119f45750805b601f850160051c820191505b81811015611a1357828155600101611a00565b5050505b505050565b815167ffffffffffffffff811115611a3657611a3661171d565b611a4a81611a448454611999565b846119cd565b602080601f831160018114611a7f5760008415611a675750858301515b600019600386901b1c1916600185901b178555611a13565b600085815260208120601f198616915b82811015611aae57888601518255948401946001909101908401611a8f565b5085821015611acc5787850151600019600388901b60f8161c191681555b5050505050600190811b01905550565b60008451611aee818460208901611668565b690102ba7a7103bb4ba34160b51b9083019081528451611b1581600a840160208901611668565b602f60f81b600a92909101918201528351611b3781600b840160208801611668565b6520766f74657360d01b600b929091019182015260110195945050505050565b608081526000611b6a608083018761168c565b6020830195909552506040810192909252606090910152919050565b70027a32324a1a4a0a6102ba4a72722a91d1607d1b815260008451611bb2816011850160208901611668565b650103bb4ba34160d51b6011918401918201528451611bd8816017840160208901611668565b6d0103b37ba32b99037baba1037b3160951b601792909101918201528351611c07816025840160208801611668565b6b20746f74616c20766f74657360a01b6025929091019182015260310195945050505050565b828152604060208201526000611c46604083018461168c565b949350505050565b81810381811115611c6157611c61611929565b92915050565b634e487b7160e01b600052603260045260246000fd5b6702bb4b73732b91d160c51b815260008351611ca0816008850160208801611668565b650103bb4ba34160d51b6008918401918201528351611cc681600e840160208801611668565b6520766f74657360d01b600e9290910191820152601401949350505050565b600082611d0257634e487b7160e01b600052601260045260246000fd5b500490565b8082028115828204841417611c6157611c61611929565b60ff8181168382160190811115611c6157611c6161192956fea264697066735822122006c5740af7e0a883f139e501e6742e7c1918f69fecc2569ae8429077e2adfbc664736f6c63430008140033",
  "linkReferences": {},
  "deployedLinkReferences": {}
}